{
	"TryUSelf/PaymentSplitter/PaymentSplitter.sol": {
		"PaymentSplitter": {
			"abi": [
				{
					"inputs": [
						{
							"internalType": "address[]",
							"name": "_payees",
							"type": "address[]"
						},
						{
							"internalType": "uint256[]",
							"name": "_shares",
							"type": "uint256[]"
						}
					],
					"stateMutability": "nonpayable",
					"type": "constructor"
				},
				{
					"anonymous": false,
					"inputs": [
						{
							"indexed": false,
							"internalType": "address",
							"name": "new_payee",
							"type": "address"
						},
						{
							"indexed": false,
							"internalType": "uint256",
							"name": "shares",
							"type": "uint256"
						}
					],
					"name": "PayeeAdded",
					"type": "event"
				},
				{
					"anonymous": false,
					"inputs": [
						{
							"indexed": false,
							"internalType": "address",
							"name": "to_account",
							"type": "address"
						},
						{
							"indexed": false,
							"internalType": "uint256",
							"name": "value",
							"type": "uint256"
						}
					],
					"name": "PaymentReceived",
					"type": "event"
				},
				{
					"anonymous": false,
					"inputs": [
						{
							"indexed": false,
							"internalType": "address",
							"name": "from_account",
							"type": "address"
						},
						{
							"indexed": false,
							"internalType": "uint256",
							"name": "value",
							"type": "uint256"
						}
					],
					"name": "PaymentReleased",
					"type": "event"
				},
				{
					"inputs": [
						{
							"internalType": "address",
							"name": "_payee",
							"type": "address"
						},
						{
							"internalType": "uint256",
							"name": "_share",
							"type": "uint256"
						}
					],
					"name": "_addPayee",
					"outputs": [],
					"stateMutability": "nonpayable",
					"type": "function"
				},
				{
					"inputs": [
						{
							"internalType": "uint256",
							"name": "",
							"type": "uint256"
						}
					],
					"name": "payees",
					"outputs": [
						{
							"internalType": "address",
							"name": "",
							"type": "address"
						}
					],
					"stateMutability": "view",
					"type": "function"
				},
				{
					"inputs": [
						{
							"internalType": "address",
							"name": "_payee",
							"type": "address"
						},
						{
							"internalType": "uint256",
							"name": "_total_received",
							"type": "uint256"
						},
						{
							"internalType": "uint256",
							"name": "_released_value",
							"type": "uint256"
						}
					],
					"name": "pendingPayment",
					"outputs": [
						{
							"internalType": "uint256",
							"name": "",
							"type": "uint256"
						}
					],
					"stateMutability": "view",
					"type": "function"
				},
				{
					"inputs": [
						{
							"internalType": "address payable",
							"name": "_payee",
							"type": "address"
						}
					],
					"name": "releasable",
					"outputs": [
						{
							"internalType": "uint256",
							"name": "",
							"type": "uint256"
						}
					],
					"stateMutability": "view",
					"type": "function"
				},
				{
					"inputs": [
						{
							"internalType": "address payable",
							"name": "_payee",
							"type": "address"
						}
					],
					"name": "release",
					"outputs": [],
					"stateMutability": "nonpayable",
					"type": "function"
				},
				{
					"inputs": [
						{
							"internalType": "address",
							"name": "",
							"type": "address"
						}
					],
					"name": "released",
					"outputs": [
						{
							"internalType": "uint256",
							"name": "",
							"type": "uint256"
						}
					],
					"stateMutability": "view",
					"type": "function"
				},
				{
					"inputs": [
						{
							"internalType": "address",
							"name": "",
							"type": "address"
						}
					],
					"name": "shares",
					"outputs": [
						{
							"internalType": "uint256",
							"name": "",
							"type": "uint256"
						}
					],
					"stateMutability": "view",
					"type": "function"
				},
				{
					"inputs": [],
					"name": "totalReleased",
					"outputs": [
						{
							"internalType": "uint256",
							"name": "",
							"type": "uint256"
						}
					],
					"stateMutability": "view",
					"type": "function"
				},
				{
					"inputs": [],
					"name": "totalShares",
					"outputs": [
						{
							"internalType": "uint256",
							"name": "",
							"type": "uint256"
						}
					],
					"stateMutability": "view",
					"type": "function"
				},
				{
					"stateMutability": "payable",
					"type": "receive"
				}
			],
			"devdoc": {
				"details": "这个合约会把收到的ETH按事先定好的份额分给几个账户。收到ETH会存在分账合约中，需要每个受益人调用release()函数来领取。",
				"kind": "dev",
				"methods": {},
				"version": 1
			},
			"evm": {
				"assembly": "    /* \"TryUSelf/PaymentSplitter/PaymentSplitter.sol\":265:2871  contract PaymentSplitter{... */\n  mstore(0x40, 0x80)\n    /* \"TryUSelf/PaymentSplitter/PaymentSplitter.sol\":747:1192  constructor (... */\n  callvalue\n  dup1\n  iszero\n  tag_1\n  jumpi\n  0x00\n  dup1\n  revert\ntag_1:\n  pop\n  mload(0x40)\n  sub(codesize, bytecodeSize)\n  dup1\n  bytecodeSize\n  dup4\n  codecopy\n  dup2\n  dup2\n  add\n  0x40\n  mstore\n  dup2\n  add\n  swap1\n  tag_2\n  swap2\n  swap1\n  tag_3\n  jump\t// in\ntag_2:\n    /* \"TryUSelf/PaymentSplitter/PaymentSplitter.sol\":889:896  _shares */\n  dup1\n    /* \"TryUSelf/PaymentSplitter/PaymentSplitter.sol\":889:903  _shares.length */\n  mload\n    /* \"TryUSelf/PaymentSplitter/PaymentSplitter.sol\":871:878  _payees */\n  dup3\n    /* \"TryUSelf/PaymentSplitter/PaymentSplitter.sol\":871:885  _payees.length */\n  mload\n    /* \"TryUSelf/PaymentSplitter/PaymentSplitter.sol\":871:903  _payees.length == _shares.length */\n  eq\n    /* \"TryUSelf/PaymentSplitter/PaymentSplitter.sol\":849:971  require(... */\n  tag_6\n  jumpi\n  mload(0x40)\n  0x08c379a000000000000000000000000000000000000000000000000000000000\n  dup2\n  mstore\n  0x04\n  add\n  tag_7\n  swap1\n  tag_8\n  jump\t// in\ntag_7:\n  mload(0x40)\n  dup1\n  swap2\n  sub\n  swap1\n  revert\ntag_6:\n    /* \"TryUSelf/PaymentSplitter/PaymentSplitter.sol\":1021:1022  0 */\n  0x00\n    /* \"TryUSelf/PaymentSplitter/PaymentSplitter.sol\":1004:1011  _payees */\n  dup3\n    /* \"TryUSelf/PaymentSplitter/PaymentSplitter.sol\":1004:1018  _payees.length */\n  mload\n    /* \"TryUSelf/PaymentSplitter/PaymentSplitter.sol\":1004:1022  _payees.length > 0 */\n  gt\n    /* \"TryUSelf/PaymentSplitter/PaymentSplitter.sol\":982:1061  require(... */\n  tag_9\n  jumpi\n  mload(0x40)\n  0x08c379a000000000000000000000000000000000000000000000000000000000\n  dup2\n  mstore\n  0x04\n  add\n  tag_10\n  swap1\n  tag_11\n  jump\t// in\ntag_10:\n  mload(0x40)\n  dup1\n  swap2\n  sub\n  swap1\n  revert\ntag_9:\n    /* \"TryUSelf/PaymentSplitter/PaymentSplitter.sol\":1077:1086  uint256 i */\n  0x00\n    /* \"TryUSelf/PaymentSplitter/PaymentSplitter.sol\":1072:1175  for (uint256 i = 0; i < _shares.length;i++){... */\ntag_12:\n    /* \"TryUSelf/PaymentSplitter/PaymentSplitter.sol\":1096:1103  _shares */\n  dup2\n    /* \"TryUSelf/PaymentSplitter/PaymentSplitter.sol\":1096:1110  _shares.length */\n  mload\n    /* \"TryUSelf/PaymentSplitter/PaymentSplitter.sol\":1092:1093  i */\n  dup2\n    /* \"TryUSelf/PaymentSplitter/PaymentSplitter.sol\":1092:1110  i < _shares.length */\n  lt\n    /* \"TryUSelf/PaymentSplitter/PaymentSplitter.sol\":1072:1175  for (uint256 i = 0; i < _shares.length;i++){... */\n  iszero\n  tag_13\n  jumpi\n    /* \"TryUSelf/PaymentSplitter/PaymentSplitter.sol\":1130:1163  _addPayee(_payees[i], _shares[i]) */\n  tag_15\n    /* \"TryUSelf/PaymentSplitter/PaymentSplitter.sol\":1140:1147  _payees */\n  dup4\n    /* \"TryUSelf/PaymentSplitter/PaymentSplitter.sol\":1148:1149  i */\n  dup3\n    /* \"TryUSelf/PaymentSplitter/PaymentSplitter.sol\":1140:1150  _payees[i] */\n  dup2\n  mload\n  dup2\n  lt\n  tag_16\n  jumpi\n  tag_17\n  tag_18\n  jump\t// in\ntag_17:\ntag_16:\n  0x20\n  mul\n  0x20\n  add\n  add\n  mload\n    /* \"TryUSelf/PaymentSplitter/PaymentSplitter.sol\":1152:1159  _shares */\n  dup4\n    /* \"TryUSelf/PaymentSplitter/PaymentSplitter.sol\":1160:1161  i */\n  dup4\n    /* \"TryUSelf/PaymentSplitter/PaymentSplitter.sol\":1152:1162  _shares[i] */\n  dup2\n  mload\n  dup2\n  lt\n  tag_19\n  jumpi\n  tag_20\n  tag_18\n  jump\t// in\ntag_20:\ntag_19:\n  0x20\n  mul\n  0x20\n  add\n  add\n  mload\n    /* \"TryUSelf/PaymentSplitter/PaymentSplitter.sol\":1130:1139  _addPayee */\n  shl(0x20, tag_21)\n    /* \"TryUSelf/PaymentSplitter/PaymentSplitter.sol\":1130:1163  _addPayee(_payees[i], _shares[i]) */\n  0x20\n  shr\n  jump\t// in\ntag_15:\n    /* \"TryUSelf/PaymentSplitter/PaymentSplitter.sol\":1111:1114  i++ */\n  dup1\n  dup1\n  0x01\n  add\n  swap2\n  pop\n  pop\n    /* \"TryUSelf/PaymentSplitter/PaymentSplitter.sol\":1072:1175  for (uint256 i = 0; i < _shares.length;i++){... */\n  jump(tag_12)\ntag_13:\n  pop\n    /* \"TryUSelf/PaymentSplitter/PaymentSplitter.sol\":747:1192  constructor (... */\n  pop\n  pop\n    /* \"TryUSelf/PaymentSplitter/PaymentSplitter.sol\":265:2871  contract PaymentSplitter{... */\n  jump(tag_22)\n    /* \"TryUSelf/PaymentSplitter/PaymentSplitter.sol\":2109:2600  function _addPayee(... */\ntag_21:\n    /* \"TryUSelf/PaymentSplitter/PaymentSplitter.sol\":2243:2244  0 */\n  0x00\n    /* \"TryUSelf/PaymentSplitter/PaymentSplitter.sol\":2225:2245  _payee != address(0) */\n  0xffffffffffffffffffffffffffffffffffffffff\n  and\n    /* \"TryUSelf/PaymentSplitter/PaymentSplitter.sol\":2225:2231  _payee */\n  dup3\n    /* \"TryUSelf/PaymentSplitter/PaymentSplitter.sol\":2225:2245  _payee != address(0) */\n  0xffffffffffffffffffffffffffffffffffffffff\n  and\n  sub\n    /* \"TryUSelf/PaymentSplitter/PaymentSplitter.sol\":2203:2305  require(... */\n  tag_24\n  jumpi\n  mload(0x40)\n  0x08c379a000000000000000000000000000000000000000000000000000000000\n  dup2\n  mstore\n  0x04\n  add\n  tag_25\n  swap1\n  tag_26\n  jump\t// in\ntag_25:\n  mload(0x40)\n  dup1\n  swap2\n  sub\n  swap1\n  revert\ntag_24:\n    /* \"TryUSelf/PaymentSplitter/PaymentSplitter.sol\":2347:2348  0 */\n  0x00\n    /* \"TryUSelf/PaymentSplitter/PaymentSplitter.sol\":2338:2344  _share */\n  dup2\n    /* \"TryUSelf/PaymentSplitter/PaymentSplitter.sol\":2338:2348  _share > 0 */\n  gt\n    /* \"TryUSelf/PaymentSplitter/PaymentSplitter.sol\":2316:2392  require(... */\n  tag_27\n  jumpi\n  mload(0x40)\n  0x08c379a000000000000000000000000000000000000000000000000000000000\n  dup2\n  mstore\n  0x04\n  add\n  tag_28\n  swap1\n  tag_29\n  jump\t// in\ntag_28:\n  mload(0x40)\n  dup1\n  swap2\n  sub\n  swap1\n  revert\ntag_27:\n    /* \"TryUSelf/PaymentSplitter/PaymentSplitter.sol\":2443:2444  0 */\n  0x00\n    /* \"TryUSelf/PaymentSplitter/PaymentSplitter.sol\":2425:2431  shares */\n  0x03\n    /* \"TryUSelf/PaymentSplitter/PaymentSplitter.sol\":2425:2439  shares[_payee] */\n  0x00\n    /* \"TryUSelf/PaymentSplitter/PaymentSplitter.sol\":2432:2438  _payee */\n  dup5\n    /* \"TryUSelf/PaymentSplitter/PaymentSplitter.sol\":2425:2439  shares[_payee] */\n  0xffffffffffffffffffffffffffffffffffffffff\n  and\n  0xffffffffffffffffffffffffffffffffffffffff\n  and\n  dup2\n  mstore\n  0x20\n  add\n  swap1\n  dup2\n  mstore\n  0x20\n  add\n  0x00\n  keccak256\n  sload\n    /* \"TryUSelf/PaymentSplitter/PaymentSplitter.sol\":2425:2444  shares[_payee] == 0 */\n  eq\n    /* \"TryUSelf/PaymentSplitter/PaymentSplitter.sol\":2403:2496  require(... */\n  tag_30\n  jumpi\n  mload(0x40)\n  0x08c379a000000000000000000000000000000000000000000000000000000000\n  dup2\n  mstore\n  0x04\n  add\n  tag_31\n  swap1\n  tag_32\n  jump\t// in\ntag_31:\n  mload(0x40)\n  dup1\n  swap2\n  sub\n  swap1\n  revert\ntag_30:\n    /* \"TryUSelf/PaymentSplitter/PaymentSplitter.sol\":2524:2530  _share */\n  dup1\n    /* \"TryUSelf/PaymentSplitter/PaymentSplitter.sol\":2507:2513  shares */\n  0x03\n    /* \"TryUSelf/PaymentSplitter/PaymentSplitter.sol\":2507:2521  shares[_payee] */\n  0x00\n    /* \"TryUSelf/PaymentSplitter/PaymentSplitter.sol\":2514:2520  _payee */\n  dup5\n    /* \"TryUSelf/PaymentSplitter/PaymentSplitter.sol\":2507:2521  shares[_payee] */\n  0xffffffffffffffffffffffffffffffffffffffff\n  and\n  0xffffffffffffffffffffffffffffffffffffffff\n  and\n  dup2\n  mstore\n  0x20\n  add\n  swap1\n  dup2\n  mstore\n  0x20\n  add\n  0x00\n  keccak256\n    /* \"TryUSelf/PaymentSplitter/PaymentSplitter.sol\":2507:2530  shares[_payee] = _share */\n  dup2\n  swap1\n  sstore\n  pop\n    /* \"TryUSelf/PaymentSplitter/PaymentSplitter.sol\":2541:2547  payees */\n  0x02\n    /* \"TryUSelf/PaymentSplitter/PaymentSplitter.sol\":2553:2559  _payee */\n  dup3\n    /* \"TryUSelf/PaymentSplitter/PaymentSplitter.sol\":2541:2560  payees.push(_payee) */\n  swap1\n  dup1\n  0x01\n  dup2\n  sload\n  add\n  dup1\n  dup3\n  sstore\n  dup1\n  swap2\n  pop\n  pop\n  0x01\n  swap1\n  sub\n  swap1\n  0x00\n  mstore\n  keccak256(0x00, 0x20)\n  add\n  0x00\n  swap1\n  swap2\n  swap1\n  swap2\n  swap1\n  swap2\n  0x0100\n  exp\n  dup2\n  sload\n  dup2\n  0xffffffffffffffffffffffffffffffffffffffff\n  mul\n  not\n  and\n  swap1\n  dup4\n  0xffffffffffffffffffffffffffffffffffffffff\n  and\n  mul\n  or\n  swap1\n  sstore\n  pop\n    /* \"TryUSelf/PaymentSplitter/PaymentSplitter.sol\":2586:2592  _share */\n  dup1\n    /* \"TryUSelf/PaymentSplitter/PaymentSplitter.sol\":2571:2582  totalShares */\n  0x00\n  dup1\n    /* \"TryUSelf/PaymentSplitter/PaymentSplitter.sol\":2571:2592  totalShares += _share */\n  dup3\n  dup3\n  sload\n  tag_34\n  swap2\n  swap1\n  tag_35\n  jump\t// in\ntag_34:\n  swap3\n  pop\n  pop\n  dup2\n  swap1\n  sstore\n  pop\n    /* \"TryUSelf/PaymentSplitter/PaymentSplitter.sol\":2109:2600  function _addPayee(... */\n  pop\n  pop\n  jump\t// out\n    /* \"#utility.yul\":7:82   */\ntag_36:\n    /* \"#utility.yul\":40:46   */\n  0x00\n    /* \"#utility.yul\":73:75   */\n  0x40\n    /* \"#utility.yul\":67:76   */\n  mload\n    /* \"#utility.yul\":57:76   */\n  swap1\n  pop\n    /* \"#utility.yul\":7:82   */\n  swap1\n  jump\t// out\n    /* \"#utility.yul\":88:205   */\ntag_37:\n    /* \"#utility.yul\":197:198   */\n  0x00\n    /* \"#utility.yul\":194:195   */\n  dup1\n    /* \"#utility.yul\":187:199   */\n  revert\n    /* \"#utility.yul\":211:328   */\ntag_38:\n    /* \"#utility.yul\":320:321   */\n  0x00\n    /* \"#utility.yul\":317:318   */\n  dup1\n    /* \"#utility.yul\":310:322   */\n  revert\n    /* \"#utility.yul\":334:451   */\ntag_39:\n    /* \"#utility.yul\":443:444   */\n  0x00\n    /* \"#utility.yul\":440:441   */\n  dup1\n    /* \"#utility.yul\":433:445   */\n  revert\n    /* \"#utility.yul\":457:559   */\ntag_40:\n    /* \"#utility.yul\":498:504   */\n  0x00\n    /* \"#utility.yul\":549:551   */\n  0x1f\n    /* \"#utility.yul\":545:552   */\n  not\n    /* \"#utility.yul\":540:542   */\n  0x1f\n    /* \"#utility.yul\":533:538   */\n  dup4\n    /* \"#utility.yul\":529:543   */\n  add\n    /* \"#utility.yul\":525:553   */\n  and\n    /* \"#utility.yul\":515:553   */\n  swap1\n  pop\n    /* \"#utility.yul\":457:559   */\n  swap2\n  swap1\n  pop\n  jump\t// out\n    /* \"#utility.yul\":565:745   */\ntag_41:\n    /* \"#utility.yul\":613:690   */\n  0x4e487b7100000000000000000000000000000000000000000000000000000000\n    /* \"#utility.yul\":610:611   */\n  0x00\n    /* \"#utility.yul\":603:691   */\n  mstore\n    /* \"#utility.yul\":710:714   */\n  0x41\n    /* \"#utility.yul\":707:708   */\n  0x04\n    /* \"#utility.yul\":700:715   */\n  mstore\n    /* \"#utility.yul\":734:738   */\n  0x24\n    /* \"#utility.yul\":731:732   */\n  0x00\n    /* \"#utility.yul\":724:739   */\n  revert\n    /* \"#utility.yul\":751:1032   */\ntag_42:\n    /* \"#utility.yul\":834:861   */\n  tag_78\n    /* \"#utility.yul\":856:860   */\n  dup3\n    /* \"#utility.yul\":834:861   */\n  tag_40\n  jump\t// in\ntag_78:\n    /* \"#utility.yul\":826:832   */\n  dup2\n    /* \"#utility.yul\":822:862   */\n  add\n    /* \"#utility.yul\":964:970   */\n  dup2\n    /* \"#utility.yul\":952:962   */\n  dup2\n    /* \"#utility.yul\":949:971   */\n  lt\n    /* \"#utility.yul\":928:946   */\n  0xffffffffffffffff\n    /* \"#utility.yul\":916:926   */\n  dup3\n    /* \"#utility.yul\":913:947   */\n  gt\n    /* \"#utility.yul\":910:972   */\n  or\n    /* \"#utility.yul\":907:995   */\n  iszero\n  tag_79\n  jumpi\n    /* \"#utility.yul\":975:993   */\n  tag_80\n  tag_41\n  jump\t// in\ntag_80:\n    /* \"#utility.yul\":907:995   */\ntag_79:\n    /* \"#utility.yul\":1015:1025   */\n  dup1\n    /* \"#utility.yul\":1011:1013   */\n  0x40\n    /* \"#utility.yul\":1004:1026   */\n  mstore\n    /* \"#utility.yul\":794:1032   */\n  pop\n    /* \"#utility.yul\":751:1032   */\n  pop\n  pop\n  jump\t// out\n    /* \"#utility.yul\":1038:1167   */\ntag_43:\n    /* \"#utility.yul\":1072:1078   */\n  0x00\n    /* \"#utility.yul\":1099:1119   */\n  tag_82\n  tag_36\n  jump\t// in\ntag_82:\n    /* \"#utility.yul\":1089:1119   */\n  swap1\n  pop\n    /* \"#utility.yul\":1128:1161   */\n  tag_83\n    /* \"#utility.yul\":1156:1160   */\n  dup3\n    /* \"#utility.yul\":1148:1154   */\n  dup3\n    /* \"#utility.yul\":1128:1161   */\n  tag_42\n  jump\t// in\ntag_83:\n    /* \"#utility.yul\":1038:1167   */\n  swap2\n  swap1\n  pop\n  jump\t// out\n    /* \"#utility.yul\":1173:1484   */\ntag_44:\n    /* \"#utility.yul\":1250:1254   */\n  0x00\n    /* \"#utility.yul\":1340:1358   */\n  0xffffffffffffffff\n    /* \"#utility.yul\":1332:1338   */\n  dup3\n    /* \"#utility.yul\":1329:1359   */\n  gt\n    /* \"#utility.yul\":1326:1382   */\n  iszero\n  tag_85\n  jumpi\n    /* \"#utility.yul\":1362:1380   */\n  tag_86\n  tag_41\n  jump\t// in\ntag_86:\n    /* \"#utility.yul\":1326:1382   */\ntag_85:\n    /* \"#utility.yul\":1412:1416   */\n  0x20\n    /* \"#utility.yul\":1404:1410   */\n  dup3\n    /* \"#utility.yul\":1400:1417   */\n  mul\n    /* \"#utility.yul\":1392:1417   */\n  swap1\n  pop\n    /* \"#utility.yul\":1472:1476   */\n  0x20\n    /* \"#utility.yul\":1466:1470   */\n  dup2\n    /* \"#utility.yul\":1462:1477   */\n  add\n    /* \"#utility.yul\":1454:1477   */\n  swap1\n  pop\n    /* \"#utility.yul\":1173:1484   */\n  swap2\n  swap1\n  pop\n  jump\t// out\n    /* \"#utility.yul\":1490:1607   */\ntag_45:\n    /* \"#utility.yul\":1599:1600   */\n  0x00\n    /* \"#utility.yul\":1596:1597   */\n  dup1\n    /* \"#utility.yul\":1589:1601   */\n  revert\n    /* \"#utility.yul\":1613:1739   */\ntag_46:\n    /* \"#utility.yul\":1650:1657   */\n  0x00\n    /* \"#utility.yul\":1690:1732   */\n  0xffffffffffffffffffffffffffffffffffffffff\n    /* \"#utility.yul\":1683:1688   */\n  dup3\n    /* \"#utility.yul\":1679:1733   */\n  and\n    /* \"#utility.yul\":1668:1733   */\n  swap1\n  pop\n    /* \"#utility.yul\":1613:1739   */\n  swap2\n  swap1\n  pop\n  jump\t// out\n    /* \"#utility.yul\":1745:1841   */\ntag_47:\n    /* \"#utility.yul\":1782:1789   */\n  0x00\n    /* \"#utility.yul\":1811:1835   */\n  tag_90\n    /* \"#utility.yul\":1829:1834   */\n  dup3\n    /* \"#utility.yul\":1811:1835   */\n  tag_46\n  jump\t// in\ntag_90:\n    /* \"#utility.yul\":1800:1835   */\n  swap1\n  pop\n    /* \"#utility.yul\":1745:1841   */\n  swap2\n  swap1\n  pop\n  jump\t// out\n    /* \"#utility.yul\":1847:1969   */\ntag_48:\n    /* \"#utility.yul\":1920:1944   */\n  tag_92\n    /* \"#utility.yul\":1938:1943   */\n  dup2\n    /* \"#utility.yul\":1920:1944   */\n  tag_47\n  jump\t// in\ntag_92:\n    /* \"#utility.yul\":1913:1918   */\n  dup2\n    /* \"#utility.yul\":1910:1945   */\n  eq\n    /* \"#utility.yul\":1900:1963   */\n  tag_93\n  jumpi\n    /* \"#utility.yul\":1959:1960   */\n  0x00\n    /* \"#utility.yul\":1956:1957   */\n  dup1\n    /* \"#utility.yul\":1949:1961   */\n  revert\n    /* \"#utility.yul\":1900:1963   */\ntag_93:\n    /* \"#utility.yul\":1847:1969   */\n  pop\n  jump\t// out\n    /* \"#utility.yul\":1975:2118   */\ntag_49:\n    /* \"#utility.yul\":2032:2037   */\n  0x00\n    /* \"#utility.yul\":2063:2069   */\n  dup2\n    /* \"#utility.yul\":2057:2070   */\n  mload\n    /* \"#utility.yul\":2048:2070   */\n  swap1\n  pop\n    /* \"#utility.yul\":2079:2112   */\n  tag_95\n    /* \"#utility.yul\":2106:2111   */\n  dup2\n    /* \"#utility.yul\":2079:2112   */\n  tag_48\n  jump\t// in\ntag_95:\n    /* \"#utility.yul\":1975:2118   */\n  swap3\n  swap2\n  pop\n  pop\n  jump\t// out\n    /* \"#utility.yul\":2141:2873   */\ntag_50:\n    /* \"#utility.yul\":2248:2253   */\n  0x00\n    /* \"#utility.yul\":2273:2354   */\n  tag_97\n    /* \"#utility.yul\":2289:2353   */\n  tag_98\n    /* \"#utility.yul\":2346:2352   */\n  dup5\n    /* \"#utility.yul\":2289:2353   */\n  tag_44\n  jump\t// in\ntag_98:\n    /* \"#utility.yul\":2273:2354   */\n  tag_43\n  jump\t// in\ntag_97:\n    /* \"#utility.yul\":2264:2354   */\n  swap1\n  pop\n    /* \"#utility.yul\":2374:2379   */\n  dup1\n    /* \"#utility.yul\":2403:2409   */\n  dup4\n    /* \"#utility.yul\":2396:2401   */\n  dup3\n    /* \"#utility.yul\":2389:2410   */\n  mstore\n    /* \"#utility.yul\":2437:2441   */\n  0x20\n    /* \"#utility.yul\":2430:2435   */\n  dup3\n    /* \"#utility.yul\":2426:2442   */\n  add\n    /* \"#utility.yul\":2419:2442   */\n  swap1\n  pop\n    /* \"#utility.yul\":2490:2494   */\n  0x20\n    /* \"#utility.yul\":2482:2488   */\n  dup5\n    /* \"#utility.yul\":2478:2495   */\n  mul\n    /* \"#utility.yul\":2470:2476   */\n  dup4\n    /* \"#utility.yul\":2466:2496   */\n  add\n    /* \"#utility.yul\":2519:2522   */\n  dup6\n    /* \"#utility.yul\":2511:2517   */\n  dup2\n    /* \"#utility.yul\":2508:2523   */\n  gt\n    /* \"#utility.yul\":2505:2627   */\n  iszero\n  tag_99\n  jumpi\n    /* \"#utility.yul\":2538:2617   */\n  tag_100\n  tag_45\n  jump\t// in\ntag_100:\n    /* \"#utility.yul\":2505:2627   */\ntag_99:\n    /* \"#utility.yul\":2653:2659   */\n  dup4\n    /* \"#utility.yul\":2636:2867   */\ntag_101:\n    /* \"#utility.yul\":2670:2676   */\n  dup2\n    /* \"#utility.yul\":2665:2668   */\n  dup2\n    /* \"#utility.yul\":2662:2677   */\n  lt\n    /* \"#utility.yul\":2636:2867   */\n  iszero\n  tag_103\n  jumpi\n    /* \"#utility.yul\":2745:2748   */\n  dup1\n    /* \"#utility.yul\":2774:2822   */\n  tag_104\n    /* \"#utility.yul\":2818:2821   */\n  dup9\n    /* \"#utility.yul\":2806:2816   */\n  dup3\n    /* \"#utility.yul\":2774:2822   */\n  tag_49\n  jump\t// in\ntag_104:\n    /* \"#utility.yul\":2769:2772   */\n  dup5\n    /* \"#utility.yul\":2762:2823   */\n  mstore\n    /* \"#utility.yul\":2852:2856   */\n  0x20\n    /* \"#utility.yul\":2847:2850   */\n  dup5\n    /* \"#utility.yul\":2843:2857   */\n  add\n    /* \"#utility.yul\":2836:2857   */\n  swap4\n  pop\n    /* \"#utility.yul\":2712:2867   */\n  pop\n    /* \"#utility.yul\":2696:2700   */\n  0x20\n    /* \"#utility.yul\":2691:2694   */\n  dup2\n    /* \"#utility.yul\":2687:2701   */\n  add\n    /* \"#utility.yul\":2680:2701   */\n  swap1\n  pop\n    /* \"#utility.yul\":2636:2867   */\n  jump(tag_101)\ntag_103:\n    /* \"#utility.yul\":2640:2661   */\n  pop\n    /* \"#utility.yul\":2254:2873   */\n  pop\n  pop\n    /* \"#utility.yul\":2141:2873   */\n  swap4\n  swap3\n  pop\n  pop\n  pop\n  jump\t// out\n    /* \"#utility.yul\":2896:3281   */\ntag_51:\n    /* \"#utility.yul\":2978:2983   */\n  0x00\n    /* \"#utility.yul\":3027:3030   */\n  dup3\n    /* \"#utility.yul\":3020:3024   */\n  0x1f\n    /* \"#utility.yul\":3012:3018   */\n  dup4\n    /* \"#utility.yul\":3008:3025   */\n  add\n    /* \"#utility.yul\":3004:3031   */\n  slt\n    /* \"#utility.yul\":2994:3116   */\n  tag_106\n  jumpi\n    /* \"#utility.yul\":3035:3114   */\n  tag_107\n  tag_39\n  jump\t// in\ntag_107:\n    /* \"#utility.yul\":2994:3116   */\ntag_106:\n    /* \"#utility.yul\":3145:3151   */\n  dup2\n    /* \"#utility.yul\":3139:3152   */\n  mload\n    /* \"#utility.yul\":3170:3275   */\n  tag_108\n    /* \"#utility.yul\":3271:3274   */\n  dup5\n    /* \"#utility.yul\":3263:3269   */\n  dup3\n    /* \"#utility.yul\":3256:3260   */\n  0x20\n    /* \"#utility.yul\":3248:3254   */\n  dup7\n    /* \"#utility.yul\":3244:3261   */\n  add\n    /* \"#utility.yul\":3170:3275   */\n  tag_50\n  jump\t// in\ntag_108:\n    /* \"#utility.yul\":3161:3275   */\n  swap2\n  pop\n    /* \"#utility.yul\":2984:3281   */\n  pop\n    /* \"#utility.yul\":2896:3281   */\n  swap3\n  swap2\n  pop\n  pop\n  jump\t// out\n    /* \"#utility.yul\":3287:3598   */\ntag_52:\n    /* \"#utility.yul\":3364:3368   */\n  0x00\n    /* \"#utility.yul\":3454:3472   */\n  0xffffffffffffffff\n    /* \"#utility.yul\":3446:3452   */\n  dup3\n    /* \"#utility.yul\":3443:3473   */\n  gt\n    /* \"#utility.yul\":3440:3496   */\n  iszero\n  tag_110\n  jumpi\n    /* \"#utility.yul\":3476:3494   */\n  tag_111\n  tag_41\n  jump\t// in\ntag_111:\n    /* \"#utility.yul\":3440:3496   */\ntag_110:\n    /* \"#utility.yul\":3526:3530   */\n  0x20\n    /* \"#utility.yul\":3518:3524   */\n  dup3\n    /* \"#utility.yul\":3514:3531   */\n  mul\n    /* \"#utility.yul\":3506:3531   */\n  swap1\n  pop\n    /* \"#utility.yul\":3586:3590   */\n  0x20\n    /* \"#utility.yul\":3580:3584   */\n  dup2\n    /* \"#utility.yul\":3576:3591   */\n  add\n    /* \"#utility.yul\":3568:3591   */\n  swap1\n  pop\n    /* \"#utility.yul\":3287:3598   */\n  swap2\n  swap1\n  pop\n  jump\t// out\n    /* \"#utility.yul\":3604:3681   */\ntag_53:\n    /* \"#utility.yul\":3641:3648   */\n  0x00\n    /* \"#utility.yul\":3670:3675   */\n  dup2\n    /* \"#utility.yul\":3659:3675   */\n  swap1\n  pop\n    /* \"#utility.yul\":3604:3681   */\n  swap2\n  swap1\n  pop\n  jump\t// out\n    /* \"#utility.yul\":3687:3809   */\ntag_54:\n    /* \"#utility.yul\":3760:3784   */\n  tag_114\n    /* \"#utility.yul\":3778:3783   */\n  dup2\n    /* \"#utility.yul\":3760:3784   */\n  tag_53\n  jump\t// in\ntag_114:\n    /* \"#utility.yul\":3753:3758   */\n  dup2\n    /* \"#utility.yul\":3750:3785   */\n  eq\n    /* \"#utility.yul\":3740:3803   */\n  tag_115\n  jumpi\n    /* \"#utility.yul\":3799:3800   */\n  0x00\n    /* \"#utility.yul\":3796:3797   */\n  dup1\n    /* \"#utility.yul\":3789:3801   */\n  revert\n    /* \"#utility.yul\":3740:3803   */\ntag_115:\n    /* \"#utility.yul\":3687:3809   */\n  pop\n  jump\t// out\n    /* \"#utility.yul\":3815:3958   */\ntag_55:\n    /* \"#utility.yul\":3872:3877   */\n  0x00\n    /* \"#utility.yul\":3903:3909   */\n  dup2\n    /* \"#utility.yul\":3897:3910   */\n  mload\n    /* \"#utility.yul\":3888:3910   */\n  swap1\n  pop\n    /* \"#utility.yul\":3919:3952   */\n  tag_117\n    /* \"#utility.yul\":3946:3951   */\n  dup2\n    /* \"#utility.yul\":3919:3952   */\n  tag_54\n  jump\t// in\ntag_117:\n    /* \"#utility.yul\":3815:3958   */\n  swap3\n  swap2\n  pop\n  pop\n  jump\t// out\n    /* \"#utility.yul\":3981:4713   */\ntag_56:\n    /* \"#utility.yul\":4088:4093   */\n  0x00\n    /* \"#utility.yul\":4113:4194   */\n  tag_119\n    /* \"#utility.yul\":4129:4193   */\n  tag_120\n    /* \"#utility.yul\":4186:4192   */\n  dup5\n    /* \"#utility.yul\":4129:4193   */\n  tag_52\n  jump\t// in\ntag_120:\n    /* \"#utility.yul\":4113:4194   */\n  tag_43\n  jump\t// in\ntag_119:\n    /* \"#utility.yul\":4104:4194   */\n  swap1\n  pop\n    /* \"#utility.yul\":4214:4219   */\n  dup1\n    /* \"#utility.yul\":4243:4249   */\n  dup4\n    /* \"#utility.yul\":4236:4241   */\n  dup3\n    /* \"#utility.yul\":4229:4250   */\n  mstore\n    /* \"#utility.yul\":4277:4281   */\n  0x20\n    /* \"#utility.yul\":4270:4275   */\n  dup3\n    /* \"#utility.yul\":4266:4282   */\n  add\n    /* \"#utility.yul\":4259:4282   */\n  swap1\n  pop\n    /* \"#utility.yul\":4330:4334   */\n  0x20\n    /* \"#utility.yul\":4322:4328   */\n  dup5\n    /* \"#utility.yul\":4318:4335   */\n  mul\n    /* \"#utility.yul\":4310:4316   */\n  dup4\n    /* \"#utility.yul\":4306:4336   */\n  add\n    /* \"#utility.yul\":4359:4362   */\n  dup6\n    /* \"#utility.yul\":4351:4357   */\n  dup2\n    /* \"#utility.yul\":4348:4363   */\n  gt\n    /* \"#utility.yul\":4345:4467   */\n  iszero\n  tag_121\n  jumpi\n    /* \"#utility.yul\":4378:4457   */\n  tag_122\n  tag_45\n  jump\t// in\ntag_122:\n    /* \"#utility.yul\":4345:4467   */\ntag_121:\n    /* \"#utility.yul\":4493:4499   */\n  dup4\n    /* \"#utility.yul\":4476:4707   */\ntag_123:\n    /* \"#utility.yul\":4510:4516   */\n  dup2\n    /* \"#utility.yul\":4505:4508   */\n  dup2\n    /* \"#utility.yul\":4502:4517   */\n  lt\n    /* \"#utility.yul\":4476:4707   */\n  iszero\n  tag_125\n  jumpi\n    /* \"#utility.yul\":4585:4588   */\n  dup1\n    /* \"#utility.yul\":4614:4662   */\n  tag_126\n    /* \"#utility.yul\":4658:4661   */\n  dup9\n    /* \"#utility.yul\":4646:4656   */\n  dup3\n    /* \"#utility.yul\":4614:4662   */\n  tag_55\n  jump\t// in\ntag_126:\n    /* \"#utility.yul\":4609:4612   */\n  dup5\n    /* \"#utility.yul\":4602:4663   */\n  mstore\n    /* \"#utility.yul\":4692:4696   */\n  0x20\n    /* \"#utility.yul\":4687:4690   */\n  dup5\n    /* \"#utility.yul\":4683:4697   */\n  add\n    /* \"#utility.yul\":4676:4697   */\n  swap4\n  pop\n    /* \"#utility.yul\":4552:4707   */\n  pop\n    /* \"#utility.yul\":4536:4540   */\n  0x20\n    /* \"#utility.yul\":4531:4534   */\n  dup2\n    /* \"#utility.yul\":4527:4541   */\n  add\n    /* \"#utility.yul\":4520:4541   */\n  swap1\n  pop\n    /* \"#utility.yul\":4476:4707   */\n  jump(tag_123)\ntag_125:\n    /* \"#utility.yul\":4480:4501   */\n  pop\n    /* \"#utility.yul\":4094:4713   */\n  pop\n  pop\n    /* \"#utility.yul\":3981:4713   */\n  swap4\n  swap3\n  pop\n  pop\n  pop\n  jump\t// out\n    /* \"#utility.yul\":4736:5121   */\ntag_57:\n    /* \"#utility.yul\":4818:4823   */\n  0x00\n    /* \"#utility.yul\":4867:4870   */\n  dup3\n    /* \"#utility.yul\":4860:4864   */\n  0x1f\n    /* \"#utility.yul\":4852:4858   */\n  dup4\n    /* \"#utility.yul\":4848:4865   */\n  add\n    /* \"#utility.yul\":4844:4871   */\n  slt\n    /* \"#utility.yul\":4834:4956   */\n  tag_128\n  jumpi\n    /* \"#utility.yul\":4875:4954   */\n  tag_129\n  tag_39\n  jump\t// in\ntag_129:\n    /* \"#utility.yul\":4834:4956   */\ntag_128:\n    /* \"#utility.yul\":4985:4991   */\n  dup2\n    /* \"#utility.yul\":4979:4992   */\n  mload\n    /* \"#utility.yul\":5010:5115   */\n  tag_130\n    /* \"#utility.yul\":5111:5114   */\n  dup5\n    /* \"#utility.yul\":5103:5109   */\n  dup3\n    /* \"#utility.yul\":5096:5100   */\n  0x20\n    /* \"#utility.yul\":5088:5094   */\n  dup7\n    /* \"#utility.yul\":5084:5101   */\n  add\n    /* \"#utility.yul\":5010:5115   */\n  tag_56\n  jump\t// in\ntag_130:\n    /* \"#utility.yul\":5001:5115   */\n  swap2\n  pop\n    /* \"#utility.yul\":4824:5121   */\n  pop\n    /* \"#utility.yul\":4736:5121   */\n  swap3\n  swap2\n  pop\n  pop\n  jump\t// out\n    /* \"#utility.yul\":5127:6040   */\ntag_3:\n    /* \"#utility.yul\":5256:5262   */\n  0x00\n    /* \"#utility.yul\":5264:5270   */\n  dup1\n    /* \"#utility.yul\":5313:5315   */\n  0x40\n    /* \"#utility.yul\":5301:5310   */\n  dup4\n    /* \"#utility.yul\":5292:5299   */\n  dup6\n    /* \"#utility.yul\":5288:5311   */\n  sub\n    /* \"#utility.yul\":5284:5316   */\n  slt\n    /* \"#utility.yul\":5281:5400   */\n  iszero\n  tag_132\n  jumpi\n    /* \"#utility.yul\":5319:5398   */\n  tag_133\n  tag_37\n  jump\t// in\ntag_133:\n    /* \"#utility.yul\":5281:5400   */\ntag_132:\n    /* \"#utility.yul\":5460:5461   */\n  0x00\n    /* \"#utility.yul\":5449:5458   */\n  dup4\n    /* \"#utility.yul\":5445:5462   */\n  add\n    /* \"#utility.yul\":5439:5463   */\n  mload\n    /* \"#utility.yul\":5490:5508   */\n  0xffffffffffffffff\n    /* \"#utility.yul\":5482:5488   */\n  dup2\n    /* \"#utility.yul\":5479:5509   */\n  gt\n    /* \"#utility.yul\":5476:5593   */\n  iszero\n  tag_134\n  jumpi\n    /* \"#utility.yul\":5512:5591   */\n  tag_135\n  tag_38\n  jump\t// in\ntag_135:\n    /* \"#utility.yul\":5476:5593   */\ntag_134:\n    /* \"#utility.yul\":5617:5706   */\n  tag_136\n    /* \"#utility.yul\":5698:5705   */\n  dup6\n    /* \"#utility.yul\":5689:5695   */\n  dup3\n    /* \"#utility.yul\":5678:5687   */\n  dup7\n    /* \"#utility.yul\":5674:5696   */\n  add\n    /* \"#utility.yul\":5617:5706   */\n  tag_51\n  jump\t// in\ntag_136:\n    /* \"#utility.yul\":5607:5706   */\n  swap3\n  pop\n    /* \"#utility.yul\":5410:5716   */\n  pop\n    /* \"#utility.yul\":5776:5778   */\n  0x20\n    /* \"#utility.yul\":5765:5774   */\n  dup4\n    /* \"#utility.yul\":5761:5779   */\n  add\n    /* \"#utility.yul\":5755:5780   */\n  mload\n    /* \"#utility.yul\":5807:5825   */\n  0xffffffffffffffff\n    /* \"#utility.yul\":5799:5805   */\n  dup2\n    /* \"#utility.yul\":5796:5826   */\n  gt\n    /* \"#utility.yul\":5793:5910   */\n  iszero\n  tag_137\n  jumpi\n    /* \"#utility.yul\":5829:5908   */\n  tag_138\n  tag_38\n  jump\t// in\ntag_138:\n    /* \"#utility.yul\":5793:5910   */\ntag_137:\n    /* \"#utility.yul\":5934:6023   */\n  tag_139\n    /* \"#utility.yul\":6015:6022   */\n  dup6\n    /* \"#utility.yul\":6006:6012   */\n  dup3\n    /* \"#utility.yul\":5995:6004   */\n  dup7\n    /* \"#utility.yul\":5991:6013   */\n  add\n    /* \"#utility.yul\":5934:6023   */\n  tag_57\n  jump\t// in\ntag_139:\n    /* \"#utility.yul\":5924:6023   */\n  swap2\n  pop\n    /* \"#utility.yul\":5726:6033   */\n  pop\n    /* \"#utility.yul\":5127:6040   */\n  swap3\n  pop\n  swap3\n  swap1\n  pop\n  jump\t// out\n    /* \"#utility.yul\":6046:6215   */\ntag_58:\n    /* \"#utility.yul\":6130:6141   */\n  0x00\n    /* \"#utility.yul\":6164:6170   */\n  dup3\n    /* \"#utility.yul\":6159:6162   */\n  dup3\n    /* \"#utility.yul\":6152:6171   */\n  mstore\n    /* \"#utility.yul\":6204:6208   */\n  0x20\n    /* \"#utility.yul\":6199:6202   */\n  dup3\n    /* \"#utility.yul\":6195:6209   */\n  add\n    /* \"#utility.yul\":6180:6209   */\n  swap1\n  pop\n    /* \"#utility.yul\":6046:6215   */\n  swap3\n  swap2\n  pop\n  pop\n  jump\t// out\n    /* \"#utility.yul\":6221:6448   */\ntag_59:\n    /* \"#utility.yul\":6361:6395   */\n  0x4c656e676874206f662070617965657320616e6420736861726573206e6f7420\n    /* \"#utility.yul\":6357:6358   */\n  0x00\n    /* \"#utility.yul\":6349:6355   */\n  dup3\n    /* \"#utility.yul\":6345:6359   */\n  add\n    /* \"#utility.yul\":6338:6396   */\n  mstore\n    /* \"#utility.yul\":6430:6440   */\n  0x6d61746368212121000000000000000000000000000000000000000000000000\n    /* \"#utility.yul\":6425:6427   */\n  0x20\n    /* \"#utility.yul\":6417:6423   */\n  dup3\n    /* \"#utility.yul\":6413:6428   */\n  add\n    /* \"#utility.yul\":6406:6441   */\n  mstore\n    /* \"#utility.yul\":6221:6448   */\n  pop\n  jump\t// out\n    /* \"#utility.yul\":6454:6820   */\ntag_60:\n    /* \"#utility.yul\":6596:6599   */\n  0x00\n    /* \"#utility.yul\":6617:6684   */\n  tag_143\n    /* \"#utility.yul\":6681:6683   */\n  0x28\n    /* \"#utility.yul\":6676:6679   */\n  dup4\n    /* \"#utility.yul\":6617:6684   */\n  tag_58\n  jump\t// in\ntag_143:\n    /* \"#utility.yul\":6610:6684   */\n  swap2\n  pop\n    /* \"#utility.yul\":6693:6786   */\n  tag_144\n    /* \"#utility.yul\":6782:6785   */\n  dup3\n    /* \"#utility.yul\":6693:6786   */\n  tag_59\n  jump\t// in\ntag_144:\n    /* \"#utility.yul\":6811:6813   */\n  0x40\n    /* \"#utility.yul\":6806:6809   */\n  dup3\n    /* \"#utility.yul\":6802:6814   */\n  add\n    /* \"#utility.yul\":6795:6814   */\n  swap1\n  pop\n    /* \"#utility.yul\":6454:6820   */\n  swap2\n  swap1\n  pop\n  jump\t// out\n    /* \"#utility.yul\":6826:7245   */\ntag_8:\n    /* \"#utility.yul\":6992:6996   */\n  0x00\n    /* \"#utility.yul\":7030:7032   */\n  0x20\n    /* \"#utility.yul\":7019:7028   */\n  dup3\n    /* \"#utility.yul\":7015:7033   */\n  add\n    /* \"#utility.yul\":7007:7033   */\n  swap1\n  pop\n    /* \"#utility.yul\":7079:7088   */\n  dup2\n    /* \"#utility.yul\":7073:7077   */\n  dup2\n    /* \"#utility.yul\":7069:7089   */\n  sub\n    /* \"#utility.yul\":7065:7066   */\n  0x00\n    /* \"#utility.yul\":7054:7063   */\n  dup4\n    /* \"#utility.yul\":7050:7067   */\n  add\n    /* \"#utility.yul\":7043:7090   */\n  mstore\n    /* \"#utility.yul\":7107:7238   */\n  tag_146\n    /* \"#utility.yul\":7233:7237   */\n  dup2\n    /* \"#utility.yul\":7107:7238   */\n  tag_60\n  jump\t// in\ntag_146:\n    /* \"#utility.yul\":7099:7238   */\n  swap1\n  pop\n    /* \"#utility.yul\":6826:7245   */\n  swap2\n  swap1\n  pop\n  jump\t// out\n    /* \"#utility.yul\":7251:7412   */\ntag_61:\n    /* \"#utility.yul\":7391:7404   */\n  0x4e6f207061796565212121000000000000000000000000000000000000000000\n    /* \"#utility.yul\":7387:7388   */\n  0x00\n    /* \"#utility.yul\":7379:7385   */\n  dup3\n    /* \"#utility.yul\":7375:7389   */\n  add\n    /* \"#utility.yul\":7368:7405   */\n  mstore\n    /* \"#utility.yul\":7251:7412   */\n  pop\n  jump\t// out\n    /* \"#utility.yul\":7418:7784   */\ntag_62:\n    /* \"#utility.yul\":7560:7563   */\n  0x00\n    /* \"#utility.yul\":7581:7648   */\n  tag_149\n    /* \"#utility.yul\":7645:7647   */\n  0x0b\n    /* \"#utility.yul\":7640:7643   */\n  dup4\n    /* \"#utility.yul\":7581:7648   */\n  tag_58\n  jump\t// in\ntag_149:\n    /* \"#utility.yul\":7574:7648   */\n  swap2\n  pop\n    /* \"#utility.yul\":7657:7750   */\n  tag_150\n    /* \"#utility.yul\":7746:7749   */\n  dup3\n    /* \"#utility.yul\":7657:7750   */\n  tag_61\n  jump\t// in\ntag_150:\n    /* \"#utility.yul\":7775:7777   */\n  0x20\n    /* \"#utility.yul\":7770:7773   */\n  dup3\n    /* \"#utility.yul\":7766:7778   */\n  add\n    /* \"#utility.yul\":7759:7778   */\n  swap1\n  pop\n    /* \"#utility.yul\":7418:7784   */\n  swap2\n  swap1\n  pop\n  jump\t// out\n    /* \"#utility.yul\":7790:8209   */\ntag_11:\n    /* \"#utility.yul\":7956:7960   */\n  0x00\n    /* \"#utility.yul\":7994:7996   */\n  0x20\n    /* \"#utility.yul\":7983:7992   */\n  dup3\n    /* \"#utility.yul\":7979:7997   */\n  add\n    /* \"#utility.yul\":7971:7997   */\n  swap1\n  pop\n    /* \"#utility.yul\":8043:8052   */\n  dup2\n    /* \"#utility.yul\":8037:8041   */\n  dup2\n    /* \"#utility.yul\":8033:8053   */\n  sub\n    /* \"#utility.yul\":8029:8030   */\n  0x00\n    /* \"#utility.yul\":8018:8027   */\n  dup4\n    /* \"#utility.yul\":8014:8031   */\n  add\n    /* \"#utility.yul\":8007:8054   */\n  mstore\n    /* \"#utility.yul\":8071:8202   */\n  tag_152\n    /* \"#utility.yul\":8197:8201   */\n  dup2\n    /* \"#utility.yul\":8071:8202   */\n  tag_62\n  jump\t// in\ntag_152:\n    /* \"#utility.yul\":8063:8202   */\n  swap1\n  pop\n    /* \"#utility.yul\":7790:8209   */\n  swap2\n  swap1\n  pop\n  jump\t// out\n    /* \"#utility.yul\":8215:8395   */\ntag_18:\n    /* \"#utility.yul\":8263:8340   */\n  0x4e487b7100000000000000000000000000000000000000000000000000000000\n    /* \"#utility.yul\":8260:8261   */\n  0x00\n    /* \"#utility.yul\":8253:8341   */\n  mstore\n    /* \"#utility.yul\":8360:8364   */\n  0x32\n    /* \"#utility.yul\":8357:8358   */\n  0x04\n    /* \"#utility.yul\":8350:8365   */\n  mstore\n    /* \"#utility.yul\":8384:8388   */\n  0x24\n    /* \"#utility.yul\":8381:8382   */\n  0x00\n    /* \"#utility.yul\":8374:8389   */\n  revert\n    /* \"#utility.yul\":8401:8583   */\ntag_63:\n    /* \"#utility.yul\":8541:8575   */\n  0x5061796565206163636f756e74206973207a65726f206163636f756e74212121\n    /* \"#utility.yul\":8537:8538   */\n  0x00\n    /* \"#utility.yul\":8529:8535   */\n  dup3\n    /* \"#utility.yul\":8525:8539   */\n  add\n    /* \"#utility.yul\":8518:8576   */\n  mstore\n    /* \"#utility.yul\":8401:8583   */\n  pop\n  jump\t// out\n    /* \"#utility.yul\":8589:8955   */\ntag_64:\n    /* \"#utility.yul\":8731:8734   */\n  0x00\n    /* \"#utility.yul\":8752:8819   */\n  tag_156\n    /* \"#utility.yul\":8816:8818   */\n  0x20\n    /* \"#utility.yul\":8811:8814   */\n  dup4\n    /* \"#utility.yul\":8752:8819   */\n  tag_58\n  jump\t// in\ntag_156:\n    /* \"#utility.yul\":8745:8819   */\n  swap2\n  pop\n    /* \"#utility.yul\":8828:8921   */\n  tag_157\n    /* \"#utility.yul\":8917:8920   */\n  dup3\n    /* \"#utility.yul\":8828:8921   */\n  tag_63\n  jump\t// in\ntag_157:\n    /* \"#utility.yul\":8946:8948   */\n  0x20\n    /* \"#utility.yul\":8941:8944   */\n  dup3\n    /* \"#utility.yul\":8937:8949   */\n  add\n    /* \"#utility.yul\":8930:8949   */\n  swap1\n  pop\n    /* \"#utility.yul\":8589:8955   */\n  swap2\n  swap1\n  pop\n  jump\t// out\n    /* \"#utility.yul\":8961:9380   */\ntag_26:\n    /* \"#utility.yul\":9127:9131   */\n  0x00\n    /* \"#utility.yul\":9165:9167   */\n  0x20\n    /* \"#utility.yul\":9154:9163   */\n  dup3\n    /* \"#utility.yul\":9150:9168   */\n  add\n    /* \"#utility.yul\":9142:9168   */\n  swap1\n  pop\n    /* \"#utility.yul\":9214:9223   */\n  dup2\n    /* \"#utility.yul\":9208:9212   */\n  dup2\n    /* \"#utility.yul\":9204:9224   */\n  sub\n    /* \"#utility.yul\":9200:9201   */\n  0x00\n    /* \"#utility.yul\":9189:9198   */\n  dup4\n    /* \"#utility.yul\":9185:9202   */\n  add\n    /* \"#utility.yul\":9178:9225   */\n  mstore\n    /* \"#utility.yul\":9242:9373   */\n  tag_159\n    /* \"#utility.yul\":9368:9372   */\n  dup2\n    /* \"#utility.yul\":9242:9373   */\n  tag_64\n  jump\t// in\ntag_159:\n    /* \"#utility.yul\":9234:9373   */\n  swap1\n  pop\n    /* \"#utility.yul\":8961:9380   */\n  swap2\n  swap1\n  pop\n  jump\t// out\n    /* \"#utility.yul\":9386:9552   */\ntag_65:\n    /* \"#utility.yul\":9526:9544   */\n  0x5368617265206973207a65726f21212100000000000000000000000000000000\n    /* \"#utility.yul\":9522:9523   */\n  0x00\n    /* \"#utility.yul\":9514:9520   */\n  dup3\n    /* \"#utility.yul\":9510:9524   */\n  add\n    /* \"#utility.yul\":9503:9545   */\n  mstore\n    /* \"#utility.yul\":9386:9552   */\n  pop\n  jump\t// out\n    /* \"#utility.yul\":9558:9924   */\ntag_66:\n    /* \"#utility.yul\":9700:9703   */\n  0x00\n    /* \"#utility.yul\":9721:9788   */\n  tag_162\n    /* \"#utility.yul\":9785:9787   */\n  0x10\n    /* \"#utility.yul\":9780:9783   */\n  dup4\n    /* \"#utility.yul\":9721:9788   */\n  tag_58\n  jump\t// in\ntag_162:\n    /* \"#utility.yul\":9714:9788   */\n  swap2\n  pop\n    /* \"#utility.yul\":9797:9890   */\n  tag_163\n    /* \"#utility.yul\":9886:9889   */\n  dup3\n    /* \"#utility.yul\":9797:9890   */\n  tag_65\n  jump\t// in\ntag_163:\n    /* \"#utility.yul\":9915:9917   */\n  0x20\n    /* \"#utility.yul\":9910:9913   */\n  dup3\n    /* \"#utility.yul\":9906:9918   */\n  add\n    /* \"#utility.yul\":9899:9918   */\n  swap1\n  pop\n    /* \"#utility.yul\":9558:9924   */\n  swap2\n  swap1\n  pop\n  jump\t// out\n    /* \"#utility.yul\":9930:10349   */\ntag_29:\n    /* \"#utility.yul\":10096:10100   */\n  0x00\n    /* \"#utility.yul\":10134:10136   */\n  0x20\n    /* \"#utility.yul\":10123:10132   */\n  dup3\n    /* \"#utility.yul\":10119:10137   */\n  add\n    /* \"#utility.yul\":10111:10137   */\n  swap1\n  pop\n    /* \"#utility.yul\":10183:10192   */\n  dup2\n    /* \"#utility.yul\":10177:10181   */\n  dup2\n    /* \"#utility.yul\":10173:10193   */\n  sub\n    /* \"#utility.yul\":10169:10170   */\n  0x00\n    /* \"#utility.yul\":10158:10167   */\n  dup4\n    /* \"#utility.yul\":10154:10171   */\n  add\n    /* \"#utility.yul\":10147:10194   */\n  mstore\n    /* \"#utility.yul\":10211:10342   */\n  tag_165\n    /* \"#utility.yul\":10337:10341   */\n  dup2\n    /* \"#utility.yul\":10211:10342   */\n  tag_66\n  jump\t// in\ntag_165:\n    /* \"#utility.yul\":10203:10342   */\n  swap1\n  pop\n    /* \"#utility.yul\":9930:10349   */\n  swap2\n  swap1\n  pop\n  jump\t// out\n    /* \"#utility.yul\":10355:10529   */\ntag_67:\n    /* \"#utility.yul\":10495:10521   */\n  0x506179656520686173206265656e206c69737465642121210000000000000000\n    /* \"#utility.yul\":10491:10492   */\n  0x00\n    /* \"#utility.yul\":10483:10489   */\n  dup3\n    /* \"#utility.yul\":10479:10493   */\n  add\n    /* \"#utility.yul\":10472:10522   */\n  mstore\n    /* \"#utility.yul\":10355:10529   */\n  pop\n  jump\t// out\n    /* \"#utility.yul\":10535:10901   */\ntag_68:\n    /* \"#utility.yul\":10677:10680   */\n  0x00\n    /* \"#utility.yul\":10698:10765   */\n  tag_168\n    /* \"#utility.yul\":10762:10764   */\n  0x18\n    /* \"#utility.yul\":10757:10760   */\n  dup4\n    /* \"#utility.yul\":10698:10765   */\n  tag_58\n  jump\t// in\ntag_168:\n    /* \"#utility.yul\":10691:10765   */\n  swap2\n  pop\n    /* \"#utility.yul\":10774:10867   */\n  tag_169\n    /* \"#utility.yul\":10863:10866   */\n  dup3\n    /* \"#utility.yul\":10774:10867   */\n  tag_67\n  jump\t// in\ntag_169:\n    /* \"#utility.yul\":10892:10894   */\n  0x20\n    /* \"#utility.yul\":10887:10890   */\n  dup3\n    /* \"#utility.yul\":10883:10895   */\n  add\n    /* \"#utility.yul\":10876:10895   */\n  swap1\n  pop\n    /* \"#utility.yul\":10535:10901   */\n  swap2\n  swap1\n  pop\n  jump\t// out\n    /* \"#utility.yul\":10907:11326   */\ntag_32:\n    /* \"#utility.yul\":11073:11077   */\n  0x00\n    /* \"#utility.yul\":11111:11113   */\n  0x20\n    /* \"#utility.yul\":11100:11109   */\n  dup3\n    /* \"#utility.yul\":11096:11114   */\n  add\n    /* \"#utility.yul\":11088:11114   */\n  swap1\n  pop\n    /* \"#utility.yul\":11160:11169   */\n  dup2\n    /* \"#utility.yul\":11154:11158   */\n  dup2\n    /* \"#utility.yul\":11150:11170   */\n  sub\n    /* \"#utility.yul\":11146:11147   */\n  0x00\n    /* \"#utility.yul\":11135:11144   */\n  dup4\n    /* \"#utility.yul\":11131:11148   */\n  add\n    /* \"#utility.yul\":11124:11171   */\n  mstore\n    /* \"#utility.yul\":11188:11319   */\n  tag_171\n    /* \"#utility.yul\":11314:11318   */\n  dup2\n    /* \"#utility.yul\":11188:11319   */\n  tag_68\n  jump\t// in\ntag_171:\n    /* \"#utility.yul\":11180:11319   */\n  swap1\n  pop\n    /* \"#utility.yul\":10907:11326   */\n  swap2\n  swap1\n  pop\n  jump\t// out\n    /* \"#utility.yul\":11332:11512   */\ntag_69:\n    /* \"#utility.yul\":11380:11457   */\n  0x4e487b7100000000000000000000000000000000000000000000000000000000\n    /* \"#utility.yul\":11377:11378   */\n  0x00\n    /* \"#utility.yul\":11370:11458   */\n  mstore\n    /* \"#utility.yul\":11477:11481   */\n  0x11\n    /* \"#utility.yul\":11474:11475   */\n  0x04\n    /* \"#utility.yul\":11467:11482   */\n  mstore\n    /* \"#utility.yul\":11501:11505   */\n  0x24\n    /* \"#utility.yul\":11498:11499   */\n  0x00\n    /* \"#utility.yul\":11491:11506   */\n  revert\n    /* \"#utility.yul\":11518:11709   */\ntag_35:\n    /* \"#utility.yul\":11558:11561   */\n  0x00\n    /* \"#utility.yul\":11577:11597   */\n  tag_174\n    /* \"#utility.yul\":11595:11596   */\n  dup3\n    /* \"#utility.yul\":11577:11597   */\n  tag_53\n  jump\t// in\ntag_174:\n    /* \"#utility.yul\":11572:11597   */\n  swap2\n  pop\n    /* \"#utility.yul\":11611:11631   */\n  tag_175\n    /* \"#utility.yul\":11629:11630   */\n  dup4\n    /* \"#utility.yul\":11611:11631   */\n  tag_53\n  jump\t// in\ntag_175:\n    /* \"#utility.yul\":11606:11631   */\n  swap3\n  pop\n    /* \"#utility.yul\":11654:11655   */\n  dup3\n    /* \"#utility.yul\":11651:11652   */\n  dup3\n    /* \"#utility.yul\":11647:11656   */\n  add\n    /* \"#utility.yul\":11640:11656   */\n  swap1\n  pop\n    /* \"#utility.yul\":11675:11678   */\n  dup1\n    /* \"#utility.yul\":11672:11673   */\n  dup3\n    /* \"#utility.yul\":11669:11679   */\n  gt\n    /* \"#utility.yul\":11666:11702   */\n  iszero\n  tag_176\n  jumpi\n    /* \"#utility.yul\":11682:11700   */\n  tag_177\n  tag_69\n  jump\t// in\ntag_177:\n    /* \"#utility.yul\":11666:11702   */\ntag_176:\n    /* \"#utility.yul\":11518:11709   */\n  swap3\n  swap2\n  pop\n  pop\n  jump\t// out\n    /* \"TryUSelf/PaymentSplitter/PaymentSplitter.sol\":265:2871  contract PaymentSplitter{... */\ntag_22:\n  dataSize(sub_0)\n  dup1\n  dataOffset(sub_0)\n  0x00\n  codecopy\n  0x00\n  return\nstop\n\nsub_0: assembly {\n        /* \"TryUSelf/PaymentSplitter/PaymentSplitter.sol\":265:2871  contract PaymentSplitter{... */\n      mstore(0x40, 0x80)\n      jumpi(tag_1, lt(calldatasize, 0x04))\n      shr(0xe0, calldataload(0x00))\n      dup1\n      0x6ae6921f\n      gt\n      tag_12\n      jumpi\n      dup1\n      0x6ae6921f\n      eq\n      tag_7\n      jumpi\n      dup1\n      0x9852595c\n      eq\n      tag_8\n      jumpi\n      dup1\n      0xa3f8eace\n      eq\n      tag_9\n      jumpi\n      dup1\n      0xce7c2ac2\n      eq\n      tag_10\n      jumpi\n      dup1\n      0xe33b7de3\n      eq\n      tag_11\n      jumpi\n      jump(tag_2)\n    tag_12:\n      dup1\n      0x19165587\n      eq\n      tag_3\n      jumpi\n      dup1\n      0x1b51003d\n      eq\n      tag_4\n      jumpi\n      dup1\n      0x3a98ef39\n      eq\n      tag_5\n      jumpi\n      dup1\n      0x63037b0c\n      eq\n      tag_6\n      jumpi\n      jump(tag_2)\n    tag_1:\n      jumpi(tag_2, calldatasize)\n        /* \"TryUSelf/PaymentSplitter/PaymentSplitter.sol\":2055:2093  PaymentReceived(msg.sender, msg.value) */\n      0x6ef95f06320e7a25a04a175ca677b7052bdd97131872c2192525a629f51be770\n        /* \"TryUSelf/PaymentSplitter/PaymentSplitter.sol\":2071:2081  msg.sender */\n      caller\n        /* \"TryUSelf/PaymentSplitter/PaymentSplitter.sol\":2083:2092  msg.value */\n      callvalue\n        /* \"TryUSelf/PaymentSplitter/PaymentSplitter.sol\":2055:2093  PaymentReceived(msg.sender, msg.value) */\n      mload(0x40)\n      tag_15\n      swap3\n      swap2\n      swap1\n      tag_16\n      jump\t// in\n    tag_15:\n      mload(0x40)\n      dup1\n      swap2\n      sub\n      swap1\n      log1\n        /* \"TryUSelf/PaymentSplitter/PaymentSplitter.sol\":265:2871  contract PaymentSplitter{... */\n      stop\n    tag_2:\n      0x00\n      dup1\n      revert\n        /* \"TryUSelf/PaymentSplitter/PaymentSplitter.sol\":1452:1996  function release(... */\n    tag_3:\n      callvalue\n      dup1\n      iszero\n      tag_17\n      jumpi\n      0x00\n      dup1\n      revert\n    tag_17:\n      pop\n      tag_18\n      0x04\n      dup1\n      calldatasize\n      sub\n      dup2\n      add\n      swap1\n      tag_19\n      swap2\n      swap1\n      tag_20\n      jump\t// in\n    tag_19:\n      tag_21\n      jump\t// in\n    tag_18:\n      stop\n        /* \"TryUSelf/PaymentSplitter/PaymentSplitter.sol\":2608:2867  function pendingPayment(... */\n    tag_4:\n      callvalue\n      dup1\n      iszero\n      tag_22\n      jumpi\n      0x00\n      dup1\n      revert\n    tag_22:\n      pop\n      tag_23\n      0x04\n      dup1\n      calldatasize\n      sub\n      dup2\n      add\n      swap1\n      tag_24\n      swap2\n      swap1\n      tag_25\n      jump\t// in\n    tag_24:\n      tag_26\n      jump\t// in\n    tag_23:\n      mload(0x40)\n      tag_27\n      swap2\n      swap1\n      tag_28\n      jump\t// in\n    tag_27:\n      mload(0x40)\n      dup1\n      swap2\n      sub\n      swap1\n      return\n        /* \"TryUSelf/PaymentSplitter/PaymentSplitter.sol\":532:558  uint256 public totalShares */\n    tag_5:\n      callvalue\n      dup1\n      iszero\n      tag_29\n      jumpi\n      0x00\n      dup1\n      revert\n    tag_29:\n      pop\n      tag_30\n      tag_31\n      jump\t// in\n    tag_30:\n      mload(0x40)\n      tag_32\n      swap2\n      swap1\n      tag_28\n      jump\t// in\n    tag_32:\n      mload(0x40)\n      dup1\n      swap2\n      sub\n      swap1\n      return\n        /* \"TryUSelf/PaymentSplitter/PaymentSplitter.sol\":600:623  address[] public payees */\n    tag_6:\n      callvalue\n      dup1\n      iszero\n      tag_33\n      jumpi\n      0x00\n      dup1\n      revert\n    tag_33:\n      pop\n      tag_34\n      0x04\n      dup1\n      calldatasize\n      sub\n      dup2\n      add\n      swap1\n      tag_35\n      swap2\n      swap1\n      tag_36\n      jump\t// in\n    tag_35:\n      tag_37\n      jump\t// in\n    tag_34:\n      mload(0x40)\n      tag_38\n      swap2\n      swap1\n      tag_39\n      jump\t// in\n    tag_38:\n      mload(0x40)\n      dup1\n      swap2\n      sub\n      swap1\n      return\n        /* \"TryUSelf/PaymentSplitter/PaymentSplitter.sol\":2109:2600  function _addPayee(... */\n    tag_7:\n      callvalue\n      dup1\n      iszero\n      tag_40\n      jumpi\n      0x00\n      dup1\n      revert\n    tag_40:\n      pop\n      tag_41\n      0x04\n      dup1\n      calldatasize\n      sub\n      dup2\n      add\n      swap1\n      tag_42\n      swap2\n      swap1\n      tag_43\n      jump\t// in\n    tag_42:\n      tag_44\n      jump\t// in\n    tag_41:\n      stop\n        /* \"TryUSelf/PaymentSplitter/PaymentSplitter.sol\":677:718  mapping(address=>uint256) public released */\n    tag_8:\n      callvalue\n      dup1\n      iszero\n      tag_45\n      jumpi\n      0x00\n      dup1\n      revert\n    tag_45:\n      pop\n      tag_46\n      0x04\n      dup1\n      calldatasize\n      sub\n      dup2\n      add\n      swap1\n      tag_47\n      swap2\n      swap1\n      tag_48\n      jump\t// in\n    tag_47:\n      tag_49\n      jump\t// in\n    tag_46:\n      mload(0x40)\n      tag_50\n      swap2\n      swap1\n      tag_28\n      jump\t// in\n    tag_50:\n      mload(0x40)\n      dup1\n      swap2\n      sub\n      swap1\n      return\n        /* \"TryUSelf/PaymentSplitter/PaymentSplitter.sol\":1200:1442  function releasable(... */\n    tag_9:\n      callvalue\n      dup1\n      iszero\n      tag_51\n      jumpi\n      0x00\n      dup1\n      revert\n    tag_51:\n      pop\n      tag_52\n      0x04\n      dup1\n      calldatasize\n      sub\n      dup2\n      add\n      swap1\n      tag_53\n      swap2\n      swap1\n      tag_20\n      jump\t// in\n    tag_53:\n      tag_54\n      jump\t// in\n    tag_52:\n      mload(0x40)\n      tag_55\n      swap2\n      swap1\n      tag_28\n      jump\t// in\n    tag_55:\n      mload(0x40)\n      dup1\n      swap2\n      sub\n      swap1\n      return\n        /* \"TryUSelf/PaymentSplitter/PaymentSplitter.sol\":630:670  mapping(address =>uint256) public shares */\n    tag_10:\n      callvalue\n      dup1\n      iszero\n      tag_56\n      jumpi\n      0x00\n      dup1\n      revert\n    tag_56:\n      pop\n      tag_57\n      0x04\n      dup1\n      calldatasize\n      sub\n      dup2\n      add\n      swap1\n      tag_58\n      swap2\n      swap1\n      tag_48\n      jump\t// in\n    tag_58:\n      tag_59\n      jump\t// in\n    tag_57:\n      mload(0x40)\n      tag_60\n      swap2\n      swap1\n      tag_28\n      jump\t// in\n    tag_60:\n      mload(0x40)\n      dup1\n      swap2\n      sub\n      swap1\n      return\n        /* \"TryUSelf/PaymentSplitter/PaymentSplitter.sol\":565:593  uint256 public totalReleased */\n    tag_11:\n      callvalue\n      dup1\n      iszero\n      tag_61\n      jumpi\n      0x00\n      dup1\n      revert\n    tag_61:\n      pop\n      tag_62\n      tag_63\n      jump\t// in\n    tag_62:\n      mload(0x40)\n      tag_64\n      swap2\n      swap1\n      tag_28\n      jump\t// in\n    tag_64:\n      mload(0x40)\n      dup1\n      swap2\n      sub\n      swap1\n      return\n        /* \"TryUSelf/PaymentSplitter/PaymentSplitter.sol\":1452:1996  function release(... */\n    tag_21:\n        /* \"TryUSelf/PaymentSplitter/PaymentSplitter.sol\":1575:1576  0 */\n      0x00\n        /* \"TryUSelf/PaymentSplitter/PaymentSplitter.sol\":1558:1564  shares */\n      0x03\n        /* \"TryUSelf/PaymentSplitter/PaymentSplitter.sol\":1558:1572  shares[_payee] */\n      0x00\n        /* \"TryUSelf/PaymentSplitter/PaymentSplitter.sol\":1565:1571  _payee */\n      dup4\n        /* \"TryUSelf/PaymentSplitter/PaymentSplitter.sol\":1558:1572  shares[_payee] */\n      0xffffffffffffffffffffffffffffffffffffffff\n      and\n      0xffffffffffffffffffffffffffffffffffffffff\n      and\n      dup2\n      mstore\n      0x20\n      add\n      swap1\n      dup2\n      mstore\n      0x20\n      add\n      0x00\n      keccak256\n      sload\n        /* \"TryUSelf/PaymentSplitter/PaymentSplitter.sol\":1558:1576  shares[_payee] > 0 */\n      gt\n        /* \"TryUSelf/PaymentSplitter/PaymentSplitter.sol\":1536:1643  require(... */\n      tag_66\n      jumpi\n      mload(0x40)\n      0x08c379a000000000000000000000000000000000000000000000000000000000\n      dup2\n      mstore\n      0x04\n      add\n      tag_67\n      swap1\n      tag_68\n      jump\t// in\n    tag_67:\n      mload(0x40)\n      dup1\n      swap2\n      sub\n      swap1\n      revert\n    tag_66:\n        /* \"TryUSelf/PaymentSplitter/PaymentSplitter.sol\":1654:1675  uint256 valid_payment */\n      0x00\n        /* \"TryUSelf/PaymentSplitter/PaymentSplitter.sol\":1678:1696  releasable(_payee) */\n      tag_69\n        /* \"TryUSelf/PaymentSplitter/PaymentSplitter.sol\":1689:1695  _payee */\n      dup3\n        /* \"TryUSelf/PaymentSplitter/PaymentSplitter.sol\":1678:1688  releasable */\n      tag_54\n        /* \"TryUSelf/PaymentSplitter/PaymentSplitter.sol\":1678:1696  releasable(_payee) */\n      jump\t// in\n    tag_69:\n        /* \"TryUSelf/PaymentSplitter/PaymentSplitter.sol\":1654:1696  uint256 valid_payment = releasable(_payee) */\n      swap1\n      pop\n        /* \"TryUSelf/PaymentSplitter/PaymentSplitter.sol\":1746:1747  0 */\n      0x00\n        /* \"TryUSelf/PaymentSplitter/PaymentSplitter.sol\":1729:1742  valid_payment */\n      dup2\n        /* \"TryUSelf/PaymentSplitter/PaymentSplitter.sol\":1729:1747  valid_payment == 0 */\n      eq\n        /* \"TryUSelf/PaymentSplitter/PaymentSplitter.sol\":1707:1806  require(... */\n      tag_70\n      jumpi\n      mload(0x40)\n      0x08c379a000000000000000000000000000000000000000000000000000000000\n      dup2\n      mstore\n      0x04\n      add\n      tag_71\n      swap1\n      tag_72\n      jump\t// in\n    tag_71:\n      mload(0x40)\n      dup1\n      swap2\n      sub\n      swap1\n      revert\n    tag_70:\n        /* \"TryUSelf/PaymentSplitter/PaymentSplitter.sol\":1837:1850  valid_payment */\n      dup1\n        /* \"TryUSelf/PaymentSplitter/PaymentSplitter.sol\":1817:1825  released */\n      0x04\n        /* \"TryUSelf/PaymentSplitter/PaymentSplitter.sol\":1817:1833  released[_payee] */\n      0x00\n        /* \"TryUSelf/PaymentSplitter/PaymentSplitter.sol\":1826:1832  _payee */\n      dup5\n        /* \"TryUSelf/PaymentSplitter/PaymentSplitter.sol\":1817:1833  released[_payee] */\n      0xffffffffffffffffffffffffffffffffffffffff\n      and\n      0xffffffffffffffffffffffffffffffffffffffff\n      and\n      dup2\n      mstore\n      0x20\n      add\n      swap1\n      dup2\n      mstore\n      0x20\n      add\n      0x00\n      keccak256\n      0x00\n        /* \"TryUSelf/PaymentSplitter/PaymentSplitter.sol\":1817:1850  released[_payee] += valid_payment */\n      dup3\n      dup3\n      sload\n      tag_73\n      swap2\n      swap1\n      tag_74\n      jump\t// in\n    tag_73:\n      swap3\n      pop\n      pop\n      dup2\n      swap1\n      sstore\n      pop\n        /* \"TryUSelf/PaymentSplitter/PaymentSplitter.sol\":1878:1891  valid_payment */\n      dup1\n        /* \"TryUSelf/PaymentSplitter/PaymentSplitter.sol\":1861:1874  totalReleased */\n      0x01\n      0x00\n        /* \"TryUSelf/PaymentSplitter/PaymentSplitter.sol\":1861:1891  totalReleased += valid_payment */\n      dup3\n      dup3\n      sload\n      tag_75\n      swap2\n      swap1\n      tag_74\n      jump\t// in\n    tag_75:\n      swap3\n      pop\n      pop\n      dup2\n      swap1\n      sstore\n      pop\n        /* \"TryUSelf/PaymentSplitter/PaymentSplitter.sol\":1902:1908  _payee */\n      dup2\n        /* \"TryUSelf/PaymentSplitter/PaymentSplitter.sol\":1902:1917  _payee.transfer */\n      0xffffffffffffffffffffffffffffffffffffffff\n      and\n        /* \"TryUSelf/PaymentSplitter/PaymentSplitter.sol\":1902:1932  _payee.transfer(valid_payment) */\n      0x08fc\n        /* \"TryUSelf/PaymentSplitter/PaymentSplitter.sol\":1918:1931  valid_payment */\n      dup3\n        /* \"TryUSelf/PaymentSplitter/PaymentSplitter.sol\":1902:1932  _payee.transfer(valid_payment) */\n      swap1\n      dup2\n      iszero\n      mul\n      swap1\n      mload(0x40)\n      0x00\n      mload(0x40)\n      dup1\n      dup4\n      sub\n      dup2\n      dup6\n      dup9\n      dup9\n      call\n      swap4\n      pop\n      pop\n      pop\n      pop\n      iszero\n      dup1\n      iszero\n      tag_77\n      jumpi\n      returndatasize\n      0x00\n      dup1\n      returndatacopy\n      revert(0x00, returndatasize)\n    tag_77:\n      pop\n        /* \"TryUSelf/PaymentSplitter/PaymentSplitter.sol\":1950:1988  PaymentReleased(_payee, valid_payment) */\n      0xdf20fd1e76bc69d672e4814fafb2c449bba3a5369d8359adf9e05e6fde87b056\n        /* \"TryUSelf/PaymentSplitter/PaymentSplitter.sol\":1966:1972  _payee */\n      dup3\n        /* \"TryUSelf/PaymentSplitter/PaymentSplitter.sol\":1974:1987  valid_payment */\n      dup3\n        /* \"TryUSelf/PaymentSplitter/PaymentSplitter.sol\":1950:1988  PaymentReleased(_payee, valid_payment) */\n      mload(0x40)\n      tag_78\n      swap3\n      swap2\n      swap1\n      tag_79\n      jump\t// in\n    tag_78:\n      mload(0x40)\n      dup1\n      swap2\n      sub\n      swap1\n      log1\n        /* \"TryUSelf/PaymentSplitter/PaymentSplitter.sol\":1525:1996  {... */\n      pop\n        /* \"TryUSelf/PaymentSplitter/PaymentSplitter.sol\":1452:1996  function release(... */\n      pop\n      jump\t// out\n        /* \"TryUSelf/PaymentSplitter/PaymentSplitter.sol\":2608:2867  function pendingPayment(... */\n    tag_26:\n        /* \"TryUSelf/PaymentSplitter/PaymentSplitter.sol\":2751:2758  uint256 */\n      0x00\n        /* \"TryUSelf/PaymentSplitter/PaymentSplitter.sol\":2844:2859  _released_value */\n      dup2\n        /* \"TryUSelf/PaymentSplitter/PaymentSplitter.sol\":2826:2841  _total_received */\n      dup4\n        /* \"TryUSelf/PaymentSplitter/PaymentSplitter.sol\":2809:2815  shares */\n      0x03\n        /* \"TryUSelf/PaymentSplitter/PaymentSplitter.sol\":2809:2823  shares[_payee] */\n      0x00\n        /* \"TryUSelf/PaymentSplitter/PaymentSplitter.sol\":2816:2822  _payee */\n      dup8\n        /* \"TryUSelf/PaymentSplitter/PaymentSplitter.sol\":2809:2823  shares[_payee] */\n      0xffffffffffffffffffffffffffffffffffffffff\n      and\n      0xffffffffffffffffffffffffffffffffffffffff\n      and\n      dup2\n      mstore\n      0x20\n      add\n      swap1\n      dup2\n      mstore\n      0x20\n      add\n      0x00\n      keccak256\n      sload\n        /* \"TryUSelf/PaymentSplitter/PaymentSplitter.sol\":2791:2806  _total_received */\n      dup6\n        /* \"TryUSelf/PaymentSplitter/PaymentSplitter.sol\":2791:2823  _total_received * shares[_payee] */\n      tag_81\n      swap2\n      swap1\n      tag_82\n      jump\t// in\n    tag_81:\n        /* \"TryUSelf/PaymentSplitter/PaymentSplitter.sol\":2791:2841  _total_received * shares[_payee] / _total_received */\n      tag_83\n      swap2\n      swap1\n      tag_84\n      jump\t// in\n    tag_83:\n        /* \"TryUSelf/PaymentSplitter/PaymentSplitter.sol\":2791:2859  _total_received * shares[_payee] / _total_received - _released_value */\n      tag_85\n      swap2\n      swap1\n      tag_86\n      jump\t// in\n    tag_85:\n        /* \"TryUSelf/PaymentSplitter/PaymentSplitter.sol\":2770:2859  return ... */\n      swap1\n      pop\n        /* \"TryUSelf/PaymentSplitter/PaymentSplitter.sol\":2608:2867  function pendingPayment(... */\n      swap4\n      swap3\n      pop\n      pop\n      pop\n      jump\t// out\n        /* \"TryUSelf/PaymentSplitter/PaymentSplitter.sol\":532:558  uint256 public totalShares */\n    tag_31:\n      sload(0x00)\n      dup2\n      jump\t// out\n        /* \"TryUSelf/PaymentSplitter/PaymentSplitter.sol\":600:623  address[] public payees */\n    tag_37:\n      0x02\n      dup2\n      dup2\n      sload\n      dup2\n      lt\n      tag_87\n      jumpi\n      0x00\n      dup1\n      revert\n    tag_87:\n      swap1\n      0x00\n      mstore\n      keccak256(0x00, 0x20)\n      add\n      0x00\n      swap2\n      pop\n      sload\n      swap1\n      0x0100\n      exp\n      swap1\n      div\n      0xffffffffffffffffffffffffffffffffffffffff\n      and\n      dup2\n      jump\t// out\n        /* \"TryUSelf/PaymentSplitter/PaymentSplitter.sol\":2109:2600  function _addPayee(... */\n    tag_44:\n        /* \"TryUSelf/PaymentSplitter/PaymentSplitter.sol\":2243:2244  0 */\n      0x00\n        /* \"TryUSelf/PaymentSplitter/PaymentSplitter.sol\":2225:2245  _payee != address(0) */\n      0xffffffffffffffffffffffffffffffffffffffff\n      and\n        /* \"TryUSelf/PaymentSplitter/PaymentSplitter.sol\":2225:2231  _payee */\n      dup3\n        /* \"TryUSelf/PaymentSplitter/PaymentSplitter.sol\":2225:2245  _payee != address(0) */\n      0xffffffffffffffffffffffffffffffffffffffff\n      and\n      sub\n        /* \"TryUSelf/PaymentSplitter/PaymentSplitter.sol\":2203:2305  require(... */\n      tag_90\n      jumpi\n      mload(0x40)\n      0x08c379a000000000000000000000000000000000000000000000000000000000\n      dup2\n      mstore\n      0x04\n      add\n      tag_91\n      swap1\n      tag_92\n      jump\t// in\n    tag_91:\n      mload(0x40)\n      dup1\n      swap2\n      sub\n      swap1\n      revert\n    tag_90:\n        /* \"TryUSelf/PaymentSplitter/PaymentSplitter.sol\":2347:2348  0 */\n      0x00\n        /* \"TryUSelf/PaymentSplitter/PaymentSplitter.sol\":2338:2344  _share */\n      dup2\n        /* \"TryUSelf/PaymentSplitter/PaymentSplitter.sol\":2338:2348  _share > 0 */\n      gt\n        /* \"TryUSelf/PaymentSplitter/PaymentSplitter.sol\":2316:2392  require(... */\n      tag_93\n      jumpi\n      mload(0x40)\n      0x08c379a000000000000000000000000000000000000000000000000000000000\n      dup2\n      mstore\n      0x04\n      add\n      tag_94\n      swap1\n      tag_95\n      jump\t// in\n    tag_94:\n      mload(0x40)\n      dup1\n      swap2\n      sub\n      swap1\n      revert\n    tag_93:\n        /* \"TryUSelf/PaymentSplitter/PaymentSplitter.sol\":2443:2444  0 */\n      0x00\n        /* \"TryUSelf/PaymentSplitter/PaymentSplitter.sol\":2425:2431  shares */\n      0x03\n        /* \"TryUSelf/PaymentSplitter/PaymentSplitter.sol\":2425:2439  shares[_payee] */\n      0x00\n        /* \"TryUSelf/PaymentSplitter/PaymentSplitter.sol\":2432:2438  _payee */\n      dup5\n        /* \"TryUSelf/PaymentSplitter/PaymentSplitter.sol\":2425:2439  shares[_payee] */\n      0xffffffffffffffffffffffffffffffffffffffff\n      and\n      0xffffffffffffffffffffffffffffffffffffffff\n      and\n      dup2\n      mstore\n      0x20\n      add\n      swap1\n      dup2\n      mstore\n      0x20\n      add\n      0x00\n      keccak256\n      sload\n        /* \"TryUSelf/PaymentSplitter/PaymentSplitter.sol\":2425:2444  shares[_payee] == 0 */\n      eq\n        /* \"TryUSelf/PaymentSplitter/PaymentSplitter.sol\":2403:2496  require(... */\n      tag_96\n      jumpi\n      mload(0x40)\n      0x08c379a000000000000000000000000000000000000000000000000000000000\n      dup2\n      mstore\n      0x04\n      add\n      tag_97\n      swap1\n      tag_98\n      jump\t// in\n    tag_97:\n      mload(0x40)\n      dup1\n      swap2\n      sub\n      swap1\n      revert\n    tag_96:\n        /* \"TryUSelf/PaymentSplitter/PaymentSplitter.sol\":2524:2530  _share */\n      dup1\n        /* \"TryUSelf/PaymentSplitter/PaymentSplitter.sol\":2507:2513  shares */\n      0x03\n        /* \"TryUSelf/PaymentSplitter/PaymentSplitter.sol\":2507:2521  shares[_payee] */\n      0x00\n        /* \"TryUSelf/PaymentSplitter/PaymentSplitter.sol\":2514:2520  _payee */\n      dup5\n        /* \"TryUSelf/PaymentSplitter/PaymentSplitter.sol\":2507:2521  shares[_payee] */\n      0xffffffffffffffffffffffffffffffffffffffff\n      and\n      0xffffffffffffffffffffffffffffffffffffffff\n      and\n      dup2\n      mstore\n      0x20\n      add\n      swap1\n      dup2\n      mstore\n      0x20\n      add\n      0x00\n      keccak256\n        /* \"TryUSelf/PaymentSplitter/PaymentSplitter.sol\":2507:2530  shares[_payee] = _share */\n      dup2\n      swap1\n      sstore\n      pop\n        /* \"TryUSelf/PaymentSplitter/PaymentSplitter.sol\":2541:2547  payees */\n      0x02\n        /* \"TryUSelf/PaymentSplitter/PaymentSplitter.sol\":2553:2559  _payee */\n      dup3\n        /* \"TryUSelf/PaymentSplitter/PaymentSplitter.sol\":2541:2560  payees.push(_payee) */\n      swap1\n      dup1\n      0x01\n      dup2\n      sload\n      add\n      dup1\n      dup3\n      sstore\n      dup1\n      swap2\n      pop\n      pop\n      0x01\n      swap1\n      sub\n      swap1\n      0x00\n      mstore\n      keccak256(0x00, 0x20)\n      add\n      0x00\n      swap1\n      swap2\n      swap1\n      swap2\n      swap1\n      swap2\n      0x0100\n      exp\n      dup2\n      sload\n      dup2\n      0xffffffffffffffffffffffffffffffffffffffff\n      mul\n      not\n      and\n      swap1\n      dup4\n      0xffffffffffffffffffffffffffffffffffffffff\n      and\n      mul\n      or\n      swap1\n      sstore\n      pop\n        /* \"TryUSelf/PaymentSplitter/PaymentSplitter.sol\":2586:2592  _share */\n      dup1\n        /* \"TryUSelf/PaymentSplitter/PaymentSplitter.sol\":2571:2582  totalShares */\n      0x00\n      dup1\n        /* \"TryUSelf/PaymentSplitter/PaymentSplitter.sol\":2571:2592  totalShares += _share */\n      dup3\n      dup3\n      sload\n      tag_100\n      swap2\n      swap1\n      tag_74\n      jump\t// in\n    tag_100:\n      swap3\n      pop\n      pop\n      dup2\n      swap1\n      sstore\n      pop\n        /* \"TryUSelf/PaymentSplitter/PaymentSplitter.sol\":2109:2600  function _addPayee(... */\n      pop\n      pop\n      jump\t// out\n        /* \"TryUSelf/PaymentSplitter/PaymentSplitter.sol\":677:718  mapping(address=>uint256) public released */\n    tag_49:\n      mstore(0x20, 0x04)\n      dup1\n      0x00\n      mstore\n      keccak256(0x00, 0x40)\n      0x00\n      swap2\n      pop\n      swap1\n      pop\n      sload\n      dup2\n      jump\t// out\n        /* \"TryUSelf/PaymentSplitter/PaymentSplitter.sol\":1200:1442  function releasable(... */\n    tag_54:\n        /* \"TryUSelf/PaymentSplitter/PaymentSplitter.sol\":1281:1288  uint256 */\n      0x00\n        /* \"TryUSelf/PaymentSplitter/PaymentSplitter.sol\":1300:1321  uint256 totalReceived */\n      dup1\n        /* \"TryUSelf/PaymentSplitter/PaymentSplitter.sol\":1348:1361  totalReleased */\n      sload(0x01)\n        /* \"TryUSelf/PaymentSplitter/PaymentSplitter.sol\":1324:1345  address(this).balance */\n      selfbalance\n        /* \"TryUSelf/PaymentSplitter/PaymentSplitter.sol\":1324:1361  address(this).balance + totalReleased */\n      tag_102\n      swap2\n      swap1\n      tag_74\n      jump\t// in\n    tag_102:\n        /* \"TryUSelf/PaymentSplitter/PaymentSplitter.sol\":1300:1361  uint256 totalReceived = address(this).balance + totalReleased */\n      swap1\n      pop\n        /* \"TryUSelf/PaymentSplitter/PaymentSplitter.sol\":1379:1434  pendingPayment(_payee, totalReceived, released[_payee]) */\n      tag_103\n        /* \"TryUSelf/PaymentSplitter/PaymentSplitter.sol\":1394:1400  _payee */\n      dup4\n        /* \"TryUSelf/PaymentSplitter/PaymentSplitter.sol\":1402:1415  totalReceived */\n      dup3\n        /* \"TryUSelf/PaymentSplitter/PaymentSplitter.sol\":1417:1425  released */\n      0x04\n        /* \"TryUSelf/PaymentSplitter/PaymentSplitter.sol\":1417:1433  released[_payee] */\n      0x00\n        /* \"TryUSelf/PaymentSplitter/PaymentSplitter.sol\":1426:1432  _payee */\n      dup8\n        /* \"TryUSelf/PaymentSplitter/PaymentSplitter.sol\":1417:1433  released[_payee] */\n      0xffffffffffffffffffffffffffffffffffffffff\n      and\n      0xffffffffffffffffffffffffffffffffffffffff\n      and\n      dup2\n      mstore\n      0x20\n      add\n      swap1\n      dup2\n      mstore\n      0x20\n      add\n      0x00\n      keccak256\n      sload\n        /* \"TryUSelf/PaymentSplitter/PaymentSplitter.sol\":1379:1393  pendingPayment */\n      tag_26\n        /* \"TryUSelf/PaymentSplitter/PaymentSplitter.sol\":1379:1434  pendingPayment(_payee, totalReceived, released[_payee]) */\n      jump\t// in\n    tag_103:\n        /* \"TryUSelf/PaymentSplitter/PaymentSplitter.sol\":1372:1434  return pendingPayment(_payee, totalReceived, released[_payee]) */\n      swap2\n      pop\n      pop\n        /* \"TryUSelf/PaymentSplitter/PaymentSplitter.sol\":1200:1442  function releasable(... */\n      swap2\n      swap1\n      pop\n      jump\t// out\n        /* \"TryUSelf/PaymentSplitter/PaymentSplitter.sol\":630:670  mapping(address =>uint256) public shares */\n    tag_59:\n      mstore(0x20, 0x03)\n      dup1\n      0x00\n      mstore\n      keccak256(0x00, 0x40)\n      0x00\n      swap2\n      pop\n      swap1\n      pop\n      sload\n      dup2\n      jump\t// out\n        /* \"TryUSelf/PaymentSplitter/PaymentSplitter.sol\":565:593  uint256 public totalReleased */\n    tag_63:\n      sload(0x01)\n      dup2\n      jump\t// out\n        /* \"#utility.yul\":7:133   */\n    tag_104:\n        /* \"#utility.yul\":44:51   */\n      0x00\n        /* \"#utility.yul\":84:126   */\n      0xffffffffffffffffffffffffffffffffffffffff\n        /* \"#utility.yul\":77:82   */\n      dup3\n        /* \"#utility.yul\":73:127   */\n      and\n        /* \"#utility.yul\":62:127   */\n      swap1\n      pop\n        /* \"#utility.yul\":7:133   */\n      swap2\n      swap1\n      pop\n      jump\t// out\n        /* \"#utility.yul\":139:235   */\n    tag_105:\n        /* \"#utility.yul\":176:183   */\n      0x00\n        /* \"#utility.yul\":205:229   */\n      tag_140\n        /* \"#utility.yul\":223:228   */\n      dup3\n        /* \"#utility.yul\":205:229   */\n      tag_104\n      jump\t// in\n    tag_140:\n        /* \"#utility.yul\":194:229   */\n      swap1\n      pop\n        /* \"#utility.yul\":139:235   */\n      swap2\n      swap1\n      pop\n      jump\t// out\n        /* \"#utility.yul\":241:359   */\n    tag_106:\n        /* \"#utility.yul\":328:352   */\n      tag_142\n        /* \"#utility.yul\":346:351   */\n      dup2\n        /* \"#utility.yul\":328:352   */\n      tag_105\n      jump\t// in\n    tag_142:\n        /* \"#utility.yul\":323:326   */\n      dup3\n        /* \"#utility.yul\":316:353   */\n      mstore\n        /* \"#utility.yul\":241:359   */\n      pop\n      pop\n      jump\t// out\n        /* \"#utility.yul\":365:442   */\n    tag_107:\n        /* \"#utility.yul\":402:409   */\n      0x00\n        /* \"#utility.yul\":431:436   */\n      dup2\n        /* \"#utility.yul\":420:436   */\n      swap1\n      pop\n        /* \"#utility.yul\":365:442   */\n      swap2\n      swap1\n      pop\n      jump\t// out\n        /* \"#utility.yul\":448:566   */\n    tag_108:\n        /* \"#utility.yul\":535:559   */\n      tag_145\n        /* \"#utility.yul\":553:558   */\n      dup2\n        /* \"#utility.yul\":535:559   */\n      tag_107\n      jump\t// in\n    tag_145:\n        /* \"#utility.yul\":530:533   */\n      dup3\n        /* \"#utility.yul\":523:560   */\n      mstore\n        /* \"#utility.yul\":448:566   */\n      pop\n      pop\n      jump\t// out\n        /* \"#utility.yul\":572:904   */\n    tag_16:\n        /* \"#utility.yul\":693:697   */\n      0x00\n        /* \"#utility.yul\":731:733   */\n      0x40\n        /* \"#utility.yul\":720:729   */\n      dup3\n        /* \"#utility.yul\":716:734   */\n      add\n        /* \"#utility.yul\":708:734   */\n      swap1\n      pop\n        /* \"#utility.yul\":744:815   */\n      tag_147\n        /* \"#utility.yul\":812:813   */\n      0x00\n        /* \"#utility.yul\":801:810   */\n      dup4\n        /* \"#utility.yul\":797:814   */\n      add\n        /* \"#utility.yul\":788:794   */\n      dup6\n        /* \"#utility.yul\":744:815   */\n      tag_106\n      jump\t// in\n    tag_147:\n        /* \"#utility.yul\":825:897   */\n      tag_148\n        /* \"#utility.yul\":893:895   */\n      0x20\n        /* \"#utility.yul\":882:891   */\n      dup4\n        /* \"#utility.yul\":878:896   */\n      add\n        /* \"#utility.yul\":869:875   */\n      dup5\n        /* \"#utility.yul\":825:897   */\n      tag_108\n      jump\t// in\n    tag_148:\n        /* \"#utility.yul\":572:904   */\n      swap4\n      swap3\n      pop\n      pop\n      pop\n      jump\t// out\n        /* \"#utility.yul\":991:1108   */\n    tag_110:\n        /* \"#utility.yul\":1100:1101   */\n      0x00\n        /* \"#utility.yul\":1097:1098   */\n      dup1\n        /* \"#utility.yul\":1090:1102   */\n      revert\n        /* \"#utility.yul\":1237:1341   */\n    tag_112:\n        /* \"#utility.yul\":1282:1289   */\n      0x00\n        /* \"#utility.yul\":1311:1335   */\n      tag_153\n        /* \"#utility.yul\":1329:1334   */\n      dup3\n        /* \"#utility.yul\":1311:1335   */\n      tag_104\n      jump\t// in\n    tag_153:\n        /* \"#utility.yul\":1300:1335   */\n      swap1\n      pop\n        /* \"#utility.yul\":1237:1341   */\n      swap2\n      swap1\n      pop\n      jump\t// out\n        /* \"#utility.yul\":1347:1485   */\n    tag_113:\n        /* \"#utility.yul\":1428:1460   */\n      tag_155\n        /* \"#utility.yul\":1454:1459   */\n      dup2\n        /* \"#utility.yul\":1428:1460   */\n      tag_112\n      jump\t// in\n    tag_155:\n        /* \"#utility.yul\":1421:1426   */\n      dup2\n        /* \"#utility.yul\":1418:1461   */\n      eq\n        /* \"#utility.yul\":1408:1479   */\n      tag_156\n      jumpi\n        /* \"#utility.yul\":1475:1476   */\n      0x00\n        /* \"#utility.yul\":1472:1473   */\n      dup1\n        /* \"#utility.yul\":1465:1477   */\n      revert\n        /* \"#utility.yul\":1408:1479   */\n    tag_156:\n        /* \"#utility.yul\":1347:1485   */\n      pop\n      jump\t// out\n        /* \"#utility.yul\":1491:1646   */\n    tag_114:\n        /* \"#utility.yul\":1545:1550   */\n      0x00\n        /* \"#utility.yul\":1583:1589   */\n      dup2\n        /* \"#utility.yul\":1570:1590   */\n      calldataload\n        /* \"#utility.yul\":1561:1590   */\n      swap1\n      pop\n        /* \"#utility.yul\":1599:1640   */\n      tag_158\n        /* \"#utility.yul\":1634:1639   */\n      dup2\n        /* \"#utility.yul\":1599:1640   */\n      tag_113\n      jump\t// in\n    tag_158:\n        /* \"#utility.yul\":1491:1646   */\n      swap3\n      swap2\n      pop\n      pop\n      jump\t// out\n        /* \"#utility.yul\":1652:1997   */\n    tag_20:\n        /* \"#utility.yul\":1719:1725   */\n      0x00\n        /* \"#utility.yul\":1768:1770   */\n      0x20\n        /* \"#utility.yul\":1756:1765   */\n      dup3\n        /* \"#utility.yul\":1747:1754   */\n      dup5\n        /* \"#utility.yul\":1743:1766   */\n      sub\n        /* \"#utility.yul\":1739:1771   */\n      slt\n        /* \"#utility.yul\":1736:1855   */\n      iszero\n      tag_160\n      jumpi\n        /* \"#utility.yul\":1774:1853   */\n      tag_161\n      tag_110\n      jump\t// in\n    tag_161:\n        /* \"#utility.yul\":1736:1855   */\n    tag_160:\n        /* \"#utility.yul\":1894:1895   */\n      0x00\n        /* \"#utility.yul\":1919:1980   */\n      tag_162\n        /* \"#utility.yul\":1972:1979   */\n      dup5\n        /* \"#utility.yul\":1963:1969   */\n      dup3\n        /* \"#utility.yul\":1952:1961   */\n      dup6\n        /* \"#utility.yul\":1948:1970   */\n      add\n        /* \"#utility.yul\":1919:1980   */\n      tag_114\n      jump\t// in\n    tag_162:\n        /* \"#utility.yul\":1909:1980   */\n      swap2\n      pop\n        /* \"#utility.yul\":1865:1990   */\n      pop\n        /* \"#utility.yul\":1652:1997   */\n      swap3\n      swap2\n      pop\n      pop\n      jump\t// out\n        /* \"#utility.yul\":2003:2125   */\n    tag_115:\n        /* \"#utility.yul\":2076:2100   */\n      tag_164\n        /* \"#utility.yul\":2094:2099   */\n      dup2\n        /* \"#utility.yul\":2076:2100   */\n      tag_105\n      jump\t// in\n    tag_164:\n        /* \"#utility.yul\":2069:2074   */\n      dup2\n        /* \"#utility.yul\":2066:2101   */\n      eq\n        /* \"#utility.yul\":2056:2119   */\n      tag_165\n      jumpi\n        /* \"#utility.yul\":2115:2116   */\n      0x00\n        /* \"#utility.yul\":2112:2113   */\n      dup1\n        /* \"#utility.yul\":2105:2117   */\n      revert\n        /* \"#utility.yul\":2056:2119   */\n    tag_165:\n        /* \"#utility.yul\":2003:2125   */\n      pop\n      jump\t// out\n        /* \"#utility.yul\":2131:2270   */\n    tag_116:\n        /* \"#utility.yul\":2177:2182   */\n      0x00\n        /* \"#utility.yul\":2215:2221   */\n      dup2\n        /* \"#utility.yul\":2202:2222   */\n      calldataload\n        /* \"#utility.yul\":2193:2222   */\n      swap1\n      pop\n        /* \"#utility.yul\":2231:2264   */\n      tag_167\n        /* \"#utility.yul\":2258:2263   */\n      dup2\n        /* \"#utility.yul\":2231:2264   */\n      tag_115\n      jump\t// in\n    tag_167:\n        /* \"#utility.yul\":2131:2270   */\n      swap3\n      swap2\n      pop\n      pop\n      jump\t// out\n        /* \"#utility.yul\":2276:2398   */\n    tag_117:\n        /* \"#utility.yul\":2349:2373   */\n      tag_169\n        /* \"#utility.yul\":2367:2372   */\n      dup2\n        /* \"#utility.yul\":2349:2373   */\n      tag_107\n      jump\t// in\n    tag_169:\n        /* \"#utility.yul\":2342:2347   */\n      dup2\n        /* \"#utility.yul\":2339:2374   */\n      eq\n        /* \"#utility.yul\":2329:2392   */\n      tag_170\n      jumpi\n        /* \"#utility.yul\":2388:2389   */\n      0x00\n        /* \"#utility.yul\":2385:2386   */\n      dup1\n        /* \"#utility.yul\":2378:2390   */\n      revert\n        /* \"#utility.yul\":2329:2392   */\n    tag_170:\n        /* \"#utility.yul\":2276:2398   */\n      pop\n      jump\t// out\n        /* \"#utility.yul\":2404:2543   */\n    tag_118:\n        /* \"#utility.yul\":2450:2455   */\n      0x00\n        /* \"#utility.yul\":2488:2494   */\n      dup2\n        /* \"#utility.yul\":2475:2495   */\n      calldataload\n        /* \"#utility.yul\":2466:2495   */\n      swap1\n      pop\n        /* \"#utility.yul\":2504:2537   */\n      tag_172\n        /* \"#utility.yul\":2531:2536   */\n      dup2\n        /* \"#utility.yul\":2504:2537   */\n      tag_117\n      jump\t// in\n    tag_172:\n        /* \"#utility.yul\":2404:2543   */\n      swap3\n      swap2\n      pop\n      pop\n      jump\t// out\n        /* \"#utility.yul\":2549:3168   */\n    tag_25:\n        /* \"#utility.yul\":2626:2632   */\n      0x00\n        /* \"#utility.yul\":2634:2640   */\n      dup1\n        /* \"#utility.yul\":2642:2648   */\n      0x00\n        /* \"#utility.yul\":2691:2693   */\n      0x60\n        /* \"#utility.yul\":2679:2688   */\n      dup5\n        /* \"#utility.yul\":2670:2677   */\n      dup7\n        /* \"#utility.yul\":2666:2689   */\n      sub\n        /* \"#utility.yul\":2662:2694   */\n      slt\n        /* \"#utility.yul\":2659:2778   */\n      iszero\n      tag_174\n      jumpi\n        /* \"#utility.yul\":2697:2776   */\n      tag_175\n      tag_110\n      jump\t// in\n    tag_175:\n        /* \"#utility.yul\":2659:2778   */\n    tag_174:\n        /* \"#utility.yul\":2817:2818   */\n      0x00\n        /* \"#utility.yul\":2842:2895   */\n      tag_176\n        /* \"#utility.yul\":2887:2894   */\n      dup7\n        /* \"#utility.yul\":2878:2884   */\n      dup3\n        /* \"#utility.yul\":2867:2876   */\n      dup8\n        /* \"#utility.yul\":2863:2885   */\n      add\n        /* \"#utility.yul\":2842:2895   */\n      tag_116\n      jump\t// in\n    tag_176:\n        /* \"#utility.yul\":2832:2895   */\n      swap4\n      pop\n        /* \"#utility.yul\":2788:2905   */\n      pop\n        /* \"#utility.yul\":2944:2946   */\n      0x20\n        /* \"#utility.yul\":2970:3023   */\n      tag_177\n        /* \"#utility.yul\":3015:3022   */\n      dup7\n        /* \"#utility.yul\":3006:3012   */\n      dup3\n        /* \"#utility.yul\":2995:3004   */\n      dup8\n        /* \"#utility.yul\":2991:3013   */\n      add\n        /* \"#utility.yul\":2970:3023   */\n      tag_118\n      jump\t// in\n    tag_177:\n        /* \"#utility.yul\":2960:3023   */\n      swap3\n      pop\n        /* \"#utility.yul\":2915:3033   */\n      pop\n        /* \"#utility.yul\":3072:3074   */\n      0x40\n        /* \"#utility.yul\":3098:3151   */\n      tag_178\n        /* \"#utility.yul\":3143:3150   */\n      dup7\n        /* \"#utility.yul\":3134:3140   */\n      dup3\n        /* \"#utility.yul\":3123:3132   */\n      dup8\n        /* \"#utility.yul\":3119:3141   */\n      add\n        /* \"#utility.yul\":3098:3151   */\n      tag_118\n      jump\t// in\n    tag_178:\n        /* \"#utility.yul\":3088:3151   */\n      swap2\n      pop\n        /* \"#utility.yul\":3043:3161   */\n      pop\n        /* \"#utility.yul\":2549:3168   */\n      swap3\n      pop\n      swap3\n      pop\n      swap3\n      jump\t// out\n        /* \"#utility.yul\":3174:3396   */\n    tag_28:\n        /* \"#utility.yul\":3267:3271   */\n      0x00\n        /* \"#utility.yul\":3305:3307   */\n      0x20\n        /* \"#utility.yul\":3294:3303   */\n      dup3\n        /* \"#utility.yul\":3290:3308   */\n      add\n        /* \"#utility.yul\":3282:3308   */\n      swap1\n      pop\n        /* \"#utility.yul\":3318:3389   */\n      tag_180\n        /* \"#utility.yul\":3386:3387   */\n      0x00\n        /* \"#utility.yul\":3375:3384   */\n      dup4\n        /* \"#utility.yul\":3371:3388   */\n      add\n        /* \"#utility.yul\":3362:3368   */\n      dup5\n        /* \"#utility.yul\":3318:3389   */\n      tag_108\n      jump\t// in\n    tag_180:\n        /* \"#utility.yul\":3174:3396   */\n      swap3\n      swap2\n      pop\n      pop\n      jump\t// out\n        /* \"#utility.yul\":3402:3731   */\n    tag_36:\n        /* \"#utility.yul\":3461:3467   */\n      0x00\n        /* \"#utility.yul\":3510:3512   */\n      0x20\n        /* \"#utility.yul\":3498:3507   */\n      dup3\n        /* \"#utility.yul\":3489:3496   */\n      dup5\n        /* \"#utility.yul\":3485:3508   */\n      sub\n        /* \"#utility.yul\":3481:3513   */\n      slt\n        /* \"#utility.yul\":3478:3597   */\n      iszero\n      tag_182\n      jumpi\n        /* \"#utility.yul\":3516:3595   */\n      tag_183\n      tag_110\n      jump\t// in\n    tag_183:\n        /* \"#utility.yul\":3478:3597   */\n    tag_182:\n        /* \"#utility.yul\":3636:3637   */\n      0x00\n        /* \"#utility.yul\":3661:3714   */\n      tag_184\n        /* \"#utility.yul\":3706:3713   */\n      dup5\n        /* \"#utility.yul\":3697:3703   */\n      dup3\n        /* \"#utility.yul\":3686:3695   */\n      dup6\n        /* \"#utility.yul\":3682:3704   */\n      add\n        /* \"#utility.yul\":3661:3714   */\n      tag_118\n      jump\t// in\n    tag_184:\n        /* \"#utility.yul\":3651:3714   */\n      swap2\n      pop\n        /* \"#utility.yul\":3607:3724   */\n      pop\n        /* \"#utility.yul\":3402:3731   */\n      swap3\n      swap2\n      pop\n      pop\n      jump\t// out\n        /* \"#utility.yul\":3737:3959   */\n    tag_39:\n        /* \"#utility.yul\":3830:3834   */\n      0x00\n        /* \"#utility.yul\":3868:3870   */\n      0x20\n        /* \"#utility.yul\":3857:3866   */\n      dup3\n        /* \"#utility.yul\":3853:3871   */\n      add\n        /* \"#utility.yul\":3845:3871   */\n      swap1\n      pop\n        /* \"#utility.yul\":3881:3952   */\n      tag_186\n        /* \"#utility.yul\":3949:3950   */\n      0x00\n        /* \"#utility.yul\":3938:3947   */\n      dup4\n        /* \"#utility.yul\":3934:3951   */\n      add\n        /* \"#utility.yul\":3925:3931   */\n      dup5\n        /* \"#utility.yul\":3881:3952   */\n      tag_106\n      jump\t// in\n    tag_186:\n        /* \"#utility.yul\":3737:3959   */\n      swap3\n      swap2\n      pop\n      pop\n      jump\t// out\n        /* \"#utility.yul\":3965:4439   */\n    tag_43:\n        /* \"#utility.yul\":4033:4039   */\n      0x00\n        /* \"#utility.yul\":4041:4047   */\n      dup1\n        /* \"#utility.yul\":4090:4092   */\n      0x40\n        /* \"#utility.yul\":4078:4087   */\n      dup4\n        /* \"#utility.yul\":4069:4076   */\n      dup6\n        /* \"#utility.yul\":4065:4088   */\n      sub\n        /* \"#utility.yul\":4061:4093   */\n      slt\n        /* \"#utility.yul\":4058:4177   */\n      iszero\n      tag_188\n      jumpi\n        /* \"#utility.yul\":4096:4175   */\n      tag_189\n      tag_110\n      jump\t// in\n    tag_189:\n        /* \"#utility.yul\":4058:4177   */\n    tag_188:\n        /* \"#utility.yul\":4216:4217   */\n      0x00\n        /* \"#utility.yul\":4241:4294   */\n      tag_190\n        /* \"#utility.yul\":4286:4293   */\n      dup6\n        /* \"#utility.yul\":4277:4283   */\n      dup3\n        /* \"#utility.yul\":4266:4275   */\n      dup7\n        /* \"#utility.yul\":4262:4284   */\n      add\n        /* \"#utility.yul\":4241:4294   */\n      tag_116\n      jump\t// in\n    tag_190:\n        /* \"#utility.yul\":4231:4294   */\n      swap3\n      pop\n        /* \"#utility.yul\":4187:4304   */\n      pop\n        /* \"#utility.yul\":4343:4345   */\n      0x20\n        /* \"#utility.yul\":4369:4422   */\n      tag_191\n        /* \"#utility.yul\":4414:4421   */\n      dup6\n        /* \"#utility.yul\":4405:4411   */\n      dup3\n        /* \"#utility.yul\":4394:4403   */\n      dup7\n        /* \"#utility.yul\":4390:4412   */\n      add\n        /* \"#utility.yul\":4369:4422   */\n      tag_118\n      jump\t// in\n    tag_191:\n        /* \"#utility.yul\":4359:4422   */\n      swap2\n      pop\n        /* \"#utility.yul\":4314:4432   */\n      pop\n        /* \"#utility.yul\":3965:4439   */\n      swap3\n      pop\n      swap3\n      swap1\n      pop\n      jump\t// out\n        /* \"#utility.yul\":4445:4774   */\n    tag_48:\n        /* \"#utility.yul\":4504:4510   */\n      0x00\n        /* \"#utility.yul\":4553:4555   */\n      0x20\n        /* \"#utility.yul\":4541:4550   */\n      dup3\n        /* \"#utility.yul\":4532:4539   */\n      dup5\n        /* \"#utility.yul\":4528:4551   */\n      sub\n        /* \"#utility.yul\":4524:4556   */\n      slt\n        /* \"#utility.yul\":4521:4640   */\n      iszero\n      tag_193\n      jumpi\n        /* \"#utility.yul\":4559:4638   */\n      tag_194\n      tag_110\n      jump\t// in\n    tag_194:\n        /* \"#utility.yul\":4521:4640   */\n    tag_193:\n        /* \"#utility.yul\":4679:4680   */\n      0x00\n        /* \"#utility.yul\":4704:4757   */\n      tag_195\n        /* \"#utility.yul\":4749:4756   */\n      dup5\n        /* \"#utility.yul\":4740:4746   */\n      dup3\n        /* \"#utility.yul\":4729:4738   */\n      dup6\n        /* \"#utility.yul\":4725:4747   */\n      add\n        /* \"#utility.yul\":4704:4757   */\n      tag_116\n      jump\t// in\n    tag_195:\n        /* \"#utility.yul\":4694:4757   */\n      swap2\n      pop\n        /* \"#utility.yul\":4650:4767   */\n      pop\n        /* \"#utility.yul\":4445:4774   */\n      swap3\n      swap2\n      pop\n      pop\n      jump\t// out\n        /* \"#utility.yul\":4780:4949   */\n    tag_119:\n        /* \"#utility.yul\":4864:4875   */\n      0x00\n        /* \"#utility.yul\":4898:4904   */\n      dup3\n        /* \"#utility.yul\":4893:4896   */\n      dup3\n        /* \"#utility.yul\":4886:4905   */\n      mstore\n        /* \"#utility.yul\":4938:4942   */\n      0x20\n        /* \"#utility.yul\":4933:4936   */\n      dup3\n        /* \"#utility.yul\":4929:4943   */\n      add\n        /* \"#utility.yul\":4914:4943   */\n      swap1\n      pop\n        /* \"#utility.yul\":4780:4949   */\n      swap3\n      swap2\n      pop\n      pop\n      jump\t// out\n        /* \"#utility.yul\":4955:5181   */\n    tag_120:\n        /* \"#utility.yul\":5095:5129   */\n      0x546865207368617265206973206e6f7420657869737420696e20746869732070\n        /* \"#utility.yul\":5091:5092   */\n      0x00\n        /* \"#utility.yul\":5083:5089   */\n      dup3\n        /* \"#utility.yul\":5079:5093   */\n      add\n        /* \"#utility.yul\":5072:5130   */\n      mstore\n        /* \"#utility.yul\":5164:5173   */\n      0x6179657221212100000000000000000000000000000000000000000000000000\n        /* \"#utility.yul\":5159:5161   */\n      0x20\n        /* \"#utility.yul\":5151:5157   */\n      dup3\n        /* \"#utility.yul\":5147:5162   */\n      add\n        /* \"#utility.yul\":5140:5174   */\n      mstore\n        /* \"#utility.yul\":4955:5181   */\n      pop\n      jump\t// out\n        /* \"#utility.yul\":5187:5553   */\n    tag_121:\n        /* \"#utility.yul\":5329:5332   */\n      0x00\n        /* \"#utility.yul\":5350:5417   */\n      tag_199\n        /* \"#utility.yul\":5414:5416   */\n      0x27\n        /* \"#utility.yul\":5409:5412   */\n      dup4\n        /* \"#utility.yul\":5350:5417   */\n      tag_119\n      jump\t// in\n    tag_199:\n        /* \"#utility.yul\":5343:5417   */\n      swap2\n      pop\n        /* \"#utility.yul\":5426:5519   */\n      tag_200\n        /* \"#utility.yul\":5515:5518   */\n      dup3\n        /* \"#utility.yul\":5426:5519   */\n      tag_120\n      jump\t// in\n    tag_200:\n        /* \"#utility.yul\":5544:5546   */\n      0x40\n        /* \"#utility.yul\":5539:5542   */\n      dup3\n        /* \"#utility.yul\":5535:5547   */\n      add\n        /* \"#utility.yul\":5528:5547   */\n      swap1\n      pop\n        /* \"#utility.yul\":5187:5553   */\n      swap2\n      swap1\n      pop\n      jump\t// out\n        /* \"#utility.yul\":5559:5978   */\n    tag_68:\n        /* \"#utility.yul\":5725:5729   */\n      0x00\n        /* \"#utility.yul\":5763:5765   */\n      0x20\n        /* \"#utility.yul\":5752:5761   */\n      dup3\n        /* \"#utility.yul\":5748:5766   */\n      add\n        /* \"#utility.yul\":5740:5766   */\n      swap1\n      pop\n        /* \"#utility.yul\":5812:5821   */\n      dup2\n        /* \"#utility.yul\":5806:5810   */\n      dup2\n        /* \"#utility.yul\":5802:5822   */\n      sub\n        /* \"#utility.yul\":5798:5799   */\n      0x00\n        /* \"#utility.yul\":5787:5796   */\n      dup4\n        /* \"#utility.yul\":5783:5800   */\n      add\n        /* \"#utility.yul\":5776:5823   */\n      mstore\n        /* \"#utility.yul\":5840:5971   */\n      tag_202\n        /* \"#utility.yul\":5966:5970   */\n      dup2\n        /* \"#utility.yul\":5840:5971   */\n      tag_121\n      jump\t// in\n    tag_202:\n        /* \"#utility.yul\":5832:5971   */\n      swap1\n      pop\n        /* \"#utility.yul\":5559:5978   */\n      swap2\n      swap1\n      pop\n      jump\t// out\n        /* \"#utility.yul\":5984:6164   */\n    tag_122:\n        /* \"#utility.yul\":6124:6156   */\n      0x416c72656164792072656c6561736520616c6c207061796d656e742121210000\n        /* \"#utility.yul\":6120:6121   */\n      0x00\n        /* \"#utility.yul\":6112:6118   */\n      dup3\n        /* \"#utility.yul\":6108:6122   */\n      add\n        /* \"#utility.yul\":6101:6157   */\n      mstore\n        /* \"#utility.yul\":5984:6164   */\n      pop\n      jump\t// out\n        /* \"#utility.yul\":6170:6536   */\n    tag_123:\n        /* \"#utility.yul\":6312:6315   */\n      0x00\n        /* \"#utility.yul\":6333:6400   */\n      tag_205\n        /* \"#utility.yul\":6397:6399   */\n      0x1e\n        /* \"#utility.yul\":6392:6395   */\n      dup4\n        /* \"#utility.yul\":6333:6400   */\n      tag_119\n      jump\t// in\n    tag_205:\n        /* \"#utility.yul\":6326:6400   */\n      swap2\n      pop\n        /* \"#utility.yul\":6409:6502   */\n      tag_206\n        /* \"#utility.yul\":6498:6501   */\n      dup3\n        /* \"#utility.yul\":6409:6502   */\n      tag_122\n      jump\t// in\n    tag_206:\n        /* \"#utility.yul\":6527:6529   */\n      0x20\n        /* \"#utility.yul\":6522:6525   */\n      dup3\n        /* \"#utility.yul\":6518:6530   */\n      add\n        /* \"#utility.yul\":6511:6530   */\n      swap1\n      pop\n        /* \"#utility.yul\":6170:6536   */\n      swap2\n      swap1\n      pop\n      jump\t// out\n        /* \"#utility.yul\":6542:6961   */\n    tag_72:\n        /* \"#utility.yul\":6708:6712   */\n      0x00\n        /* \"#utility.yul\":6746:6748   */\n      0x20\n        /* \"#utility.yul\":6735:6744   */\n      dup3\n        /* \"#utility.yul\":6731:6749   */\n      add\n        /* \"#utility.yul\":6723:6749   */\n      swap1\n      pop\n        /* \"#utility.yul\":6795:6804   */\n      dup2\n        /* \"#utility.yul\":6789:6793   */\n      dup2\n        /* \"#utility.yul\":6785:6805   */\n      sub\n        /* \"#utility.yul\":6781:6782   */\n      0x00\n        /* \"#utility.yul\":6770:6779   */\n      dup4\n        /* \"#utility.yul\":6766:6783   */\n      add\n        /* \"#utility.yul\":6759:6806   */\n      mstore\n        /* \"#utility.yul\":6823:6954   */\n      tag_208\n        /* \"#utility.yul\":6949:6953   */\n      dup2\n        /* \"#utility.yul\":6823:6954   */\n      tag_123\n      jump\t// in\n    tag_208:\n        /* \"#utility.yul\":6815:6954   */\n      swap1\n      pop\n        /* \"#utility.yul\":6542:6961   */\n      swap2\n      swap1\n      pop\n      jump\t// out\n        /* \"#utility.yul\":6967:7147   */\n    tag_124:\n        /* \"#utility.yul\":7015:7092   */\n      0x4e487b7100000000000000000000000000000000000000000000000000000000\n        /* \"#utility.yul\":7012:7013   */\n      0x00\n        /* \"#utility.yul\":7005:7093   */\n      mstore\n        /* \"#utility.yul\":7112:7116   */\n      0x11\n        /* \"#utility.yul\":7109:7110   */\n      0x04\n        /* \"#utility.yul\":7102:7117   */\n      mstore\n        /* \"#utility.yul\":7136:7140   */\n      0x24\n        /* \"#utility.yul\":7133:7134   */\n      0x00\n        /* \"#utility.yul\":7126:7141   */\n      revert\n        /* \"#utility.yul\":7153:7344   */\n    tag_74:\n        /* \"#utility.yul\":7193:7196   */\n      0x00\n        /* \"#utility.yul\":7212:7232   */\n      tag_211\n        /* \"#utility.yul\":7230:7231   */\n      dup3\n        /* \"#utility.yul\":7212:7232   */\n      tag_107\n      jump\t// in\n    tag_211:\n        /* \"#utility.yul\":7207:7232   */\n      swap2\n      pop\n        /* \"#utility.yul\":7246:7266   */\n      tag_212\n        /* \"#utility.yul\":7264:7265   */\n      dup4\n        /* \"#utility.yul\":7246:7266   */\n      tag_107\n      jump\t// in\n    tag_212:\n        /* \"#utility.yul\":7241:7266   */\n      swap3\n      pop\n        /* \"#utility.yul\":7289:7290   */\n      dup3\n        /* \"#utility.yul\":7286:7287   */\n      dup3\n        /* \"#utility.yul\":7282:7291   */\n      add\n        /* \"#utility.yul\":7275:7291   */\n      swap1\n      pop\n        /* \"#utility.yul\":7310:7313   */\n      dup1\n        /* \"#utility.yul\":7307:7308   */\n      dup3\n        /* \"#utility.yul\":7304:7314   */\n      gt\n        /* \"#utility.yul\":7301:7337   */\n      iszero\n      tag_213\n      jumpi\n        /* \"#utility.yul\":7317:7335   */\n      tag_214\n      tag_124\n      jump\t// in\n    tag_214:\n        /* \"#utility.yul\":7301:7337   */\n    tag_213:\n        /* \"#utility.yul\":7153:7344   */\n      swap3\n      swap2\n      pop\n      pop\n      jump\t// out\n        /* \"#utility.yul\":7350:7410   */\n    tag_125:\n        /* \"#utility.yul\":7378:7381   */\n      0x00\n        /* \"#utility.yul\":7399:7404   */\n      dup2\n        /* \"#utility.yul\":7392:7404   */\n      swap1\n      pop\n        /* \"#utility.yul\":7350:7410   */\n      swap2\n      swap1\n      pop\n      jump\t// out\n        /* \"#utility.yul\":7416:7558   */\n    tag_126:\n        /* \"#utility.yul\":7466:7475   */\n      0x00\n        /* \"#utility.yul\":7499:7552   */\n      tag_217\n        /* \"#utility.yul\":7517:7551   */\n      tag_218\n        /* \"#utility.yul\":7526:7550   */\n      tag_219\n        /* \"#utility.yul\":7544:7549   */\n      dup5\n        /* \"#utility.yul\":7526:7550   */\n      tag_104\n      jump\t// in\n    tag_219:\n        /* \"#utility.yul\":7517:7551   */\n      tag_125\n      jump\t// in\n    tag_218:\n        /* \"#utility.yul\":7499:7552   */\n      tag_104\n      jump\t// in\n    tag_217:\n        /* \"#utility.yul\":7486:7552   */\n      swap1\n      pop\n        /* \"#utility.yul\":7416:7558   */\n      swap2\n      swap1\n      pop\n      jump\t// out\n        /* \"#utility.yul\":7564:7690   */\n    tag_127:\n        /* \"#utility.yul\":7614:7623   */\n      0x00\n        /* \"#utility.yul\":7647:7684   */\n      tag_221\n        /* \"#utility.yul\":7678:7683   */\n      dup3\n        /* \"#utility.yul\":7647:7684   */\n      tag_126\n      jump\t// in\n    tag_221:\n        /* \"#utility.yul\":7634:7684   */\n      swap1\n      pop\n        /* \"#utility.yul\":7564:7690   */\n      swap2\n      swap1\n      pop\n      jump\t// out\n        /* \"#utility.yul\":7696:7830   */\n    tag_128:\n        /* \"#utility.yul\":7754:7763   */\n      0x00\n        /* \"#utility.yul\":7787:7824   */\n      tag_223\n        /* \"#utility.yul\":7818:7823   */\n      dup3\n        /* \"#utility.yul\":7787:7824   */\n      tag_127\n      jump\t// in\n    tag_223:\n        /* \"#utility.yul\":7774:7824   */\n      swap1\n      pop\n        /* \"#utility.yul\":7696:7830   */\n      swap2\n      swap1\n      pop\n      jump\t// out\n        /* \"#utility.yul\":7836:7983   */\n    tag_129:\n        /* \"#utility.yul\":7931:7976   */\n      tag_225\n        /* \"#utility.yul\":7970:7975   */\n      dup2\n        /* \"#utility.yul\":7931:7976   */\n      tag_128\n      jump\t// in\n    tag_225:\n        /* \"#utility.yul\":7926:7929   */\n      dup3\n        /* \"#utility.yul\":7919:7977   */\n      mstore\n        /* \"#utility.yul\":7836:7983   */\n      pop\n      pop\n      jump\t// out\n        /* \"#utility.yul\":7989:8337   */\n    tag_79:\n        /* \"#utility.yul\":8118:8122   */\n      0x00\n        /* \"#utility.yul\":8156:8158   */\n      0x40\n        /* \"#utility.yul\":8145:8154   */\n      dup3\n        /* \"#utility.yul\":8141:8159   */\n      add\n        /* \"#utility.yul\":8133:8159   */\n      swap1\n      pop\n        /* \"#utility.yul\":8169:8248   */\n      tag_227\n        /* \"#utility.yul\":8245:8246   */\n      0x00\n        /* \"#utility.yul\":8234:8243   */\n      dup4\n        /* \"#utility.yul\":8230:8247   */\n      add\n        /* \"#utility.yul\":8221:8227   */\n      dup6\n        /* \"#utility.yul\":8169:8248   */\n      tag_129\n      jump\t// in\n    tag_227:\n        /* \"#utility.yul\":8258:8330   */\n      tag_228\n        /* \"#utility.yul\":8326:8328   */\n      0x20\n        /* \"#utility.yul\":8315:8324   */\n      dup4\n        /* \"#utility.yul\":8311:8329   */\n      add\n        /* \"#utility.yul\":8302:8308   */\n      dup5\n        /* \"#utility.yul\":8258:8330   */\n      tag_108\n      jump\t// in\n    tag_228:\n        /* \"#utility.yul\":7989:8337   */\n      swap4\n      swap3\n      pop\n      pop\n      pop\n      jump\t// out\n        /* \"#utility.yul\":8343:8753   */\n    tag_82:\n        /* \"#utility.yul\":8383:8390   */\n      0x00\n        /* \"#utility.yul\":8406:8426   */\n      tag_230\n        /* \"#utility.yul\":8424:8425   */\n      dup3\n        /* \"#utility.yul\":8406:8426   */\n      tag_107\n      jump\t// in\n    tag_230:\n        /* \"#utility.yul\":8401:8426   */\n      swap2\n      pop\n        /* \"#utility.yul\":8440:8460   */\n      tag_231\n        /* \"#utility.yul\":8458:8459   */\n      dup4\n        /* \"#utility.yul\":8440:8460   */\n      tag_107\n      jump\t// in\n    tag_231:\n        /* \"#utility.yul\":8435:8460   */\n      swap3\n      pop\n        /* \"#utility.yul\":8495:8496   */\n      dup3\n        /* \"#utility.yul\":8492:8493   */\n      dup3\n        /* \"#utility.yul\":8488:8497   */\n      mul\n        /* \"#utility.yul\":8517:8547   */\n      tag_232\n        /* \"#utility.yul\":8535:8546   */\n      dup2\n        /* \"#utility.yul\":8517:8547   */\n      tag_107\n      jump\t// in\n    tag_232:\n        /* \"#utility.yul\":8506:8547   */\n      swap2\n      pop\n        /* \"#utility.yul\":8696:8697   */\n      dup3\n        /* \"#utility.yul\":8687:8694   */\n      dup3\n        /* \"#utility.yul\":8683:8698   */\n      div\n        /* \"#utility.yul\":8680:8681   */\n      dup5\n        /* \"#utility.yul\":8677:8699   */\n      eq\n        /* \"#utility.yul\":8657:8658   */\n      dup4\n        /* \"#utility.yul\":8650:8659   */\n      iszero\n        /* \"#utility.yul\":8630:8713   */\n      or\n        /* \"#utility.yul\":8607:8746   */\n      tag_233\n      jumpi\n        /* \"#utility.yul\":8726:8744   */\n      tag_234\n      tag_124\n      jump\t// in\n    tag_234:\n        /* \"#utility.yul\":8607:8746   */\n    tag_233:\n        /* \"#utility.yul\":8391:8753   */\n      pop\n        /* \"#utility.yul\":8343:8753   */\n      swap3\n      swap2\n      pop\n      pop\n      jump\t// out\n        /* \"#utility.yul\":8759:8939   */\n    tag_130:\n        /* \"#utility.yul\":8807:8884   */\n      0x4e487b7100000000000000000000000000000000000000000000000000000000\n        /* \"#utility.yul\":8804:8805   */\n      0x00\n        /* \"#utility.yul\":8797:8885   */\n      mstore\n        /* \"#utility.yul\":8904:8908   */\n      0x12\n        /* \"#utility.yul\":8901:8902   */\n      0x04\n        /* \"#utility.yul\":8894:8909   */\n      mstore\n        /* \"#utility.yul\":8928:8932   */\n      0x24\n        /* \"#utility.yul\":8925:8926   */\n      0x00\n        /* \"#utility.yul\":8918:8933   */\n      revert\n        /* \"#utility.yul\":8945:9130   */\n    tag_84:\n        /* \"#utility.yul\":8985:8986   */\n      0x00\n        /* \"#utility.yul\":9002:9022   */\n      tag_237\n        /* \"#utility.yul\":9020:9021   */\n      dup3\n        /* \"#utility.yul\":9002:9022   */\n      tag_107\n      jump\t// in\n    tag_237:\n        /* \"#utility.yul\":8997:9022   */\n      swap2\n      pop\n        /* \"#utility.yul\":9036:9056   */\n      tag_238\n        /* \"#utility.yul\":9054:9055   */\n      dup4\n        /* \"#utility.yul\":9036:9056   */\n      tag_107\n      jump\t// in\n    tag_238:\n        /* \"#utility.yul\":9031:9056   */\n      swap3\n      pop\n        /* \"#utility.yul\":9075:9076   */\n      dup3\n        /* \"#utility.yul\":9065:9100   */\n      tag_239\n      jumpi\n        /* \"#utility.yul\":9080:9098   */\n      tag_240\n      tag_130\n      jump\t// in\n    tag_240:\n        /* \"#utility.yul\":9065:9100   */\n    tag_239:\n        /* \"#utility.yul\":9122:9123   */\n      dup3\n        /* \"#utility.yul\":9119:9120   */\n      dup3\n        /* \"#utility.yul\":9115:9124   */\n      div\n        /* \"#utility.yul\":9110:9124   */\n      swap1\n      pop\n        /* \"#utility.yul\":8945:9130   */\n      swap3\n      swap2\n      pop\n      pop\n      jump\t// out\n        /* \"#utility.yul\":9136:9330   */\n    tag_86:\n        /* \"#utility.yul\":9176:9180   */\n      0x00\n        /* \"#utility.yul\":9196:9216   */\n      tag_242\n        /* \"#utility.yul\":9214:9215   */\n      dup3\n        /* \"#utility.yul\":9196:9216   */\n      tag_107\n      jump\t// in\n    tag_242:\n        /* \"#utility.yul\":9191:9216   */\n      swap2\n      pop\n        /* \"#utility.yul\":9230:9250   */\n      tag_243\n        /* \"#utility.yul\":9248:9249   */\n      dup4\n        /* \"#utility.yul\":9230:9250   */\n      tag_107\n      jump\t// in\n    tag_243:\n        /* \"#utility.yul\":9225:9250   */\n      swap3\n      pop\n        /* \"#utility.yul\":9274:9275   */\n      dup3\n        /* \"#utility.yul\":9271:9272   */\n      dup3\n        /* \"#utility.yul\":9267:9276   */\n      sub\n        /* \"#utility.yul\":9259:9276   */\n      swap1\n      pop\n        /* \"#utility.yul\":9298:9299   */\n      dup2\n        /* \"#utility.yul\":9292:9296   */\n      dup2\n        /* \"#utility.yul\":9289:9300   */\n      gt\n        /* \"#utility.yul\":9286:9323   */\n      iszero\n      tag_244\n      jumpi\n        /* \"#utility.yul\":9303:9321   */\n      tag_245\n      tag_124\n      jump\t// in\n    tag_245:\n        /* \"#utility.yul\":9286:9323   */\n    tag_244:\n        /* \"#utility.yul\":9136:9330   */\n      swap3\n      swap2\n      pop\n      pop\n      jump\t// out\n        /* \"#utility.yul\":9336:9518   */\n    tag_131:\n        /* \"#utility.yul\":9476:9510   */\n      0x5061796565206163636f756e74206973207a65726f206163636f756e74212121\n        /* \"#utility.yul\":9472:9473   */\n      0x00\n        /* \"#utility.yul\":9464:9470   */\n      dup3\n        /* \"#utility.yul\":9460:9474   */\n      add\n        /* \"#utility.yul\":9453:9511   */\n      mstore\n        /* \"#utility.yul\":9336:9518   */\n      pop\n      jump\t// out\n        /* \"#utility.yul\":9524:9890   */\n    tag_132:\n        /* \"#utility.yul\":9666:9669   */\n      0x00\n        /* \"#utility.yul\":9687:9754   */\n      tag_248\n        /* \"#utility.yul\":9751:9753   */\n      0x20\n        /* \"#utility.yul\":9746:9749   */\n      dup4\n        /* \"#utility.yul\":9687:9754   */\n      tag_119\n      jump\t// in\n    tag_248:\n        /* \"#utility.yul\":9680:9754   */\n      swap2\n      pop\n        /* \"#utility.yul\":9763:9856   */\n      tag_249\n        /* \"#utility.yul\":9852:9855   */\n      dup3\n        /* \"#utility.yul\":9763:9856   */\n      tag_131\n      jump\t// in\n    tag_249:\n        /* \"#utility.yul\":9881:9883   */\n      0x20\n        /* \"#utility.yul\":9876:9879   */\n      dup3\n        /* \"#utility.yul\":9872:9884   */\n      add\n        /* \"#utility.yul\":9865:9884   */\n      swap1\n      pop\n        /* \"#utility.yul\":9524:9890   */\n      swap2\n      swap1\n      pop\n      jump\t// out\n        /* \"#utility.yul\":9896:10315   */\n    tag_92:\n        /* \"#utility.yul\":10062:10066   */\n      0x00\n        /* \"#utility.yul\":10100:10102   */\n      0x20\n        /* \"#utility.yul\":10089:10098   */\n      dup3\n        /* \"#utility.yul\":10085:10103   */\n      add\n        /* \"#utility.yul\":10077:10103   */\n      swap1\n      pop\n        /* \"#utility.yul\":10149:10158   */\n      dup2\n        /* \"#utility.yul\":10143:10147   */\n      dup2\n        /* \"#utility.yul\":10139:10159   */\n      sub\n        /* \"#utility.yul\":10135:10136   */\n      0x00\n        /* \"#utility.yul\":10124:10133   */\n      dup4\n        /* \"#utility.yul\":10120:10137   */\n      add\n        /* \"#utility.yul\":10113:10160   */\n      mstore\n        /* \"#utility.yul\":10177:10308   */\n      tag_251\n        /* \"#utility.yul\":10303:10307   */\n      dup2\n        /* \"#utility.yul\":10177:10308   */\n      tag_132\n      jump\t// in\n    tag_251:\n        /* \"#utility.yul\":10169:10308   */\n      swap1\n      pop\n        /* \"#utility.yul\":9896:10315   */\n      swap2\n      swap1\n      pop\n      jump\t// out\n        /* \"#utility.yul\":10321:10487   */\n    tag_133:\n        /* \"#utility.yul\":10461:10479   */\n      0x5368617265206973207a65726f21212100000000000000000000000000000000\n        /* \"#utility.yul\":10457:10458   */\n      0x00\n        /* \"#utility.yul\":10449:10455   */\n      dup3\n        /* \"#utility.yul\":10445:10459   */\n      add\n        /* \"#utility.yul\":10438:10480   */\n      mstore\n        /* \"#utility.yul\":10321:10487   */\n      pop\n      jump\t// out\n        /* \"#utility.yul\":10493:10859   */\n    tag_134:\n        /* \"#utility.yul\":10635:10638   */\n      0x00\n        /* \"#utility.yul\":10656:10723   */\n      tag_254\n        /* \"#utility.yul\":10720:10722   */\n      0x10\n        /* \"#utility.yul\":10715:10718   */\n      dup4\n        /* \"#utility.yul\":10656:10723   */\n      tag_119\n      jump\t// in\n    tag_254:\n        /* \"#utility.yul\":10649:10723   */\n      swap2\n      pop\n        /* \"#utility.yul\":10732:10825   */\n      tag_255\n        /* \"#utility.yul\":10821:10824   */\n      dup3\n        /* \"#utility.yul\":10732:10825   */\n      tag_133\n      jump\t// in\n    tag_255:\n        /* \"#utility.yul\":10850:10852   */\n      0x20\n        /* \"#utility.yul\":10845:10848   */\n      dup3\n        /* \"#utility.yul\":10841:10853   */\n      add\n        /* \"#utility.yul\":10834:10853   */\n      swap1\n      pop\n        /* \"#utility.yul\":10493:10859   */\n      swap2\n      swap1\n      pop\n      jump\t// out\n        /* \"#utility.yul\":10865:11284   */\n    tag_95:\n        /* \"#utility.yul\":11031:11035   */\n      0x00\n        /* \"#utility.yul\":11069:11071   */\n      0x20\n        /* \"#utility.yul\":11058:11067   */\n      dup3\n        /* \"#utility.yul\":11054:11072   */\n      add\n        /* \"#utility.yul\":11046:11072   */\n      swap1\n      pop\n        /* \"#utility.yul\":11118:11127   */\n      dup2\n        /* \"#utility.yul\":11112:11116   */\n      dup2\n        /* \"#utility.yul\":11108:11128   */\n      sub\n        /* \"#utility.yul\":11104:11105   */\n      0x00\n        /* \"#utility.yul\":11093:11102   */\n      dup4\n        /* \"#utility.yul\":11089:11106   */\n      add\n        /* \"#utility.yul\":11082:11129   */\n      mstore\n        /* \"#utility.yul\":11146:11277   */\n      tag_257\n        /* \"#utility.yul\":11272:11276   */\n      dup2\n        /* \"#utility.yul\":11146:11277   */\n      tag_134\n      jump\t// in\n    tag_257:\n        /* \"#utility.yul\":11138:11277   */\n      swap1\n      pop\n        /* \"#utility.yul\":10865:11284   */\n      swap2\n      swap1\n      pop\n      jump\t// out\n        /* \"#utility.yul\":11290:11464   */\n    tag_135:\n        /* \"#utility.yul\":11430:11456   */\n      0x506179656520686173206265656e206c69737465642121210000000000000000\n        /* \"#utility.yul\":11426:11427   */\n      0x00\n        /* \"#utility.yul\":11418:11424   */\n      dup3\n        /* \"#utility.yul\":11414:11428   */\n      add\n        /* \"#utility.yul\":11407:11457   */\n      mstore\n        /* \"#utility.yul\":11290:11464   */\n      pop\n      jump\t// out\n        /* \"#utility.yul\":11470:11836   */\n    tag_136:\n        /* \"#utility.yul\":11612:11615   */\n      0x00\n        /* \"#utility.yul\":11633:11700   */\n      tag_260\n        /* \"#utility.yul\":11697:11699   */\n      0x18\n        /* \"#utility.yul\":11692:11695   */\n      dup4\n        /* \"#utility.yul\":11633:11700   */\n      tag_119\n      jump\t// in\n    tag_260:\n        /* \"#utility.yul\":11626:11700   */\n      swap2\n      pop\n        /* \"#utility.yul\":11709:11802   */\n      tag_261\n        /* \"#utility.yul\":11798:11801   */\n      dup3\n        /* \"#utility.yul\":11709:11802   */\n      tag_135\n      jump\t// in\n    tag_261:\n        /* \"#utility.yul\":11827:11829   */\n      0x20\n        /* \"#utility.yul\":11822:11825   */\n      dup3\n        /* \"#utility.yul\":11818:11830   */\n      add\n        /* \"#utility.yul\":11811:11830   */\n      swap1\n      pop\n        /* \"#utility.yul\":11470:11836   */\n      swap2\n      swap1\n      pop\n      jump\t// out\n        /* \"#utility.yul\":11842:12261   */\n    tag_98:\n        /* \"#utility.yul\":12008:12012   */\n      0x00\n        /* \"#utility.yul\":12046:12048   */\n      0x20\n        /* \"#utility.yul\":12035:12044   */\n      dup3\n        /* \"#utility.yul\":12031:12049   */\n      add\n        /* \"#utility.yul\":12023:12049   */\n      swap1\n      pop\n        /* \"#utility.yul\":12095:12104   */\n      dup2\n        /* \"#utility.yul\":12089:12093   */\n      dup2\n        /* \"#utility.yul\":12085:12105   */\n      sub\n        /* \"#utility.yul\":12081:12082   */\n      0x00\n        /* \"#utility.yul\":12070:12079   */\n      dup4\n        /* \"#utility.yul\":12066:12083   */\n      add\n        /* \"#utility.yul\":12059:12106   */\n      mstore\n        /* \"#utility.yul\":12123:12254   */\n      tag_263\n        /* \"#utility.yul\":12249:12253   */\n      dup2\n        /* \"#utility.yul\":12123:12254   */\n      tag_136\n      jump\t// in\n    tag_263:\n        /* \"#utility.yul\":12115:12254   */\n      swap1\n      pop\n        /* \"#utility.yul\":11842:12261   */\n      swap2\n      swap1\n      pop\n      jump\t// out\n\n    auxdata: 0xa2646970667358221220a7578ccea10eae9307f4e4b62e8a1ab2686ed3314c205a61be86a4f02d33e50b64736f6c634300081a0033\n}\n",
				"bytecode": {
					"linkReferences": {},
					"object": "608060405234801561000f575f80fd5b506040516116fa3803806116fa833981810160405281019061003191906105b6565b8051825114610075576040517f08c379a000000000000000000000000000000000000000000000000000000000815260040161006c906106ac565b60405180910390fd5b5f8251116100b8576040517f08c379a00000000000000000000000000000000000000000000000000000000081526004016100af90610714565b60405180910390fd5b5f5b8151811015610114576101078382815181106100d9576100d8610732565b5b60200260200101518383815181106100f4576100f3610732565b5b602002602001015161011c60201b60201c565b80806001019150506100ba565b5050506108f7565b5f73ffffffffffffffffffffffffffffffffffffffff168273ffffffffffffffffffffffffffffffffffffffff160361018a576040517f08c379a0000000000000000000000000000000000000000000000000000000008152600401610181906107a9565b60405180910390fd5b5f81116101cc576040517f08c379a00000000000000000000000000000000000000000000000000000000081526004016101c390610811565b60405180910390fd5b5f60035f8473ffffffffffffffffffffffffffffffffffffffff1673ffffffffffffffffffffffffffffffffffffffff1681526020019081526020015f20541461024b576040517f08c379a000000000000000000000000000000000000000000000000000000000815260040161024290610879565b60405180910390fd5b8060035f8473ffffffffffffffffffffffffffffffffffffffff1673ffffffffffffffffffffffffffffffffffffffff1681526020019081526020015f2081905550600282908060018154018082558091505060019003905f5260205f20015f9091909190916101000a81548173ffffffffffffffffffffffffffffffffffffffff021916908373ffffffffffffffffffffffffffffffffffffffff160217905550805f808282546102fd91906108c4565b925050819055505050565b5f604051905090565b5f80fd5b5f80fd5b5f80fd5b5f601f19601f8301169050919050565b7f4e487b71000000000000000000000000000000000000000000000000000000005f52604160045260245ffd5b6103638261031d565b810181811067ffffffffffffffff821117156103825761038161032d565b5b80604052505050565b5f610394610308565b90506103a0828261035a565b919050565b5f67ffffffffffffffff8211156103bf576103be61032d565b5b602082029050602081019050919050565b5f80fd5b5f73ffffffffffffffffffffffffffffffffffffffff82169050919050565b5f6103fd826103d4565b9050919050565b61040d816103f3565b8114610417575f80fd5b50565b5f8151905061042881610404565b92915050565b5f61044061043b846103a5565b61038b565b90508083825260208201905060208402830185811115610463576104626103d0565b5b835b8181101561048c5780610478888261041a565b845260208401935050602081019050610465565b5050509392505050565b5f82601f8301126104aa576104a9610319565b5b81516104ba84826020860161042e565b91505092915050565b5f67ffffffffffffffff8211156104dd576104dc61032d565b5b602082029050602081019050919050565b5f819050919050565b610500816104ee565b811461050a575f80fd5b50565b5f8151905061051b816104f7565b92915050565b5f61053361052e846104c3565b61038b565b90508083825260208201905060208402830185811115610556576105556103d0565b5b835b8181101561057f578061056b888261050d565b845260208401935050602081019050610558565b5050509392505050565b5f82601f83011261059d5761059c610319565b5b81516105ad848260208601610521565b91505092915050565b5f80604083850312156105cc576105cb610311565b5b5f83015167ffffffffffffffff8111156105e9576105e8610315565b5b6105f585828601610496565b925050602083015167ffffffffffffffff81111561061657610615610315565b5b61062285828601610589565b9150509250929050565b5f82825260208201905092915050565b7f4c656e676874206f662070617965657320616e6420736861726573206e6f74205f8201527f6d61746368212121000000000000000000000000000000000000000000000000602082015250565b5f61069660288361062c565b91506106a18261063c565b604082019050919050565b5f6020820190508181035f8301526106c38161068a565b9050919050565b7f4e6f2070617965652121210000000000000000000000000000000000000000005f82015250565b5f6106fe600b8361062c565b9150610709826106ca565b602082019050919050565b5f6020820190508181035f83015261072b816106f2565b9050919050565b7f4e487b71000000000000000000000000000000000000000000000000000000005f52603260045260245ffd5b7f5061796565206163636f756e74206973207a65726f206163636f756e742121215f82015250565b5f61079360208361062c565b915061079e8261075f565b602082019050919050565b5f6020820190508181035f8301526107c081610787565b9050919050565b7f5368617265206973207a65726f212121000000000000000000000000000000005f82015250565b5f6107fb60108361062c565b9150610806826107c7565b602082019050919050565b5f6020820190508181035f830152610828816107ef565b9050919050565b7f506179656520686173206265656e206c697374656421212100000000000000005f82015250565b5f61086360188361062c565b915061086e8261082f565b602082019050919050565b5f6020820190508181035f83015261089081610857565b9050919050565b7f4e487b71000000000000000000000000000000000000000000000000000000005f52601160045260245ffd5b5f6108ce826104ee565b91506108d9836104ee565b92508282019050808211156108f1576108f0610897565b5b92915050565b610df6806109045f395ff3fe608060405260043610610089575f3560e01c80636ae6921f116100585780636ae6921f146101975780639852595c146101bf578063a3f8eace146101fb578063ce7c2ac214610237578063e33b7de314610273576100c9565b806319165587146100cd5780631b51003d146100f55780633a98ef391461013157806363037b0c1461015b576100c9565b366100c9577f6ef95f06320e7a25a04a175ca677b7052bdd97131872c2192525a629f51be77033346040516100bf9291906107d4565b60405180910390a1005b5f80fd5b3480156100d8575f80fd5b506100f360048036038101906100ee919061083a565b61029d565b005b348015610100575f80fd5b5061011b600480360381019061011691906108b9565b610456565b6040516101289190610909565b60405180910390f35b34801561013c575f80fd5b506101456104bf565b6040516101529190610909565b60405180910390f35b348015610166575f80fd5b50610181600480360381019061017c9190610922565b6104c4565b60405161018e919061094d565b60405180910390f35b3480156101a2575f80fd5b506101bd60048036038101906101b89190610966565b6104ff565b005b3480156101ca575f80fd5b506101e560048036038101906101e091906109a4565b6106eb565b6040516101f29190610909565b60405180910390f35b348015610206575f80fd5b50610221600480360381019061021c919061083a565b610700565b60405161022e9190610909565b60405180910390f35b348015610242575f80fd5b5061025d600480360381019061025891906109a4565b610762565b60405161026a9190610909565b60405180910390f35b34801561027e575f80fd5b50610287610777565b6040516102949190610909565b60405180910390f35b5f60035f8373ffffffffffffffffffffffffffffffffffffffff1673ffffffffffffffffffffffffffffffffffffffff1681526020019081526020015f20541161031c576040517f08c379a000000000000000000000000000000000000000000000000000000000815260040161031390610a4f565b60405180910390fd5b5f61032682610700565b90505f811461036a576040517f08c379a000000000000000000000000000000000000000000000000000000000815260040161036190610ab7565b60405180910390fd5b8060045f8473ffffffffffffffffffffffffffffffffffffffff1673ffffffffffffffffffffffffffffffffffffffff1681526020019081526020015f205f8282546103b69190610b02565b925050819055508060015f8282546103ce9190610b02565b925050819055508173ffffffffffffffffffffffffffffffffffffffff166108fc8290811502906040515f60405180830381858888f19350505050158015610418573d5f803e3d5ffd5b507fdf20fd1e76bc69d672e4814fafb2c449bba3a5369d8359adf9e05e6fde87b056828260405161044a929190610b90565b60405180910390a15050565b5f818360035f8773ffffffffffffffffffffffffffffffffffffffff1673ffffffffffffffffffffffffffffffffffffffff1681526020019081526020015f2054856104a29190610bb7565b6104ac9190610c25565b6104b69190610c55565b90509392505050565b5f5481565b600281815481106104d3575f80fd5b905f5260205f20015f915054906101000a900473ffffffffffffffffffffffffffffffffffffffff1681565b5f73ffffffffffffffffffffffffffffffffffffffff168273ffffffffffffffffffffffffffffffffffffffff160361056d576040517f08c379a000000000000000000000000000000000000000000000000000000000815260040161056490610cd2565b60405180910390fd5b5f81116105af576040517f08c379a00000000000000000000000000000000000000000000000000000000081526004016105a690610d3a565b60405180910390fd5b5f60035f8473ffffffffffffffffffffffffffffffffffffffff1673ffffffffffffffffffffffffffffffffffffffff1681526020019081526020015f20541461062e576040517f08c379a000000000000000000000000000000000000000000000000000000000815260040161062590610da2565b60405180910390fd5b8060035f8473ffffffffffffffffffffffffffffffffffffffff1673ffffffffffffffffffffffffffffffffffffffff1681526020019081526020015f2081905550600282908060018154018082558091505060019003905f5260205f20015f9091909190916101000a81548173ffffffffffffffffffffffffffffffffffffffff021916908373ffffffffffffffffffffffffffffffffffffffff160217905550805f808282546106e09190610b02565b925050819055505050565b6004602052805f5260405f205f915090505481565b5f80600154476107109190610b02565b905061075a838260045f8773ffffffffffffffffffffffffffffffffffffffff1673ffffffffffffffffffffffffffffffffffffffff1681526020019081526020015f2054610456565b915050919050565b6003602052805f5260405f205f915090505481565b60015481565b5f73ffffffffffffffffffffffffffffffffffffffff82169050919050565b5f6107a68261077d565b9050919050565b6107b68161079c565b82525050565b5f819050919050565b6107ce816107bc565b82525050565b5f6040820190506107e75f8301856107ad565b6107f460208301846107c5565b9392505050565b5f80fd5b5f6108098261077d565b9050919050565b610819816107ff565b8114610823575f80fd5b50565b5f8135905061083481610810565b92915050565b5f6020828403121561084f5761084e6107fb565b5b5f61085c84828501610826565b91505092915050565b61086e8161079c565b8114610878575f80fd5b50565b5f8135905061088981610865565b92915050565b610898816107bc565b81146108a2575f80fd5b50565b5f813590506108b38161088f565b92915050565b5f805f606084860312156108d0576108cf6107fb565b5b5f6108dd8682870161087b565b93505060206108ee868287016108a5565b92505060406108ff868287016108a5565b9150509250925092565b5f60208201905061091c5f8301846107c5565b92915050565b5f60208284031215610937576109366107fb565b5b5f610944848285016108a5565b91505092915050565b5f6020820190506109605f8301846107ad565b92915050565b5f806040838503121561097c5761097b6107fb565b5b5f6109898582860161087b565b925050602061099a858286016108a5565b9150509250929050565b5f602082840312156109b9576109b86107fb565b5b5f6109c68482850161087b565b91505092915050565b5f82825260208201905092915050565b7f546865207368617265206973206e6f7420657869737420696e207468697320705f8201527f6179657221212100000000000000000000000000000000000000000000000000602082015250565b5f610a396027836109cf565b9150610a44826109df565b604082019050919050565b5f6020820190508181035f830152610a6681610a2d565b9050919050565b7f416c72656164792072656c6561736520616c6c207061796d656e7421212100005f82015250565b5f610aa1601e836109cf565b9150610aac82610a6d565b602082019050919050565b5f6020820190508181035f830152610ace81610a95565b9050919050565b7f4e487b71000000000000000000000000000000000000000000000000000000005f52601160045260245ffd5b5f610b0c826107bc565b9150610b17836107bc565b9250828201905080821115610b2f57610b2e610ad5565b5b92915050565b5f819050919050565b5f610b58610b53610b4e8461077d565b610b35565b61077d565b9050919050565b5f610b6982610b3e565b9050919050565b5f610b7a82610b5f565b9050919050565b610b8a81610b70565b82525050565b5f604082019050610ba35f830185610b81565b610bb060208301846107c5565b9392505050565b5f610bc1826107bc565b9150610bcc836107bc565b9250828202610bda816107bc565b91508282048414831517610bf157610bf0610ad5565b5b5092915050565b7f4e487b71000000000000000000000000000000000000000000000000000000005f52601260045260245ffd5b5f610c2f826107bc565b9150610c3a836107bc565b925082610c4a57610c49610bf8565b5b828204905092915050565b5f610c5f826107bc565b9150610c6a836107bc565b9250828203905081811115610c8257610c81610ad5565b5b92915050565b7f5061796565206163636f756e74206973207a65726f206163636f756e742121215f82015250565b5f610cbc6020836109cf565b9150610cc782610c88565b602082019050919050565b5f6020820190508181035f830152610ce981610cb0565b9050919050565b7f5368617265206973207a65726f212121000000000000000000000000000000005f82015250565b5f610d246010836109cf565b9150610d2f82610cf0565b602082019050919050565b5f6020820190508181035f830152610d5181610d18565b9050919050565b7f506179656520686173206265656e206c697374656421212100000000000000005f82015250565b5f610d8c6018836109cf565b9150610d9782610d58565b602082019050919050565b5f6020820190508181035f830152610db981610d80565b905091905056fea2646970667358221220a7578ccea10eae9307f4e4b62e8a1ab2686ed3314c205a61be86a4f02d33e50b64736f6c634300081a0033",
					"opcodes": "PUSH1 0x80 PUSH1 0x40 MSTORE CALLVALUE DUP1 ISZERO PUSH2 0xF JUMPI PUSH0 DUP1 REVERT JUMPDEST POP PUSH1 0x40 MLOAD PUSH2 0x16FA CODESIZE SUB DUP1 PUSH2 0x16FA DUP4 CODECOPY DUP2 DUP2 ADD PUSH1 0x40 MSTORE DUP2 ADD SWAP1 PUSH2 0x31 SWAP2 SWAP1 PUSH2 0x5B6 JUMP JUMPDEST DUP1 MLOAD DUP3 MLOAD EQ PUSH2 0x75 JUMPI PUSH1 0x40 MLOAD PUSH32 0x8C379A000000000000000000000000000000000000000000000000000000000 DUP2 MSTORE PUSH1 0x4 ADD PUSH2 0x6C SWAP1 PUSH2 0x6AC JUMP JUMPDEST PUSH1 0x40 MLOAD DUP1 SWAP2 SUB SWAP1 REVERT JUMPDEST PUSH0 DUP3 MLOAD GT PUSH2 0xB8 JUMPI PUSH1 0x40 MLOAD PUSH32 0x8C379A000000000000000000000000000000000000000000000000000000000 DUP2 MSTORE PUSH1 0x4 ADD PUSH2 0xAF SWAP1 PUSH2 0x714 JUMP JUMPDEST PUSH1 0x40 MLOAD DUP1 SWAP2 SUB SWAP1 REVERT JUMPDEST PUSH0 JUMPDEST DUP2 MLOAD DUP2 LT ISZERO PUSH2 0x114 JUMPI PUSH2 0x107 DUP4 DUP3 DUP2 MLOAD DUP2 LT PUSH2 0xD9 JUMPI PUSH2 0xD8 PUSH2 0x732 JUMP JUMPDEST JUMPDEST PUSH1 0x20 MUL PUSH1 0x20 ADD ADD MLOAD DUP4 DUP4 DUP2 MLOAD DUP2 LT PUSH2 0xF4 JUMPI PUSH2 0xF3 PUSH2 0x732 JUMP JUMPDEST JUMPDEST PUSH1 0x20 MUL PUSH1 0x20 ADD ADD MLOAD PUSH2 0x11C PUSH1 0x20 SHL PUSH1 0x20 SHR JUMP JUMPDEST DUP1 DUP1 PUSH1 0x1 ADD SWAP2 POP POP PUSH2 0xBA JUMP JUMPDEST POP POP POP PUSH2 0x8F7 JUMP JUMPDEST PUSH0 PUSH20 0xFFFFFFFFFFFFFFFFFFFFFFFFFFFFFFFFFFFFFFFF AND DUP3 PUSH20 0xFFFFFFFFFFFFFFFFFFFFFFFFFFFFFFFFFFFFFFFF AND SUB PUSH2 0x18A JUMPI PUSH1 0x40 MLOAD PUSH32 0x8C379A000000000000000000000000000000000000000000000000000000000 DUP2 MSTORE PUSH1 0x4 ADD PUSH2 0x181 SWAP1 PUSH2 0x7A9 JUMP JUMPDEST PUSH1 0x40 MLOAD DUP1 SWAP2 SUB SWAP1 REVERT JUMPDEST PUSH0 DUP2 GT PUSH2 0x1CC JUMPI PUSH1 0x40 MLOAD PUSH32 0x8C379A000000000000000000000000000000000000000000000000000000000 DUP2 MSTORE PUSH1 0x4 ADD PUSH2 0x1C3 SWAP1 PUSH2 0x811 JUMP JUMPDEST PUSH1 0x40 MLOAD DUP1 SWAP2 SUB SWAP1 REVERT JUMPDEST PUSH0 PUSH1 0x3 PUSH0 DUP5 PUSH20 0xFFFFFFFFFFFFFFFFFFFFFFFFFFFFFFFFFFFFFFFF AND PUSH20 0xFFFFFFFFFFFFFFFFFFFFFFFFFFFFFFFFFFFFFFFF AND DUP2 MSTORE PUSH1 0x20 ADD SWAP1 DUP2 MSTORE PUSH1 0x20 ADD PUSH0 KECCAK256 SLOAD EQ PUSH2 0x24B JUMPI PUSH1 0x40 MLOAD PUSH32 0x8C379A000000000000000000000000000000000000000000000000000000000 DUP2 MSTORE PUSH1 0x4 ADD PUSH2 0x242 SWAP1 PUSH2 0x879 JUMP JUMPDEST PUSH1 0x40 MLOAD DUP1 SWAP2 SUB SWAP1 REVERT JUMPDEST DUP1 PUSH1 0x3 PUSH0 DUP5 PUSH20 0xFFFFFFFFFFFFFFFFFFFFFFFFFFFFFFFFFFFFFFFF AND PUSH20 0xFFFFFFFFFFFFFFFFFFFFFFFFFFFFFFFFFFFFFFFF AND DUP2 MSTORE PUSH1 0x20 ADD SWAP1 DUP2 MSTORE PUSH1 0x20 ADD PUSH0 KECCAK256 DUP2 SWAP1 SSTORE POP PUSH1 0x2 DUP3 SWAP1 DUP1 PUSH1 0x1 DUP2 SLOAD ADD DUP1 DUP3 SSTORE DUP1 SWAP2 POP POP PUSH1 0x1 SWAP1 SUB SWAP1 PUSH0 MSTORE PUSH1 0x20 PUSH0 KECCAK256 ADD PUSH0 SWAP1 SWAP2 SWAP1 SWAP2 SWAP1 SWAP2 PUSH2 0x100 EXP DUP2 SLOAD DUP2 PUSH20 0xFFFFFFFFFFFFFFFFFFFFFFFFFFFFFFFFFFFFFFFF MUL NOT AND SWAP1 DUP4 PUSH20 0xFFFFFFFFFFFFFFFFFFFFFFFFFFFFFFFFFFFFFFFF AND MUL OR SWAP1 SSTORE POP DUP1 PUSH0 DUP1 DUP3 DUP3 SLOAD PUSH2 0x2FD SWAP2 SWAP1 PUSH2 0x8C4 JUMP JUMPDEST SWAP3 POP POP DUP2 SWAP1 SSTORE POP POP POP JUMP JUMPDEST PUSH0 PUSH1 0x40 MLOAD SWAP1 POP SWAP1 JUMP JUMPDEST PUSH0 DUP1 REVERT JUMPDEST PUSH0 DUP1 REVERT JUMPDEST PUSH0 DUP1 REVERT JUMPDEST PUSH0 PUSH1 0x1F NOT PUSH1 0x1F DUP4 ADD AND SWAP1 POP SWAP2 SWAP1 POP JUMP JUMPDEST PUSH32 0x4E487B7100000000000000000000000000000000000000000000000000000000 PUSH0 MSTORE PUSH1 0x41 PUSH1 0x4 MSTORE PUSH1 0x24 PUSH0 REVERT JUMPDEST PUSH2 0x363 DUP3 PUSH2 0x31D JUMP JUMPDEST DUP2 ADD DUP2 DUP2 LT PUSH8 0xFFFFFFFFFFFFFFFF DUP3 GT OR ISZERO PUSH2 0x382 JUMPI PUSH2 0x381 PUSH2 0x32D JUMP JUMPDEST JUMPDEST DUP1 PUSH1 0x40 MSTORE POP POP POP JUMP JUMPDEST PUSH0 PUSH2 0x394 PUSH2 0x308 JUMP JUMPDEST SWAP1 POP PUSH2 0x3A0 DUP3 DUP3 PUSH2 0x35A JUMP JUMPDEST SWAP2 SWAP1 POP JUMP JUMPDEST PUSH0 PUSH8 0xFFFFFFFFFFFFFFFF DUP3 GT ISZERO PUSH2 0x3BF JUMPI PUSH2 0x3BE PUSH2 0x32D JUMP JUMPDEST JUMPDEST PUSH1 0x20 DUP3 MUL SWAP1 POP PUSH1 0x20 DUP2 ADD SWAP1 POP SWAP2 SWAP1 POP JUMP JUMPDEST PUSH0 DUP1 REVERT JUMPDEST PUSH0 PUSH20 0xFFFFFFFFFFFFFFFFFFFFFFFFFFFFFFFFFFFFFFFF DUP3 AND SWAP1 POP SWAP2 SWAP1 POP JUMP JUMPDEST PUSH0 PUSH2 0x3FD DUP3 PUSH2 0x3D4 JUMP JUMPDEST SWAP1 POP SWAP2 SWAP1 POP JUMP JUMPDEST PUSH2 0x40D DUP2 PUSH2 0x3F3 JUMP JUMPDEST DUP2 EQ PUSH2 0x417 JUMPI PUSH0 DUP1 REVERT JUMPDEST POP JUMP JUMPDEST PUSH0 DUP2 MLOAD SWAP1 POP PUSH2 0x428 DUP2 PUSH2 0x404 JUMP JUMPDEST SWAP3 SWAP2 POP POP JUMP JUMPDEST PUSH0 PUSH2 0x440 PUSH2 0x43B DUP5 PUSH2 0x3A5 JUMP JUMPDEST PUSH2 0x38B JUMP JUMPDEST SWAP1 POP DUP1 DUP4 DUP3 MSTORE PUSH1 0x20 DUP3 ADD SWAP1 POP PUSH1 0x20 DUP5 MUL DUP4 ADD DUP6 DUP2 GT ISZERO PUSH2 0x463 JUMPI PUSH2 0x462 PUSH2 0x3D0 JUMP JUMPDEST JUMPDEST DUP4 JUMPDEST DUP2 DUP2 LT ISZERO PUSH2 0x48C JUMPI DUP1 PUSH2 0x478 DUP9 DUP3 PUSH2 0x41A JUMP JUMPDEST DUP5 MSTORE PUSH1 0x20 DUP5 ADD SWAP4 POP POP PUSH1 0x20 DUP2 ADD SWAP1 POP PUSH2 0x465 JUMP JUMPDEST POP POP POP SWAP4 SWAP3 POP POP POP JUMP JUMPDEST PUSH0 DUP3 PUSH1 0x1F DUP4 ADD SLT PUSH2 0x4AA JUMPI PUSH2 0x4A9 PUSH2 0x319 JUMP JUMPDEST JUMPDEST DUP2 MLOAD PUSH2 0x4BA DUP5 DUP3 PUSH1 0x20 DUP7 ADD PUSH2 0x42E JUMP JUMPDEST SWAP2 POP POP SWAP3 SWAP2 POP POP JUMP JUMPDEST PUSH0 PUSH8 0xFFFFFFFFFFFFFFFF DUP3 GT ISZERO PUSH2 0x4DD JUMPI PUSH2 0x4DC PUSH2 0x32D JUMP JUMPDEST JUMPDEST PUSH1 0x20 DUP3 MUL SWAP1 POP PUSH1 0x20 DUP2 ADD SWAP1 POP SWAP2 SWAP1 POP JUMP JUMPDEST PUSH0 DUP2 SWAP1 POP SWAP2 SWAP1 POP JUMP JUMPDEST PUSH2 0x500 DUP2 PUSH2 0x4EE JUMP JUMPDEST DUP2 EQ PUSH2 0x50A JUMPI PUSH0 DUP1 REVERT JUMPDEST POP JUMP JUMPDEST PUSH0 DUP2 MLOAD SWAP1 POP PUSH2 0x51B DUP2 PUSH2 0x4F7 JUMP JUMPDEST SWAP3 SWAP2 POP POP JUMP JUMPDEST PUSH0 PUSH2 0x533 PUSH2 0x52E DUP5 PUSH2 0x4C3 JUMP JUMPDEST PUSH2 0x38B JUMP JUMPDEST SWAP1 POP DUP1 DUP4 DUP3 MSTORE PUSH1 0x20 DUP3 ADD SWAP1 POP PUSH1 0x20 DUP5 MUL DUP4 ADD DUP6 DUP2 GT ISZERO PUSH2 0x556 JUMPI PUSH2 0x555 PUSH2 0x3D0 JUMP JUMPDEST JUMPDEST DUP4 JUMPDEST DUP2 DUP2 LT ISZERO PUSH2 0x57F JUMPI DUP1 PUSH2 0x56B DUP9 DUP3 PUSH2 0x50D JUMP JUMPDEST DUP5 MSTORE PUSH1 0x20 DUP5 ADD SWAP4 POP POP PUSH1 0x20 DUP2 ADD SWAP1 POP PUSH2 0x558 JUMP JUMPDEST POP POP POP SWAP4 SWAP3 POP POP POP JUMP JUMPDEST PUSH0 DUP3 PUSH1 0x1F DUP4 ADD SLT PUSH2 0x59D JUMPI PUSH2 0x59C PUSH2 0x319 JUMP JUMPDEST JUMPDEST DUP2 MLOAD PUSH2 0x5AD DUP5 DUP3 PUSH1 0x20 DUP7 ADD PUSH2 0x521 JUMP JUMPDEST SWAP2 POP POP SWAP3 SWAP2 POP POP JUMP JUMPDEST PUSH0 DUP1 PUSH1 0x40 DUP4 DUP6 SUB SLT ISZERO PUSH2 0x5CC JUMPI PUSH2 0x5CB PUSH2 0x311 JUMP JUMPDEST JUMPDEST PUSH0 DUP4 ADD MLOAD PUSH8 0xFFFFFFFFFFFFFFFF DUP2 GT ISZERO PUSH2 0x5E9 JUMPI PUSH2 0x5E8 PUSH2 0x315 JUMP JUMPDEST JUMPDEST PUSH2 0x5F5 DUP6 DUP3 DUP7 ADD PUSH2 0x496 JUMP JUMPDEST SWAP3 POP POP PUSH1 0x20 DUP4 ADD MLOAD PUSH8 0xFFFFFFFFFFFFFFFF DUP2 GT ISZERO PUSH2 0x616 JUMPI PUSH2 0x615 PUSH2 0x315 JUMP JUMPDEST JUMPDEST PUSH2 0x622 DUP6 DUP3 DUP7 ADD PUSH2 0x589 JUMP JUMPDEST SWAP2 POP POP SWAP3 POP SWAP3 SWAP1 POP JUMP JUMPDEST PUSH0 DUP3 DUP3 MSTORE PUSH1 0x20 DUP3 ADD SWAP1 POP SWAP3 SWAP2 POP POP JUMP JUMPDEST PUSH32 0x4C656E676874206F662070617965657320616E6420736861726573206E6F7420 PUSH0 DUP3 ADD MSTORE PUSH32 0x6D61746368212121000000000000000000000000000000000000000000000000 PUSH1 0x20 DUP3 ADD MSTORE POP JUMP JUMPDEST PUSH0 PUSH2 0x696 PUSH1 0x28 DUP4 PUSH2 0x62C JUMP JUMPDEST SWAP2 POP PUSH2 0x6A1 DUP3 PUSH2 0x63C JUMP JUMPDEST PUSH1 0x40 DUP3 ADD SWAP1 POP SWAP2 SWAP1 POP JUMP JUMPDEST PUSH0 PUSH1 0x20 DUP3 ADD SWAP1 POP DUP2 DUP2 SUB PUSH0 DUP4 ADD MSTORE PUSH2 0x6C3 DUP2 PUSH2 0x68A JUMP JUMPDEST SWAP1 POP SWAP2 SWAP1 POP JUMP JUMPDEST PUSH32 0x4E6F207061796565212121000000000000000000000000000000000000000000 PUSH0 DUP3 ADD MSTORE POP JUMP JUMPDEST PUSH0 PUSH2 0x6FE PUSH1 0xB DUP4 PUSH2 0x62C JUMP JUMPDEST SWAP2 POP PUSH2 0x709 DUP3 PUSH2 0x6CA JUMP JUMPDEST PUSH1 0x20 DUP3 ADD SWAP1 POP SWAP2 SWAP1 POP JUMP JUMPDEST PUSH0 PUSH1 0x20 DUP3 ADD SWAP1 POP DUP2 DUP2 SUB PUSH0 DUP4 ADD MSTORE PUSH2 0x72B DUP2 PUSH2 0x6F2 JUMP JUMPDEST SWAP1 POP SWAP2 SWAP1 POP JUMP JUMPDEST PUSH32 0x4E487B7100000000000000000000000000000000000000000000000000000000 PUSH0 MSTORE PUSH1 0x32 PUSH1 0x4 MSTORE PUSH1 0x24 PUSH0 REVERT JUMPDEST PUSH32 0x5061796565206163636F756E74206973207A65726F206163636F756E74212121 PUSH0 DUP3 ADD MSTORE POP JUMP JUMPDEST PUSH0 PUSH2 0x793 PUSH1 0x20 DUP4 PUSH2 0x62C JUMP JUMPDEST SWAP2 POP PUSH2 0x79E DUP3 PUSH2 0x75F JUMP JUMPDEST PUSH1 0x20 DUP3 ADD SWAP1 POP SWAP2 SWAP1 POP JUMP JUMPDEST PUSH0 PUSH1 0x20 DUP3 ADD SWAP1 POP DUP2 DUP2 SUB PUSH0 DUP4 ADD MSTORE PUSH2 0x7C0 DUP2 PUSH2 0x787 JUMP JUMPDEST SWAP1 POP SWAP2 SWAP1 POP JUMP JUMPDEST PUSH32 0x5368617265206973207A65726F21212100000000000000000000000000000000 PUSH0 DUP3 ADD MSTORE POP JUMP JUMPDEST PUSH0 PUSH2 0x7FB PUSH1 0x10 DUP4 PUSH2 0x62C JUMP JUMPDEST SWAP2 POP PUSH2 0x806 DUP3 PUSH2 0x7C7 JUMP JUMPDEST PUSH1 0x20 DUP3 ADD SWAP1 POP SWAP2 SWAP1 POP JUMP JUMPDEST PUSH0 PUSH1 0x20 DUP3 ADD SWAP1 POP DUP2 DUP2 SUB PUSH0 DUP4 ADD MSTORE PUSH2 0x828 DUP2 PUSH2 0x7EF JUMP JUMPDEST SWAP1 POP SWAP2 SWAP1 POP JUMP JUMPDEST PUSH32 0x506179656520686173206265656E206C69737465642121210000000000000000 PUSH0 DUP3 ADD MSTORE POP JUMP JUMPDEST PUSH0 PUSH2 0x863 PUSH1 0x18 DUP4 PUSH2 0x62C JUMP JUMPDEST SWAP2 POP PUSH2 0x86E DUP3 PUSH2 0x82F JUMP JUMPDEST PUSH1 0x20 DUP3 ADD SWAP1 POP SWAP2 SWAP1 POP JUMP JUMPDEST PUSH0 PUSH1 0x20 DUP3 ADD SWAP1 POP DUP2 DUP2 SUB PUSH0 DUP4 ADD MSTORE PUSH2 0x890 DUP2 PUSH2 0x857 JUMP JUMPDEST SWAP1 POP SWAP2 SWAP1 POP JUMP JUMPDEST PUSH32 0x4E487B7100000000000000000000000000000000000000000000000000000000 PUSH0 MSTORE PUSH1 0x11 PUSH1 0x4 MSTORE PUSH1 0x24 PUSH0 REVERT JUMPDEST PUSH0 PUSH2 0x8CE DUP3 PUSH2 0x4EE JUMP JUMPDEST SWAP2 POP PUSH2 0x8D9 DUP4 PUSH2 0x4EE JUMP JUMPDEST SWAP3 POP DUP3 DUP3 ADD SWAP1 POP DUP1 DUP3 GT ISZERO PUSH2 0x8F1 JUMPI PUSH2 0x8F0 PUSH2 0x897 JUMP JUMPDEST JUMPDEST SWAP3 SWAP2 POP POP JUMP JUMPDEST PUSH2 0xDF6 DUP1 PUSH2 0x904 PUSH0 CODECOPY PUSH0 RETURN INVALID PUSH1 0x80 PUSH1 0x40 MSTORE PUSH1 0x4 CALLDATASIZE LT PUSH2 0x89 JUMPI PUSH0 CALLDATALOAD PUSH1 0xE0 SHR DUP1 PUSH4 0x6AE6921F GT PUSH2 0x58 JUMPI DUP1 PUSH4 0x6AE6921F EQ PUSH2 0x197 JUMPI DUP1 PUSH4 0x9852595C EQ PUSH2 0x1BF JUMPI DUP1 PUSH4 0xA3F8EACE EQ PUSH2 0x1FB JUMPI DUP1 PUSH4 0xCE7C2AC2 EQ PUSH2 0x237 JUMPI DUP1 PUSH4 0xE33B7DE3 EQ PUSH2 0x273 JUMPI PUSH2 0xC9 JUMP JUMPDEST DUP1 PUSH4 0x19165587 EQ PUSH2 0xCD JUMPI DUP1 PUSH4 0x1B51003D EQ PUSH2 0xF5 JUMPI DUP1 PUSH4 0x3A98EF39 EQ PUSH2 0x131 JUMPI DUP1 PUSH4 0x63037B0C EQ PUSH2 0x15B JUMPI PUSH2 0xC9 JUMP JUMPDEST CALLDATASIZE PUSH2 0xC9 JUMPI PUSH32 0x6EF95F06320E7A25A04A175CA677B7052BDD97131872C2192525A629F51BE770 CALLER CALLVALUE PUSH1 0x40 MLOAD PUSH2 0xBF SWAP3 SWAP2 SWAP1 PUSH2 0x7D4 JUMP JUMPDEST PUSH1 0x40 MLOAD DUP1 SWAP2 SUB SWAP1 LOG1 STOP JUMPDEST PUSH0 DUP1 REVERT JUMPDEST CALLVALUE DUP1 ISZERO PUSH2 0xD8 JUMPI PUSH0 DUP1 REVERT JUMPDEST POP PUSH2 0xF3 PUSH1 0x4 DUP1 CALLDATASIZE SUB DUP2 ADD SWAP1 PUSH2 0xEE SWAP2 SWAP1 PUSH2 0x83A JUMP JUMPDEST PUSH2 0x29D JUMP JUMPDEST STOP JUMPDEST CALLVALUE DUP1 ISZERO PUSH2 0x100 JUMPI PUSH0 DUP1 REVERT JUMPDEST POP PUSH2 0x11B PUSH1 0x4 DUP1 CALLDATASIZE SUB DUP2 ADD SWAP1 PUSH2 0x116 SWAP2 SWAP1 PUSH2 0x8B9 JUMP JUMPDEST PUSH2 0x456 JUMP JUMPDEST PUSH1 0x40 MLOAD PUSH2 0x128 SWAP2 SWAP1 PUSH2 0x909 JUMP JUMPDEST PUSH1 0x40 MLOAD DUP1 SWAP2 SUB SWAP1 RETURN JUMPDEST CALLVALUE DUP1 ISZERO PUSH2 0x13C JUMPI PUSH0 DUP1 REVERT JUMPDEST POP PUSH2 0x145 PUSH2 0x4BF JUMP JUMPDEST PUSH1 0x40 MLOAD PUSH2 0x152 SWAP2 SWAP1 PUSH2 0x909 JUMP JUMPDEST PUSH1 0x40 MLOAD DUP1 SWAP2 SUB SWAP1 RETURN JUMPDEST CALLVALUE DUP1 ISZERO PUSH2 0x166 JUMPI PUSH0 DUP1 REVERT JUMPDEST POP PUSH2 0x181 PUSH1 0x4 DUP1 CALLDATASIZE SUB DUP2 ADD SWAP1 PUSH2 0x17C SWAP2 SWAP1 PUSH2 0x922 JUMP JUMPDEST PUSH2 0x4C4 JUMP JUMPDEST PUSH1 0x40 MLOAD PUSH2 0x18E SWAP2 SWAP1 PUSH2 0x94D JUMP JUMPDEST PUSH1 0x40 MLOAD DUP1 SWAP2 SUB SWAP1 RETURN JUMPDEST CALLVALUE DUP1 ISZERO PUSH2 0x1A2 JUMPI PUSH0 DUP1 REVERT JUMPDEST POP PUSH2 0x1BD PUSH1 0x4 DUP1 CALLDATASIZE SUB DUP2 ADD SWAP1 PUSH2 0x1B8 SWAP2 SWAP1 PUSH2 0x966 JUMP JUMPDEST PUSH2 0x4FF JUMP JUMPDEST STOP JUMPDEST CALLVALUE DUP1 ISZERO PUSH2 0x1CA JUMPI PUSH0 DUP1 REVERT JUMPDEST POP PUSH2 0x1E5 PUSH1 0x4 DUP1 CALLDATASIZE SUB DUP2 ADD SWAP1 PUSH2 0x1E0 SWAP2 SWAP1 PUSH2 0x9A4 JUMP JUMPDEST PUSH2 0x6EB JUMP JUMPDEST PUSH1 0x40 MLOAD PUSH2 0x1F2 SWAP2 SWAP1 PUSH2 0x909 JUMP JUMPDEST PUSH1 0x40 MLOAD DUP1 SWAP2 SUB SWAP1 RETURN JUMPDEST CALLVALUE DUP1 ISZERO PUSH2 0x206 JUMPI PUSH0 DUP1 REVERT JUMPDEST POP PUSH2 0x221 PUSH1 0x4 DUP1 CALLDATASIZE SUB DUP2 ADD SWAP1 PUSH2 0x21C SWAP2 SWAP1 PUSH2 0x83A JUMP JUMPDEST PUSH2 0x700 JUMP JUMPDEST PUSH1 0x40 MLOAD PUSH2 0x22E SWAP2 SWAP1 PUSH2 0x909 JUMP JUMPDEST PUSH1 0x40 MLOAD DUP1 SWAP2 SUB SWAP1 RETURN JUMPDEST CALLVALUE DUP1 ISZERO PUSH2 0x242 JUMPI PUSH0 DUP1 REVERT JUMPDEST POP PUSH2 0x25D PUSH1 0x4 DUP1 CALLDATASIZE SUB DUP2 ADD SWAP1 PUSH2 0x258 SWAP2 SWAP1 PUSH2 0x9A4 JUMP JUMPDEST PUSH2 0x762 JUMP JUMPDEST PUSH1 0x40 MLOAD PUSH2 0x26A SWAP2 SWAP1 PUSH2 0x909 JUMP JUMPDEST PUSH1 0x40 MLOAD DUP1 SWAP2 SUB SWAP1 RETURN JUMPDEST CALLVALUE DUP1 ISZERO PUSH2 0x27E JUMPI PUSH0 DUP1 REVERT JUMPDEST POP PUSH2 0x287 PUSH2 0x777 JUMP JUMPDEST PUSH1 0x40 MLOAD PUSH2 0x294 SWAP2 SWAP1 PUSH2 0x909 JUMP JUMPDEST PUSH1 0x40 MLOAD DUP1 SWAP2 SUB SWAP1 RETURN JUMPDEST PUSH0 PUSH1 0x3 PUSH0 DUP4 PUSH20 0xFFFFFFFFFFFFFFFFFFFFFFFFFFFFFFFFFFFFFFFF AND PUSH20 0xFFFFFFFFFFFFFFFFFFFFFFFFFFFFFFFFFFFFFFFF AND DUP2 MSTORE PUSH1 0x20 ADD SWAP1 DUP2 MSTORE PUSH1 0x20 ADD PUSH0 KECCAK256 SLOAD GT PUSH2 0x31C JUMPI PUSH1 0x40 MLOAD PUSH32 0x8C379A000000000000000000000000000000000000000000000000000000000 DUP2 MSTORE PUSH1 0x4 ADD PUSH2 0x313 SWAP1 PUSH2 0xA4F JUMP JUMPDEST PUSH1 0x40 MLOAD DUP1 SWAP2 SUB SWAP1 REVERT JUMPDEST PUSH0 PUSH2 0x326 DUP3 PUSH2 0x700 JUMP JUMPDEST SWAP1 POP PUSH0 DUP2 EQ PUSH2 0x36A JUMPI PUSH1 0x40 MLOAD PUSH32 0x8C379A000000000000000000000000000000000000000000000000000000000 DUP2 MSTORE PUSH1 0x4 ADD PUSH2 0x361 SWAP1 PUSH2 0xAB7 JUMP JUMPDEST PUSH1 0x40 MLOAD DUP1 SWAP2 SUB SWAP1 REVERT JUMPDEST DUP1 PUSH1 0x4 PUSH0 DUP5 PUSH20 0xFFFFFFFFFFFFFFFFFFFFFFFFFFFFFFFFFFFFFFFF AND PUSH20 0xFFFFFFFFFFFFFFFFFFFFFFFFFFFFFFFFFFFFFFFF AND DUP2 MSTORE PUSH1 0x20 ADD SWAP1 DUP2 MSTORE PUSH1 0x20 ADD PUSH0 KECCAK256 PUSH0 DUP3 DUP3 SLOAD PUSH2 0x3B6 SWAP2 SWAP1 PUSH2 0xB02 JUMP JUMPDEST SWAP3 POP POP DUP2 SWAP1 SSTORE POP DUP1 PUSH1 0x1 PUSH0 DUP3 DUP3 SLOAD PUSH2 0x3CE SWAP2 SWAP1 PUSH2 0xB02 JUMP JUMPDEST SWAP3 POP POP DUP2 SWAP1 SSTORE POP DUP2 PUSH20 0xFFFFFFFFFFFFFFFFFFFFFFFFFFFFFFFFFFFFFFFF AND PUSH2 0x8FC DUP3 SWAP1 DUP2 ISZERO MUL SWAP1 PUSH1 0x40 MLOAD PUSH0 PUSH1 0x40 MLOAD DUP1 DUP4 SUB DUP2 DUP6 DUP9 DUP9 CALL SWAP4 POP POP POP POP ISZERO DUP1 ISZERO PUSH2 0x418 JUMPI RETURNDATASIZE PUSH0 DUP1 RETURNDATACOPY RETURNDATASIZE PUSH0 REVERT JUMPDEST POP PUSH32 0xDF20FD1E76BC69D672E4814FAFB2C449BBA3A5369D8359ADF9E05E6FDE87B056 DUP3 DUP3 PUSH1 0x40 MLOAD PUSH2 0x44A SWAP3 SWAP2 SWAP1 PUSH2 0xB90 JUMP JUMPDEST PUSH1 0x40 MLOAD DUP1 SWAP2 SUB SWAP1 LOG1 POP POP JUMP JUMPDEST PUSH0 DUP2 DUP4 PUSH1 0x3 PUSH0 DUP8 PUSH20 0xFFFFFFFFFFFFFFFFFFFFFFFFFFFFFFFFFFFFFFFF AND PUSH20 0xFFFFFFFFFFFFFFFFFFFFFFFFFFFFFFFFFFFFFFFF AND DUP2 MSTORE PUSH1 0x20 ADD SWAP1 DUP2 MSTORE PUSH1 0x20 ADD PUSH0 KECCAK256 SLOAD DUP6 PUSH2 0x4A2 SWAP2 SWAP1 PUSH2 0xBB7 JUMP JUMPDEST PUSH2 0x4AC SWAP2 SWAP1 PUSH2 0xC25 JUMP JUMPDEST PUSH2 0x4B6 SWAP2 SWAP1 PUSH2 0xC55 JUMP JUMPDEST SWAP1 POP SWAP4 SWAP3 POP POP POP JUMP JUMPDEST PUSH0 SLOAD DUP2 JUMP JUMPDEST PUSH1 0x2 DUP2 DUP2 SLOAD DUP2 LT PUSH2 0x4D3 JUMPI PUSH0 DUP1 REVERT JUMPDEST SWAP1 PUSH0 MSTORE PUSH1 0x20 PUSH0 KECCAK256 ADD PUSH0 SWAP2 POP SLOAD SWAP1 PUSH2 0x100 EXP SWAP1 DIV PUSH20 0xFFFFFFFFFFFFFFFFFFFFFFFFFFFFFFFFFFFFFFFF AND DUP2 JUMP JUMPDEST PUSH0 PUSH20 0xFFFFFFFFFFFFFFFFFFFFFFFFFFFFFFFFFFFFFFFF AND DUP3 PUSH20 0xFFFFFFFFFFFFFFFFFFFFFFFFFFFFFFFFFFFFFFFF AND SUB PUSH2 0x56D JUMPI PUSH1 0x40 MLOAD PUSH32 0x8C379A000000000000000000000000000000000000000000000000000000000 DUP2 MSTORE PUSH1 0x4 ADD PUSH2 0x564 SWAP1 PUSH2 0xCD2 JUMP JUMPDEST PUSH1 0x40 MLOAD DUP1 SWAP2 SUB SWAP1 REVERT JUMPDEST PUSH0 DUP2 GT PUSH2 0x5AF JUMPI PUSH1 0x40 MLOAD PUSH32 0x8C379A000000000000000000000000000000000000000000000000000000000 DUP2 MSTORE PUSH1 0x4 ADD PUSH2 0x5A6 SWAP1 PUSH2 0xD3A JUMP JUMPDEST PUSH1 0x40 MLOAD DUP1 SWAP2 SUB SWAP1 REVERT JUMPDEST PUSH0 PUSH1 0x3 PUSH0 DUP5 PUSH20 0xFFFFFFFFFFFFFFFFFFFFFFFFFFFFFFFFFFFFFFFF AND PUSH20 0xFFFFFFFFFFFFFFFFFFFFFFFFFFFFFFFFFFFFFFFF AND DUP2 MSTORE PUSH1 0x20 ADD SWAP1 DUP2 MSTORE PUSH1 0x20 ADD PUSH0 KECCAK256 SLOAD EQ PUSH2 0x62E JUMPI PUSH1 0x40 MLOAD PUSH32 0x8C379A000000000000000000000000000000000000000000000000000000000 DUP2 MSTORE PUSH1 0x4 ADD PUSH2 0x625 SWAP1 PUSH2 0xDA2 JUMP JUMPDEST PUSH1 0x40 MLOAD DUP1 SWAP2 SUB SWAP1 REVERT JUMPDEST DUP1 PUSH1 0x3 PUSH0 DUP5 PUSH20 0xFFFFFFFFFFFFFFFFFFFFFFFFFFFFFFFFFFFFFFFF AND PUSH20 0xFFFFFFFFFFFFFFFFFFFFFFFFFFFFFFFFFFFFFFFF AND DUP2 MSTORE PUSH1 0x20 ADD SWAP1 DUP2 MSTORE PUSH1 0x20 ADD PUSH0 KECCAK256 DUP2 SWAP1 SSTORE POP PUSH1 0x2 DUP3 SWAP1 DUP1 PUSH1 0x1 DUP2 SLOAD ADD DUP1 DUP3 SSTORE DUP1 SWAP2 POP POP PUSH1 0x1 SWAP1 SUB SWAP1 PUSH0 MSTORE PUSH1 0x20 PUSH0 KECCAK256 ADD PUSH0 SWAP1 SWAP2 SWAP1 SWAP2 SWAP1 SWAP2 PUSH2 0x100 EXP DUP2 SLOAD DUP2 PUSH20 0xFFFFFFFFFFFFFFFFFFFFFFFFFFFFFFFFFFFFFFFF MUL NOT AND SWAP1 DUP4 PUSH20 0xFFFFFFFFFFFFFFFFFFFFFFFFFFFFFFFFFFFFFFFF AND MUL OR SWAP1 SSTORE POP DUP1 PUSH0 DUP1 DUP3 DUP3 SLOAD PUSH2 0x6E0 SWAP2 SWAP1 PUSH2 0xB02 JUMP JUMPDEST SWAP3 POP POP DUP2 SWAP1 SSTORE POP POP POP JUMP JUMPDEST PUSH1 0x4 PUSH1 0x20 MSTORE DUP1 PUSH0 MSTORE PUSH1 0x40 PUSH0 KECCAK256 PUSH0 SWAP2 POP SWAP1 POP SLOAD DUP2 JUMP JUMPDEST PUSH0 DUP1 PUSH1 0x1 SLOAD SELFBALANCE PUSH2 0x710 SWAP2 SWAP1 PUSH2 0xB02 JUMP JUMPDEST SWAP1 POP PUSH2 0x75A DUP4 DUP3 PUSH1 0x4 PUSH0 DUP8 PUSH20 0xFFFFFFFFFFFFFFFFFFFFFFFFFFFFFFFFFFFFFFFF AND PUSH20 0xFFFFFFFFFFFFFFFFFFFFFFFFFFFFFFFFFFFFFFFF AND DUP2 MSTORE PUSH1 0x20 ADD SWAP1 DUP2 MSTORE PUSH1 0x20 ADD PUSH0 KECCAK256 SLOAD PUSH2 0x456 JUMP JUMPDEST SWAP2 POP POP SWAP2 SWAP1 POP JUMP JUMPDEST PUSH1 0x3 PUSH1 0x20 MSTORE DUP1 PUSH0 MSTORE PUSH1 0x40 PUSH0 KECCAK256 PUSH0 SWAP2 POP SWAP1 POP SLOAD DUP2 JUMP JUMPDEST PUSH1 0x1 SLOAD DUP2 JUMP JUMPDEST PUSH0 PUSH20 0xFFFFFFFFFFFFFFFFFFFFFFFFFFFFFFFFFFFFFFFF DUP3 AND SWAP1 POP SWAP2 SWAP1 POP JUMP JUMPDEST PUSH0 PUSH2 0x7A6 DUP3 PUSH2 0x77D JUMP JUMPDEST SWAP1 POP SWAP2 SWAP1 POP JUMP JUMPDEST PUSH2 0x7B6 DUP2 PUSH2 0x79C JUMP JUMPDEST DUP3 MSTORE POP POP JUMP JUMPDEST PUSH0 DUP2 SWAP1 POP SWAP2 SWAP1 POP JUMP JUMPDEST PUSH2 0x7CE DUP2 PUSH2 0x7BC JUMP JUMPDEST DUP3 MSTORE POP POP JUMP JUMPDEST PUSH0 PUSH1 0x40 DUP3 ADD SWAP1 POP PUSH2 0x7E7 PUSH0 DUP4 ADD DUP6 PUSH2 0x7AD JUMP JUMPDEST PUSH2 0x7F4 PUSH1 0x20 DUP4 ADD DUP5 PUSH2 0x7C5 JUMP JUMPDEST SWAP4 SWAP3 POP POP POP JUMP JUMPDEST PUSH0 DUP1 REVERT JUMPDEST PUSH0 PUSH2 0x809 DUP3 PUSH2 0x77D JUMP JUMPDEST SWAP1 POP SWAP2 SWAP1 POP JUMP JUMPDEST PUSH2 0x819 DUP2 PUSH2 0x7FF JUMP JUMPDEST DUP2 EQ PUSH2 0x823 JUMPI PUSH0 DUP1 REVERT JUMPDEST POP JUMP JUMPDEST PUSH0 DUP2 CALLDATALOAD SWAP1 POP PUSH2 0x834 DUP2 PUSH2 0x810 JUMP JUMPDEST SWAP3 SWAP2 POP POP JUMP JUMPDEST PUSH0 PUSH1 0x20 DUP3 DUP5 SUB SLT ISZERO PUSH2 0x84F JUMPI PUSH2 0x84E PUSH2 0x7FB JUMP JUMPDEST JUMPDEST PUSH0 PUSH2 0x85C DUP5 DUP3 DUP6 ADD PUSH2 0x826 JUMP JUMPDEST SWAP2 POP POP SWAP3 SWAP2 POP POP JUMP JUMPDEST PUSH2 0x86E DUP2 PUSH2 0x79C JUMP JUMPDEST DUP2 EQ PUSH2 0x878 JUMPI PUSH0 DUP1 REVERT JUMPDEST POP JUMP JUMPDEST PUSH0 DUP2 CALLDATALOAD SWAP1 POP PUSH2 0x889 DUP2 PUSH2 0x865 JUMP JUMPDEST SWAP3 SWAP2 POP POP JUMP JUMPDEST PUSH2 0x898 DUP2 PUSH2 0x7BC JUMP JUMPDEST DUP2 EQ PUSH2 0x8A2 JUMPI PUSH0 DUP1 REVERT JUMPDEST POP JUMP JUMPDEST PUSH0 DUP2 CALLDATALOAD SWAP1 POP PUSH2 0x8B3 DUP2 PUSH2 0x88F JUMP JUMPDEST SWAP3 SWAP2 POP POP JUMP JUMPDEST PUSH0 DUP1 PUSH0 PUSH1 0x60 DUP5 DUP7 SUB SLT ISZERO PUSH2 0x8D0 JUMPI PUSH2 0x8CF PUSH2 0x7FB JUMP JUMPDEST JUMPDEST PUSH0 PUSH2 0x8DD DUP7 DUP3 DUP8 ADD PUSH2 0x87B JUMP JUMPDEST SWAP4 POP POP PUSH1 0x20 PUSH2 0x8EE DUP7 DUP3 DUP8 ADD PUSH2 0x8A5 JUMP JUMPDEST SWAP3 POP POP PUSH1 0x40 PUSH2 0x8FF DUP7 DUP3 DUP8 ADD PUSH2 0x8A5 JUMP JUMPDEST SWAP2 POP POP SWAP3 POP SWAP3 POP SWAP3 JUMP JUMPDEST PUSH0 PUSH1 0x20 DUP3 ADD SWAP1 POP PUSH2 0x91C PUSH0 DUP4 ADD DUP5 PUSH2 0x7C5 JUMP JUMPDEST SWAP3 SWAP2 POP POP JUMP JUMPDEST PUSH0 PUSH1 0x20 DUP3 DUP5 SUB SLT ISZERO PUSH2 0x937 JUMPI PUSH2 0x936 PUSH2 0x7FB JUMP JUMPDEST JUMPDEST PUSH0 PUSH2 0x944 DUP5 DUP3 DUP6 ADD PUSH2 0x8A5 JUMP JUMPDEST SWAP2 POP POP SWAP3 SWAP2 POP POP JUMP JUMPDEST PUSH0 PUSH1 0x20 DUP3 ADD SWAP1 POP PUSH2 0x960 PUSH0 DUP4 ADD DUP5 PUSH2 0x7AD JUMP JUMPDEST SWAP3 SWAP2 POP POP JUMP JUMPDEST PUSH0 DUP1 PUSH1 0x40 DUP4 DUP6 SUB SLT ISZERO PUSH2 0x97C JUMPI PUSH2 0x97B PUSH2 0x7FB JUMP JUMPDEST JUMPDEST PUSH0 PUSH2 0x989 DUP6 DUP3 DUP7 ADD PUSH2 0x87B JUMP JUMPDEST SWAP3 POP POP PUSH1 0x20 PUSH2 0x99A DUP6 DUP3 DUP7 ADD PUSH2 0x8A5 JUMP JUMPDEST SWAP2 POP POP SWAP3 POP SWAP3 SWAP1 POP JUMP JUMPDEST PUSH0 PUSH1 0x20 DUP3 DUP5 SUB SLT ISZERO PUSH2 0x9B9 JUMPI PUSH2 0x9B8 PUSH2 0x7FB JUMP JUMPDEST JUMPDEST PUSH0 PUSH2 0x9C6 DUP5 DUP3 DUP6 ADD PUSH2 0x87B JUMP JUMPDEST SWAP2 POP POP SWAP3 SWAP2 POP POP JUMP JUMPDEST PUSH0 DUP3 DUP3 MSTORE PUSH1 0x20 DUP3 ADD SWAP1 POP SWAP3 SWAP2 POP POP JUMP JUMPDEST PUSH32 0x546865207368617265206973206E6F7420657869737420696E20746869732070 PUSH0 DUP3 ADD MSTORE PUSH32 0x6179657221212100000000000000000000000000000000000000000000000000 PUSH1 0x20 DUP3 ADD MSTORE POP JUMP JUMPDEST PUSH0 PUSH2 0xA39 PUSH1 0x27 DUP4 PUSH2 0x9CF JUMP JUMPDEST SWAP2 POP PUSH2 0xA44 DUP3 PUSH2 0x9DF JUMP JUMPDEST PUSH1 0x40 DUP3 ADD SWAP1 POP SWAP2 SWAP1 POP JUMP JUMPDEST PUSH0 PUSH1 0x20 DUP3 ADD SWAP1 POP DUP2 DUP2 SUB PUSH0 DUP4 ADD MSTORE PUSH2 0xA66 DUP2 PUSH2 0xA2D JUMP JUMPDEST SWAP1 POP SWAP2 SWAP1 POP JUMP JUMPDEST PUSH32 0x416C72656164792072656C6561736520616C6C207061796D656E742121210000 PUSH0 DUP3 ADD MSTORE POP JUMP JUMPDEST PUSH0 PUSH2 0xAA1 PUSH1 0x1E DUP4 PUSH2 0x9CF JUMP JUMPDEST SWAP2 POP PUSH2 0xAAC DUP3 PUSH2 0xA6D JUMP JUMPDEST PUSH1 0x20 DUP3 ADD SWAP1 POP SWAP2 SWAP1 POP JUMP JUMPDEST PUSH0 PUSH1 0x20 DUP3 ADD SWAP1 POP DUP2 DUP2 SUB PUSH0 DUP4 ADD MSTORE PUSH2 0xACE DUP2 PUSH2 0xA95 JUMP JUMPDEST SWAP1 POP SWAP2 SWAP1 POP JUMP JUMPDEST PUSH32 0x4E487B7100000000000000000000000000000000000000000000000000000000 PUSH0 MSTORE PUSH1 0x11 PUSH1 0x4 MSTORE PUSH1 0x24 PUSH0 REVERT JUMPDEST PUSH0 PUSH2 0xB0C DUP3 PUSH2 0x7BC JUMP JUMPDEST SWAP2 POP PUSH2 0xB17 DUP4 PUSH2 0x7BC JUMP JUMPDEST SWAP3 POP DUP3 DUP3 ADD SWAP1 POP DUP1 DUP3 GT ISZERO PUSH2 0xB2F JUMPI PUSH2 0xB2E PUSH2 0xAD5 JUMP JUMPDEST JUMPDEST SWAP3 SWAP2 POP POP JUMP JUMPDEST PUSH0 DUP2 SWAP1 POP SWAP2 SWAP1 POP JUMP JUMPDEST PUSH0 PUSH2 0xB58 PUSH2 0xB53 PUSH2 0xB4E DUP5 PUSH2 0x77D JUMP JUMPDEST PUSH2 0xB35 JUMP JUMPDEST PUSH2 0x77D JUMP JUMPDEST SWAP1 POP SWAP2 SWAP1 POP JUMP JUMPDEST PUSH0 PUSH2 0xB69 DUP3 PUSH2 0xB3E JUMP JUMPDEST SWAP1 POP SWAP2 SWAP1 POP JUMP JUMPDEST PUSH0 PUSH2 0xB7A DUP3 PUSH2 0xB5F JUMP JUMPDEST SWAP1 POP SWAP2 SWAP1 POP JUMP JUMPDEST PUSH2 0xB8A DUP2 PUSH2 0xB70 JUMP JUMPDEST DUP3 MSTORE POP POP JUMP JUMPDEST PUSH0 PUSH1 0x40 DUP3 ADD SWAP1 POP PUSH2 0xBA3 PUSH0 DUP4 ADD DUP6 PUSH2 0xB81 JUMP JUMPDEST PUSH2 0xBB0 PUSH1 0x20 DUP4 ADD DUP5 PUSH2 0x7C5 JUMP JUMPDEST SWAP4 SWAP3 POP POP POP JUMP JUMPDEST PUSH0 PUSH2 0xBC1 DUP3 PUSH2 0x7BC JUMP JUMPDEST SWAP2 POP PUSH2 0xBCC DUP4 PUSH2 0x7BC JUMP JUMPDEST SWAP3 POP DUP3 DUP3 MUL PUSH2 0xBDA DUP2 PUSH2 0x7BC JUMP JUMPDEST SWAP2 POP DUP3 DUP3 DIV DUP5 EQ DUP4 ISZERO OR PUSH2 0xBF1 JUMPI PUSH2 0xBF0 PUSH2 0xAD5 JUMP JUMPDEST JUMPDEST POP SWAP3 SWAP2 POP POP JUMP JUMPDEST PUSH32 0x4E487B7100000000000000000000000000000000000000000000000000000000 PUSH0 MSTORE PUSH1 0x12 PUSH1 0x4 MSTORE PUSH1 0x24 PUSH0 REVERT JUMPDEST PUSH0 PUSH2 0xC2F DUP3 PUSH2 0x7BC JUMP JUMPDEST SWAP2 POP PUSH2 0xC3A DUP4 PUSH2 0x7BC JUMP JUMPDEST SWAP3 POP DUP3 PUSH2 0xC4A JUMPI PUSH2 0xC49 PUSH2 0xBF8 JUMP JUMPDEST JUMPDEST DUP3 DUP3 DIV SWAP1 POP SWAP3 SWAP2 POP POP JUMP JUMPDEST PUSH0 PUSH2 0xC5F DUP3 PUSH2 0x7BC JUMP JUMPDEST SWAP2 POP PUSH2 0xC6A DUP4 PUSH2 0x7BC JUMP JUMPDEST SWAP3 POP DUP3 DUP3 SUB SWAP1 POP DUP2 DUP2 GT ISZERO PUSH2 0xC82 JUMPI PUSH2 0xC81 PUSH2 0xAD5 JUMP JUMPDEST JUMPDEST SWAP3 SWAP2 POP POP JUMP JUMPDEST PUSH32 0x5061796565206163636F756E74206973207A65726F206163636F756E74212121 PUSH0 DUP3 ADD MSTORE POP JUMP JUMPDEST PUSH0 PUSH2 0xCBC PUSH1 0x20 DUP4 PUSH2 0x9CF JUMP JUMPDEST SWAP2 POP PUSH2 0xCC7 DUP3 PUSH2 0xC88 JUMP JUMPDEST PUSH1 0x20 DUP3 ADD SWAP1 POP SWAP2 SWAP1 POP JUMP JUMPDEST PUSH0 PUSH1 0x20 DUP3 ADD SWAP1 POP DUP2 DUP2 SUB PUSH0 DUP4 ADD MSTORE PUSH2 0xCE9 DUP2 PUSH2 0xCB0 JUMP JUMPDEST SWAP1 POP SWAP2 SWAP1 POP JUMP JUMPDEST PUSH32 0x5368617265206973207A65726F21212100000000000000000000000000000000 PUSH0 DUP3 ADD MSTORE POP JUMP JUMPDEST PUSH0 PUSH2 0xD24 PUSH1 0x10 DUP4 PUSH2 0x9CF JUMP JUMPDEST SWAP2 POP PUSH2 0xD2F DUP3 PUSH2 0xCF0 JUMP JUMPDEST PUSH1 0x20 DUP3 ADD SWAP1 POP SWAP2 SWAP1 POP JUMP JUMPDEST PUSH0 PUSH1 0x20 DUP3 ADD SWAP1 POP DUP2 DUP2 SUB PUSH0 DUP4 ADD MSTORE PUSH2 0xD51 DUP2 PUSH2 0xD18 JUMP JUMPDEST SWAP1 POP SWAP2 SWAP1 POP JUMP JUMPDEST PUSH32 0x506179656520686173206265656E206C69737465642121210000000000000000 PUSH0 DUP3 ADD MSTORE POP JUMP JUMPDEST PUSH0 PUSH2 0xD8C PUSH1 0x18 DUP4 PUSH2 0x9CF JUMP JUMPDEST SWAP2 POP PUSH2 0xD97 DUP3 PUSH2 0xD58 JUMP JUMPDEST PUSH1 0x20 DUP3 ADD SWAP1 POP SWAP2 SWAP1 POP JUMP JUMPDEST PUSH0 PUSH1 0x20 DUP3 ADD SWAP1 POP DUP2 DUP2 SUB PUSH0 DUP4 ADD MSTORE PUSH2 0xDB9 DUP2 PUSH2 0xD80 JUMP JUMPDEST SWAP1 POP SWAP2 SWAP1 POP JUMP INVALID LOG2 PUSH5 0x6970667358 0x22 SLT KECCAK256 0xA7 JUMPI DUP13 0xCE LOG1 0xE 0xAE SWAP4 SMOD DELEGATECALL 0xE4 0xB6 0x2E DUP11 BYTE 0xB2 PUSH9 0x6ED3314C205A61BE86 LOG4 CREATE 0x2D CALLER 0xE5 SIGNEXTEND PUSH5 0x736F6C6343 STOP ADDMOD BYTE STOP CALLER "
				},
				"gasEstimates": {
					"creation": {
						"codeDepositCost": "714800",
						"executionCost": "infinite",
						"totalCost": "infinite"
					},
					"external": {
						"_addPayee(address,uint256)": "infinite",
						"payees(uint256)": "5011",
						"pendingPayment(address,uint256,uint256)": "infinite",
						"releasable(address)": "infinite",
						"release(address)": "infinite",
						"released(address)": "2824",
						"shares(address)": "2868",
						"totalReleased()": "2513",
						"totalShares()": "2469"
					}
				},
				"methodIdentifiers": {
					"_addPayee(address,uint256)": "6ae6921f",
					"payees(uint256)": "63037b0c",
					"pendingPayment(address,uint256,uint256)": "1b51003d",
					"releasable(address)": "a3f8eace",
					"release(address)": "19165587",
					"released(address)": "9852595c",
					"shares(address)": "ce7c2ac2",
					"totalReleased()": "e33b7de3",
					"totalShares()": "3a98ef39"
				}
			},
			"storageLayout": {
				"storage": [
					{
						"astId": 22,
						"contract": "TryUSelf/PaymentSplitter/PaymentSplitter.sol:PaymentSplitter",
						"label": "totalShares",
						"offset": 0,
						"slot": "0",
						"type": "t_uint256"
					},
					{
						"astId": 24,
						"contract": "TryUSelf/PaymentSplitter/PaymentSplitter.sol:PaymentSplitter",
						"label": "totalReleased",
						"offset": 0,
						"slot": "1",
						"type": "t_uint256"
					},
					{
						"astId": 27,
						"contract": "TryUSelf/PaymentSplitter/PaymentSplitter.sol:PaymentSplitter",
						"label": "payees",
						"offset": 0,
						"slot": "2",
						"type": "t_array(t_address)dyn_storage"
					},
					{
						"astId": 31,
						"contract": "TryUSelf/PaymentSplitter/PaymentSplitter.sol:PaymentSplitter",
						"label": "shares",
						"offset": 0,
						"slot": "3",
						"type": "t_mapping(t_address,t_uint256)"
					},
					{
						"astId": 35,
						"contract": "TryUSelf/PaymentSplitter/PaymentSplitter.sol:PaymentSplitter",
						"label": "released",
						"offset": 0,
						"slot": "4",
						"type": "t_mapping(t_address,t_uint256)"
					}
				],
				"types": {
					"t_address": {
						"encoding": "inplace",
						"label": "address",
						"numberOfBytes": "20"
					},
					"t_array(t_address)dyn_storage": {
						"base": "t_address",
						"encoding": "dynamic_array",
						"label": "address[]",
						"numberOfBytes": "32"
					},
					"t_mapping(t_address,t_uint256)": {
						"encoding": "mapping",
						"key": "t_address",
						"label": "mapping(address => uint256)",
						"numberOfBytes": "32",
						"value": "t_uint256"
					},
					"t_uint256": {
						"encoding": "inplace",
						"label": "uint256",
						"numberOfBytes": "32"
					}
				}
			},
			"userdoc": {
				"kind": "user",
				"methods": {},
				"notice": "分账合约 ",
				"version": 1
			}
		}
	}
}