{
	"CrowdSourcing/Crowdsourcing.sol": {
		"CrowdsourcingToken": {
			"abi": [
				{
					"inputs": [],
					"stateMutability": "nonpayable",
					"type": "constructor"
				},
				{
					"inputs": [
						{
							"internalType": "address",
							"name": "spender",
							"type": "address"
						},
						{
							"internalType": "uint256",
							"name": "allowance",
							"type": "uint256"
						},
						{
							"internalType": "uint256",
							"name": "needed",
							"type": "uint256"
						}
					],
					"name": "ERC20InsufficientAllowance",
					"type": "error"
				},
				{
					"inputs": [
						{
							"internalType": "address",
							"name": "sender",
							"type": "address"
						},
						{
							"internalType": "uint256",
							"name": "balance",
							"type": "uint256"
						},
						{
							"internalType": "uint256",
							"name": "needed",
							"type": "uint256"
						}
					],
					"name": "ERC20InsufficientBalance",
					"type": "error"
				},
				{
					"inputs": [
						{
							"internalType": "address",
							"name": "approver",
							"type": "address"
						}
					],
					"name": "ERC20InvalidApprover",
					"type": "error"
				},
				{
					"inputs": [
						{
							"internalType": "address",
							"name": "receiver",
							"type": "address"
						}
					],
					"name": "ERC20InvalidReceiver",
					"type": "error"
				},
				{
					"inputs": [
						{
							"internalType": "address",
							"name": "sender",
							"type": "address"
						}
					],
					"name": "ERC20InvalidSender",
					"type": "error"
				},
				{
					"inputs": [
						{
							"internalType": "address",
							"name": "spender",
							"type": "address"
						}
					],
					"name": "ERC20InvalidSpender",
					"type": "error"
				},
				{
					"anonymous": false,
					"inputs": [
						{
							"indexed": true,
							"internalType": "address",
							"name": "owner",
							"type": "address"
						},
						{
							"indexed": true,
							"internalType": "address",
							"name": "spender",
							"type": "address"
						},
						{
							"indexed": false,
							"internalType": "uint256",
							"name": "value",
							"type": "uint256"
						}
					],
					"name": "Approval",
					"type": "event"
				},
				{
					"anonymous": false,
					"inputs": [
						{
							"indexed": true,
							"internalType": "address",
							"name": "poster",
							"type": "address"
						},
						{
							"indexed": true,
							"internalType": "uint256",
							"name": "taskId",
							"type": "uint256"
						},
						{
							"indexed": false,
							"internalType": "uint256",
							"name": "rewards",
							"type": "uint256"
						},
						{
							"indexed": false,
							"internalType": "uint256",
							"name": "req_times_",
							"type": "uint256"
						}
					],
					"name": "TaskAdded",
					"type": "event"
				},
				{
					"anonymous": false,
					"inputs": [
						{
							"indexed": true,
							"internalType": "address",
							"name": "poster",
							"type": "address"
						},
						{
							"indexed": true,
							"internalType": "uint256",
							"name": "taskId",
							"type": "uint256"
						},
						{
							"indexed": false,
							"internalType": "uint256",
							"name": "rewards",
							"type": "uint256"
						},
						{
							"indexed": false,
							"internalType": "uint256",
							"name": "req_times_",
							"type": "uint256"
						}
					],
					"name": "TaskRemoved",
					"type": "event"
				},
				{
					"anonymous": false,
					"inputs": [
						{
							"indexed": true,
							"internalType": "uint256",
							"name": "taskId",
							"type": "uint256"
						},
						{
							"indexed": true,
							"internalType": "address",
							"name": "completer",
							"type": "address"
						}
					],
					"name": "TasksOneTimeCompleted",
					"type": "event"
				},
				{
					"anonymous": false,
					"inputs": [
						{
							"indexed": true,
							"internalType": "address",
							"name": "from",
							"type": "address"
						},
						{
							"indexed": true,
							"internalType": "address",
							"name": "to",
							"type": "address"
						},
						{
							"indexed": false,
							"internalType": "uint256",
							"name": "value",
							"type": "uint256"
						}
					],
					"name": "Transfer",
					"type": "event"
				},
				{
					"inputs": [
						{
							"internalType": "uint256",
							"name": "",
							"type": "uint256"
						}
					],
					"name": "TasksList",
					"outputs": [
						{
							"internalType": "address",
							"name": "poster",
							"type": "address"
						},
						{
							"internalType": "uint256",
							"name": "EachReward",
							"type": "uint256"
						},
						{
							"internalType": "uint256",
							"name": "ReqTimes",
							"type": "uint256"
						},
						{
							"internalType": "bool",
							"name": "isCompleted",
							"type": "bool"
						}
					],
					"stateMutability": "view",
					"type": "function"
				},
				{
					"inputs": [
						{
							"internalType": "uint256[]",
							"name": "tasksRewards",
							"type": "uint256[]"
						},
						{
							"internalType": "uint256[]",
							"name": "reqTimes",
							"type": "uint256[]"
						}
					],
					"name": "addTasks",
					"outputs": [],
					"stateMutability": "nonpayable",
					"type": "function"
				},
				{
					"inputs": [
						{
							"internalType": "address",
							"name": "owner",
							"type": "address"
						},
						{
							"internalType": "address",
							"name": "spender",
							"type": "address"
						}
					],
					"name": "allowance",
					"outputs": [
						{
							"internalType": "uint256",
							"name": "",
							"type": "uint256"
						}
					],
					"stateMutability": "view",
					"type": "function"
				},
				{
					"inputs": [
						{
							"internalType": "address",
							"name": "spender",
							"type": "address"
						},
						{
							"internalType": "uint256",
							"name": "value",
							"type": "uint256"
						}
					],
					"name": "approve",
					"outputs": [
						{
							"internalType": "bool",
							"name": "",
							"type": "bool"
						}
					],
					"stateMutability": "nonpayable",
					"type": "function"
				},
				{
					"inputs": [
						{
							"internalType": "address",
							"name": "account",
							"type": "address"
						}
					],
					"name": "balanceOf",
					"outputs": [
						{
							"internalType": "uint256",
							"name": "",
							"type": "uint256"
						}
					],
					"stateMutability": "view",
					"type": "function"
				},
				{
					"inputs": [],
					"name": "decimals",
					"outputs": [
						{
							"internalType": "uint8",
							"name": "",
							"type": "uint8"
						}
					],
					"stateMutability": "view",
					"type": "function"
				},
				{
					"inputs": [
						{
							"internalType": "uint256",
							"name": "taskId",
							"type": "uint256"
						}
					],
					"name": "getTask",
					"outputs": [
						{
							"internalType": "uint256",
							"name": "reward_",
							"type": "uint256"
						},
						{
							"internalType": "address",
							"name": "poster_",
							"type": "address"
						},
						{
							"internalType": "uint256",
							"name": "reqTimes",
							"type": "uint256"
						},
						{
							"internalType": "bool",
							"name": "isCompleted",
							"type": "bool"
						}
					],
					"stateMutability": "view",
					"type": "function"
				},
				{
					"inputs": [],
					"name": "name",
					"outputs": [
						{
							"internalType": "string",
							"name": "",
							"type": "string"
						}
					],
					"stateMutability": "view",
					"type": "function"
				},
				{
					"inputs": [],
					"name": "nextTaskId",
					"outputs": [
						{
							"internalType": "uint256",
							"name": "",
							"type": "uint256"
						}
					],
					"stateMutability": "view",
					"type": "function"
				},
				{
					"inputs": [
						{
							"internalType": "uint256",
							"name": "taskId",
							"type": "uint256"
						}
					],
					"name": "redeemReward",
					"outputs": [],
					"stateMutability": "nonpayable",
					"type": "function"
				},
				{
					"inputs": [],
					"name": "symbol",
					"outputs": [
						{
							"internalType": "string",
							"name": "",
							"type": "string"
						}
					],
					"stateMutability": "view",
					"type": "function"
				},
				{
					"inputs": [],
					"name": "totalSupply",
					"outputs": [
						{
							"internalType": "uint256",
							"name": "",
							"type": "uint256"
						}
					],
					"stateMutability": "view",
					"type": "function"
				},
				{
					"inputs": [
						{
							"internalType": "address",
							"name": "to",
							"type": "address"
						},
						{
							"internalType": "uint256",
							"name": "value",
							"type": "uint256"
						}
					],
					"name": "transfer",
					"outputs": [
						{
							"internalType": "bool",
							"name": "",
							"type": "bool"
						}
					],
					"stateMutability": "nonpayable",
					"type": "function"
				},
				{
					"inputs": [
						{
							"internalType": "address",
							"name": "from",
							"type": "address"
						},
						{
							"internalType": "address",
							"name": "to",
							"type": "address"
						},
						{
							"internalType": "uint256",
							"name": "value",
							"type": "uint256"
						}
					],
					"name": "transferFrom",
					"outputs": [
						{
							"internalType": "bool",
							"name": "",
							"type": "bool"
						}
					],
					"stateMutability": "nonpayable",
					"type": "function"
				}
			],
			"devdoc": {
				"errors": {
					"ERC20InsufficientAllowance(address,uint256,uint256)": [
						{
							"details": "Indicates a failure with the `spender`’s `allowance`. Used in transfers.",
							"params": {
								"allowance": "Amount of tokens a `spender` is allowed to operate with.",
								"needed": "Minimum amount required to perform a transfer.",
								"spender": "Address that may be allowed to operate on tokens without being their owner."
							}
						}
					],
					"ERC20InsufficientBalance(address,uint256,uint256)": [
						{
							"details": "Indicates an error related to the current `balance` of a `sender`. Used in transfers.",
							"params": {
								"balance": "Current balance for the interacting account.",
								"needed": "Minimum amount required to perform a transfer.",
								"sender": "Address whose tokens are being transferred."
							}
						}
					],
					"ERC20InvalidApprover(address)": [
						{
							"details": "Indicates a failure with the `approver` of a token to be approved. Used in approvals.",
							"params": {
								"approver": "Address initiating an approval operation."
							}
						}
					],
					"ERC20InvalidReceiver(address)": [
						{
							"details": "Indicates a failure with the token `receiver`. Used in transfers.",
							"params": {
								"receiver": "Address to which tokens are being transferred."
							}
						}
					],
					"ERC20InvalidSender(address)": [
						{
							"details": "Indicates a failure with the token `sender`. Used in transfers.",
							"params": {
								"sender": "Address whose tokens are being transferred."
							}
						}
					],
					"ERC20InvalidSpender(address)": [
						{
							"details": "Indicates a failure with the `spender` to be approved. Used in approvals.",
							"params": {
								"spender": "Address that may be allowed to operate on tokens without being their owner."
							}
						}
					]
				},
				"events": {
					"Approval(address,address,uint256)": {
						"details": "Emitted when the allowance of a `spender` for an `owner` is set by a call to {approve}. `value` is the new allowance."
					},
					"Transfer(address,address,uint256)": {
						"details": "Emitted when `value` tokens are moved from one account (`from`) to another (`to`). Note that `value` may be zero."
					}
				},
				"kind": "dev",
				"methods": {
					"allowance(address,address)": {
						"details": "See {IERC20-allowance}."
					},
					"approve(address,uint256)": {
						"details": "See {IERC20-approve}. NOTE: If `value` is the maximum `uint256`, the allowance is not updated on `transferFrom`. This is semantically equivalent to an infinite approval. Requirements: - `spender` cannot be the zero address."
					},
					"balanceOf(address)": {
						"details": "See {IERC20-balanceOf}."
					},
					"decimals()": {
						"details": "Returns the number of decimals used to get its user representation. For example, if `decimals` equals `2`, a balance of `505` tokens should be displayed to a user as `5.05` (`505 / 10 ** 2`). Tokens usually opt for a value of 18, imitating the relationship between Ether and Wei. This is the default value returned by this function, unless it's overridden. NOTE: This information is only used for _display_ purposes: it in no way affects any of the arithmetic of the contract, including {IERC20-balanceOf} and {IERC20-transfer}."
					},
					"name()": {
						"details": "Returns the name of the token."
					},
					"symbol()": {
						"details": "Returns the symbol of the token, usually a shorter version of the name."
					},
					"totalSupply()": {
						"details": "See {IERC20-totalSupply}."
					},
					"transfer(address,uint256)": {
						"details": "See {IERC20-transfer}. Requirements: - `to` cannot be the zero address. - the caller must have a balance of at least `value`."
					},
					"transferFrom(address,address,uint256)": {
						"details": "See {IERC20-transferFrom}. Skips emitting an {Approval} event indicating an allowance update. This is not required by the ERC. See {xref-ERC20-_approve-address-address-uint256-bool-}[_approve]. NOTE: Does not update the allowance if the current allowance is the maximum `uint256`. Requirements: - `from` and `to` cannot be the zero address. - `from` must have a balance of at least `value`. - the caller must have allowance for ``from``'s tokens of at least `value`."
					}
				},
				"version": 1
			},
			"evm": {
				"assembly": "    /* \"CrowdSourcing/Crowdsourcing.sol\":173:4145  contract CrowdsourcingToken is ERC20 {... */\n  mstore(0x40, 0x80)\n    /* \"CrowdSourcing/Crowdsourcing.sol\":852:853  0 */\n  0x00\n    /* \"CrowdSourcing/Crowdsourcing.sol\":824:853  uint256 public nextTaskId = 0 */\n  0x05\n  sstore\n    /* \"CrowdSourcing/Crowdsourcing.sol\":979:1029  constructor() ERC20(\"CrowdsourcingToken\", \"CST\"){} */\n  callvalue\n  dup1\n  iszero\n  tag_1\n  jumpi\n  0x00\n  dup1\n  revert\ntag_1:\n  pop\n    /* \"@openzeppelin/contracts/token/ERC20/ERC20.sol\":1601:1714  constructor(string memory name_, string memory symbol_) {... */\n  mload(0x40)\n  dup1\n  0x40\n  add\n  0x40\n  mstore\n  dup1\n  0x12\n  dup2\n  mstore\n  0x20\n  add\n  0x43726f7764736f757263696e67546f6b656e0000000000000000000000000000\n  dup2\n  mstore\n  pop\n  mload(0x40)\n  dup1\n  0x40\n  add\n  0x40\n  mstore\n  dup1\n  0x03\n  dup2\n  mstore\n  0x20\n  add\n  0x4353540000000000000000000000000000000000000000000000000000000000\n  dup2\n  mstore\n  pop\n    /* \"@openzeppelin/contracts/token/ERC20/ERC20.sol\":1675:1680  name_ */\n  dup2\n    /* \"@openzeppelin/contracts/token/ERC20/ERC20.sol\":1667:1672  _name */\n  0x03\n    /* \"@openzeppelin/contracts/token/ERC20/ERC20.sol\":1667:1680  _name = name_ */\n  swap1\n  dup2\n  tag_5\n  swap2\n  swap1\n  tag_6\n  jump\t// in\ntag_5:\n  pop\n    /* \"@openzeppelin/contracts/token/ERC20/ERC20.sol\":1700:1707  symbol_ */\n  dup1\n    /* \"@openzeppelin/contracts/token/ERC20/ERC20.sol\":1690:1697  _symbol */\n  0x04\n    /* \"@openzeppelin/contracts/token/ERC20/ERC20.sol\":1690:1707  _symbol = symbol_ */\n  swap1\n  dup2\n  tag_7\n  swap2\n  swap1\n  tag_6\n  jump\t// in\ntag_7:\n  pop\n    /* \"@openzeppelin/contracts/token/ERC20/ERC20.sol\":1601:1714  constructor(string memory name_, string memory symbol_) {... */\n  pop\n  pop\n    /* \"CrowdSourcing/Crowdsourcing.sol\":173:4145  contract CrowdsourcingToken is ERC20 {... */\n  jump(tag_9)\n    /* \"#utility.yul\":7:106   */\ntag_10:\n    /* \"#utility.yul\":59:65   */\n  0x00\n    /* \"#utility.yul\":93:98   */\n  dup2\n    /* \"#utility.yul\":87:99   */\n  mload\n    /* \"#utility.yul\":77:99   */\n  swap1\n  pop\n    /* \"#utility.yul\":7:106   */\n  swap2\n  swap1\n  pop\n  jump\t// out\n    /* \"#utility.yul\":112:292   */\ntag_11:\n    /* \"#utility.yul\":160:237   */\n  0x4e487b7100000000000000000000000000000000000000000000000000000000\n    /* \"#utility.yul\":157:158   */\n  0x00\n    /* \"#utility.yul\":150:238   */\n  mstore\n    /* \"#utility.yul\":257:261   */\n  0x41\n    /* \"#utility.yul\":254:255   */\n  0x04\n    /* \"#utility.yul\":247:262   */\n  mstore\n    /* \"#utility.yul\":281:285   */\n  0x24\n    /* \"#utility.yul\":278:279   */\n  0x00\n    /* \"#utility.yul\":271:286   */\n  revert\n    /* \"#utility.yul\":298:478   */\ntag_12:\n    /* \"#utility.yul\":346:423   */\n  0x4e487b7100000000000000000000000000000000000000000000000000000000\n    /* \"#utility.yul\":343:344   */\n  0x00\n    /* \"#utility.yul\":336:424   */\n  mstore\n    /* \"#utility.yul\":443:447   */\n  0x22\n    /* \"#utility.yul\":440:441   */\n  0x04\n    /* \"#utility.yul\":433:448   */\n  mstore\n    /* \"#utility.yul\":467:471   */\n  0x24\n    /* \"#utility.yul\":464:465   */\n  0x00\n    /* \"#utility.yul\":457:472   */\n  revert\n    /* \"#utility.yul\":484:804   */\ntag_13:\n    /* \"#utility.yul\":528:534   */\n  0x00\n    /* \"#utility.yul\":565:566   */\n  0x02\n    /* \"#utility.yul\":559:563   */\n  dup3\n    /* \"#utility.yul\":555:567   */\n  div\n    /* \"#utility.yul\":545:567   */\n  swap1\n  pop\n    /* \"#utility.yul\":612:613   */\n  0x01\n    /* \"#utility.yul\":606:610   */\n  dup3\n    /* \"#utility.yul\":602:614   */\n  and\n    /* \"#utility.yul\":633:651   */\n  dup1\n    /* \"#utility.yul\":623:704   */\n  tag_35\n  jumpi\n    /* \"#utility.yul\":689:693   */\n  0x7f\n    /* \"#utility.yul\":681:687   */\n  dup3\n    /* \"#utility.yul\":677:694   */\n  and\n    /* \"#utility.yul\":667:694   */\n  swap2\n  pop\n    /* \"#utility.yul\":623:704   */\ntag_35:\n    /* \"#utility.yul\":751:753   */\n  0x20\n    /* \"#utility.yul\":743:749   */\n  dup3\n    /* \"#utility.yul\":740:754   */\n  lt\n    /* \"#utility.yul\":720:738   */\n  dup2\n    /* \"#utility.yul\":717:755   */\n  sub\n    /* \"#utility.yul\":714:798   */\n  tag_36\n  jumpi\n    /* \"#utility.yul\":770:788   */\n  tag_37\n  tag_12\n  jump\t// in\ntag_37:\n    /* \"#utility.yul\":714:798   */\ntag_36:\n    /* \"#utility.yul\":535:804   */\n  pop\n    /* \"#utility.yul\":484:804   */\n  swap2\n  swap1\n  pop\n  jump\t// out\n    /* \"#utility.yul\":810:951   */\ntag_14:\n    /* \"#utility.yul\":859:863   */\n  0x00\n    /* \"#utility.yul\":882:885   */\n  dup2\n    /* \"#utility.yul\":874:885   */\n  swap1\n  pop\n    /* \"#utility.yul\":905:908   */\n  dup2\n    /* \"#utility.yul\":902:903   */\n  0x00\n    /* \"#utility.yul\":895:909   */\n  mstore\n    /* \"#utility.yul\":939:943   */\n  0x20\n    /* \"#utility.yul\":936:937   */\n  0x00\n    /* \"#utility.yul\":926:944   */\n  keccak256\n    /* \"#utility.yul\":918:944   */\n  swap1\n  pop\n    /* \"#utility.yul\":810:951   */\n  swap2\n  swap1\n  pop\n  jump\t// out\n    /* \"#utility.yul\":957:1050   */\ntag_15:\n    /* \"#utility.yul\":994:1000   */\n  0x00\n    /* \"#utility.yul\":1041:1043   */\n  0x20\n    /* \"#utility.yul\":1036:1038   */\n  0x1f\n    /* \"#utility.yul\":1029:1034   */\n  dup4\n    /* \"#utility.yul\":1025:1039   */\n  add\n    /* \"#utility.yul\":1021:1044   */\n  div\n    /* \"#utility.yul\":1011:1044   */\n  swap1\n  pop\n    /* \"#utility.yul\":957:1050   */\n  swap2\n  swap1\n  pop\n  jump\t// out\n    /* \"#utility.yul\":1056:1163   */\ntag_16:\n    /* \"#utility.yul\":1100:1108   */\n  0x00\n    /* \"#utility.yul\":1150:1155   */\n  dup3\n    /* \"#utility.yul\":1144:1148   */\n  dup3\n    /* \"#utility.yul\":1140:1156   */\n  shl\n    /* \"#utility.yul\":1119:1156   */\n  swap1\n  pop\n    /* \"#utility.yul\":1056:1163   */\n  swap3\n  swap2\n  pop\n  pop\n  jump\t// out\n    /* \"#utility.yul\":1169:1562   */\ntag_17:\n    /* \"#utility.yul\":1238:1244   */\n  0x00\n    /* \"#utility.yul\":1288:1289   */\n  0x08\n    /* \"#utility.yul\":1276:1286   */\n  dup4\n    /* \"#utility.yul\":1272:1290   */\n  mul\n    /* \"#utility.yul\":1311:1408   */\n  tag_42\n    /* \"#utility.yul\":1341:1407   */\n  0xffffffffffffffffffffffffffffffffffffffffffffffffffffffffffffffff\n    /* \"#utility.yul\":1330:1339   */\n  dup3\n    /* \"#utility.yul\":1311:1408   */\n  tag_16\n  jump\t// in\ntag_42:\n    /* \"#utility.yul\":1429:1468   */\n  tag_43\n    /* \"#utility.yul\":1459:1467   */\n  dup7\n    /* \"#utility.yul\":1448:1457   */\n  dup4\n    /* \"#utility.yul\":1429:1468   */\n  tag_16\n  jump\t// in\ntag_43:\n    /* \"#utility.yul\":1417:1468   */\n  swap6\n  pop\n    /* \"#utility.yul\":1501:1505   */\n  dup1\n    /* \"#utility.yul\":1497:1506   */\n  not\n    /* \"#utility.yul\":1490:1495   */\n  dup5\n    /* \"#utility.yul\":1486:1507   */\n  and\n    /* \"#utility.yul\":1477:1507   */\n  swap4\n  pop\n    /* \"#utility.yul\":1550:1554   */\n  dup1\n    /* \"#utility.yul\":1540:1548   */\n  dup7\n    /* \"#utility.yul\":1536:1555   */\n  and\n    /* \"#utility.yul\":1529:1534   */\n  dup5\n    /* \"#utility.yul\":1526:1556   */\n  or\n    /* \"#utility.yul\":1516:1556   */\n  swap3\n  pop\n    /* \"#utility.yul\":1245:1562   */\n  pop\n  pop\n    /* \"#utility.yul\":1169:1562   */\n  swap4\n  swap3\n  pop\n  pop\n  pop\n  jump\t// out\n    /* \"#utility.yul\":1568:1645   */\ntag_18:\n    /* \"#utility.yul\":1605:1612   */\n  0x00\n    /* \"#utility.yul\":1634:1639   */\n  dup2\n    /* \"#utility.yul\":1623:1639   */\n  swap1\n  pop\n    /* \"#utility.yul\":1568:1645   */\n  swap2\n  swap1\n  pop\n  jump\t// out\n    /* \"#utility.yul\":1651:1711   */\ntag_19:\n    /* \"#utility.yul\":1679:1682   */\n  0x00\n    /* \"#utility.yul\":1700:1705   */\n  dup2\n    /* \"#utility.yul\":1693:1705   */\n  swap1\n  pop\n    /* \"#utility.yul\":1651:1711   */\n  swap2\n  swap1\n  pop\n  jump\t// out\n    /* \"#utility.yul\":1717:1859   */\ntag_20:\n    /* \"#utility.yul\":1767:1776   */\n  0x00\n    /* \"#utility.yul\":1800:1853   */\n  tag_47\n    /* \"#utility.yul\":1818:1852   */\n  tag_48\n    /* \"#utility.yul\":1827:1851   */\n  tag_49\n    /* \"#utility.yul\":1845:1850   */\n  dup5\n    /* \"#utility.yul\":1827:1851   */\n  tag_18\n  jump\t// in\ntag_49:\n    /* \"#utility.yul\":1818:1852   */\n  tag_19\n  jump\t// in\ntag_48:\n    /* \"#utility.yul\":1800:1853   */\n  tag_18\n  jump\t// in\ntag_47:\n    /* \"#utility.yul\":1787:1853   */\n  swap1\n  pop\n    /* \"#utility.yul\":1717:1859   */\n  swap2\n  swap1\n  pop\n  jump\t// out\n    /* \"#utility.yul\":1865:1940   */\ntag_21:\n    /* \"#utility.yul\":1908:1911   */\n  0x00\n    /* \"#utility.yul\":1929:1934   */\n  dup2\n    /* \"#utility.yul\":1922:1934   */\n  swap1\n  pop\n    /* \"#utility.yul\":1865:1940   */\n  swap2\n  swap1\n  pop\n  jump\t// out\n    /* \"#utility.yul\":1946:2215   */\ntag_22:\n    /* \"#utility.yul\":2056:2095   */\n  tag_52\n    /* \"#utility.yul\":2087:2094   */\n  dup4\n    /* \"#utility.yul\":2056:2095   */\n  tag_20\n  jump\t// in\ntag_52:\n    /* \"#utility.yul\":2117:2208   */\n  tag_53\n    /* \"#utility.yul\":2166:2207   */\n  tag_54\n    /* \"#utility.yul\":2190:2206   */\n  dup3\n    /* \"#utility.yul\":2166:2207   */\n  tag_21\n  jump\t// in\ntag_54:\n    /* \"#utility.yul\":2158:2164   */\n  dup5\n    /* \"#utility.yul\":2151:2155   */\n  dup5\n    /* \"#utility.yul\":2145:2156   */\n  sload\n    /* \"#utility.yul\":2117:2208   */\n  tag_17\n  jump\t// in\ntag_53:\n    /* \"#utility.yul\":2111:2115   */\n  dup3\n    /* \"#utility.yul\":2104:2209   */\n  sstore\n    /* \"#utility.yul\":2022:2215   */\n  pop\n    /* \"#utility.yul\":1946:2215   */\n  pop\n  pop\n  pop\n  jump\t// out\n    /* \"#utility.yul\":2221:2294   */\ntag_23:\n    /* \"#utility.yul\":2266:2269   */\n  0x00\n    /* \"#utility.yul\":2221:2294   */\n  swap1\n  jump\t// out\n    /* \"#utility.yul\":2300:2489   */\ntag_24:\n    /* \"#utility.yul\":2377:2409   */\n  tag_57\n  tag_23\n  jump\t// in\ntag_57:\n    /* \"#utility.yul\":2418:2483   */\n  tag_58\n    /* \"#utility.yul\":2476:2482   */\n  dup2\n    /* \"#utility.yul\":2468:2474   */\n  dup5\n    /* \"#utility.yul\":2462:2466   */\n  dup5\n    /* \"#utility.yul\":2418:2483   */\n  tag_22\n  jump\t// in\ntag_58:\n    /* \"#utility.yul\":2353:2489   */\n  pop\n    /* \"#utility.yul\":2300:2489   */\n  pop\n  pop\n  jump\t// out\n    /* \"#utility.yul\":2495:2681   */\ntag_25:\n    /* \"#utility.yul\":2555:2675   */\ntag_60:\n    /* \"#utility.yul\":2572:2575   */\n  dup2\n    /* \"#utility.yul\":2565:2570   */\n  dup2\n    /* \"#utility.yul\":2562:2576   */\n  lt\n    /* \"#utility.yul\":2555:2675   */\n  iszero\n  tag_62\n  jumpi\n    /* \"#utility.yul\":2626:2665   */\n  tag_63\n    /* \"#utility.yul\":2663:2664   */\n  0x00\n    /* \"#utility.yul\":2656:2661   */\n  dup3\n    /* \"#utility.yul\":2626:2665   */\n  tag_24\n  jump\t// in\ntag_63:\n    /* \"#utility.yul\":2599:2600   */\n  0x01\n    /* \"#utility.yul\":2592:2597   */\n  dup2\n    /* \"#utility.yul\":2588:2601   */\n  add\n    /* \"#utility.yul\":2579:2601   */\n  swap1\n  pop\n    /* \"#utility.yul\":2555:2675   */\n  jump(tag_60)\ntag_62:\n    /* \"#utility.yul\":2495:2681   */\n  pop\n  pop\n  jump\t// out\n    /* \"#utility.yul\":2687:3230   */\ntag_26:\n    /* \"#utility.yul\":2788:2790   */\n  0x1f\n    /* \"#utility.yul\":2783:2786   */\n  dup3\n    /* \"#utility.yul\":2780:2791   */\n  gt\n    /* \"#utility.yul\":2777:3223   */\n  iszero\n  tag_65\n  jumpi\n    /* \"#utility.yul\":2822:2860   */\n  tag_66\n    /* \"#utility.yul\":2854:2859   */\n  dup2\n    /* \"#utility.yul\":2822:2860   */\n  tag_14\n  jump\t// in\ntag_66:\n    /* \"#utility.yul\":2906:2935   */\n  tag_67\n    /* \"#utility.yul\":2924:2934   */\n  dup5\n    /* \"#utility.yul\":2906:2935   */\n  tag_15\n  jump\t// in\ntag_67:\n    /* \"#utility.yul\":2896:2904   */\n  dup2\n    /* \"#utility.yul\":2892:2936   */\n  add\n    /* \"#utility.yul\":3089:3091   */\n  0x20\n    /* \"#utility.yul\":3077:3087   */\n  dup6\n    /* \"#utility.yul\":3074:3092   */\n  lt\n    /* \"#utility.yul\":3071:3120   */\n  iszero\n  tag_68\n  jumpi\n    /* \"#utility.yul\":3110:3118   */\n  dup2\n    /* \"#utility.yul\":3095:3118   */\n  swap1\n  pop\n    /* \"#utility.yul\":3071:3120   */\ntag_68:\n    /* \"#utility.yul\":3133:3213   */\n  tag_69\n    /* \"#utility.yul\":3189:3211   */\n  tag_70\n    /* \"#utility.yul\":3207:3210   */\n  dup6\n    /* \"#utility.yul\":3189:3211   */\n  tag_15\n  jump\t// in\ntag_70:\n    /* \"#utility.yul\":3179:3187   */\n  dup4\n    /* \"#utility.yul\":3175:3212   */\n  add\n    /* \"#utility.yul\":3162:3173   */\n  dup3\n    /* \"#utility.yul\":3133:3213   */\n  tag_25\n  jump\t// in\ntag_69:\n    /* \"#utility.yul\":2792:3223   */\n  pop\n  pop\n    /* \"#utility.yul\":2777:3223   */\ntag_65:\n    /* \"#utility.yul\":2687:3230   */\n  pop\n  pop\n  pop\n  jump\t// out\n    /* \"#utility.yul\":3236:3353   */\ntag_27:\n    /* \"#utility.yul\":3290:3298   */\n  0x00\n    /* \"#utility.yul\":3340:3345   */\n  dup3\n    /* \"#utility.yul\":3334:3338   */\n  dup3\n    /* \"#utility.yul\":3330:3346   */\n  shr\n    /* \"#utility.yul\":3309:3346   */\n  swap1\n  pop\n    /* \"#utility.yul\":3236:3353   */\n  swap3\n  swap2\n  pop\n  pop\n  jump\t// out\n    /* \"#utility.yul\":3359:3528   */\ntag_28:\n    /* \"#utility.yul\":3403:3409   */\n  0x00\n    /* \"#utility.yul\":3436:3487   */\n  tag_73\n    /* \"#utility.yul\":3484:3485   */\n  0x00\n    /* \"#utility.yul\":3480:3486   */\n  not\n    /* \"#utility.yul\":3472:3477   */\n  dup5\n    /* \"#utility.yul\":3469:3470   */\n  0x08\n    /* \"#utility.yul\":3465:3478   */\n  mul\n    /* \"#utility.yul\":3436:3487   */\n  tag_27\n  jump\t// in\ntag_73:\n    /* \"#utility.yul\":3432:3488   */\n  not\n    /* \"#utility.yul\":3517:3521   */\n  dup1\n    /* \"#utility.yul\":3511:3515   */\n  dup4\n    /* \"#utility.yul\":3507:3522   */\n  and\n    /* \"#utility.yul\":3497:3522   */\n  swap2\n  pop\n    /* \"#utility.yul\":3410:3528   */\n  pop\n    /* \"#utility.yul\":3359:3528   */\n  swap3\n  swap2\n  pop\n  pop\n  jump\t// out\n    /* \"#utility.yul\":3533:3828   */\ntag_29:\n    /* \"#utility.yul\":3609:3613   */\n  0x00\n    /* \"#utility.yul\":3755:3784   */\n  tag_75\n    /* \"#utility.yul\":3780:3783   */\n  dup4\n    /* \"#utility.yul\":3774:3778   */\n  dup4\n    /* \"#utility.yul\":3755:3784   */\n  tag_28\n  jump\t// in\ntag_75:\n    /* \"#utility.yul\":3747:3784   */\n  swap2\n  pop\n    /* \"#utility.yul\":3817:3820   */\n  dup3\n    /* \"#utility.yul\":3814:3815   */\n  0x02\n    /* \"#utility.yul\":3810:3821   */\n  mul\n    /* \"#utility.yul\":3804:3808   */\n  dup3\n    /* \"#utility.yul\":3801:3822   */\n  or\n    /* \"#utility.yul\":3793:3822   */\n  swap1\n  pop\n    /* \"#utility.yul\":3533:3828   */\n  swap3\n  swap2\n  pop\n  pop\n  jump\t// out\n    /* \"#utility.yul\":3833:5228   */\ntag_6:\n    /* \"#utility.yul\":3950:3987   */\n  tag_77\n    /* \"#utility.yul\":3983:3986   */\n  dup3\n    /* \"#utility.yul\":3950:3987   */\n  tag_10\n  jump\t// in\ntag_77:\n    /* \"#utility.yul\":4052:4070   */\n  0xffffffffffffffff\n    /* \"#utility.yul\":4044:4050   */\n  dup2\n    /* \"#utility.yul\":4041:4071   */\n  gt\n    /* \"#utility.yul\":4038:4094   */\n  iszero\n  tag_78\n  jumpi\n    /* \"#utility.yul\":4074:4092   */\n  tag_79\n  tag_11\n  jump\t// in\ntag_79:\n    /* \"#utility.yul\":4038:4094   */\ntag_78:\n    /* \"#utility.yul\":4118:4156   */\n  tag_80\n    /* \"#utility.yul\":4150:4154   */\n  dup3\n    /* \"#utility.yul\":4144:4155   */\n  sload\n    /* \"#utility.yul\":4118:4156   */\n  tag_13\n  jump\t// in\ntag_80:\n    /* \"#utility.yul\":4203:4270   */\n  tag_81\n    /* \"#utility.yul\":4263:4269   */\n  dup3\n    /* \"#utility.yul\":4255:4261   */\n  dup3\n    /* \"#utility.yul\":4249:4253   */\n  dup6\n    /* \"#utility.yul\":4203:4270   */\n  tag_26\n  jump\t// in\ntag_81:\n    /* \"#utility.yul\":4297:4298   */\n  0x00\n    /* \"#utility.yul\":4321:4325   */\n  0x20\n    /* \"#utility.yul\":4308:4325   */\n  swap1\n  pop\n    /* \"#utility.yul\":4353:4355   */\n  0x1f\n    /* \"#utility.yul\":4345:4351   */\n  dup4\n    /* \"#utility.yul\":4342:4356   */\n  gt\n    /* \"#utility.yul\":4370:4371   */\n  0x01\n    /* \"#utility.yul\":4365:4983   */\n  dup2\n  eq\n  tag_83\n  jumpi\n    /* \"#utility.yul\":5027:5028   */\n  0x00\n    /* \"#utility.yul\":5044:5050   */\n  dup5\n    /* \"#utility.yul\":5041:5118   */\n  iszero\n  tag_84\n  jumpi\n    /* \"#utility.yul\":5093:5102   */\n  dup3\n    /* \"#utility.yul\":5088:5091   */\n  dup8\n    /* \"#utility.yul\":5084:5103   */\n  add\n    /* \"#utility.yul\":5078:5104   */\n  mload\n    /* \"#utility.yul\":5069:5104   */\n  swap1\n  pop\n    /* \"#utility.yul\":5041:5118   */\ntag_84:\n    /* \"#utility.yul\":5144:5211   */\n  tag_85\n    /* \"#utility.yul\":5204:5210   */\n  dup6\n    /* \"#utility.yul\":5197:5202   */\n  dup3\n    /* \"#utility.yul\":5144:5211   */\n  tag_29\n  jump\t// in\ntag_85:\n    /* \"#utility.yul\":5138:5142   */\n  dup7\n    /* \"#utility.yul\":5131:5212   */\n  sstore\n    /* \"#utility.yul\":5000:5222   */\n  pop\n    /* \"#utility.yul\":4335:5222   */\n  jump(tag_82)\n    /* \"#utility.yul\":4365:4983   */\ntag_83:\n    /* \"#utility.yul\":4417:4421   */\n  0x1f\n    /* \"#utility.yul\":4413:4422   */\n  not\n    /* \"#utility.yul\":4405:4411   */\n  dup5\n    /* \"#utility.yul\":4401:4423   */\n  and\n    /* \"#utility.yul\":4451:4488   */\n  tag_86\n    /* \"#utility.yul\":4483:4487   */\n  dup7\n    /* \"#utility.yul\":4451:4488   */\n  tag_14\n  jump\t// in\ntag_86:\n    /* \"#utility.yul\":4510:4511   */\n  0x00\n    /* \"#utility.yul\":4524:4732   */\ntag_87:\n    /* \"#utility.yul\":4538:4545   */\n  dup3\n    /* \"#utility.yul\":4535:4536   */\n  dup2\n    /* \"#utility.yul\":4532:4546   */\n  lt\n    /* \"#utility.yul\":4524:4732   */\n  iszero\n  tag_89\n  jumpi\n    /* \"#utility.yul\":4617:4626   */\n  dup5\n    /* \"#utility.yul\":4612:4615   */\n  dup10\n    /* \"#utility.yul\":4608:4627   */\n  add\n    /* \"#utility.yul\":4602:4628   */\n  mload\n    /* \"#utility.yul\":4594:4600   */\n  dup3\n    /* \"#utility.yul\":4587:4629   */\n  sstore\n    /* \"#utility.yul\":4668:4669   */\n  0x01\n    /* \"#utility.yul\":4660:4666   */\n  dup3\n    /* \"#utility.yul\":4656:4670   */\n  add\n    /* \"#utility.yul\":4646:4670   */\n  swap2\n  pop\n    /* \"#utility.yul\":4715:4717   */\n  0x20\n    /* \"#utility.yul\":4704:4713   */\n  dup6\n    /* \"#utility.yul\":4700:4718   */\n  add\n    /* \"#utility.yul\":4687:4718   */\n  swap5\n  pop\n    /* \"#utility.yul\":4561:4565   */\n  0x20\n    /* \"#utility.yul\":4558:4559   */\n  dup2\n    /* \"#utility.yul\":4554:4566   */\n  add\n    /* \"#utility.yul\":4549:4566   */\n  swap1\n  pop\n    /* \"#utility.yul\":4524:4732   */\n  jump(tag_87)\ntag_89:\n    /* \"#utility.yul\":4760:4766   */\n  dup7\n    /* \"#utility.yul\":4751:4758   */\n  dup4\n    /* \"#utility.yul\":4748:4767   */\n  lt\n    /* \"#utility.yul\":4745:4924   */\n  iszero\n  tag_90\n  jumpi\n    /* \"#utility.yul\":4818:4827   */\n  dup5\n    /* \"#utility.yul\":4813:4816   */\n  dup10\n    /* \"#utility.yul\":4809:4828   */\n  add\n    /* \"#utility.yul\":4803:4829   */\n  mload\n    /* \"#utility.yul\":4861:4909   */\n  tag_91\n    /* \"#utility.yul\":4903:4907   */\n  0x1f\n    /* \"#utility.yul\":4895:4901   */\n  dup10\n    /* \"#utility.yul\":4891:4908   */\n  and\n    /* \"#utility.yul\":4880:4889   */\n  dup3\n    /* \"#utility.yul\":4861:4909   */\n  tag_28\n  jump\t// in\ntag_91:\n    /* \"#utility.yul\":4853:4859   */\n  dup4\n    /* \"#utility.yul\":4846:4910   */\n  sstore\n    /* \"#utility.yul\":4768:4924   */\n  pop\n    /* \"#utility.yul\":4745:4924   */\ntag_90:\n    /* \"#utility.yul\":4970:4971   */\n  0x01\n    /* \"#utility.yul\":4966:4967   */\n  0x02\n    /* \"#utility.yul\":4958:4964   */\n  dup9\n    /* \"#utility.yul\":4954:4968   */\n  mul\n    /* \"#utility.yul\":4950:4972   */\n  add\n    /* \"#utility.yul\":4944:4948   */\n  dup9\n    /* \"#utility.yul\":4937:4973   */\n  sstore\n    /* \"#utility.yul\":4372:4983   */\n  pop\n  pop\n  pop\n    /* \"#utility.yul\":4335:5222   */\ntag_82:\n  pop\n    /* \"#utility.yul\":3925:5228   */\n  pop\n  pop\n  pop\n    /* \"#utility.yul\":3833:5228   */\n  pop\n  pop\n  jump\t// out\n    /* \"CrowdSourcing/Crowdsourcing.sol\":173:4145  contract CrowdsourcingToken is ERC20 {... */\ntag_9:\n  dataSize(sub_0)\n  dup1\n  dataOffset(sub_0)\n  0x00\n  codecopy\n  0x00\n  return\nstop\n\nsub_0: assembly {\n        /* \"CrowdSourcing/Crowdsourcing.sol\":173:4145  contract CrowdsourcingToken is ERC20 {... */\n      mstore(0x40, 0x80)\n      callvalue\n      dup1\n      iszero\n      tag_1\n      jumpi\n      0x00\n      dup1\n      revert\n    tag_1:\n      pop\n      jumpi(tag_2, lt(calldatasize, 0x04))\n      shr(0xe0, calldataload(0x00))\n      dup1\n      0x313ce567\n      gt\n      tag_17\n      jumpi\n      dup1\n      0x95d89b41\n      gt\n      tag_18\n      jumpi\n      dup1\n      0x95d89b41\n      eq\n      tag_13\n      jumpi\n      dup1\n      0xa9059cbb\n      eq\n      tag_14\n      jumpi\n      dup1\n      0xdd62ed3e\n      eq\n      tag_15\n      jumpi\n      dup1\n      0xfdc3d8d7\n      eq\n      tag_16\n      jumpi\n      jump(tag_2)\n    tag_18:\n      dup1\n      0x313ce567\n      eq\n      tag_10\n      jumpi\n      dup1\n      0x51a71b17\n      eq\n      tag_11\n      jumpi\n      dup1\n      0x70a08231\n      eq\n      tag_12\n      jumpi\n      jump(tag_2)\n    tag_17:\n      dup1\n      0x18160ddd\n      gt\n      tag_19\n      jumpi\n      dup1\n      0x18160ddd\n      eq\n      tag_6\n      jumpi\n      dup1\n      0x1d65e77e\n      eq\n      tag_7\n      jumpi\n      dup1\n      0x23b872dd\n      eq\n      tag_8\n      jumpi\n      dup1\n      0x257baa3a\n      eq\n      tag_9\n      jumpi\n      jump(tag_2)\n    tag_19:\n      dup1\n      0x06fdde03\n      eq\n      tag_3\n      jumpi\n      dup1\n      0x095ea7b3\n      eq\n      tag_4\n      jumpi\n      dup1\n      0x0b7879aa\n      eq\n      tag_5\n      jumpi\n    tag_2:\n      0x00\n      dup1\n      revert\n        /* \"@openzeppelin/contracts/token/ERC20/ERC20.sol\":1779:1868  function name() public view virtual returns (string memory) {... */\n    tag_3:\n      tag_20\n      tag_21\n      jump\t// in\n    tag_20:\n      mload(0x40)\n      tag_22\n      swap2\n      swap1\n      tag_23\n      jump\t// in\n    tag_22:\n      mload(0x40)\n      dup1\n      swap2\n      sub\n      swap1\n      return\n        /* \"@openzeppelin/contracts/token/ERC20/ERC20.sol\":3998:4184  function approve(address spender, uint256 value) public virtual returns (bool) {... */\n    tag_4:\n      tag_24\n      0x04\n      dup1\n      calldatasize\n      sub\n      dup2\n      add\n      swap1\n      tag_25\n      swap2\n      swap1\n      tag_26\n      jump\t// in\n    tag_25:\n      tag_27\n      jump\t// in\n    tag_24:\n      mload(0x40)\n      tag_28\n      swap2\n      swap1\n      tag_29\n      jump\t// in\n    tag_28:\n      mload(0x40)\n      dup1\n      swap2\n      sub\n      swap1\n      return\n        /* \"CrowdSourcing/Crowdsourcing.sol\":928:970  mapping (uint256 => Task) public TasksList */\n    tag_5:\n      tag_30\n      0x04\n      dup1\n      calldatasize\n      sub\n      dup2\n      add\n      swap1\n      tag_31\n      swap2\n      swap1\n      tag_32\n      jump\t// in\n    tag_31:\n      tag_33\n      jump\t// in\n    tag_30:\n      mload(0x40)\n      tag_34\n      swap5\n      swap4\n      swap3\n      swap2\n      swap1\n      tag_35\n      jump\t// in\n    tag_34:\n      mload(0x40)\n      dup1\n      swap2\n      sub\n      swap1\n      return\n        /* \"@openzeppelin/contracts/token/ERC20/ERC20.sol\":2849:2946  function totalSupply() public view virtual returns (uint256) {... */\n    tag_6:\n      tag_36\n      tag_37\n      jump\t// in\n    tag_36:\n      mload(0x40)\n      tag_38\n      swap2\n      swap1\n      tag_39\n      jump\t// in\n    tag_38:\n      mload(0x40)\n      dup1\n      swap2\n      sub\n      swap1\n      return\n        /* \"CrowdSourcing/Crowdsourcing.sol\":3310:3636  function getTask(... */\n    tag_7:\n      tag_40\n      0x04\n      dup1\n      calldatasize\n      sub\n      dup2\n      add\n      swap1\n      tag_41\n      swap2\n      swap1\n      tag_32\n      jump\t// in\n    tag_41:\n      tag_42\n      jump\t// in\n    tag_40:\n      mload(0x40)\n      tag_43\n      swap5\n      swap4\n      swap3\n      swap2\n      swap1\n      tag_44\n      jump\t// in\n    tag_43:\n      mload(0x40)\n      dup1\n      swap2\n      sub\n      swap1\n      return\n        /* \"@openzeppelin/contracts/token/ERC20/ERC20.sol\":4776:5020  function transferFrom(address from, address to, uint256 value) public virtual returns (bool) {... */\n    tag_8:\n      tag_45\n      0x04\n      dup1\n      calldatasize\n      sub\n      dup2\n      add\n      swap1\n      tag_46\n      swap2\n      swap1\n      tag_47\n      jump\t// in\n    tag_46:\n      tag_48\n      jump\t// in\n    tag_45:\n      mload(0x40)\n      tag_49\n      swap2\n      swap1\n      tag_29\n      jump\t// in\n    tag_49:\n      mload(0x40)\n      dup1\n      swap2\n      sub\n      swap1\n      return\n        /* \"CrowdSourcing/Crowdsourcing.sol\":1115:2312  function addTasks(... */\n    tag_9:\n      tag_50\n      0x04\n      dup1\n      calldatasize\n      sub\n      dup2\n      add\n      swap1\n      tag_51\n      swap2\n      swap1\n      tag_52\n      jump\t// in\n    tag_51:\n      tag_53\n      jump\t// in\n    tag_50:\n      stop\n        /* \"@openzeppelin/contracts/token/ERC20/ERC20.sol\":2707:2789  function decimals() public view virtual returns (uint8) {... */\n    tag_10:\n      tag_54\n      tag_55\n      jump\t// in\n    tag_54:\n      mload(0x40)\n      tag_56\n      swap2\n      swap1\n      tag_57\n      jump\t// in\n    tag_56:\n      mload(0x40)\n      dup1\n      swap2\n      sub\n      swap1\n      return\n        /* \"CrowdSourcing/Crowdsourcing.sol\":2320:3259  function redeemReward(... */\n    tag_11:\n      tag_58\n      0x04\n      dup1\n      calldatasize\n      sub\n      dup2\n      add\n      swap1\n      tag_59\n      swap2\n      swap1\n      tag_32\n      jump\t// in\n    tag_59:\n      tag_60\n      jump\t// in\n    tag_58:\n      stop\n        /* \"@openzeppelin/contracts/token/ERC20/ERC20.sol\":3004:3120  function balanceOf(address account) public view virtual returns (uint256) {... */\n    tag_12:\n      tag_61\n      0x04\n      dup1\n      calldatasize\n      sub\n      dup2\n      add\n      swap1\n      tag_62\n      swap2\n      swap1\n      tag_63\n      jump\t// in\n    tag_62:\n      tag_64\n      jump\t// in\n    tag_61:\n      mload(0x40)\n      tag_65\n      swap2\n      swap1\n      tag_39\n      jump\t// in\n    tag_65:\n      mload(0x40)\n      dup1\n      swap2\n      sub\n      swap1\n      return\n        /* \"@openzeppelin/contracts/token/ERC20/ERC20.sol\":1981:2074  function symbol() public view virtual returns (string memory) {... */\n    tag_13:\n      tag_66\n      tag_67\n      jump\t// in\n    tag_66:\n      mload(0x40)\n      tag_68\n      swap2\n      swap1\n      tag_23\n      jump\t// in\n    tag_68:\n      mload(0x40)\n      dup1\n      swap2\n      sub\n      swap1\n      return\n        /* \"@openzeppelin/contracts/token/ERC20/ERC20.sol\":3315:3493  function transfer(address to, uint256 value) public virtual returns (bool) {... */\n    tag_14:\n      tag_69\n      0x04\n      dup1\n      calldatasize\n      sub\n      dup2\n      add\n      swap1\n      tag_70\n      swap2\n      swap1\n      tag_26\n      jump\t// in\n    tag_70:\n      tag_71\n      jump\t// in\n    tag_69:\n      mload(0x40)\n      tag_72\n      swap2\n      swap1\n      tag_29\n      jump\t// in\n    tag_72:\n      mload(0x40)\n      dup1\n      swap2\n      sub\n      swap1\n      return\n        /* \"@openzeppelin/contracts/token/ERC20/ERC20.sol\":3551:3691  function allowance(address owner, address spender) public view virtual returns (uint256) {... */\n    tag_15:\n      tag_73\n      0x04\n      dup1\n      calldatasize\n      sub\n      dup2\n      add\n      swap1\n      tag_74\n      swap2\n      swap1\n      tag_75\n      jump\t// in\n    tag_74:\n      tag_76\n      jump\t// in\n    tag_73:\n      mload(0x40)\n      tag_77\n      swap2\n      swap1\n      tag_39\n      jump\t// in\n    tag_77:\n      mload(0x40)\n      dup1\n      swap2\n      sub\n      swap1\n      return\n        /* \"CrowdSourcing/Crowdsourcing.sol\":824:853  uint256 public nextTaskId = 0 */\n    tag_16:\n      tag_78\n      tag_79\n      jump\t// in\n    tag_78:\n      mload(0x40)\n      tag_80\n      swap2\n      swap1\n      tag_39\n      jump\t// in\n    tag_80:\n      mload(0x40)\n      dup1\n      swap2\n      sub\n      swap1\n      return\n        /* \"@openzeppelin/contracts/token/ERC20/ERC20.sol\":1779:1868  function name() public view virtual returns (string memory) {... */\n    tag_21:\n        /* \"@openzeppelin/contracts/token/ERC20/ERC20.sol\":1824:1837  string memory */\n      0x60\n        /* \"@openzeppelin/contracts/token/ERC20/ERC20.sol\":1856:1861  _name */\n      0x03\n        /* \"@openzeppelin/contracts/token/ERC20/ERC20.sol\":1849:1861  return _name */\n      dup1\n      sload\n      tag_82\n      swap1\n      tag_83\n      jump\t// in\n    tag_82:\n      dup1\n      0x1f\n      add\n      0x20\n      dup1\n      swap2\n      div\n      mul\n      0x20\n      add\n      mload(0x40)\n      swap1\n      dup2\n      add\n      0x40\n      mstore\n      dup1\n      swap3\n      swap2\n      swap1\n      dup2\n      dup2\n      mstore\n      0x20\n      add\n      dup3\n      dup1\n      sload\n      tag_84\n      swap1\n      tag_83\n      jump\t// in\n    tag_84:\n      dup1\n      iszero\n      tag_85\n      jumpi\n      dup1\n      0x1f\n      lt\n      tag_86\n      jumpi\n      0x0100\n      dup1\n      dup4\n      sload\n      div\n      mul\n      dup4\n      mstore\n      swap2\n      0x20\n      add\n      swap2\n      jump(tag_85)\n    tag_86:\n      dup3\n      add\n      swap2\n      swap1\n      0x00\n      mstore\n      keccak256(0x00, 0x20)\n      swap1\n    tag_87:\n      dup2\n      sload\n      dup2\n      mstore\n      swap1\n      0x01\n      add\n      swap1\n      0x20\n      add\n      dup1\n      dup4\n      gt\n      tag_87\n      jumpi\n      dup3\n      swap1\n      sub\n      0x1f\n      and\n      dup3\n      add\n      swap2\n    tag_85:\n      pop\n      pop\n      pop\n      pop\n      pop\n      swap1\n      pop\n        /* \"@openzeppelin/contracts/token/ERC20/ERC20.sol\":1779:1868  function name() public view virtual returns (string memory) {... */\n      swap1\n      jump\t// out\n        /* \"@openzeppelin/contracts/token/ERC20/ERC20.sol\":3998:4184  function approve(address spender, uint256 value) public virtual returns (bool) {... */\n    tag_27:\n        /* \"@openzeppelin/contracts/token/ERC20/ERC20.sol\":4071:4075  bool */\n      0x00\n        /* \"@openzeppelin/contracts/token/ERC20/ERC20.sol\":4087:4100  address owner */\n      dup1\n        /* \"@openzeppelin/contracts/token/ERC20/ERC20.sol\":4103:4115  _msgSender() */\n      tag_89\n        /* \"@openzeppelin/contracts/token/ERC20/ERC20.sol\":4103:4113  _msgSender */\n      tag_90\n        /* \"@openzeppelin/contracts/token/ERC20/ERC20.sol\":4103:4115  _msgSender() */\n      jump\t// in\n    tag_89:\n        /* \"@openzeppelin/contracts/token/ERC20/ERC20.sol\":4087:4115  address owner = _msgSender() */\n      swap1\n      pop\n        /* \"@openzeppelin/contracts/token/ERC20/ERC20.sol\":4125:4156  _approve(owner, spender, value) */\n      tag_91\n        /* \"@openzeppelin/contracts/token/ERC20/ERC20.sol\":4134:4139  owner */\n      dup2\n        /* \"@openzeppelin/contracts/token/ERC20/ERC20.sol\":4141:4148  spender */\n      dup6\n        /* \"@openzeppelin/contracts/token/ERC20/ERC20.sol\":4150:4155  value */\n      dup6\n        /* \"@openzeppelin/contracts/token/ERC20/ERC20.sol\":4125:4133  _approve */\n      tag_92\n        /* \"@openzeppelin/contracts/token/ERC20/ERC20.sol\":4125:4156  _approve(owner, spender, value) */\n      jump\t// in\n    tag_91:\n        /* \"@openzeppelin/contracts/token/ERC20/ERC20.sol\":4173:4177  true */\n      0x01\n        /* \"@openzeppelin/contracts/token/ERC20/ERC20.sol\":4166:4177  return true */\n      swap2\n      pop\n      pop\n        /* \"@openzeppelin/contracts/token/ERC20/ERC20.sol\":3998:4184  function approve(address spender, uint256 value) public virtual returns (bool) {... */\n      swap3\n      swap2\n      pop\n      pop\n      jump\t// out\n        /* \"CrowdSourcing/Crowdsourcing.sol\":928:970  mapping (uint256 => Task) public TasksList */\n    tag_33:\n      mstore(0x20, 0x07)\n      dup1\n      0x00\n      mstore\n      keccak256(0x00, 0x40)\n      0x00\n      swap2\n      pop\n      swap1\n      pop\n      dup1\n      0x00\n      add\n      0x00\n      swap1\n      sload\n      swap1\n      0x0100\n      exp\n      swap1\n      div\n      0xffffffffffffffffffffffffffffffffffffffff\n      and\n      swap1\n      dup1\n      0x01\n      add\n      sload\n      swap1\n      dup1\n      0x02\n      add\n      sload\n      swap1\n      dup1\n      0x03\n      add\n      0x00\n      swap1\n      sload\n      swap1\n      0x0100\n      exp\n      swap1\n      div\n      0xff\n      and\n      swap1\n      pop\n      dup5\n      jump\t// out\n        /* \"@openzeppelin/contracts/token/ERC20/ERC20.sol\":2849:2946  function totalSupply() public view virtual returns (uint256) {... */\n    tag_37:\n        /* \"@openzeppelin/contracts/token/ERC20/ERC20.sol\":2901:2908  uint256 */\n      0x00\n        /* \"@openzeppelin/contracts/token/ERC20/ERC20.sol\":2927:2939  _totalSupply */\n      sload(0x02)\n        /* \"@openzeppelin/contracts/token/ERC20/ERC20.sol\":2920:2939  return _totalSupply */\n      swap1\n      pop\n        /* \"@openzeppelin/contracts/token/ERC20/ERC20.sol\":2849:2946  function totalSupply() public view virtual returns (uint256) {... */\n      swap1\n      jump\t// out\n        /* \"CrowdSourcing/Crowdsourcing.sol\":3310:3636  function getTask(... */\n    tag_42:\n        /* \"CrowdSourcing/Crowdsourcing.sol\":3379:3394  uint256 reward_ */\n      0x00\n        /* \"CrowdSourcing/Crowdsourcing.sol\":3396:3411  address poster_ */\n      dup1\n        /* \"CrowdSourcing/Crowdsourcing.sol\":3413:3429  uint256 reqTimes */\n      0x00\n        /* \"CrowdSourcing/Crowdsourcing.sol\":3431:3447  bool isCompleted */\n      dup1\n        /* \"CrowdSourcing/Crowdsourcing.sol\":3459:3476  Task storage task */\n      0x00\n        /* \"CrowdSourcing/Crowdsourcing.sol\":3479:3488  TasksList */\n      0x07\n        /* \"CrowdSourcing/Crowdsourcing.sol\":3479:3496  TasksList[taskId] */\n      0x00\n        /* \"CrowdSourcing/Crowdsourcing.sol\":3489:3495  taskId */\n      dup8\n        /* \"CrowdSourcing/Crowdsourcing.sol\":3479:3496  TasksList[taskId] */\n      dup2\n      mstore\n      0x20\n      add\n      swap1\n      dup2\n      mstore\n      0x20\n      add\n      0x00\n      keccak256\n        /* \"CrowdSourcing/Crowdsourcing.sol\":3459:3496  Task storage task = TasksList[taskId] */\n      swap1\n      pop\n        /* \"CrowdSourcing/Crowdsourcing.sol\":3515:3519  task */\n      dup1\n        /* \"CrowdSourcing/Crowdsourcing.sol\":3515:3530  task.EachReward */\n      0x01\n      add\n      sload\n        /* \"CrowdSourcing/Crowdsourcing.sol\":3549:3553  task */\n      dup2\n        /* \"CrowdSourcing/Crowdsourcing.sol\":3549:3560  task.poster */\n      0x00\n      add\n      0x00\n      swap1\n      sload\n      swap1\n      0x0100\n      exp\n      swap1\n      div\n      0xffffffffffffffffffffffffffffffffffffffff\n      and\n        /* \"CrowdSourcing/Crowdsourcing.sol\":3579:3583  task */\n      dup3\n        /* \"CrowdSourcing/Crowdsourcing.sol\":3579:3592  task.ReqTimes */\n      0x02\n      add\n      sload\n        /* \"CrowdSourcing/Crowdsourcing.sol\":3611:3615  task */\n      dup4\n        /* \"CrowdSourcing/Crowdsourcing.sol\":3611:3627  task.isCompleted */\n      0x03\n      add\n      0x00\n      swap1\n      sload\n      swap1\n      0x0100\n      exp\n      swap1\n      div\n      0xff\n      and\n        /* \"CrowdSourcing/Crowdsourcing.sol\":3507:3628  return (task.EachReward,... */\n      swap5\n      pop\n      swap5\n      pop\n      swap5\n      pop\n      swap5\n      pop\n      pop\n        /* \"CrowdSourcing/Crowdsourcing.sol\":3310:3636  function getTask(... */\n      swap2\n      swap4\n      pop\n      swap2\n      swap4\n      jump\t// out\n        /* \"@openzeppelin/contracts/token/ERC20/ERC20.sol\":4776:5020  function transferFrom(address from, address to, uint256 value) public virtual returns (bool) {... */\n    tag_48:\n        /* \"@openzeppelin/contracts/token/ERC20/ERC20.sol\":4863:4867  bool */\n      0x00\n        /* \"@openzeppelin/contracts/token/ERC20/ERC20.sol\":4879:4894  address spender */\n      dup1\n        /* \"@openzeppelin/contracts/token/ERC20/ERC20.sol\":4897:4909  _msgSender() */\n      tag_96\n        /* \"@openzeppelin/contracts/token/ERC20/ERC20.sol\":4897:4907  _msgSender */\n      tag_90\n        /* \"@openzeppelin/contracts/token/ERC20/ERC20.sol\":4897:4909  _msgSender() */\n      jump\t// in\n    tag_96:\n        /* \"@openzeppelin/contracts/token/ERC20/ERC20.sol\":4879:4909  address spender = _msgSender() */\n      swap1\n      pop\n        /* \"@openzeppelin/contracts/token/ERC20/ERC20.sol\":4919:4956  _spendAllowance(from, spender, value) */\n      tag_97\n        /* \"@openzeppelin/contracts/token/ERC20/ERC20.sol\":4935:4939  from */\n      dup6\n        /* \"@openzeppelin/contracts/token/ERC20/ERC20.sol\":4941:4948  spender */\n      dup3\n        /* \"@openzeppelin/contracts/token/ERC20/ERC20.sol\":4950:4955  value */\n      dup6\n        /* \"@openzeppelin/contracts/token/ERC20/ERC20.sol\":4919:4934  _spendAllowance */\n      tag_98\n        /* \"@openzeppelin/contracts/token/ERC20/ERC20.sol\":4919:4956  _spendAllowance(from, spender, value) */\n      jump\t// in\n    tag_97:\n        /* \"@openzeppelin/contracts/token/ERC20/ERC20.sol\":4966:4992  _transfer(from, to, value) */\n      tag_99\n        /* \"@openzeppelin/contracts/token/ERC20/ERC20.sol\":4976:4980  from */\n      dup6\n        /* \"@openzeppelin/contracts/token/ERC20/ERC20.sol\":4982:4984  to */\n      dup6\n        /* \"@openzeppelin/contracts/token/ERC20/ERC20.sol\":4986:4991  value */\n      dup6\n        /* \"@openzeppelin/contracts/token/ERC20/ERC20.sol\":4966:4975  _transfer */\n      tag_100\n        /* \"@openzeppelin/contracts/token/ERC20/ERC20.sol\":4966:4992  _transfer(from, to, value) */\n      jump\t// in\n    tag_99:\n        /* \"@openzeppelin/contracts/token/ERC20/ERC20.sol\":5009:5013  true */\n      0x01\n        /* \"@openzeppelin/contracts/token/ERC20/ERC20.sol\":5002:5013  return true */\n      swap2\n      pop\n      pop\n        /* \"@openzeppelin/contracts/token/ERC20/ERC20.sol\":4776:5020  function transferFrom(address from, address to, uint256 value) public virtual returns (bool) {... */\n      swap4\n      swap3\n      pop\n      pop\n      pop\n      jump\t// out\n        /* \"CrowdSourcing/Crowdsourcing.sol\":1115:2312  function addTasks(... */\n    tag_53:\n        /* \"CrowdSourcing/Crowdsourcing.sol\":1285:1293  reqTimes */\n      dup2\n      dup2\n        /* \"CrowdSourcing/Crowdsourcing.sol\":1285:1300  reqTimes.length */\n      swap1\n      pop\n        /* \"CrowdSourcing/Crowdsourcing.sol\":1262:1274  tasksRewards */\n      dup5\n      dup5\n        /* \"CrowdSourcing/Crowdsourcing.sol\":1262:1281  tasksRewards.length */\n      swap1\n      pop\n        /* \"CrowdSourcing/Crowdsourcing.sol\":1262:1300  tasksRewards.length == reqTimes.length */\n      eq\n        /* \"CrowdSourcing/Crowdsourcing.sol\":1240:1380  require(... */\n      tag_102\n      jumpi\n      mload(0x40)\n      0x08c379a000000000000000000000000000000000000000000000000000000000\n      dup2\n      mstore\n      0x04\n      add\n      tag_103\n      swap1\n      tag_104\n      jump\t// in\n    tag_103:\n      mload(0x40)\n      dup1\n      swap2\n      sub\n      swap1\n      revert\n    tag_102:\n        /* \"CrowdSourcing/Crowdsourcing.sol\":1435:1436  0 */\n      0x00\n        /* \"CrowdSourcing/Crowdsourcing.sol\":1413:1425  tasksRewards */\n      dup5\n      dup5\n        /* \"CrowdSourcing/Crowdsourcing.sol\":1413:1432  tasksRewards.length */\n      swap1\n      pop\n        /* \"CrowdSourcing/Crowdsourcing.sol\":1413:1436  tasksRewards.length > 0 */\n      gt\n        /* \"CrowdSourcing/Crowdsourcing.sol\":1391:1507  require(... */\n      tag_105\n      jumpi\n      mload(0x40)\n      0x08c379a000000000000000000000000000000000000000000000000000000000\n      dup2\n      mstore\n      0x04\n      add\n      tag_106\n      swap1\n      tag_107\n      jump\t// in\n    tag_106:\n      mload(0x40)\n      dup1\n      swap2\n      sub\n      swap1\n      revert\n    tag_105:\n        /* \"CrowdSourcing/Crowdsourcing.sol\":1520:1539  uint256 totalReward */\n      0x00\n        /* \"CrowdSourcing/Crowdsourcing.sol\":1559:1565  uint i */\n      dup1\n        /* \"CrowdSourcing/Crowdsourcing.sol\":1554:2264  for (uint i = 0; i < tasksRewards.length; i++){... */\n    tag_108:\n        /* \"CrowdSourcing/Crowdsourcing.sol\":1575:1587  tasksRewards */\n      dup6\n      dup6\n        /* \"CrowdSourcing/Crowdsourcing.sol\":1575:1594  tasksRewards.length */\n      swap1\n      pop\n        /* \"CrowdSourcing/Crowdsourcing.sol\":1571:1572  i */\n      dup2\n        /* \"CrowdSourcing/Crowdsourcing.sol\":1571:1594  i < tasksRewards.length */\n      lt\n        /* \"CrowdSourcing/Crowdsourcing.sol\":1554:2264  for (uint i = 0; i < tasksRewards.length; i++){... */\n      iszero\n      tag_109\n      jumpi\n        /* \"CrowdSourcing/Crowdsourcing.sol\":1658:1659  0 */\n      0x00\n        /* \"CrowdSourcing/Crowdsourcing.sol\":1641:1653  tasksRewards */\n      dup7\n      dup7\n        /* \"CrowdSourcing/Crowdsourcing.sol\":1654:1655  i */\n      dup4\n        /* \"CrowdSourcing/Crowdsourcing.sol\":1641:1656  tasksRewards[i] */\n      dup2\n      dup2\n      lt\n      tag_111\n      jumpi\n      tag_112\n      tag_113\n      jump\t// in\n    tag_112:\n    tag_111:\n      swap1\n      pop\n      0x20\n      mul\n      add\n      calldataload\n        /* \"CrowdSourcing/Crowdsourcing.sol\":1641:1659  tasksRewards[i]> 0 */\n      gt\n        /* \"CrowdSourcing/Crowdsourcing.sol\":1615:1720  require(... */\n      tag_114\n      jumpi\n      mload(0x40)\n      0x08c379a000000000000000000000000000000000000000000000000000000000\n      dup2\n      mstore\n      0x04\n      add\n      tag_115\n      swap1\n      tag_116\n      jump\t// in\n    tag_115:\n      mload(0x40)\n      dup1\n      swap2\n      sub\n      swap1\n      revert\n    tag_114:\n        /* \"CrowdSourcing/Crowdsourcing.sol\":1775:1776  0 */\n      0x00\n        /* \"CrowdSourcing/Crowdsourcing.sol\":1761:1769  reqTimes */\n      dup5\n      dup5\n        /* \"CrowdSourcing/Crowdsourcing.sol\":1770:1771  i */\n      dup4\n        /* \"CrowdSourcing/Crowdsourcing.sol\":1761:1772  reqTimes[i] */\n      dup2\n      dup2\n      lt\n      tag_117\n      jumpi\n      tag_118\n      tag_113\n      jump\t// in\n    tag_118:\n    tag_117:\n      swap1\n      pop\n      0x20\n      mul\n      add\n      calldataload\n        /* \"CrowdSourcing/Crowdsourcing.sol\":1761:1776  reqTimes[i] > 0 */\n      gt\n        /* \"CrowdSourcing/Crowdsourcing.sol\":1735:1850  require(... */\n      tag_119\n      jumpi\n      mload(0x40)\n      0x08c379a000000000000000000000000000000000000000000000000000000000\n      dup2\n      mstore\n      0x04\n      add\n      tag_120\n      swap1\n      tag_121\n      jump\t// in\n    tag_120:\n      mload(0x40)\n      dup1\n      swap2\n      sub\n      swap1\n      revert\n    tag_119:\n        /* \"CrowdSourcing/Crowdsourcing.sol\":1898:1906  reqTimes */\n      dup4\n      dup4\n        /* \"CrowdSourcing/Crowdsourcing.sol\":1907:1908  i */\n      dup3\n        /* \"CrowdSourcing/Crowdsourcing.sol\":1898:1909  reqTimes[i] */\n      dup2\n      dup2\n      lt\n      tag_122\n      jumpi\n      tag_123\n      tag_113\n      jump\t// in\n    tag_123:\n    tag_122:\n      swap1\n      pop\n      0x20\n      mul\n      add\n      calldataload\n        /* \"CrowdSourcing/Crowdsourcing.sol\":1880:1892  tasksRewards */\n      dup7\n      dup7\n        /* \"CrowdSourcing/Crowdsourcing.sol\":1893:1894  i */\n      dup4\n        /* \"CrowdSourcing/Crowdsourcing.sol\":1880:1895  tasksRewards[i] */\n      dup2\n      dup2\n      lt\n      tag_124\n      jumpi\n      tag_125\n      tag_113\n      jump\t// in\n    tag_125:\n    tag_124:\n      swap1\n      pop\n      0x20\n      mul\n      add\n      calldataload\n        /* \"CrowdSourcing/Crowdsourcing.sol\":1880:1909  tasksRewards[i] * reqTimes[i] */\n      tag_126\n      swap2\n      swap1\n      tag_127\n      jump\t// in\n    tag_126:\n        /* \"CrowdSourcing/Crowdsourcing.sol\":1865:1909  totalReward += tasksRewards[i] * reqTimes[i] */\n      dup3\n      tag_128\n      swap2\n      swap1\n      tag_129\n      jump\t// in\n    tag_128:\n      swap2\n      pop\n        /* \"CrowdSourcing/Crowdsourcing.sol\":1948:2129  Task({... */\n      mload(0x40)\n      dup1\n      0x80\n      add\n      0x40\n      mstore\n      dup1\n        /* \"CrowdSourcing/Crowdsourcing.sol\":1980:1990  msg.sender */\n      caller\n        /* \"CrowdSourcing/Crowdsourcing.sol\":1948:2129  Task({... */\n      0xffffffffffffffffffffffffffffffffffffffff\n      and\n      dup2\n      mstore\n      0x20\n      add\n        /* \"CrowdSourcing/Crowdsourcing.sol\":2021:2033  tasksRewards */\n      dup8\n      dup8\n        /* \"CrowdSourcing/Crowdsourcing.sol\":2034:2035  i */\n      dup5\n        /* \"CrowdSourcing/Crowdsourcing.sol\":2021:2036  tasksRewards[i] */\n      dup2\n      dup2\n      lt\n      tag_130\n      jumpi\n      tag_131\n      tag_113\n      jump\t// in\n    tag_131:\n    tag_130:\n      swap1\n      pop\n      0x20\n      mul\n      add\n      calldataload\n        /* \"CrowdSourcing/Crowdsourcing.sol\":1948:2129  Task({... */\n      dup2\n      mstore\n      0x20\n      add\n        /* \"CrowdSourcing/Crowdsourcing.sol\":2065:2073  reqTimes */\n      dup6\n      dup6\n        /* \"CrowdSourcing/Crowdsourcing.sol\":2074:2075  i */\n      dup5\n        /* \"CrowdSourcing/Crowdsourcing.sol\":2065:2076  reqTimes[i] */\n      dup2\n      dup2\n      lt\n      tag_132\n      jumpi\n      tag_133\n      tag_113\n      jump\t// in\n    tag_133:\n    tag_132:\n      swap1\n      pop\n      0x20\n      mul\n      add\n      calldataload\n        /* \"CrowdSourcing/Crowdsourcing.sol\":1948:2129  Task({... */\n      dup2\n      mstore\n      0x20\n      add\n        /* \"CrowdSourcing/Crowdsourcing.sol\":2108:2113  false */\n      0x00\n        /* \"CrowdSourcing/Crowdsourcing.sol\":1948:2129  Task({... */\n      iszero\n      iszero\n      dup2\n      mstore\n      pop\n        /* \"CrowdSourcing/Crowdsourcing.sol\":1924:1933  TasksList */\n      0x07\n        /* \"CrowdSourcing/Crowdsourcing.sol\":1924:1945  TasksList[nextTaskId] */\n      0x00\n        /* \"CrowdSourcing/Crowdsourcing.sol\":1934:1944  nextTaskId */\n      sload(0x05)\n        /* \"CrowdSourcing/Crowdsourcing.sol\":1924:1945  TasksList[nextTaskId] */\n      dup2\n      mstore\n      0x20\n      add\n      swap1\n      dup2\n      mstore\n      0x20\n      add\n      0x00\n      keccak256\n        /* \"CrowdSourcing/Crowdsourcing.sol\":1924:2129  TasksList[nextTaskId] = Task({... */\n      0x00\n      dup3\n      add\n      mload\n      dup2\n      0x00\n      add\n      exp(0x0100, 0x00)\n      dup2\n      sload\n      dup2\n      0xffffffffffffffffffffffffffffffffffffffff\n      mul\n      not\n      and\n      swap1\n      dup4\n      0xffffffffffffffffffffffffffffffffffffffff\n      and\n      mul\n      or\n      swap1\n      sstore\n      pop\n      0x20\n      dup3\n      add\n      mload\n      dup2\n      0x01\n      add\n      sstore\n      0x40\n      dup3\n      add\n      mload\n      dup2\n      0x02\n      add\n      sstore\n      0x60\n      dup3\n      add\n      mload\n      dup2\n      0x03\n      add\n      exp(0x0100, 0x00)\n      dup2\n      sload\n      dup2\n      0xff\n      mul\n      not\n      and\n      swap1\n      dup4\n      iszero\n      iszero\n      mul\n      or\n      swap1\n      sstore\n      pop\n      swap1\n      pop\n      pop\n        /* \"CrowdSourcing/Crowdsourcing.sol\":2172:2182  nextTaskId */\n      sload(0x05)\n        /* \"CrowdSourcing/Crowdsourcing.sol\":2161:2171  msg.sender */\n      caller\n        /* \"CrowdSourcing/Crowdsourcing.sol\":2151:2225  TaskAdded(msg.sender,nextTaskId,tasksRewards[i],reqTimes[i]... */\n      0xffffffffffffffffffffffffffffffffffffffff\n      and\n      0xffef41c3386c78926fe432f9a2d408f37209532660e385656444e3da578f17d6\n        /* \"CrowdSourcing/Crowdsourcing.sol\":2183:2195  tasksRewards */\n      dup9\n      dup9\n        /* \"CrowdSourcing/Crowdsourcing.sol\":2196:2197  i */\n      dup6\n        /* \"CrowdSourcing/Crowdsourcing.sol\":2183:2198  tasksRewards[i] */\n      dup2\n      dup2\n      lt\n      tag_134\n      jumpi\n      tag_135\n      tag_113\n      jump\t// in\n    tag_135:\n    tag_134:\n      swap1\n      pop\n      0x20\n      mul\n      add\n      calldataload\n        /* \"CrowdSourcing/Crowdsourcing.sol\":2199:2207  reqTimes */\n      dup8\n      dup8\n        /* \"CrowdSourcing/Crowdsourcing.sol\":2208:2209  i */\n      dup7\n        /* \"CrowdSourcing/Crowdsourcing.sol\":2199:2210  reqTimes[i] */\n      dup2\n      dup2\n      lt\n      tag_136\n      jumpi\n      tag_137\n      tag_113\n      jump\t// in\n    tag_137:\n    tag_136:\n      swap1\n      pop\n      0x20\n      mul\n      add\n      calldataload\n        /* \"CrowdSourcing/Crowdsourcing.sol\":2151:2225  TaskAdded(msg.sender,nextTaskId,tasksRewards[i],reqTimes[i]... */\n      mload(0x40)\n      tag_138\n      swap3\n      swap2\n      swap1\n      tag_139\n      jump\t// in\n    tag_138:\n      mload(0x40)\n      dup1\n      swap2\n      sub\n      swap1\n      log3\n        /* \"CrowdSourcing/Crowdsourcing.sol\":2240:2250  nextTaskId */\n      0x05\n      0x00\n        /* \"CrowdSourcing/Crowdsourcing.sol\":2240:2252  nextTaskId++ */\n      dup2\n      sload\n      dup1\n      swap3\n      swap2\n      swap1\n      tag_140\n      swap1\n      tag_141\n      jump\t// in\n    tag_140:\n      swap2\n      swap1\n      pop\n      sstore\n      pop\n        /* \"CrowdSourcing/Crowdsourcing.sol\":1596:1599  i++ */\n      dup1\n      dup1\n      0x01\n      add\n      swap2\n      pop\n      pop\n        /* \"CrowdSourcing/Crowdsourcing.sol\":1554:2264  for (uint i = 0; i < tasksRewards.length; i++){... */\n      jump(tag_108)\n    tag_109:\n      pop\n        /* \"CrowdSourcing/Crowdsourcing.sol\":2274:2304  _mint(msg.sender, totalReward) */\n      tag_142\n        /* \"CrowdSourcing/Crowdsourcing.sol\":2280:2290  msg.sender */\n      caller\n        /* \"CrowdSourcing/Crowdsourcing.sol\":2292:2303  totalReward */\n      dup3\n        /* \"CrowdSourcing/Crowdsourcing.sol\":2274:2279  _mint */\n      tag_143\n        /* \"CrowdSourcing/Crowdsourcing.sol\":2274:2304  _mint(msg.sender, totalReward) */\n      jump\t// in\n    tag_142:\n        /* \"CrowdSourcing/Crowdsourcing.sol\":1229:2312  {... */\n      pop\n        /* \"CrowdSourcing/Crowdsourcing.sol\":1115:2312  function addTasks(... */\n      pop\n      pop\n      pop\n      pop\n      jump\t// out\n        /* \"@openzeppelin/contracts/token/ERC20/ERC20.sol\":2707:2789  function decimals() public view virtual returns (uint8) {... */\n    tag_55:\n        /* \"@openzeppelin/contracts/token/ERC20/ERC20.sol\":2756:2761  uint8 */\n      0x00\n        /* \"@openzeppelin/contracts/token/ERC20/ERC20.sol\":2780:2782  18 */\n      0x12\n        /* \"@openzeppelin/contracts/token/ERC20/ERC20.sol\":2773:2782  return 18 */\n      swap1\n      pop\n        /* \"@openzeppelin/contracts/token/ERC20/ERC20.sol\":2707:2789  function decimals() public view virtual returns (uint8) {... */\n      swap1\n      jump\t// out\n        /* \"CrowdSourcing/Crowdsourcing.sol\":2320:3259  function redeemReward(... */\n    tag_60:\n        /* \"CrowdSourcing/Crowdsourcing.sol\":2394:2415  Task storage cur_task */\n      0x00\n        /* \"CrowdSourcing/Crowdsourcing.sol\":2418:2427  TasksList */\n      0x07\n        /* \"CrowdSourcing/Crowdsourcing.sol\":2418:2435  TasksList[taskId] */\n      0x00\n        /* \"CrowdSourcing/Crowdsourcing.sol\":2428:2434  taskId */\n      dup4\n        /* \"CrowdSourcing/Crowdsourcing.sol\":2418:2435  TasksList[taskId] */\n      dup2\n      mstore\n      0x20\n      add\n      swap1\n      dup2\n      mstore\n      0x20\n      add\n      0x00\n      keccak256\n        /* \"CrowdSourcing/Crowdsourcing.sol\":2394:2435  Task storage cur_task = TasksList[taskId] */\n      swap1\n      pop\n        /* \"CrowdSourcing/Crowdsourcing.sol\":2469:2477  cur_task */\n      dup1\n        /* \"CrowdSourcing/Crowdsourcing.sol\":2469:2489  cur_task.isCompleted */\n      0x03\n      add\n      0x00\n      swap1\n      sload\n      swap1\n      0x0100\n      exp\n      swap1\n      div\n      0xff\n      and\n        /* \"CrowdSourcing/Crowdsourcing.sol\":2468:2489  !cur_task.isCompleted */\n      iszero\n        /* \"CrowdSourcing/Crowdsourcing.sol\":2446:2551  require(... */\n      tag_146\n      jumpi\n      mload(0x40)\n      0x08c379a000000000000000000000000000000000000000000000000000000000\n      dup2\n      mstore\n      0x04\n      add\n      tag_147\n      swap1\n      tag_148\n      jump\t// in\n    tag_147:\n      mload(0x40)\n      dup1\n      swap2\n      sub\n      swap1\n      revert\n    tag_146:\n        /* \"CrowdSourcing/Crowdsourcing.sol\":2604:2605  0 */\n      0x00\n        /* \"CrowdSourcing/Crowdsourcing.sol\":2584:2592  cur_task */\n      dup2\n        /* \"CrowdSourcing/Crowdsourcing.sol\":2584:2601  cur_task.ReqTimes */\n      0x02\n      add\n      sload\n        /* \"CrowdSourcing/Crowdsourcing.sol\":2584:2605  cur_task.ReqTimes > 0 */\n      gt\n        /* \"CrowdSourcing/Crowdsourcing.sol\":2562:2661  require(... */\n      tag_149\n      jumpi\n      mload(0x40)\n      0x08c379a000000000000000000000000000000000000000000000000000000000\n      dup2\n      mstore\n      0x04\n      add\n      tag_150\n      swap1\n      tag_151\n      jump\t// in\n    tag_150:\n      mload(0x40)\n      dup1\n      swap2\n      sub\n      swap1\n      revert\n    tag_149:\n        /* \"CrowdSourcing/Crowdsourcing.sol\":2713:2723  msg.sender */\n      caller\n        /* \"CrowdSourcing/Crowdsourcing.sol\":2694:2723  cur_task.poster != msg.sender */\n      0xffffffffffffffffffffffffffffffffffffffff\n      and\n        /* \"CrowdSourcing/Crowdsourcing.sol\":2694:2702  cur_task */\n      dup2\n        /* \"CrowdSourcing/Crowdsourcing.sol\":2694:2709  cur_task.poster */\n      0x00\n      add\n      0x00\n      swap1\n      sload\n      swap1\n      0x0100\n      exp\n      swap1\n      div\n      0xffffffffffffffffffffffffffffffffffffffff\n      and\n        /* \"CrowdSourcing/Crowdsourcing.sol\":2694:2723  cur_task.poster != msg.sender */\n      0xffffffffffffffffffffffffffffffffffffffff\n      and\n      sub\n        /* \"CrowdSourcing/Crowdsourcing.sol\":2672:2791  require(... */\n      tag_152\n      jumpi\n      mload(0x40)\n      0x08c379a000000000000000000000000000000000000000000000000000000000\n      dup2\n      mstore\n      0x04\n      add\n      tag_153\n      swap1\n      tag_154\n      jump\t// in\n    tag_153:\n      mload(0x40)\n      dup1\n      swap2\n      sub\n      swap1\n      revert\n    tag_152:\n        /* \"CrowdSourcing/Crowdsourcing.sol\":2825:2840  TaskRecordsList */\n      0x06\n        /* \"CrowdSourcing/Crowdsourcing.sol\":2825:2848  TaskRecordsList[taskId] */\n      0x00\n        /* \"CrowdSourcing/Crowdsourcing.sol\":2841:2847  taskId */\n      dup4\n        /* \"CrowdSourcing/Crowdsourcing.sol\":2825:2848  TaskRecordsList[taskId] */\n      dup2\n      mstore\n      0x20\n      add\n      swap1\n      dup2\n      mstore\n      0x20\n      add\n      0x00\n      keccak256\n        /* \"CrowdSourcing/Crowdsourcing.sol\":2825:2860  TaskRecordsList[taskId][msg.sender] */\n      0x00\n        /* \"CrowdSourcing/Crowdsourcing.sol\":2849:2859  msg.sender */\n      caller\n        /* \"CrowdSourcing/Crowdsourcing.sol\":2825:2860  TaskRecordsList[taskId][msg.sender] */\n      0xffffffffffffffffffffffffffffffffffffffff\n      and\n      0xffffffffffffffffffffffffffffffffffffffff\n      and\n      dup2\n      mstore\n      0x20\n      add\n      swap1\n      dup2\n      mstore\n      0x20\n      add\n      0x00\n      keccak256\n      0x00\n      swap1\n      sload\n      swap1\n      0x0100\n      exp\n      swap1\n      div\n      0xff\n      and\n        /* \"CrowdSourcing/Crowdsourcing.sol\":2824:2860  !TaskRecordsList[taskId][msg.sender] */\n      iszero\n        /* \"CrowdSourcing/Crowdsourcing.sol\":2802:2941  require(... */\n      tag_155\n      jumpi\n      mload(0x40)\n      0x08c379a000000000000000000000000000000000000000000000000000000000\n      dup2\n      mstore\n      0x04\n      add\n      tag_156\n      swap1\n      tag_157\n      jump\t// in\n    tag_156:\n      mload(0x40)\n      dup1\n      swap2\n      sub\n      swap1\n      revert\n    tag_155:\n        /* \"CrowdSourcing/Crowdsourcing.sol\":2975:2976  1 */\n      0x01\n        /* \"CrowdSourcing/Crowdsourcing.sol\":2954:2962  cur_task */\n      dup2\n        /* \"CrowdSourcing/Crowdsourcing.sol\":2954:2971  cur_task.ReqTimes */\n      0x02\n      add\n      0x00\n        /* \"CrowdSourcing/Crowdsourcing.sol\":2954:2976  cur_task.ReqTimes -= 1 */\n      dup3\n      dup3\n      sload\n      tag_158\n      swap2\n      swap1\n      tag_159\n      jump\t// in\n    tag_158:\n      swap3\n      pop\n      pop\n      dup2\n      swap1\n      sstore\n      pop\n        /* \"CrowdSourcing/Crowdsourcing.sol\":3012:3013  0 */\n      0x00\n        /* \"CrowdSourcing/Crowdsourcing.sol\":2991:2999  cur_task */\n      dup2\n        /* \"CrowdSourcing/Crowdsourcing.sol\":2991:3008  cur_task.ReqTimes */\n      0x02\n      add\n      sload\n        /* \"CrowdSourcing/Crowdsourcing.sol\":2991:3013  cur_task.ReqTimes == 0 */\n      sub\n        /* \"CrowdSourcing/Crowdsourcing.sol\":2987:3068  if (cur_task.ReqTimes == 0){... */\n      tag_160\n      jumpi\n        /* \"CrowdSourcing/Crowdsourcing.sol\":3052:3056  true */\n      0x01\n        /* \"CrowdSourcing/Crowdsourcing.sol\":3029:3037  cur_task */\n      dup2\n        /* \"CrowdSourcing/Crowdsourcing.sol\":3029:3049  cur_task.isCompleted */\n      0x03\n      add\n      0x00\n        /* \"CrowdSourcing/Crowdsourcing.sol\":3029:3056  cur_task.isCompleted = true */\n      0x0100\n      exp\n      dup2\n      sload\n      dup2\n      0xff\n      mul\n      not\n      and\n      swap1\n      dup4\n      iszero\n      iszero\n      mul\n      or\n      swap1\n      sstore\n      pop\n        /* \"CrowdSourcing/Crowdsourcing.sol\":2987:3068  if (cur_task.ReqTimes == 0){... */\n    tag_160:\n        /* \"CrowdSourcing/Crowdsourcing.sol\":3080:3139  _transfer(cur_task.poster, msg.sender, cur_task.EachReward) */\n      tag_161\n        /* \"CrowdSourcing/Crowdsourcing.sol\":3090:3098  cur_task */\n      dup2\n        /* \"CrowdSourcing/Crowdsourcing.sol\":3090:3105  cur_task.poster */\n      0x00\n      add\n      0x00\n      swap1\n      sload\n      swap1\n      0x0100\n      exp\n      swap1\n      div\n      0xffffffffffffffffffffffffffffffffffffffff\n      and\n        /* \"CrowdSourcing/Crowdsourcing.sol\":3107:3117  msg.sender */\n      caller\n        /* \"CrowdSourcing/Crowdsourcing.sol\":3119:3127  cur_task */\n      dup4\n        /* \"CrowdSourcing/Crowdsourcing.sol\":3119:3138  cur_task.EachReward */\n      0x01\n      add\n      sload\n        /* \"CrowdSourcing/Crowdsourcing.sol\":3080:3089  _transfer */\n      tag_100\n        /* \"CrowdSourcing/Crowdsourcing.sol\":3080:3139  _transfer(cur_task.poster, msg.sender, cur_task.EachReward) */\n      jump\t// in\n    tag_161:\n        /* \"CrowdSourcing/Crowdsourcing.sol\":3188:3192  true */\n      0x01\n        /* \"CrowdSourcing/Crowdsourcing.sol\":3150:3165  TaskRecordsList */\n      0x06\n        /* \"CrowdSourcing/Crowdsourcing.sol\":3150:3173  TaskRecordsList[taskId] */\n      0x00\n        /* \"CrowdSourcing/Crowdsourcing.sol\":3166:3172  taskId */\n      dup5\n        /* \"CrowdSourcing/Crowdsourcing.sol\":3150:3173  TaskRecordsList[taskId] */\n      dup2\n      mstore\n      0x20\n      add\n      swap1\n      dup2\n      mstore\n      0x20\n      add\n      0x00\n      keccak256\n        /* \"CrowdSourcing/Crowdsourcing.sol\":3150:3185  TaskRecordsList[taskId][msg.sender] */\n      0x00\n        /* \"CrowdSourcing/Crowdsourcing.sol\":3174:3184  msg.sender */\n      caller\n        /* \"CrowdSourcing/Crowdsourcing.sol\":3150:3185  TaskRecordsList[taskId][msg.sender] */\n      0xffffffffffffffffffffffffffffffffffffffff\n      and\n      0xffffffffffffffffffffffffffffffffffffffff\n      and\n      dup2\n      mstore\n      0x20\n      add\n      swap1\n      dup2\n      mstore\n      0x20\n      add\n      0x00\n      keccak256\n      0x00\n        /* \"CrowdSourcing/Crowdsourcing.sol\":3150:3192  TaskRecordsList[taskId][msg.sender] = true */\n      0x0100\n      exp\n      dup2\n      sload\n      dup2\n      0xff\n      mul\n      not\n      and\n      swap1\n      dup4\n      iszero\n      iszero\n      mul\n      or\n      swap1\n      sstore\n      pop\n        /* \"CrowdSourcing/Crowdsourcing.sol\":3240:3250  msg.sender */\n      caller\n        /* \"CrowdSourcing/Crowdsourcing.sol\":3210:3251  TasksOneTimeCompleted(taskId, msg.sender) */\n      0xffffffffffffffffffffffffffffffffffffffff\n      and\n        /* \"CrowdSourcing/Crowdsourcing.sol\":3232:3238  taskId */\n      dup3\n        /* \"CrowdSourcing/Crowdsourcing.sol\":3210:3251  TasksOneTimeCompleted(taskId, msg.sender) */\n      0x107f668e128e198cf1077b19274c8dd3008737e858e3445d1176cd1d99951beb\n      mload(0x40)\n      mload(0x40)\n      dup1\n      swap2\n      sub\n      swap1\n      log3\n        /* \"CrowdSourcing/Crowdsourcing.sol\":2383:3259  {... */\n      pop\n        /* \"CrowdSourcing/Crowdsourcing.sol\":2320:3259  function redeemReward(... */\n      pop\n      jump\t// out\n        /* \"@openzeppelin/contracts/token/ERC20/ERC20.sol\":3004:3120  function balanceOf(address account) public view virtual returns (uint256) {... */\n    tag_64:\n        /* \"@openzeppelin/contracts/token/ERC20/ERC20.sol\":3069:3076  uint256 */\n      0x00\n        /* \"@openzeppelin/contracts/token/ERC20/ERC20.sol\":3095:3104  _balances */\n      dup1\n        /* \"@openzeppelin/contracts/token/ERC20/ERC20.sol\":3095:3113  _balances[account] */\n      0x00\n        /* \"@openzeppelin/contracts/token/ERC20/ERC20.sol\":3105:3112  account */\n      dup4\n        /* \"@openzeppelin/contracts/token/ERC20/ERC20.sol\":3095:3113  _balances[account] */\n      0xffffffffffffffffffffffffffffffffffffffff\n      and\n      0xffffffffffffffffffffffffffffffffffffffff\n      and\n      dup2\n      mstore\n      0x20\n      add\n      swap1\n      dup2\n      mstore\n      0x20\n      add\n      0x00\n      keccak256\n      sload\n        /* \"@openzeppelin/contracts/token/ERC20/ERC20.sol\":3088:3113  return _balances[account] */\n      swap1\n      pop\n        /* \"@openzeppelin/contracts/token/ERC20/ERC20.sol\":3004:3120  function balanceOf(address account) public view virtual returns (uint256) {... */\n      swap2\n      swap1\n      pop\n      jump\t// out\n        /* \"@openzeppelin/contracts/token/ERC20/ERC20.sol\":1981:2074  function symbol() public view virtual returns (string memory) {... */\n    tag_67:\n        /* \"@openzeppelin/contracts/token/ERC20/ERC20.sol\":2028:2041  string memory */\n      0x60\n        /* \"@openzeppelin/contracts/token/ERC20/ERC20.sol\":2060:2067  _symbol */\n      0x04\n        /* \"@openzeppelin/contracts/token/ERC20/ERC20.sol\":2053:2067  return _symbol */\n      dup1\n      sload\n      tag_164\n      swap1\n      tag_83\n      jump\t// in\n    tag_164:\n      dup1\n      0x1f\n      add\n      0x20\n      dup1\n      swap2\n      div\n      mul\n      0x20\n      add\n      mload(0x40)\n      swap1\n      dup2\n      add\n      0x40\n      mstore\n      dup1\n      swap3\n      swap2\n      swap1\n      dup2\n      dup2\n      mstore\n      0x20\n      add\n      dup3\n      dup1\n      sload\n      tag_165\n      swap1\n      tag_83\n      jump\t// in\n    tag_165:\n      dup1\n      iszero\n      tag_166\n      jumpi\n      dup1\n      0x1f\n      lt\n      tag_167\n      jumpi\n      0x0100\n      dup1\n      dup4\n      sload\n      div\n      mul\n      dup4\n      mstore\n      swap2\n      0x20\n      add\n      swap2\n      jump(tag_166)\n    tag_167:\n      dup3\n      add\n      swap2\n      swap1\n      0x00\n      mstore\n      keccak256(0x00, 0x20)\n      swap1\n    tag_168:\n      dup2\n      sload\n      dup2\n      mstore\n      swap1\n      0x01\n      add\n      swap1\n      0x20\n      add\n      dup1\n      dup4\n      gt\n      tag_168\n      jumpi\n      dup3\n      swap1\n      sub\n      0x1f\n      and\n      dup3\n      add\n      swap2\n    tag_166:\n      pop\n      pop\n      pop\n      pop\n      pop\n      swap1\n      pop\n        /* \"@openzeppelin/contracts/token/ERC20/ERC20.sol\":1981:2074  function symbol() public view virtual returns (string memory) {... */\n      swap1\n      jump\t// out\n        /* \"@openzeppelin/contracts/token/ERC20/ERC20.sol\":3315:3493  function transfer(address to, uint256 value) public virtual returns (bool) {... */\n    tag_71:\n        /* \"@openzeppelin/contracts/token/ERC20/ERC20.sol\":3384:3388  bool */\n      0x00\n        /* \"@openzeppelin/contracts/token/ERC20/ERC20.sol\":3400:3413  address owner */\n      dup1\n        /* \"@openzeppelin/contracts/token/ERC20/ERC20.sol\":3416:3428  _msgSender() */\n      tag_170\n        /* \"@openzeppelin/contracts/token/ERC20/ERC20.sol\":3416:3426  _msgSender */\n      tag_90\n        /* \"@openzeppelin/contracts/token/ERC20/ERC20.sol\":3416:3428  _msgSender() */\n      jump\t// in\n    tag_170:\n        /* \"@openzeppelin/contracts/token/ERC20/ERC20.sol\":3400:3428  address owner = _msgSender() */\n      swap1\n      pop\n        /* \"@openzeppelin/contracts/token/ERC20/ERC20.sol\":3438:3465  _transfer(owner, to, value) */\n      tag_171\n        /* \"@openzeppelin/contracts/token/ERC20/ERC20.sol\":3448:3453  owner */\n      dup2\n        /* \"@openzeppelin/contracts/token/ERC20/ERC20.sol\":3455:3457  to */\n      dup6\n        /* \"@openzeppelin/contracts/token/ERC20/ERC20.sol\":3459:3464  value */\n      dup6\n        /* \"@openzeppelin/contracts/token/ERC20/ERC20.sol\":3438:3447  _transfer */\n      tag_100\n        /* \"@openzeppelin/contracts/token/ERC20/ERC20.sol\":3438:3465  _transfer(owner, to, value) */\n      jump\t// in\n    tag_171:\n        /* \"@openzeppelin/contracts/token/ERC20/ERC20.sol\":3482:3486  true */\n      0x01\n        /* \"@openzeppelin/contracts/token/ERC20/ERC20.sol\":3475:3486  return true */\n      swap2\n      pop\n      pop\n        /* \"@openzeppelin/contracts/token/ERC20/ERC20.sol\":3315:3493  function transfer(address to, uint256 value) public virtual returns (bool) {... */\n      swap3\n      swap2\n      pop\n      pop\n      jump\t// out\n        /* \"@openzeppelin/contracts/token/ERC20/ERC20.sol\":3551:3691  function allowance(address owner, address spender) public view virtual returns (uint256) {... */\n    tag_76:\n        /* \"@openzeppelin/contracts/token/ERC20/ERC20.sol\":3631:3638  uint256 */\n      0x00\n        /* \"@openzeppelin/contracts/token/ERC20/ERC20.sol\":3657:3668  _allowances */\n      0x01\n        /* \"@openzeppelin/contracts/token/ERC20/ERC20.sol\":3657:3675  _allowances[owner] */\n      0x00\n        /* \"@openzeppelin/contracts/token/ERC20/ERC20.sol\":3669:3674  owner */\n      dup5\n        /* \"@openzeppelin/contracts/token/ERC20/ERC20.sol\":3657:3675  _allowances[owner] */\n      0xffffffffffffffffffffffffffffffffffffffff\n      and\n      0xffffffffffffffffffffffffffffffffffffffff\n      and\n      dup2\n      mstore\n      0x20\n      add\n      swap1\n      dup2\n      mstore\n      0x20\n      add\n      0x00\n      keccak256\n        /* \"@openzeppelin/contracts/token/ERC20/ERC20.sol\":3657:3684  _allowances[owner][spender] */\n      0x00\n        /* \"@openzeppelin/contracts/token/ERC20/ERC20.sol\":3676:3683  spender */\n      dup4\n        /* \"@openzeppelin/contracts/token/ERC20/ERC20.sol\":3657:3684  _allowances[owner][spender] */\n      0xffffffffffffffffffffffffffffffffffffffff\n      and\n      0xffffffffffffffffffffffffffffffffffffffff\n      and\n      dup2\n      mstore\n      0x20\n      add\n      swap1\n      dup2\n      mstore\n      0x20\n      add\n      0x00\n      keccak256\n      sload\n        /* \"@openzeppelin/contracts/token/ERC20/ERC20.sol\":3650:3684  return _allowances[owner][spender] */\n      swap1\n      pop\n        /* \"@openzeppelin/contracts/token/ERC20/ERC20.sol\":3551:3691  function allowance(address owner, address spender) public view virtual returns (uint256) {... */\n      swap3\n      swap2\n      pop\n      pop\n      jump\t// out\n        /* \"CrowdSourcing/Crowdsourcing.sol\":824:853  uint256 public nextTaskId = 0 */\n    tag_79:\n      sload(0x05)\n      dup2\n      jump\t// out\n        /* \"@openzeppelin/contracts/utils/Context.sol\":656:752  function _msgSender() internal view virtual returns (address) {... */\n    tag_90:\n        /* \"@openzeppelin/contracts/utils/Context.sol\":709:716  address */\n      0x00\n        /* \"@openzeppelin/contracts/utils/Context.sol\":735:745  msg.sender */\n      caller\n        /* \"@openzeppelin/contracts/utils/Context.sol\":728:745  return msg.sender */\n      swap1\n      pop\n        /* \"@openzeppelin/contracts/utils/Context.sol\":656:752  function _msgSender() internal view virtual returns (address) {... */\n      swap1\n      jump\t// out\n        /* \"@openzeppelin/contracts/token/ERC20/ERC20.sol\":8726:8854  function _approve(address owner, address spender, uint256 value) internal {... */\n    tag_92:\n        /* \"@openzeppelin/contracts/token/ERC20/ERC20.sol\":8810:8847  _approve(owner, spender, value, true) */\n      tag_175\n        /* \"@openzeppelin/contracts/token/ERC20/ERC20.sol\":8819:8824  owner */\n      dup4\n        /* \"@openzeppelin/contracts/token/ERC20/ERC20.sol\":8826:8833  spender */\n      dup4\n        /* \"@openzeppelin/contracts/token/ERC20/ERC20.sol\":8835:8840  value */\n      dup4\n        /* \"@openzeppelin/contracts/token/ERC20/ERC20.sol\":8842:8846  true */\n      0x01\n        /* \"@openzeppelin/contracts/token/ERC20/ERC20.sol\":8810:8818  _approve */\n      tag_176\n        /* \"@openzeppelin/contracts/token/ERC20/ERC20.sol\":8810:8847  _approve(owner, spender, value, true) */\n      jump\t// in\n    tag_175:\n        /* \"@openzeppelin/contracts/token/ERC20/ERC20.sol\":8726:8854  function _approve(address owner, address spender, uint256 value) internal {... */\n      pop\n      pop\n      pop\n      jump\t// out\n        /* \"@openzeppelin/contracts/token/ERC20/ERC20.sol\":10415:10892  function _spendAllowance(address owner, address spender, uint256 value) internal virtual {... */\n    tag_98:\n        /* \"@openzeppelin/contracts/token/ERC20/ERC20.sol\":10514:10538  uint256 currentAllowance */\n      0x00\n        /* \"@openzeppelin/contracts/token/ERC20/ERC20.sol\":10541:10566  allowance(owner, spender) */\n      tag_178\n        /* \"@openzeppelin/contracts/token/ERC20/ERC20.sol\":10551:10556  owner */\n      dup5\n        /* \"@openzeppelin/contracts/token/ERC20/ERC20.sol\":10558:10565  spender */\n      dup5\n        /* \"@openzeppelin/contracts/token/ERC20/ERC20.sol\":10541:10550  allowance */\n      tag_76\n        /* \"@openzeppelin/contracts/token/ERC20/ERC20.sol\":10541:10566  allowance(owner, spender) */\n      jump\t// in\n    tag_178:\n        /* \"@openzeppelin/contracts/token/ERC20/ERC20.sol\":10514:10566  uint256 currentAllowance = allowance(owner, spender) */\n      swap1\n      pop\n        /* \"@openzeppelin/contracts/token/ERC20/ERC20.sol\":10600:10617  type(uint256).max */\n      0xffffffffffffffffffffffffffffffffffffffffffffffffffffffffffffffff\n        /* \"@openzeppelin/contracts/token/ERC20/ERC20.sol\":10580:10596  currentAllowance */\n      dup2\n        /* \"@openzeppelin/contracts/token/ERC20/ERC20.sol\":10580:10617  currentAllowance != type(uint256).max */\n      eq\n        /* \"@openzeppelin/contracts/token/ERC20/ERC20.sol\":10576:10886  if (currentAllowance != type(uint256).max) {... */\n      tag_179\n      jumpi\n        /* \"@openzeppelin/contracts/token/ERC20/ERC20.sol\":10656:10661  value */\n      dup2\n        /* \"@openzeppelin/contracts/token/ERC20/ERC20.sol\":10637:10653  currentAllowance */\n      dup2\n        /* \"@openzeppelin/contracts/token/ERC20/ERC20.sol\":10637:10661  currentAllowance < value */\n      lt\n        /* \"@openzeppelin/contracts/token/ERC20/ERC20.sol\":10633:10763  if (currentAllowance < value) {... */\n      iszero\n      tag_180\n      jumpi\n        /* \"@openzeppelin/contracts/token/ERC20/ERC20.sol\":10715:10722  spender */\n      dup3\n        /* \"@openzeppelin/contracts/token/ERC20/ERC20.sol\":10724:10740  currentAllowance */\n      dup2\n        /* \"@openzeppelin/contracts/token/ERC20/ERC20.sol\":10742:10747  value */\n      dup4\n        /* \"@openzeppelin/contracts/token/ERC20/ERC20.sol\":10688:10748  ERC20InsufficientAllowance(spender, currentAllowance, value) */\n      mload(0x40)\n      0xfb8f41b200000000000000000000000000000000000000000000000000000000\n      dup2\n      mstore\n      0x04\n      add\n      tag_181\n      swap4\n      swap3\n      swap2\n      swap1\n      tag_182\n      jump\t// in\n    tag_181:\n      mload(0x40)\n      dup1\n      swap2\n      sub\n      swap1\n      revert\n        /* \"@openzeppelin/contracts/token/ERC20/ERC20.sol\":10633:10763  if (currentAllowance < value) {... */\n    tag_180:\n        /* \"@openzeppelin/contracts/token/ERC20/ERC20.sol\":10804:10861  _approve(owner, spender, currentAllowance - value, false) */\n      tag_183\n        /* \"@openzeppelin/contracts/token/ERC20/ERC20.sol\":10813:10818  owner */\n      dup5\n        /* \"@openzeppelin/contracts/token/ERC20/ERC20.sol\":10820:10827  spender */\n      dup5\n        /* \"@openzeppelin/contracts/token/ERC20/ERC20.sol\":10848:10853  value */\n      dup5\n        /* \"@openzeppelin/contracts/token/ERC20/ERC20.sol\":10829:10845  currentAllowance */\n      dup5\n        /* \"@openzeppelin/contracts/token/ERC20/ERC20.sol\":10829:10853  currentAllowance - value */\n      sub\n        /* \"@openzeppelin/contracts/token/ERC20/ERC20.sol\":10855:10860  false */\n      0x00\n        /* \"@openzeppelin/contracts/token/ERC20/ERC20.sol\":10804:10812  _approve */\n      tag_176\n        /* \"@openzeppelin/contracts/token/ERC20/ERC20.sol\":10804:10861  _approve(owner, spender, currentAllowance - value, false) */\n      jump\t// in\n    tag_183:\n        /* \"@openzeppelin/contracts/token/ERC20/ERC20.sol\":10576:10886  if (currentAllowance != type(uint256).max) {... */\n    tag_179:\n        /* \"@openzeppelin/contracts/token/ERC20/ERC20.sol\":10504:10892  {... */\n      pop\n        /* \"@openzeppelin/contracts/token/ERC20/ERC20.sol\":10415:10892  function _spendAllowance(address owner, address spender, uint256 value) internal virtual {... */\n      pop\n      pop\n      pop\n      jump\t// out\n        /* \"@openzeppelin/contracts/token/ERC20/ERC20.sol\":5393:5693  function _transfer(address from, address to, uint256 value) internal {... */\n    tag_100:\n        /* \"@openzeppelin/contracts/token/ERC20/ERC20.sol\":5492:5493  0 */\n      0x00\n        /* \"@openzeppelin/contracts/token/ERC20/ERC20.sol\":5476:5494  from == address(0) */\n      0xffffffffffffffffffffffffffffffffffffffff\n      and\n        /* \"@openzeppelin/contracts/token/ERC20/ERC20.sol\":5476:5480  from */\n      dup4\n        /* \"@openzeppelin/contracts/token/ERC20/ERC20.sol\":5476:5494  from == address(0) */\n      0xffffffffffffffffffffffffffffffffffffffff\n      and\n      sub\n        /* \"@openzeppelin/contracts/token/ERC20/ERC20.sol\":5472:5558  if (from == address(0)) {... */\n      tag_185\n      jumpi\n        /* \"@openzeppelin/contracts/token/ERC20/ERC20.sol\":5544:5545  0 */\n      0x00\n        /* \"@openzeppelin/contracts/token/ERC20/ERC20.sol\":5517:5547  ERC20InvalidSender(address(0)) */\n      mload(0x40)\n      0x96c6fd1e00000000000000000000000000000000000000000000000000000000\n      dup2\n      mstore\n      0x04\n      add\n      tag_186\n      swap2\n      swap1\n      tag_187\n      jump\t// in\n    tag_186:\n      mload(0x40)\n      dup1\n      swap2\n      sub\n      swap1\n      revert\n        /* \"@openzeppelin/contracts/token/ERC20/ERC20.sol\":5472:5558  if (from == address(0)) {... */\n    tag_185:\n        /* \"@openzeppelin/contracts/token/ERC20/ERC20.sol\":5585:5586  0 */\n      0x00\n        /* \"@openzeppelin/contracts/token/ERC20/ERC20.sol\":5571:5587  to == address(0) */\n      0xffffffffffffffffffffffffffffffffffffffff\n      and\n        /* \"@openzeppelin/contracts/token/ERC20/ERC20.sol\":5571:5573  to */\n      dup3\n        /* \"@openzeppelin/contracts/token/ERC20/ERC20.sol\":5571:5587  to == address(0) */\n      0xffffffffffffffffffffffffffffffffffffffff\n      and\n      sub\n        /* \"@openzeppelin/contracts/token/ERC20/ERC20.sol\":5567:5653  if (to == address(0)) {... */\n      tag_188\n      jumpi\n        /* \"@openzeppelin/contracts/token/ERC20/ERC20.sol\":5639:5640  0 */\n      0x00\n        /* \"@openzeppelin/contracts/token/ERC20/ERC20.sol\":5610:5642  ERC20InvalidReceiver(address(0)) */\n      mload(0x40)\n      0xec442f0500000000000000000000000000000000000000000000000000000000\n      dup2\n      mstore\n      0x04\n      add\n      tag_189\n      swap2\n      swap1\n      tag_187\n      jump\t// in\n    tag_189:\n      mload(0x40)\n      dup1\n      swap2\n      sub\n      swap1\n      revert\n        /* \"@openzeppelin/contracts/token/ERC20/ERC20.sol\":5567:5653  if (to == address(0)) {... */\n    tag_188:\n        /* \"@openzeppelin/contracts/token/ERC20/ERC20.sol\":5662:5686  _update(from, to, value) */\n      tag_190\n        /* \"@openzeppelin/contracts/token/ERC20/ERC20.sol\":5670:5674  from */\n      dup4\n        /* \"@openzeppelin/contracts/token/ERC20/ERC20.sol\":5676:5678  to */\n      dup4\n        /* \"@openzeppelin/contracts/token/ERC20/ERC20.sol\":5680:5685  value */\n      dup4\n        /* \"@openzeppelin/contracts/token/ERC20/ERC20.sol\":5662:5669  _update */\n      tag_191\n        /* \"@openzeppelin/contracts/token/ERC20/ERC20.sol\":5662:5686  _update(from, to, value) */\n      jump\t// in\n    tag_190:\n        /* \"@openzeppelin/contracts/token/ERC20/ERC20.sol\":5393:5693  function _transfer(address from, address to, uint256 value) internal {... */\n      pop\n      pop\n      pop\n      jump\t// out\n        /* \"@openzeppelin/contracts/token/ERC20/ERC20.sol\":7458:7666  function _mint(address account, uint256 value) internal {... */\n    tag_143:\n        /* \"@openzeppelin/contracts/token/ERC20/ERC20.sol\":7547:7548  0 */\n      0x00\n        /* \"@openzeppelin/contracts/token/ERC20/ERC20.sol\":7528:7549  account == address(0) */\n      0xffffffffffffffffffffffffffffffffffffffff\n      and\n        /* \"@openzeppelin/contracts/token/ERC20/ERC20.sol\":7528:7535  account */\n      dup3\n        /* \"@openzeppelin/contracts/token/ERC20/ERC20.sol\":7528:7549  account == address(0) */\n      0xffffffffffffffffffffffffffffffffffffffff\n      and\n      sub\n        /* \"@openzeppelin/contracts/token/ERC20/ERC20.sol\":7524:7615  if (account == address(0)) {... */\n      tag_193\n      jumpi\n        /* \"@openzeppelin/contracts/token/ERC20/ERC20.sol\":7601:7602  0 */\n      0x00\n        /* \"@openzeppelin/contracts/token/ERC20/ERC20.sol\":7572:7604  ERC20InvalidReceiver(address(0)) */\n      mload(0x40)\n      0xec442f0500000000000000000000000000000000000000000000000000000000\n      dup2\n      mstore\n      0x04\n      add\n      tag_194\n      swap2\n      swap1\n      tag_187\n      jump\t// in\n    tag_194:\n      mload(0x40)\n      dup1\n      swap2\n      sub\n      swap1\n      revert\n        /* \"@openzeppelin/contracts/token/ERC20/ERC20.sol\":7524:7615  if (account == address(0)) {... */\n    tag_193:\n        /* \"@openzeppelin/contracts/token/ERC20/ERC20.sol\":7624:7659  _update(address(0), account, value) */\n      tag_195\n        /* \"@openzeppelin/contracts/token/ERC20/ERC20.sol\":7640:7641  0 */\n      0x00\n        /* \"@openzeppelin/contracts/token/ERC20/ERC20.sol\":7644:7651  account */\n      dup4\n        /* \"@openzeppelin/contracts/token/ERC20/ERC20.sol\":7653:7658  value */\n      dup4\n        /* \"@openzeppelin/contracts/token/ERC20/ERC20.sol\":7624:7631  _update */\n      tag_191\n        /* \"@openzeppelin/contracts/token/ERC20/ERC20.sol\":7624:7659  _update(address(0), account, value) */\n      jump\t// in\n    tag_195:\n        /* \"@openzeppelin/contracts/token/ERC20/ERC20.sol\":7458:7666  function _mint(address account, uint256 value) internal {... */\n      pop\n      pop\n      jump\t// out\n        /* \"@openzeppelin/contracts/token/ERC20/ERC20.sol\":9701:10133  function _approve(address owner, address spender, uint256 value, bool emitEvent) internal virtual {... */\n    tag_176:\n        /* \"@openzeppelin/contracts/token/ERC20/ERC20.sol\":9830:9831  0 */\n      0x00\n        /* \"@openzeppelin/contracts/token/ERC20/ERC20.sol\":9813:9832  owner == address(0) */\n      0xffffffffffffffffffffffffffffffffffffffff\n      and\n        /* \"@openzeppelin/contracts/token/ERC20/ERC20.sol\":9813:9818  owner */\n      dup5\n        /* \"@openzeppelin/contracts/token/ERC20/ERC20.sol\":9813:9832  owner == address(0) */\n      0xffffffffffffffffffffffffffffffffffffffff\n      and\n      sub\n        /* \"@openzeppelin/contracts/token/ERC20/ERC20.sol\":9809:9898  if (owner == address(0)) {... */\n      tag_197\n      jumpi\n        /* \"@openzeppelin/contracts/token/ERC20/ERC20.sol\":9884:9885  0 */\n      0x00\n        /* \"@openzeppelin/contracts/token/ERC20/ERC20.sol\":9855:9887  ERC20InvalidApprover(address(0)) */\n      mload(0x40)\n      0xe602df0500000000000000000000000000000000000000000000000000000000\n      dup2\n      mstore\n      0x04\n      add\n      tag_198\n      swap2\n      swap1\n      tag_187\n      jump\t// in\n    tag_198:\n      mload(0x40)\n      dup1\n      swap2\n      sub\n      swap1\n      revert\n        /* \"@openzeppelin/contracts/token/ERC20/ERC20.sol\":9809:9898  if (owner == address(0)) {... */\n    tag_197:\n        /* \"@openzeppelin/contracts/token/ERC20/ERC20.sol\":9930:9931  0 */\n      0x00\n        /* \"@openzeppelin/contracts/token/ERC20/ERC20.sol\":9911:9932  spender == address(0) */\n      0xffffffffffffffffffffffffffffffffffffffff\n      and\n        /* \"@openzeppelin/contracts/token/ERC20/ERC20.sol\":9911:9918  spender */\n      dup4\n        /* \"@openzeppelin/contracts/token/ERC20/ERC20.sol\":9911:9932  spender == address(0) */\n      0xffffffffffffffffffffffffffffffffffffffff\n      and\n      sub\n        /* \"@openzeppelin/contracts/token/ERC20/ERC20.sol\":9907:9997  if (spender == address(0)) {... */\n      tag_199\n      jumpi\n        /* \"@openzeppelin/contracts/token/ERC20/ERC20.sol\":9983:9984  0 */\n      0x00\n        /* \"@openzeppelin/contracts/token/ERC20/ERC20.sol\":9955:9986  ERC20InvalidSpender(address(0)) */\n      mload(0x40)\n      0x94280d6200000000000000000000000000000000000000000000000000000000\n      dup2\n      mstore\n      0x04\n      add\n      tag_200\n      swap2\n      swap1\n      tag_187\n      jump\t// in\n    tag_200:\n      mload(0x40)\n      dup1\n      swap2\n      sub\n      swap1\n      revert\n        /* \"@openzeppelin/contracts/token/ERC20/ERC20.sol\":9907:9997  if (spender == address(0)) {... */\n    tag_199:\n        /* \"@openzeppelin/contracts/token/ERC20/ERC20.sol\":10036:10041  value */\n      dup2\n        /* \"@openzeppelin/contracts/token/ERC20/ERC20.sol\":10006:10017  _allowances */\n      0x01\n        /* \"@openzeppelin/contracts/token/ERC20/ERC20.sol\":10006:10024  _allowances[owner] */\n      0x00\n        /* \"@openzeppelin/contracts/token/ERC20/ERC20.sol\":10018:10023  owner */\n      dup7\n        /* \"@openzeppelin/contracts/token/ERC20/ERC20.sol\":10006:10024  _allowances[owner] */\n      0xffffffffffffffffffffffffffffffffffffffff\n      and\n      0xffffffffffffffffffffffffffffffffffffffff\n      and\n      dup2\n      mstore\n      0x20\n      add\n      swap1\n      dup2\n      mstore\n      0x20\n      add\n      0x00\n      keccak256\n        /* \"@openzeppelin/contracts/token/ERC20/ERC20.sol\":10006:10033  _allowances[owner][spender] */\n      0x00\n        /* \"@openzeppelin/contracts/token/ERC20/ERC20.sol\":10025:10032  spender */\n      dup6\n        /* \"@openzeppelin/contracts/token/ERC20/ERC20.sol\":10006:10033  _allowances[owner][spender] */\n      0xffffffffffffffffffffffffffffffffffffffff\n      and\n      0xffffffffffffffffffffffffffffffffffffffff\n      and\n      dup2\n      mstore\n      0x20\n      add\n      swap1\n      dup2\n      mstore\n      0x20\n      add\n      0x00\n      keccak256\n        /* \"@openzeppelin/contracts/token/ERC20/ERC20.sol\":10006:10041  _allowances[owner][spender] = value */\n      dup2\n      swap1\n      sstore\n      pop\n        /* \"@openzeppelin/contracts/token/ERC20/ERC20.sol\":10055:10064  emitEvent */\n      dup1\n        /* \"@openzeppelin/contracts/token/ERC20/ERC20.sol\":10051:10127  if (emitEvent) {... */\n      iszero\n      tag_201\n      jumpi\n        /* \"@openzeppelin/contracts/token/ERC20/ERC20.sol\":10101:10108  spender */\n      dup3\n        /* \"@openzeppelin/contracts/token/ERC20/ERC20.sol\":10085:10116  Approval(owner, spender, value) */\n      0xffffffffffffffffffffffffffffffffffffffff\n      and\n        /* \"@openzeppelin/contracts/token/ERC20/ERC20.sol\":10094:10099  owner */\n      dup5\n        /* \"@openzeppelin/contracts/token/ERC20/ERC20.sol\":10085:10116  Approval(owner, spender, value) */\n      0xffffffffffffffffffffffffffffffffffffffff\n      and\n      0x8c5be1e5ebec7d5bd14f71427d1e84f3dd0314c0f7b2291e5b200ac8c7c3b925\n        /* \"@openzeppelin/contracts/token/ERC20/ERC20.sol\":10110:10115  value */\n      dup5\n        /* \"@openzeppelin/contracts/token/ERC20/ERC20.sol\":10085:10116  Approval(owner, spender, value) */\n      mload(0x40)\n      tag_202\n      swap2\n      swap1\n      tag_39\n      jump\t// in\n    tag_202:\n      mload(0x40)\n      dup1\n      swap2\n      sub\n      swap1\n      log3\n        /* \"@openzeppelin/contracts/token/ERC20/ERC20.sol\":10051:10127  if (emitEvent) {... */\n    tag_201:\n        /* \"@openzeppelin/contracts/token/ERC20/ERC20.sol\":9701:10133  function _approve(address owner, address spender, uint256 value, bool emitEvent) internal virtual {... */\n      pop\n      pop\n      pop\n      pop\n      jump\t// out\n        /* \"@openzeppelin/contracts/token/ERC20/ERC20.sol\":6008:7115  function _update(address from, address to, uint256 value) internal virtual {... */\n    tag_191:\n        /* \"@openzeppelin/contracts/token/ERC20/ERC20.sol\":6113:6114  0 */\n      0x00\n        /* \"@openzeppelin/contracts/token/ERC20/ERC20.sol\":6097:6115  from == address(0) */\n      0xffffffffffffffffffffffffffffffffffffffff\n      and\n        /* \"@openzeppelin/contracts/token/ERC20/ERC20.sol\":6097:6101  from */\n      dup4\n        /* \"@openzeppelin/contracts/token/ERC20/ERC20.sol\":6097:6115  from == address(0) */\n      0xffffffffffffffffffffffffffffffffffffffff\n      and\n      sub\n        /* \"@openzeppelin/contracts/token/ERC20/ERC20.sol\":6093:6633  if (from == address(0)) {... */\n      tag_204\n      jumpi\n        /* \"@openzeppelin/contracts/token/ERC20/ERC20.sol\":6249:6254  value */\n      dup1\n        /* \"@openzeppelin/contracts/token/ERC20/ERC20.sol\":6233:6245  _totalSupply */\n      0x02\n      0x00\n        /* \"@openzeppelin/contracts/token/ERC20/ERC20.sol\":6233:6254  _totalSupply += value */\n      dup3\n      dup3\n      sload\n      tag_205\n      swap2\n      swap1\n      tag_129\n      jump\t// in\n    tag_205:\n      swap3\n      pop\n      pop\n      dup2\n      swap1\n      sstore\n      pop\n        /* \"@openzeppelin/contracts/token/ERC20/ERC20.sol\":6093:6633  if (from == address(0)) {... */\n      jump(tag_206)\n    tag_204:\n        /* \"@openzeppelin/contracts/token/ERC20/ERC20.sol\":6285:6304  uint256 fromBalance */\n      0x00\n        /* \"@openzeppelin/contracts/token/ERC20/ERC20.sol\":6307:6316  _balances */\n      dup1\n        /* \"@openzeppelin/contracts/token/ERC20/ERC20.sol\":6307:6322  _balances[from] */\n      0x00\n        /* \"@openzeppelin/contracts/token/ERC20/ERC20.sol\":6317:6321  from */\n      dup6\n        /* \"@openzeppelin/contracts/token/ERC20/ERC20.sol\":6307:6322  _balances[from] */\n      0xffffffffffffffffffffffffffffffffffffffff\n      and\n      0xffffffffffffffffffffffffffffffffffffffff\n      and\n      dup2\n      mstore\n      0x20\n      add\n      swap1\n      dup2\n      mstore\n      0x20\n      add\n      0x00\n      keccak256\n      sload\n        /* \"@openzeppelin/contracts/token/ERC20/ERC20.sol\":6285:6322  uint256 fromBalance = _balances[from] */\n      swap1\n      pop\n        /* \"@openzeppelin/contracts/token/ERC20/ERC20.sol\":6354:6359  value */\n      dup2\n        /* \"@openzeppelin/contracts/token/ERC20/ERC20.sol\":6340:6351  fromBalance */\n      dup2\n        /* \"@openzeppelin/contracts/token/ERC20/ERC20.sol\":6340:6359  fromBalance < value */\n      lt\n        /* \"@openzeppelin/contracts/token/ERC20/ERC20.sol\":6336:6451  if (fromBalance < value) {... */\n      iszero\n      tag_207\n      jumpi\n        /* \"@openzeppelin/contracts/token/ERC20/ERC20.sol\":6411:6415  from */\n      dup4\n        /* \"@openzeppelin/contracts/token/ERC20/ERC20.sol\":6417:6428  fromBalance */\n      dup2\n        /* \"@openzeppelin/contracts/token/ERC20/ERC20.sol\":6430:6435  value */\n      dup4\n        /* \"@openzeppelin/contracts/token/ERC20/ERC20.sol\":6386:6436  ERC20InsufficientBalance(from, fromBalance, value) */\n      mload(0x40)\n      0xe450d38c00000000000000000000000000000000000000000000000000000000\n      dup2\n      mstore\n      0x04\n      add\n      tag_208\n      swap4\n      swap3\n      swap2\n      swap1\n      tag_182\n      jump\t// in\n    tag_208:\n      mload(0x40)\n      dup1\n      swap2\n      sub\n      swap1\n      revert\n        /* \"@openzeppelin/contracts/token/ERC20/ERC20.sol\":6336:6451  if (fromBalance < value) {... */\n    tag_207:\n        /* \"@openzeppelin/contracts/token/ERC20/ERC20.sol\":6603:6608  value */\n      dup2\n        /* \"@openzeppelin/contracts/token/ERC20/ERC20.sol\":6589:6600  fromBalance */\n      dup2\n        /* \"@openzeppelin/contracts/token/ERC20/ERC20.sol\":6589:6608  fromBalance - value */\n      sub\n        /* \"@openzeppelin/contracts/token/ERC20/ERC20.sol\":6571:6580  _balances */\n      0x00\n        /* \"@openzeppelin/contracts/token/ERC20/ERC20.sol\":6571:6586  _balances[from] */\n      dup1\n        /* \"@openzeppelin/contracts/token/ERC20/ERC20.sol\":6581:6585  from */\n      dup7\n        /* \"@openzeppelin/contracts/token/ERC20/ERC20.sol\":6571:6586  _balances[from] */\n      0xffffffffffffffffffffffffffffffffffffffff\n      and\n      0xffffffffffffffffffffffffffffffffffffffff\n      and\n      dup2\n      mstore\n      0x20\n      add\n      swap1\n      dup2\n      mstore\n      0x20\n      add\n      0x00\n      keccak256\n        /* \"@openzeppelin/contracts/token/ERC20/ERC20.sol\":6571:6608  _balances[from] = fromBalance - value */\n      dup2\n      swap1\n      sstore\n      pop\n        /* \"@openzeppelin/contracts/token/ERC20/ERC20.sol\":6271:6633  {... */\n      pop\n        /* \"@openzeppelin/contracts/token/ERC20/ERC20.sol\":6093:6633  if (from == address(0)) {... */\n    tag_206:\n        /* \"@openzeppelin/contracts/token/ERC20/ERC20.sol\":6661:6662  0 */\n      0x00\n        /* \"@openzeppelin/contracts/token/ERC20/ERC20.sol\":6647:6663  to == address(0) */\n      0xffffffffffffffffffffffffffffffffffffffff\n      and\n        /* \"@openzeppelin/contracts/token/ERC20/ERC20.sol\":6647:6649  to */\n      dup3\n        /* \"@openzeppelin/contracts/token/ERC20/ERC20.sol\":6647:6663  to == address(0) */\n      0xffffffffffffffffffffffffffffffffffffffff\n      and\n      sub\n        /* \"@openzeppelin/contracts/token/ERC20/ERC20.sol\":6643:7068  if (to == address(0)) {... */\n      tag_209\n      jumpi\n        /* \"@openzeppelin/contracts/token/ERC20/ERC20.sol\":6826:6831  value */\n      dup1\n        /* \"@openzeppelin/contracts/token/ERC20/ERC20.sol\":6810:6822  _totalSupply */\n      0x02\n      0x00\n        /* \"@openzeppelin/contracts/token/ERC20/ERC20.sol\":6810:6831  _totalSupply -= value */\n      dup3\n      dup3\n      sload\n      sub\n      swap3\n      pop\n      pop\n      dup2\n      swap1\n      sstore\n      pop\n        /* \"@openzeppelin/contracts/token/ERC20/ERC20.sol\":6643:7068  if (to == address(0)) {... */\n      jump(tag_210)\n    tag_209:\n        /* \"@openzeppelin/contracts/token/ERC20/ERC20.sol\":7038:7043  value */\n      dup1\n        /* \"@openzeppelin/contracts/token/ERC20/ERC20.sol\":7021:7030  _balances */\n      0x00\n        /* \"@openzeppelin/contracts/token/ERC20/ERC20.sol\":7021:7034  _balances[to] */\n      dup1\n        /* \"@openzeppelin/contracts/token/ERC20/ERC20.sol\":7031:7033  to */\n      dup5\n        /* \"@openzeppelin/contracts/token/ERC20/ERC20.sol\":7021:7034  _balances[to] */\n      0xffffffffffffffffffffffffffffffffffffffff\n      and\n      0xffffffffffffffffffffffffffffffffffffffff\n      and\n      dup2\n      mstore\n      0x20\n      add\n      swap1\n      dup2\n      mstore\n      0x20\n      add\n      0x00\n      keccak256\n      0x00\n        /* \"@openzeppelin/contracts/token/ERC20/ERC20.sol\":7021:7043  _balances[to] += value */\n      dup3\n      dup3\n      sload\n      add\n      swap3\n      pop\n      pop\n      dup2\n      swap1\n      sstore\n      pop\n        /* \"@openzeppelin/contracts/token/ERC20/ERC20.sol\":6643:7068  if (to == address(0)) {... */\n    tag_210:\n        /* \"@openzeppelin/contracts/token/ERC20/ERC20.sol\":7098:7100  to */\n      dup2\n        /* \"@openzeppelin/contracts/token/ERC20/ERC20.sol\":7083:7108  Transfer(from, to, value) */\n      0xffffffffffffffffffffffffffffffffffffffff\n      and\n        /* \"@openzeppelin/contracts/token/ERC20/ERC20.sol\":7092:7096  from */\n      dup4\n        /* \"@openzeppelin/contracts/token/ERC20/ERC20.sol\":7083:7108  Transfer(from, to, value) */\n      0xffffffffffffffffffffffffffffffffffffffff\n      and\n      0xddf252ad1be2c89b69c2b068fc378daa952ba7f163c4a11628f55a4df523b3ef\n        /* \"@openzeppelin/contracts/token/ERC20/ERC20.sol\":7102:7107  value */\n      dup4\n        /* \"@openzeppelin/contracts/token/ERC20/ERC20.sol\":7083:7108  Transfer(from, to, value) */\n      mload(0x40)\n      tag_211\n      swap2\n      swap1\n      tag_39\n      jump\t// in\n    tag_211:\n      mload(0x40)\n      dup1\n      swap2\n      sub\n      swap1\n      log3\n        /* \"@openzeppelin/contracts/token/ERC20/ERC20.sol\":6008:7115  function _update(address from, address to, uint256 value) internal virtual {... */\n      pop\n      pop\n      pop\n      jump\t// out\n        /* \"#utility.yul\":7:106   */\n    tag_212:\n        /* \"#utility.yul\":59:65   */\n      0x00\n        /* \"#utility.yul\":93:98   */\n      dup2\n        /* \"#utility.yul\":87:99   */\n      mload\n        /* \"#utility.yul\":77:99   */\n      swap1\n      pop\n        /* \"#utility.yul\":7:106   */\n      swap2\n      swap1\n      pop\n      jump\t// out\n        /* \"#utility.yul\":112:281   */\n    tag_213:\n        /* \"#utility.yul\":196:207   */\n      0x00\n        /* \"#utility.yul\":230:236   */\n      dup3\n        /* \"#utility.yul\":225:228   */\n      dup3\n        /* \"#utility.yul\":218:237   */\n      mstore\n        /* \"#utility.yul\":270:274   */\n      0x20\n        /* \"#utility.yul\":265:268   */\n      dup3\n        /* \"#utility.yul\":261:275   */\n      add\n        /* \"#utility.yul\":246:275   */\n      swap1\n      pop\n        /* \"#utility.yul\":112:281   */\n      swap3\n      swap2\n      pop\n      pop\n      jump\t// out\n        /* \"#utility.yul\":287:426   */\n    tag_214:\n        /* \"#utility.yul\":376:382   */\n      dup3\n        /* \"#utility.yul\":371:374   */\n      dup2\n        /* \"#utility.yul\":366:369   */\n      dup4\n        /* \"#utility.yul\":360:383   */\n      mcopy\n        /* \"#utility.yul\":417:418   */\n      0x00\n        /* \"#utility.yul\":408:414   */\n      dup4\n        /* \"#utility.yul\":403:406   */\n      dup4\n        /* \"#utility.yul\":399:415   */\n      add\n        /* \"#utility.yul\":392:419   */\n      mstore\n        /* \"#utility.yul\":287:426   */\n      pop\n      pop\n      pop\n      jump\t// out\n        /* \"#utility.yul\":432:534   */\n    tag_215:\n        /* \"#utility.yul\":473:479   */\n      0x00\n        /* \"#utility.yul\":524:526   */\n      0x1f\n        /* \"#utility.yul\":520:527   */\n      not\n        /* \"#utility.yul\":515:517   */\n      0x1f\n        /* \"#utility.yul\":508:513   */\n      dup4\n        /* \"#utility.yul\":504:518   */\n      add\n        /* \"#utility.yul\":500:528   */\n      and\n        /* \"#utility.yul\":490:528   */\n      swap1\n      pop\n        /* \"#utility.yul\":432:534   */\n      swap2\n      swap1\n      pop\n      jump\t// out\n        /* \"#utility.yul\":540:917   */\n    tag_216:\n        /* \"#utility.yul\":628:631   */\n      0x00\n        /* \"#utility.yul\":656:695   */\n      tag_261\n        /* \"#utility.yul\":689:694   */\n      dup3\n        /* \"#utility.yul\":656:695   */\n      tag_212\n      jump\t// in\n    tag_261:\n        /* \"#utility.yul\":711:782   */\n      tag_262\n        /* \"#utility.yul\":775:781   */\n      dup2\n        /* \"#utility.yul\":770:773   */\n      dup6\n        /* \"#utility.yul\":711:782   */\n      tag_213\n      jump\t// in\n    tag_262:\n        /* \"#utility.yul\":704:782   */\n      swap4\n      pop\n        /* \"#utility.yul\":791:856   */\n      tag_263\n        /* \"#utility.yul\":849:855   */\n      dup2\n        /* \"#utility.yul\":844:847   */\n      dup6\n        /* \"#utility.yul\":837:841   */\n      0x20\n        /* \"#utility.yul\":830:835   */\n      dup7\n        /* \"#utility.yul\":826:842   */\n      add\n        /* \"#utility.yul\":791:856   */\n      tag_214\n      jump\t// in\n    tag_263:\n        /* \"#utility.yul\":881:910   */\n      tag_264\n        /* \"#utility.yul\":903:909   */\n      dup2\n        /* \"#utility.yul\":881:910   */\n      tag_215\n      jump\t// in\n    tag_264:\n        /* \"#utility.yul\":876:879   */\n      dup5\n        /* \"#utility.yul\":872:911   */\n      add\n        /* \"#utility.yul\":865:911   */\n      swap2\n      pop\n        /* \"#utility.yul\":632:917   */\n      pop\n        /* \"#utility.yul\":540:917   */\n      swap3\n      swap2\n      pop\n      pop\n      jump\t// out\n        /* \"#utility.yul\":923:1236   */\n    tag_23:\n        /* \"#utility.yul\":1036:1040   */\n      0x00\n        /* \"#utility.yul\":1074:1076   */\n      0x20\n        /* \"#utility.yul\":1063:1072   */\n      dup3\n        /* \"#utility.yul\":1059:1077   */\n      add\n        /* \"#utility.yul\":1051:1077   */\n      swap1\n      pop\n        /* \"#utility.yul\":1123:1132   */\n      dup2\n        /* \"#utility.yul\":1117:1121   */\n      dup2\n        /* \"#utility.yul\":1113:1133   */\n      sub\n        /* \"#utility.yul\":1109:1110   */\n      0x00\n        /* \"#utility.yul\":1098:1107   */\n      dup4\n        /* \"#utility.yul\":1094:1111   */\n      add\n        /* \"#utility.yul\":1087:1134   */\n      mstore\n        /* \"#utility.yul\":1151:1229   */\n      tag_266\n        /* \"#utility.yul\":1224:1228   */\n      dup2\n        /* \"#utility.yul\":1215:1221   */\n      dup5\n        /* \"#utility.yul\":1151:1229   */\n      tag_216\n      jump\t// in\n    tag_266:\n        /* \"#utility.yul\":1143:1229   */\n      swap1\n      pop\n        /* \"#utility.yul\":923:1236   */\n      swap3\n      swap2\n      pop\n      pop\n      jump\t// out\n        /* \"#utility.yul\":1323:1440   */\n    tag_218:\n        /* \"#utility.yul\":1432:1433   */\n      0x00\n        /* \"#utility.yul\":1429:1430   */\n      dup1\n        /* \"#utility.yul\":1422:1434   */\n      revert\n        /* \"#utility.yul\":1446:1563   */\n    tag_219:\n        /* \"#utility.yul\":1555:1556   */\n      0x00\n        /* \"#utility.yul\":1552:1553   */\n      dup1\n        /* \"#utility.yul\":1545:1557   */\n      revert\n        /* \"#utility.yul\":1569:1695   */\n    tag_220:\n        /* \"#utility.yul\":1606:1613   */\n      0x00\n        /* \"#utility.yul\":1646:1688   */\n      0xffffffffffffffffffffffffffffffffffffffff\n        /* \"#utility.yul\":1639:1644   */\n      dup3\n        /* \"#utility.yul\":1635:1689   */\n      and\n        /* \"#utility.yul\":1624:1689   */\n      swap1\n      pop\n        /* \"#utility.yul\":1569:1695   */\n      swap2\n      swap1\n      pop\n      jump\t// out\n        /* \"#utility.yul\":1701:1797   */\n    tag_221:\n        /* \"#utility.yul\":1738:1745   */\n      0x00\n        /* \"#utility.yul\":1767:1791   */\n      tag_272\n        /* \"#utility.yul\":1785:1790   */\n      dup3\n        /* \"#utility.yul\":1767:1791   */\n      tag_220\n      jump\t// in\n    tag_272:\n        /* \"#utility.yul\":1756:1791   */\n      swap1\n      pop\n        /* \"#utility.yul\":1701:1797   */\n      swap2\n      swap1\n      pop\n      jump\t// out\n        /* \"#utility.yul\":1803:1925   */\n    tag_222:\n        /* \"#utility.yul\":1876:1900   */\n      tag_274\n        /* \"#utility.yul\":1894:1899   */\n      dup2\n        /* \"#utility.yul\":1876:1900   */\n      tag_221\n      jump\t// in\n    tag_274:\n        /* \"#utility.yul\":1869:1874   */\n      dup2\n        /* \"#utility.yul\":1866:1901   */\n      eq\n        /* \"#utility.yul\":1856:1919   */\n      tag_275\n      jumpi\n        /* \"#utility.yul\":1915:1916   */\n      0x00\n        /* \"#utility.yul\":1912:1913   */\n      dup1\n        /* \"#utility.yul\":1905:1917   */\n      revert\n        /* \"#utility.yul\":1856:1919   */\n    tag_275:\n        /* \"#utility.yul\":1803:1925   */\n      pop\n      jump\t// out\n        /* \"#utility.yul\":1931:2070   */\n    tag_223:\n        /* \"#utility.yul\":1977:1982   */\n      0x00\n        /* \"#utility.yul\":2015:2021   */\n      dup2\n        /* \"#utility.yul\":2002:2022   */\n      calldataload\n        /* \"#utility.yul\":1993:2022   */\n      swap1\n      pop\n        /* \"#utility.yul\":2031:2064   */\n      tag_277\n        /* \"#utility.yul\":2058:2063   */\n      dup2\n        /* \"#utility.yul\":2031:2064   */\n      tag_222\n      jump\t// in\n    tag_277:\n        /* \"#utility.yul\":1931:2070   */\n      swap3\n      swap2\n      pop\n      pop\n      jump\t// out\n        /* \"#utility.yul\":2076:2153   */\n    tag_224:\n        /* \"#utility.yul\":2113:2120   */\n      0x00\n        /* \"#utility.yul\":2142:2147   */\n      dup2\n        /* \"#utility.yul\":2131:2147   */\n      swap1\n      pop\n        /* \"#utility.yul\":2076:2153   */\n      swap2\n      swap1\n      pop\n      jump\t// out\n        /* \"#utility.yul\":2159:2281   */\n    tag_225:\n        /* \"#utility.yul\":2232:2256   */\n      tag_280\n        /* \"#utility.yul\":2250:2255   */\n      dup2\n        /* \"#utility.yul\":2232:2256   */\n      tag_224\n      jump\t// in\n    tag_280:\n        /* \"#utility.yul\":2225:2230   */\n      dup2\n        /* \"#utility.yul\":2222:2257   */\n      eq\n        /* \"#utility.yul\":2212:2275   */\n      tag_281\n      jumpi\n        /* \"#utility.yul\":2271:2272   */\n      0x00\n        /* \"#utility.yul\":2268:2269   */\n      dup1\n        /* \"#utility.yul\":2261:2273   */\n      revert\n        /* \"#utility.yul\":2212:2275   */\n    tag_281:\n        /* \"#utility.yul\":2159:2281   */\n      pop\n      jump\t// out\n        /* \"#utility.yul\":2287:2426   */\n    tag_226:\n        /* \"#utility.yul\":2333:2338   */\n      0x00\n        /* \"#utility.yul\":2371:2377   */\n      dup2\n        /* \"#utility.yul\":2358:2378   */\n      calldataload\n        /* \"#utility.yul\":2349:2378   */\n      swap1\n      pop\n        /* \"#utility.yul\":2387:2420   */\n      tag_283\n        /* \"#utility.yul\":2414:2419   */\n      dup2\n        /* \"#utility.yul\":2387:2420   */\n      tag_225\n      jump\t// in\n    tag_283:\n        /* \"#utility.yul\":2287:2426   */\n      swap3\n      swap2\n      pop\n      pop\n      jump\t// out\n        /* \"#utility.yul\":2432:2906   */\n    tag_26:\n        /* \"#utility.yul\":2500:2506   */\n      0x00\n        /* \"#utility.yul\":2508:2514   */\n      dup1\n        /* \"#utility.yul\":2557:2559   */\n      0x40\n        /* \"#utility.yul\":2545:2554   */\n      dup4\n        /* \"#utility.yul\":2536:2543   */\n      dup6\n        /* \"#utility.yul\":2532:2555   */\n      sub\n        /* \"#utility.yul\":2528:2560   */\n      slt\n        /* \"#utility.yul\":2525:2644   */\n      iszero\n      tag_285\n      jumpi\n        /* \"#utility.yul\":2563:2642   */\n      tag_286\n      tag_218\n      jump\t// in\n    tag_286:\n        /* \"#utility.yul\":2525:2644   */\n    tag_285:\n        /* \"#utility.yul\":2683:2684   */\n      0x00\n        /* \"#utility.yul\":2708:2761   */\n      tag_287\n        /* \"#utility.yul\":2753:2760   */\n      dup6\n        /* \"#utility.yul\":2744:2750   */\n      dup3\n        /* \"#utility.yul\":2733:2742   */\n      dup7\n        /* \"#utility.yul\":2729:2751   */\n      add\n        /* \"#utility.yul\":2708:2761   */\n      tag_223\n      jump\t// in\n    tag_287:\n        /* \"#utility.yul\":2698:2761   */\n      swap3\n      pop\n        /* \"#utility.yul\":2654:2771   */\n      pop\n        /* \"#utility.yul\":2810:2812   */\n      0x20\n        /* \"#utility.yul\":2836:2889   */\n      tag_288\n        /* \"#utility.yul\":2881:2888   */\n      dup6\n        /* \"#utility.yul\":2872:2878   */\n      dup3\n        /* \"#utility.yul\":2861:2870   */\n      dup7\n        /* \"#utility.yul\":2857:2879   */\n      add\n        /* \"#utility.yul\":2836:2889   */\n      tag_226\n      jump\t// in\n    tag_288:\n        /* \"#utility.yul\":2826:2889   */\n      swap2\n      pop\n        /* \"#utility.yul\":2781:2899   */\n      pop\n        /* \"#utility.yul\":2432:2906   */\n      swap3\n      pop\n      swap3\n      swap1\n      pop\n      jump\t// out\n        /* \"#utility.yul\":2912:3002   */\n    tag_227:\n        /* \"#utility.yul\":2946:2953   */\n      0x00\n        /* \"#utility.yul\":2989:2994   */\n      dup2\n        /* \"#utility.yul\":2982:2995   */\n      iszero\n        /* \"#utility.yul\":2975:2996   */\n      iszero\n        /* \"#utility.yul\":2964:2996   */\n      swap1\n      pop\n        /* \"#utility.yul\":2912:3002   */\n      swap2\n      swap1\n      pop\n      jump\t// out\n        /* \"#utility.yul\":3008:3117   */\n    tag_228:\n        /* \"#utility.yul\":3089:3110   */\n      tag_291\n        /* \"#utility.yul\":3104:3109   */\n      dup2\n        /* \"#utility.yul\":3089:3110   */\n      tag_227\n      jump\t// in\n    tag_291:\n        /* \"#utility.yul\":3084:3087   */\n      dup3\n        /* \"#utility.yul\":3077:3111   */\n      mstore\n        /* \"#utility.yul\":3008:3117   */\n      pop\n      pop\n      jump\t// out\n        /* \"#utility.yul\":3123:3333   */\n    tag_29:\n        /* \"#utility.yul\":3210:3214   */\n      0x00\n        /* \"#utility.yul\":3248:3250   */\n      0x20\n        /* \"#utility.yul\":3237:3246   */\n      dup3\n        /* \"#utility.yul\":3233:3251   */\n      add\n        /* \"#utility.yul\":3225:3251   */\n      swap1\n      pop\n        /* \"#utility.yul\":3261:3326   */\n      tag_293\n        /* \"#utility.yul\":3323:3324   */\n      0x00\n        /* \"#utility.yul\":3312:3321   */\n      dup4\n        /* \"#utility.yul\":3308:3325   */\n      add\n        /* \"#utility.yul\":3299:3305   */\n      dup5\n        /* \"#utility.yul\":3261:3326   */\n      tag_228\n      jump\t// in\n    tag_293:\n        /* \"#utility.yul\":3123:3333   */\n      swap3\n      swap2\n      pop\n      pop\n      jump\t// out\n        /* \"#utility.yul\":3339:3668   */\n    tag_32:\n        /* \"#utility.yul\":3398:3404   */\n      0x00\n        /* \"#utility.yul\":3447:3449   */\n      0x20\n        /* \"#utility.yul\":3435:3444   */\n      dup3\n        /* \"#utility.yul\":3426:3433   */\n      dup5\n        /* \"#utility.yul\":3422:3445   */\n      sub\n        /* \"#utility.yul\":3418:3450   */\n      slt\n        /* \"#utility.yul\":3415:3534   */\n      iszero\n      tag_295\n      jumpi\n        /* \"#utility.yul\":3453:3532   */\n      tag_296\n      tag_218\n      jump\t// in\n    tag_296:\n        /* \"#utility.yul\":3415:3534   */\n    tag_295:\n        /* \"#utility.yul\":3573:3574   */\n      0x00\n        /* \"#utility.yul\":3598:3651   */\n      tag_297\n        /* \"#utility.yul\":3643:3650   */\n      dup5\n        /* \"#utility.yul\":3634:3640   */\n      dup3\n        /* \"#utility.yul\":3623:3632   */\n      dup6\n        /* \"#utility.yul\":3619:3641   */\n      add\n        /* \"#utility.yul\":3598:3651   */\n      tag_226\n      jump\t// in\n    tag_297:\n        /* \"#utility.yul\":3588:3651   */\n      swap2\n      pop\n        /* \"#utility.yul\":3544:3661   */\n      pop\n        /* \"#utility.yul\":3339:3668   */\n      swap3\n      swap2\n      pop\n      pop\n      jump\t// out\n        /* \"#utility.yul\":3674:3792   */\n    tag_229:\n        /* \"#utility.yul\":3761:3785   */\n      tag_299\n        /* \"#utility.yul\":3779:3784   */\n      dup2\n        /* \"#utility.yul\":3761:3785   */\n      tag_221\n      jump\t// in\n    tag_299:\n        /* \"#utility.yul\":3756:3759   */\n      dup3\n        /* \"#utility.yul\":3749:3786   */\n      mstore\n        /* \"#utility.yul\":3674:3792   */\n      pop\n      pop\n      jump\t// out\n        /* \"#utility.yul\":3798:3916   */\n    tag_230:\n        /* \"#utility.yul\":3885:3909   */\n      tag_301\n        /* \"#utility.yul\":3903:3908   */\n      dup2\n        /* \"#utility.yul\":3885:3909   */\n      tag_224\n      jump\t// in\n    tag_301:\n        /* \"#utility.yul\":3880:3883   */\n      dup3\n        /* \"#utility.yul\":3873:3910   */\n      mstore\n        /* \"#utility.yul\":3798:3916   */\n      pop\n      pop\n      jump\t// out\n        /* \"#utility.yul\":3922:4463   */\n    tag_35:\n        /* \"#utility.yul\":4093:4097   */\n      0x00\n        /* \"#utility.yul\":4131:4134   */\n      0x80\n        /* \"#utility.yul\":4120:4129   */\n      dup3\n        /* \"#utility.yul\":4116:4135   */\n      add\n        /* \"#utility.yul\":4108:4135   */\n      swap1\n      pop\n        /* \"#utility.yul\":4145:4216   */\n      tag_303\n        /* \"#utility.yul\":4213:4214   */\n      0x00\n        /* \"#utility.yul\":4202:4211   */\n      dup4\n        /* \"#utility.yul\":4198:4215   */\n      add\n        /* \"#utility.yul\":4189:4195   */\n      dup8\n        /* \"#utility.yul\":4145:4216   */\n      tag_229\n      jump\t// in\n    tag_303:\n        /* \"#utility.yul\":4226:4298   */\n      tag_304\n        /* \"#utility.yul\":4294:4296   */\n      0x20\n        /* \"#utility.yul\":4283:4292   */\n      dup4\n        /* \"#utility.yul\":4279:4297   */\n      add\n        /* \"#utility.yul\":4270:4276   */\n      dup7\n        /* \"#utility.yul\":4226:4298   */\n      tag_230\n      jump\t// in\n    tag_304:\n        /* \"#utility.yul\":4308:4380   */\n      tag_305\n        /* \"#utility.yul\":4376:4378   */\n      0x40\n        /* \"#utility.yul\":4365:4374   */\n      dup4\n        /* \"#utility.yul\":4361:4379   */\n      add\n        /* \"#utility.yul\":4352:4358   */\n      dup6\n        /* \"#utility.yul\":4308:4380   */\n      tag_230\n      jump\t// in\n    tag_305:\n        /* \"#utility.yul\":4390:4456   */\n      tag_306\n        /* \"#utility.yul\":4452:4454   */\n      0x60\n        /* \"#utility.yul\":4441:4450   */\n      dup4\n        /* \"#utility.yul\":4437:4455   */\n      add\n        /* \"#utility.yul\":4428:4434   */\n      dup5\n        /* \"#utility.yul\":4390:4456   */\n      tag_228\n      jump\t// in\n    tag_306:\n        /* \"#utility.yul\":3922:4463   */\n      swap6\n      swap5\n      pop\n      pop\n      pop\n      pop\n      pop\n      jump\t// out\n        /* \"#utility.yul\":4469:4691   */\n    tag_39:\n        /* \"#utility.yul\":4562:4566   */\n      0x00\n        /* \"#utility.yul\":4600:4602   */\n      0x20\n        /* \"#utility.yul\":4589:4598   */\n      dup3\n        /* \"#utility.yul\":4585:4603   */\n      add\n        /* \"#utility.yul\":4577:4603   */\n      swap1\n      pop\n        /* \"#utility.yul\":4613:4684   */\n      tag_308\n        /* \"#utility.yul\":4681:4682   */\n      0x00\n        /* \"#utility.yul\":4670:4679   */\n      dup4\n        /* \"#utility.yul\":4666:4683   */\n      add\n        /* \"#utility.yul\":4657:4663   */\n      dup5\n        /* \"#utility.yul\":4613:4684   */\n      tag_230\n      jump\t// in\n    tag_308:\n        /* \"#utility.yul\":4469:4691   */\n      swap3\n      swap2\n      pop\n      pop\n      jump\t// out\n        /* \"#utility.yul\":4697:5238   */\n    tag_44:\n        /* \"#utility.yul\":4868:4872   */\n      0x00\n        /* \"#utility.yul\":4906:4909   */\n      0x80\n        /* \"#utility.yul\":4895:4904   */\n      dup3\n        /* \"#utility.yul\":4891:4910   */\n      add\n        /* \"#utility.yul\":4883:4910   */\n      swap1\n      pop\n        /* \"#utility.yul\":4920:4991   */\n      tag_310\n        /* \"#utility.yul\":4988:4989   */\n      0x00\n        /* \"#utility.yul\":4977:4986   */\n      dup4\n        /* \"#utility.yul\":4973:4990   */\n      add\n        /* \"#utility.yul\":4964:4970   */\n      dup8\n        /* \"#utility.yul\":4920:4991   */\n      tag_230\n      jump\t// in\n    tag_310:\n        /* \"#utility.yul\":5001:5073   */\n      tag_311\n        /* \"#utility.yul\":5069:5071   */\n      0x20\n        /* \"#utility.yul\":5058:5067   */\n      dup4\n        /* \"#utility.yul\":5054:5072   */\n      add\n        /* \"#utility.yul\":5045:5051   */\n      dup7\n        /* \"#utility.yul\":5001:5073   */\n      tag_229\n      jump\t// in\n    tag_311:\n        /* \"#utility.yul\":5083:5155   */\n      tag_312\n        /* \"#utility.yul\":5151:5153   */\n      0x40\n        /* \"#utility.yul\":5140:5149   */\n      dup4\n        /* \"#utility.yul\":5136:5154   */\n      add\n        /* \"#utility.yul\":5127:5133   */\n      dup6\n        /* \"#utility.yul\":5083:5155   */\n      tag_230\n      jump\t// in\n    tag_312:\n        /* \"#utility.yul\":5165:5231   */\n      tag_313\n        /* \"#utility.yul\":5227:5229   */\n      0x60\n        /* \"#utility.yul\":5216:5225   */\n      dup4\n        /* \"#utility.yul\":5212:5230   */\n      add\n        /* \"#utility.yul\":5203:5209   */\n      dup5\n        /* \"#utility.yul\":5165:5231   */\n      tag_228\n      jump\t// in\n    tag_313:\n        /* \"#utility.yul\":4697:5238   */\n      swap6\n      swap5\n      pop\n      pop\n      pop\n      pop\n      pop\n      jump\t// out\n        /* \"#utility.yul\":5244:5863   */\n    tag_47:\n        /* \"#utility.yul\":5321:5327   */\n      0x00\n        /* \"#utility.yul\":5329:5335   */\n      dup1\n        /* \"#utility.yul\":5337:5343   */\n      0x00\n        /* \"#utility.yul\":5386:5388   */\n      0x60\n        /* \"#utility.yul\":5374:5383   */\n      dup5\n        /* \"#utility.yul\":5365:5372   */\n      dup7\n        /* \"#utility.yul\":5361:5384   */\n      sub\n        /* \"#utility.yul\":5357:5389   */\n      slt\n        /* \"#utility.yul\":5354:5473   */\n      iszero\n      tag_315\n      jumpi\n        /* \"#utility.yul\":5392:5471   */\n      tag_316\n      tag_218\n      jump\t// in\n    tag_316:\n        /* \"#utility.yul\":5354:5473   */\n    tag_315:\n        /* \"#utility.yul\":5512:5513   */\n      0x00\n        /* \"#utility.yul\":5537:5590   */\n      tag_317\n        /* \"#utility.yul\":5582:5589   */\n      dup7\n        /* \"#utility.yul\":5573:5579   */\n      dup3\n        /* \"#utility.yul\":5562:5571   */\n      dup8\n        /* \"#utility.yul\":5558:5580   */\n      add\n        /* \"#utility.yul\":5537:5590   */\n      tag_223\n      jump\t// in\n    tag_317:\n        /* \"#utility.yul\":5527:5590   */\n      swap4\n      pop\n        /* \"#utility.yul\":5483:5600   */\n      pop\n        /* \"#utility.yul\":5639:5641   */\n      0x20\n        /* \"#utility.yul\":5665:5718   */\n      tag_318\n        /* \"#utility.yul\":5710:5717   */\n      dup7\n        /* \"#utility.yul\":5701:5707   */\n      dup3\n        /* \"#utility.yul\":5690:5699   */\n      dup8\n        /* \"#utility.yul\":5686:5708   */\n      add\n        /* \"#utility.yul\":5665:5718   */\n      tag_223\n      jump\t// in\n    tag_318:\n        /* \"#utility.yul\":5655:5718   */\n      swap3\n      pop\n        /* \"#utility.yul\":5610:5728   */\n      pop\n        /* \"#utility.yul\":5767:5769   */\n      0x40\n        /* \"#utility.yul\":5793:5846   */\n      tag_319\n        /* \"#utility.yul\":5838:5845   */\n      dup7\n        /* \"#utility.yul\":5829:5835   */\n      dup3\n        /* \"#utility.yul\":5818:5827   */\n      dup8\n        /* \"#utility.yul\":5814:5836   */\n      add\n        /* \"#utility.yul\":5793:5846   */\n      tag_226\n      jump\t// in\n    tag_319:\n        /* \"#utility.yul\":5783:5846   */\n      swap2\n      pop\n        /* \"#utility.yul\":5738:5856   */\n      pop\n        /* \"#utility.yul\":5244:5863   */\n      swap3\n      pop\n      swap3\n      pop\n      swap3\n      jump\t// out\n        /* \"#utility.yul\":5869:5986   */\n    tag_231:\n        /* \"#utility.yul\":5978:5979   */\n      0x00\n        /* \"#utility.yul\":5975:5976   */\n      dup1\n        /* \"#utility.yul\":5968:5980   */\n      revert\n        /* \"#utility.yul\":5992:6109   */\n    tag_232:\n        /* \"#utility.yul\":6101:6102   */\n      0x00\n        /* \"#utility.yul\":6098:6099   */\n      dup1\n        /* \"#utility.yul\":6091:6103   */\n      revert\n        /* \"#utility.yul\":6115:6232   */\n    tag_233:\n        /* \"#utility.yul\":6224:6225   */\n      0x00\n        /* \"#utility.yul\":6221:6222   */\n      dup1\n        /* \"#utility.yul\":6214:6226   */\n      revert\n        /* \"#utility.yul\":6255:6823   */\n    tag_234:\n        /* \"#utility.yul\":6328:6336   */\n      0x00\n        /* \"#utility.yul\":6338:6344   */\n      dup1\n        /* \"#utility.yul\":6388:6391   */\n      dup4\n        /* \"#utility.yul\":6381:6385   */\n      0x1f\n        /* \"#utility.yul\":6373:6379   */\n      dup5\n        /* \"#utility.yul\":6369:6386   */\n      add\n        /* \"#utility.yul\":6365:6392   */\n      slt\n        /* \"#utility.yul\":6355:6477   */\n      tag_324\n      jumpi\n        /* \"#utility.yul\":6396:6475   */\n      tag_325\n      tag_231\n      jump\t// in\n    tag_325:\n        /* \"#utility.yul\":6355:6477   */\n    tag_324:\n        /* \"#utility.yul\":6509:6515   */\n      dup3\n        /* \"#utility.yul\":6496:6516   */\n      calldataload\n        /* \"#utility.yul\":6486:6516   */\n      swap1\n      pop\n        /* \"#utility.yul\":6539:6557   */\n      0xffffffffffffffff\n        /* \"#utility.yul\":6531:6537   */\n      dup2\n        /* \"#utility.yul\":6528:6558   */\n      gt\n        /* \"#utility.yul\":6525:6642   */\n      iszero\n      tag_326\n      jumpi\n        /* \"#utility.yul\":6561:6640   */\n      tag_327\n      tag_232\n      jump\t// in\n    tag_327:\n        /* \"#utility.yul\":6525:6642   */\n    tag_326:\n        /* \"#utility.yul\":6675:6679   */\n      0x20\n        /* \"#utility.yul\":6667:6673   */\n      dup4\n        /* \"#utility.yul\":6663:6680   */\n      add\n        /* \"#utility.yul\":6651:6680   */\n      swap2\n      pop\n        /* \"#utility.yul\":6729:6732   */\n      dup4\n        /* \"#utility.yul\":6721:6725   */\n      0x20\n        /* \"#utility.yul\":6713:6719   */\n      dup3\n        /* \"#utility.yul\":6709:6726   */\n      mul\n        /* \"#utility.yul\":6699:6707   */\n      dup4\n        /* \"#utility.yul\":6695:6727   */\n      add\n        /* \"#utility.yul\":6692:6733   */\n      gt\n        /* \"#utility.yul\":6689:6817   */\n      iszero\n      tag_328\n      jumpi\n        /* \"#utility.yul\":6736:6815   */\n      tag_329\n      tag_233\n      jump\t// in\n    tag_329:\n        /* \"#utility.yul\":6689:6817   */\n    tag_328:\n        /* \"#utility.yul\":6255:6823   */\n      swap3\n      pop\n      swap3\n      swap1\n      pop\n      jump\t// out\n        /* \"#utility.yul\":6829:7763   */\n    tag_52:\n        /* \"#utility.yul\":6951:6957   */\n      0x00\n        /* \"#utility.yul\":6959:6965   */\n      dup1\n        /* \"#utility.yul\":6967:6973   */\n      0x00\n        /* \"#utility.yul\":6975:6981   */\n      dup1\n        /* \"#utility.yul\":7024:7026   */\n      0x40\n        /* \"#utility.yul\":7012:7021   */\n      dup6\n        /* \"#utility.yul\":7003:7010   */\n      dup8\n        /* \"#utility.yul\":6999:7022   */\n      sub\n        /* \"#utility.yul\":6995:7027   */\n      slt\n        /* \"#utility.yul\":6992:7111   */\n      iszero\n      tag_331\n      jumpi\n        /* \"#utility.yul\":7030:7109   */\n      tag_332\n      tag_218\n      jump\t// in\n    tag_332:\n        /* \"#utility.yul\":6992:7111   */\n    tag_331:\n        /* \"#utility.yul\":7178:7179   */\n      0x00\n        /* \"#utility.yul\":7167:7176   */\n      dup6\n        /* \"#utility.yul\":7163:7180   */\n      add\n        /* \"#utility.yul\":7150:7181   */\n      calldataload\n        /* \"#utility.yul\":7208:7226   */\n      0xffffffffffffffff\n        /* \"#utility.yul\":7200:7206   */\n      dup2\n        /* \"#utility.yul\":7197:7227   */\n      gt\n        /* \"#utility.yul\":7194:7311   */\n      iszero\n      tag_333\n      jumpi\n        /* \"#utility.yul\":7230:7309   */\n      tag_334\n      tag_219\n      jump\t// in\n    tag_334:\n        /* \"#utility.yul\":7194:7311   */\n    tag_333:\n        /* \"#utility.yul\":7343:7423   */\n      tag_335\n        /* \"#utility.yul\":7415:7422   */\n      dup8\n        /* \"#utility.yul\":7406:7412   */\n      dup3\n        /* \"#utility.yul\":7395:7404   */\n      dup9\n        /* \"#utility.yul\":7391:7413   */\n      add\n        /* \"#utility.yul\":7343:7423   */\n      tag_234\n      jump\t// in\n    tag_335:\n        /* \"#utility.yul\":7325:7423   */\n      swap5\n      pop\n      swap5\n      pop\n        /* \"#utility.yul\":7121:7433   */\n      pop\n        /* \"#utility.yul\":7500:7502   */\n      0x20\n        /* \"#utility.yul\":7489:7498   */\n      dup6\n        /* \"#utility.yul\":7485:7503   */\n      add\n        /* \"#utility.yul\":7472:7504   */\n      calldataload\n        /* \"#utility.yul\":7531:7549   */\n      0xffffffffffffffff\n        /* \"#utility.yul\":7523:7529   */\n      dup2\n        /* \"#utility.yul\":7520:7550   */\n      gt\n        /* \"#utility.yul\":7517:7634   */\n      iszero\n      tag_336\n      jumpi\n        /* \"#utility.yul\":7553:7632   */\n      tag_337\n      tag_219\n      jump\t// in\n    tag_337:\n        /* \"#utility.yul\":7517:7634   */\n    tag_336:\n        /* \"#utility.yul\":7666:7746   */\n      tag_338\n        /* \"#utility.yul\":7738:7745   */\n      dup8\n        /* \"#utility.yul\":7729:7735   */\n      dup3\n        /* \"#utility.yul\":7718:7727   */\n      dup9\n        /* \"#utility.yul\":7714:7736   */\n      add\n        /* \"#utility.yul\":7666:7746   */\n      tag_234\n      jump\t// in\n    tag_338:\n        /* \"#utility.yul\":7648:7746   */\n      swap3\n      pop\n      swap3\n      pop\n        /* \"#utility.yul\":7443:7756   */\n      pop\n        /* \"#utility.yul\":6829:7763   */\n      swap3\n      swap6\n      swap2\n      swap5\n      pop\n      swap3\n      pop\n      jump\t// out\n        /* \"#utility.yul\":7769:7855   */\n    tag_235:\n        /* \"#utility.yul\":7804:7811   */\n      0x00\n        /* \"#utility.yul\":7844:7848   */\n      0xff\n        /* \"#utility.yul\":7837:7842   */\n      dup3\n        /* \"#utility.yul\":7833:7849   */\n      and\n        /* \"#utility.yul\":7822:7849   */\n      swap1\n      pop\n        /* \"#utility.yul\":7769:7855   */\n      swap2\n      swap1\n      pop\n      jump\t// out\n        /* \"#utility.yul\":7861:7973   */\n    tag_236:\n        /* \"#utility.yul\":7944:7966   */\n      tag_341\n        /* \"#utility.yul\":7960:7965   */\n      dup2\n        /* \"#utility.yul\":7944:7966   */\n      tag_235\n      jump\t// in\n    tag_341:\n        /* \"#utility.yul\":7939:7942   */\n      dup3\n        /* \"#utility.yul\":7932:7967   */\n      mstore\n        /* \"#utility.yul\":7861:7973   */\n      pop\n      pop\n      jump\t// out\n        /* \"#utility.yul\":7979:8193   */\n    tag_57:\n        /* \"#utility.yul\":8068:8072   */\n      0x00\n        /* \"#utility.yul\":8106:8108   */\n      0x20\n        /* \"#utility.yul\":8095:8104   */\n      dup3\n        /* \"#utility.yul\":8091:8109   */\n      add\n        /* \"#utility.yul\":8083:8109   */\n      swap1\n      pop\n        /* \"#utility.yul\":8119:8186   */\n      tag_343\n        /* \"#utility.yul\":8183:8184   */\n      0x00\n        /* \"#utility.yul\":8172:8181   */\n      dup4\n        /* \"#utility.yul\":8168:8185   */\n      add\n        /* \"#utility.yul\":8159:8165   */\n      dup5\n        /* \"#utility.yul\":8119:8186   */\n      tag_236\n      jump\t// in\n    tag_343:\n        /* \"#utility.yul\":7979:8193   */\n      swap3\n      swap2\n      pop\n      pop\n      jump\t// out\n        /* \"#utility.yul\":8199:8528   */\n    tag_63:\n        /* \"#utility.yul\":8258:8264   */\n      0x00\n        /* \"#utility.yul\":8307:8309   */\n      0x20\n        /* \"#utility.yul\":8295:8304   */\n      dup3\n        /* \"#utility.yul\":8286:8293   */\n      dup5\n        /* \"#utility.yul\":8282:8305   */\n      sub\n        /* \"#utility.yul\":8278:8310   */\n      slt\n        /* \"#utility.yul\":8275:8394   */\n      iszero\n      tag_345\n      jumpi\n        /* \"#utility.yul\":8313:8392   */\n      tag_346\n      tag_218\n      jump\t// in\n    tag_346:\n        /* \"#utility.yul\":8275:8394   */\n    tag_345:\n        /* \"#utility.yul\":8433:8434   */\n      0x00\n        /* \"#utility.yul\":8458:8511   */\n      tag_347\n        /* \"#utility.yul\":8503:8510   */\n      dup5\n        /* \"#utility.yul\":8494:8500   */\n      dup3\n        /* \"#utility.yul\":8483:8492   */\n      dup6\n        /* \"#utility.yul\":8479:8501   */\n      add\n        /* \"#utility.yul\":8458:8511   */\n      tag_223\n      jump\t// in\n    tag_347:\n        /* \"#utility.yul\":8448:8511   */\n      swap2\n      pop\n        /* \"#utility.yul\":8404:8521   */\n      pop\n        /* \"#utility.yul\":8199:8528   */\n      swap3\n      swap2\n      pop\n      pop\n      jump\t// out\n        /* \"#utility.yul\":8534:9008   */\n    tag_75:\n        /* \"#utility.yul\":8602:8608   */\n      0x00\n        /* \"#utility.yul\":8610:8616   */\n      dup1\n        /* \"#utility.yul\":8659:8661   */\n      0x40\n        /* \"#utility.yul\":8647:8656   */\n      dup4\n        /* \"#utility.yul\":8638:8645   */\n      dup6\n        /* \"#utility.yul\":8634:8657   */\n      sub\n        /* \"#utility.yul\":8630:8662   */\n      slt\n        /* \"#utility.yul\":8627:8746   */\n      iszero\n      tag_349\n      jumpi\n        /* \"#utility.yul\":8665:8744   */\n      tag_350\n      tag_218\n      jump\t// in\n    tag_350:\n        /* \"#utility.yul\":8627:8746   */\n    tag_349:\n        /* \"#utility.yul\":8785:8786   */\n      0x00\n        /* \"#utility.yul\":8810:8863   */\n      tag_351\n        /* \"#utility.yul\":8855:8862   */\n      dup6\n        /* \"#utility.yul\":8846:8852   */\n      dup3\n        /* \"#utility.yul\":8835:8844   */\n      dup7\n        /* \"#utility.yul\":8831:8853   */\n      add\n        /* \"#utility.yul\":8810:8863   */\n      tag_223\n      jump\t// in\n    tag_351:\n        /* \"#utility.yul\":8800:8863   */\n      swap3\n      pop\n        /* \"#utility.yul\":8756:8873   */\n      pop\n        /* \"#utility.yul\":8912:8914   */\n      0x20\n        /* \"#utility.yul\":8938:8991   */\n      tag_352\n        /* \"#utility.yul\":8983:8990   */\n      dup6\n        /* \"#utility.yul\":8974:8980   */\n      dup3\n        /* \"#utility.yul\":8963:8972   */\n      dup7\n        /* \"#utility.yul\":8959:8981   */\n      add\n        /* \"#utility.yul\":8938:8991   */\n      tag_223\n      jump\t// in\n    tag_352:\n        /* \"#utility.yul\":8928:8991   */\n      swap2\n      pop\n        /* \"#utility.yul\":8883:9001   */\n      pop\n        /* \"#utility.yul\":8534:9008   */\n      swap3\n      pop\n      swap3\n      swap1\n      pop\n      jump\t// out\n        /* \"#utility.yul\":9014:9194   */\n    tag_237:\n        /* \"#utility.yul\":9062:9139   */\n      0x4e487b7100000000000000000000000000000000000000000000000000000000\n        /* \"#utility.yul\":9059:9060   */\n      0x00\n        /* \"#utility.yul\":9052:9140   */\n      mstore\n        /* \"#utility.yul\":9159:9163   */\n      0x22\n        /* \"#utility.yul\":9156:9157   */\n      0x04\n        /* \"#utility.yul\":9149:9164   */\n      mstore\n        /* \"#utility.yul\":9183:9187   */\n      0x24\n        /* \"#utility.yul\":9180:9181   */\n      0x00\n        /* \"#utility.yul\":9173:9188   */\n      revert\n        /* \"#utility.yul\":9200:9520   */\n    tag_83:\n        /* \"#utility.yul\":9244:9250   */\n      0x00\n        /* \"#utility.yul\":9281:9282   */\n      0x02\n        /* \"#utility.yul\":9275:9279   */\n      dup3\n        /* \"#utility.yul\":9271:9283   */\n      div\n        /* \"#utility.yul\":9261:9283   */\n      swap1\n      pop\n        /* \"#utility.yul\":9328:9329   */\n      0x01\n        /* \"#utility.yul\":9322:9326   */\n      dup3\n        /* \"#utility.yul\":9318:9330   */\n      and\n        /* \"#utility.yul\":9349:9367   */\n      dup1\n        /* \"#utility.yul\":9339:9420   */\n      tag_355\n      jumpi\n        /* \"#utility.yul\":9405:9409   */\n      0x7f\n        /* \"#utility.yul\":9397:9403   */\n      dup3\n        /* \"#utility.yul\":9393:9410   */\n      and\n        /* \"#utility.yul\":9383:9410   */\n      swap2\n      pop\n        /* \"#utility.yul\":9339:9420   */\n    tag_355:\n        /* \"#utility.yul\":9467:9469   */\n      0x20\n        /* \"#utility.yul\":9459:9465   */\n      dup3\n        /* \"#utility.yul\":9456:9470   */\n      lt\n        /* \"#utility.yul\":9436:9454   */\n      dup2\n        /* \"#utility.yul\":9433:9471   */\n      sub\n        /* \"#utility.yul\":9430:9514   */\n      tag_356\n      jumpi\n        /* \"#utility.yul\":9486:9504   */\n      tag_357\n      tag_237\n      jump\t// in\n    tag_357:\n        /* \"#utility.yul\":9430:9514   */\n    tag_356:\n        /* \"#utility.yul\":9251:9520   */\n      pop\n        /* \"#utility.yul\":9200:9520   */\n      swap2\n      swap1\n      pop\n      jump\t// out\n        /* \"#utility.yul\":9526:9765   */\n    tag_238:\n        /* \"#utility.yul\":9666:9700   */\n      0x546865206c656e677468206f66205461736b7320616e64205265716972656420\n        /* \"#utility.yul\":9662:9663   */\n      0x00\n        /* \"#utility.yul\":9654:9660   */\n      dup3\n        /* \"#utility.yul\":9650:9664   */\n      add\n        /* \"#utility.yul\":9643:9701   */\n      mstore\n        /* \"#utility.yul\":9735:9757   */\n      0x54696d657320646f6e2774206d61746368212121000000000000000000000000\n        /* \"#utility.yul\":9730:9732   */\n      0x20\n        /* \"#utility.yul\":9722:9728   */\n      dup3\n        /* \"#utility.yul\":9718:9733   */\n      add\n        /* \"#utility.yul\":9711:9758   */\n      mstore\n        /* \"#utility.yul\":9526:9765   */\n      pop\n      jump\t// out\n        /* \"#utility.yul\":9771:10137   */\n    tag_239:\n        /* \"#utility.yul\":9913:9916   */\n      0x00\n        /* \"#utility.yul\":9934:10001   */\n      tag_360\n        /* \"#utility.yul\":9998:10000   */\n      0x34\n        /* \"#utility.yul\":9993:9996   */\n      dup4\n        /* \"#utility.yul\":9934:10001   */\n      tag_213\n      jump\t// in\n    tag_360:\n        /* \"#utility.yul\":9927:10001   */\n      swap2\n      pop\n        /* \"#utility.yul\":10010:10103   */\n      tag_361\n        /* \"#utility.yul\":10099:10102   */\n      dup3\n        /* \"#utility.yul\":10010:10103   */\n      tag_238\n      jump\t// in\n    tag_361:\n        /* \"#utility.yul\":10128:10130   */\n      0x40\n        /* \"#utility.yul\":10123:10126   */\n      dup3\n        /* \"#utility.yul\":10119:10131   */\n      add\n        /* \"#utility.yul\":10112:10131   */\n      swap1\n      pop\n        /* \"#utility.yul\":9771:10137   */\n      swap2\n      swap1\n      pop\n      jump\t// out\n        /* \"#utility.yul\":10143:10562   */\n    tag_104:\n        /* \"#utility.yul\":10309:10313   */\n      0x00\n        /* \"#utility.yul\":10347:10349   */\n      0x20\n        /* \"#utility.yul\":10336:10345   */\n      dup3\n        /* \"#utility.yul\":10332:10350   */\n      add\n        /* \"#utility.yul\":10324:10350   */\n      swap1\n      pop\n        /* \"#utility.yul\":10396:10405   */\n      dup2\n        /* \"#utility.yul\":10390:10394   */\n      dup2\n        /* \"#utility.yul\":10386:10406   */\n      sub\n        /* \"#utility.yul\":10382:10383   */\n      0x00\n        /* \"#utility.yul\":10371:10380   */\n      dup4\n        /* \"#utility.yul\":10367:10384   */\n      add\n        /* \"#utility.yul\":10360:10407   */\n      mstore\n        /* \"#utility.yul\":10424:10555   */\n      tag_363\n        /* \"#utility.yul\":10550:10554   */\n      dup2\n        /* \"#utility.yul\":10424:10555   */\n      tag_239\n      jump\t// in\n    tag_363:\n        /* \"#utility.yul\":10416:10555   */\n      swap1\n      pop\n        /* \"#utility.yul\":10143:10562   */\n      swap2\n      swap1\n      pop\n      jump\t// out\n        /* \"#utility.yul\":10568:10798   */\n    tag_240:\n        /* \"#utility.yul\":10708:10742   */\n      0x4174206c656173742068617665206f6e65207461736b20616e64207265716972\n        /* \"#utility.yul\":10704:10705   */\n      0x00\n        /* \"#utility.yul\":10696:10702   */\n      dup3\n        /* \"#utility.yul\":10692:10706   */\n      add\n        /* \"#utility.yul\":10685:10743   */\n      mstore\n        /* \"#utility.yul\":10777:10790   */\n      0x65642074696d6573212121000000000000000000000000000000000000000000\n        /* \"#utility.yul\":10772:10774   */\n      0x20\n        /* \"#utility.yul\":10764:10770   */\n      dup3\n        /* \"#utility.yul\":10760:10775   */\n      add\n        /* \"#utility.yul\":10753:10791   */\n      mstore\n        /* \"#utility.yul\":10568:10798   */\n      pop\n      jump\t// out\n        /* \"#utility.yul\":10804:11170   */\n    tag_241:\n        /* \"#utility.yul\":10946:10949   */\n      0x00\n        /* \"#utility.yul\":10967:11034   */\n      tag_366\n        /* \"#utility.yul\":11031:11033   */\n      0x2b\n        /* \"#utility.yul\":11026:11029   */\n      dup4\n        /* \"#utility.yul\":10967:11034   */\n      tag_213\n      jump\t// in\n    tag_366:\n        /* \"#utility.yul\":10960:11034   */\n      swap2\n      pop\n        /* \"#utility.yul\":11043:11136   */\n      tag_367\n        /* \"#utility.yul\":11132:11135   */\n      dup3\n        /* \"#utility.yul\":11043:11136   */\n      tag_240\n      jump\t// in\n    tag_367:\n        /* \"#utility.yul\":11161:11163   */\n      0x40\n        /* \"#utility.yul\":11156:11159   */\n      dup3\n        /* \"#utility.yul\":11152:11164   */\n      add\n        /* \"#utility.yul\":11145:11164   */\n      swap1\n      pop\n        /* \"#utility.yul\":10804:11170   */\n      swap2\n      swap1\n      pop\n      jump\t// out\n        /* \"#utility.yul\":11176:11595   */\n    tag_107:\n        /* \"#utility.yul\":11342:11346   */\n      0x00\n        /* \"#utility.yul\":11380:11382   */\n      0x20\n        /* \"#utility.yul\":11369:11378   */\n      dup3\n        /* \"#utility.yul\":11365:11383   */\n      add\n        /* \"#utility.yul\":11357:11383   */\n      swap1\n      pop\n        /* \"#utility.yul\":11429:11438   */\n      dup2\n        /* \"#utility.yul\":11423:11427   */\n      dup2\n        /* \"#utility.yul\":11419:11439   */\n      sub\n        /* \"#utility.yul\":11415:11416   */\n      0x00\n        /* \"#utility.yul\":11404:11413   */\n      dup4\n        /* \"#utility.yul\":11400:11417   */\n      add\n        /* \"#utility.yul\":11393:11440   */\n      mstore\n        /* \"#utility.yul\":11457:11588   */\n      tag_369\n        /* \"#utility.yul\":11583:11587   */\n      dup2\n        /* \"#utility.yul\":11457:11588   */\n      tag_241\n      jump\t// in\n    tag_369:\n        /* \"#utility.yul\":11449:11588   */\n      swap1\n      pop\n        /* \"#utility.yul\":11176:11595   */\n      swap2\n      swap1\n      pop\n      jump\t// out\n        /* \"#utility.yul\":11601:11781   */\n    tag_113:\n        /* \"#utility.yul\":11649:11726   */\n      0x4e487b7100000000000000000000000000000000000000000000000000000000\n        /* \"#utility.yul\":11646:11647   */\n      0x00\n        /* \"#utility.yul\":11639:11727   */\n      mstore\n        /* \"#utility.yul\":11746:11750   */\n      0x32\n        /* \"#utility.yul\":11743:11744   */\n      0x04\n        /* \"#utility.yul\":11736:11751   */\n      mstore\n        /* \"#utility.yul\":11770:11774   */\n      0x24\n        /* \"#utility.yul\":11767:11768   */\n      0x00\n        /* \"#utility.yul\":11760:11775   */\n      revert\n        /* \"#utility.yul\":11787:11962   */\n    tag_242:\n        /* \"#utility.yul\":11927:11954   */\n      0x526577617264206d75737420626520706f736974766521212100000000000000\n        /* \"#utility.yul\":11923:11924   */\n      0x00\n        /* \"#utility.yul\":11915:11921   */\n      dup3\n        /* \"#utility.yul\":11911:11925   */\n      add\n        /* \"#utility.yul\":11904:11955   */\n      mstore\n        /* \"#utility.yul\":11787:11962   */\n      pop\n      jump\t// out\n        /* \"#utility.yul\":11968:12334   */\n    tag_243:\n        /* \"#utility.yul\":12110:12113   */\n      0x00\n        /* \"#utility.yul\":12131:12198   */\n      tag_373\n        /* \"#utility.yul\":12195:12197   */\n      0x19\n        /* \"#utility.yul\":12190:12193   */\n      dup4\n        /* \"#utility.yul\":12131:12198   */\n      tag_213\n      jump\t// in\n    tag_373:\n        /* \"#utility.yul\":12124:12198   */\n      swap2\n      pop\n        /* \"#utility.yul\":12207:12300   */\n      tag_374\n        /* \"#utility.yul\":12296:12299   */\n      dup3\n        /* \"#utility.yul\":12207:12300   */\n      tag_242\n      jump\t// in\n    tag_374:\n        /* \"#utility.yul\":12325:12327   */\n      0x20\n        /* \"#utility.yul\":12320:12323   */\n      dup3\n        /* \"#utility.yul\":12316:12328   */\n      add\n        /* \"#utility.yul\":12309:12328   */\n      swap1\n      pop\n        /* \"#utility.yul\":11968:12334   */\n      swap2\n      swap1\n      pop\n      jump\t// out\n        /* \"#utility.yul\":12340:12759   */\n    tag_116:\n        /* \"#utility.yul\":12506:12510   */\n      0x00\n        /* \"#utility.yul\":12544:12546   */\n      0x20\n        /* \"#utility.yul\":12533:12542   */\n      dup3\n        /* \"#utility.yul\":12529:12547   */\n      add\n        /* \"#utility.yul\":12521:12547   */\n      swap1\n      pop\n        /* \"#utility.yul\":12593:12602   */\n      dup2\n        /* \"#utility.yul\":12587:12591   */\n      dup2\n        /* \"#utility.yul\":12583:12603   */\n      sub\n        /* \"#utility.yul\":12579:12580   */\n      0x00\n        /* \"#utility.yul\":12568:12577   */\n      dup4\n        /* \"#utility.yul\":12564:12581   */\n      add\n        /* \"#utility.yul\":12557:12604   */\n      mstore\n        /* \"#utility.yul\":12621:12752   */\n      tag_376\n        /* \"#utility.yul\":12747:12751   */\n      dup2\n        /* \"#utility.yul\":12621:12752   */\n      tag_243\n      jump\t// in\n    tag_376:\n        /* \"#utility.yul\":12613:12752   */\n      swap1\n      pop\n        /* \"#utility.yul\":12340:12759   */\n      swap2\n      swap1\n      pop\n      jump\t// out\n        /* \"#utility.yul\":12765:12990   */\n    tag_244:\n        /* \"#utility.yul\":12905:12939   */\n      0x5265717569726564205375626d697373696f6e206d75737420626520706f7374\n        /* \"#utility.yul\":12901:12902   */\n      0x00\n        /* \"#utility.yul\":12893:12899   */\n      dup3\n        /* \"#utility.yul\":12889:12903   */\n      add\n        /* \"#utility.yul\":12882:12940   */\n      mstore\n        /* \"#utility.yul\":12974:12982   */\n      0x6976652121210000000000000000000000000000000000000000000000000000\n        /* \"#utility.yul\":12969:12971   */\n      0x20\n        /* \"#utility.yul\":12961:12967   */\n      dup3\n        /* \"#utility.yul\":12957:12972   */\n      add\n        /* \"#utility.yul\":12950:12983   */\n      mstore\n        /* \"#utility.yul\":12765:12990   */\n      pop\n      jump\t// out\n        /* \"#utility.yul\":12996:13362   */\n    tag_245:\n        /* \"#utility.yul\":13138:13141   */\n      0x00\n        /* \"#utility.yul\":13159:13226   */\n      tag_379\n        /* \"#utility.yul\":13223:13225   */\n      0x26\n        /* \"#utility.yul\":13218:13221   */\n      dup4\n        /* \"#utility.yul\":13159:13226   */\n      tag_213\n      jump\t// in\n    tag_379:\n        /* \"#utility.yul\":13152:13226   */\n      swap2\n      pop\n        /* \"#utility.yul\":13235:13328   */\n      tag_380\n        /* \"#utility.yul\":13324:13327   */\n      dup3\n        /* \"#utility.yul\":13235:13328   */\n      tag_244\n      jump\t// in\n    tag_380:\n        /* \"#utility.yul\":13353:13355   */\n      0x40\n        /* \"#utility.yul\":13348:13351   */\n      dup3\n        /* \"#utility.yul\":13344:13356   */\n      add\n        /* \"#utility.yul\":13337:13356   */\n      swap1\n      pop\n        /* \"#utility.yul\":12996:13362   */\n      swap2\n      swap1\n      pop\n      jump\t// out\n        /* \"#utility.yul\":13368:13787   */\n    tag_121:\n        /* \"#utility.yul\":13534:13538   */\n      0x00\n        /* \"#utility.yul\":13572:13574   */\n      0x20\n        /* \"#utility.yul\":13561:13570   */\n      dup3\n        /* \"#utility.yul\":13557:13575   */\n      add\n        /* \"#utility.yul\":13549:13575   */\n      swap1\n      pop\n        /* \"#utility.yul\":13621:13630   */\n      dup2\n        /* \"#utility.yul\":13615:13619   */\n      dup2\n        /* \"#utility.yul\":13611:13631   */\n      sub\n        /* \"#utility.yul\":13607:13608   */\n      0x00\n        /* \"#utility.yul\":13596:13605   */\n      dup4\n        /* \"#utility.yul\":13592:13609   */\n      add\n        /* \"#utility.yul\":13585:13632   */\n      mstore\n        /* \"#utility.yul\":13649:13780   */\n      tag_382\n        /* \"#utility.yul\":13775:13779   */\n      dup2\n        /* \"#utility.yul\":13649:13780   */\n      tag_245\n      jump\t// in\n    tag_382:\n        /* \"#utility.yul\":13641:13780   */\n      swap1\n      pop\n        /* \"#utility.yul\":13368:13787   */\n      swap2\n      swap1\n      pop\n      jump\t// out\n        /* \"#utility.yul\":13793:13973   */\n    tag_246:\n        /* \"#utility.yul\":13841:13918   */\n      0x4e487b7100000000000000000000000000000000000000000000000000000000\n        /* \"#utility.yul\":13838:13839   */\n      0x00\n        /* \"#utility.yul\":13831:13919   */\n      mstore\n        /* \"#utility.yul\":13938:13942   */\n      0x11\n        /* \"#utility.yul\":13935:13936   */\n      0x04\n        /* \"#utility.yul\":13928:13943   */\n      mstore\n        /* \"#utility.yul\":13962:13966   */\n      0x24\n        /* \"#utility.yul\":13959:13960   */\n      0x00\n        /* \"#utility.yul\":13952:13967   */\n      revert\n        /* \"#utility.yul\":13979:14389   */\n    tag_127:\n        /* \"#utility.yul\":14019:14026   */\n      0x00\n        /* \"#utility.yul\":14042:14062   */\n      tag_385\n        /* \"#utility.yul\":14060:14061   */\n      dup3\n        /* \"#utility.yul\":14042:14062   */\n      tag_224\n      jump\t// in\n    tag_385:\n        /* \"#utility.yul\":14037:14062   */\n      swap2\n      pop\n        /* \"#utility.yul\":14076:14096   */\n      tag_386\n        /* \"#utility.yul\":14094:14095   */\n      dup4\n        /* \"#utility.yul\":14076:14096   */\n      tag_224\n      jump\t// in\n    tag_386:\n        /* \"#utility.yul\":14071:14096   */\n      swap3\n      pop\n        /* \"#utility.yul\":14131:14132   */\n      dup3\n        /* \"#utility.yul\":14128:14129   */\n      dup3\n        /* \"#utility.yul\":14124:14133   */\n      mul\n        /* \"#utility.yul\":14153:14183   */\n      tag_387\n        /* \"#utility.yul\":14171:14182   */\n      dup2\n        /* \"#utility.yul\":14153:14183   */\n      tag_224\n      jump\t// in\n    tag_387:\n        /* \"#utility.yul\":14142:14183   */\n      swap2\n      pop\n        /* \"#utility.yul\":14332:14333   */\n      dup3\n        /* \"#utility.yul\":14323:14330   */\n      dup3\n        /* \"#utility.yul\":14319:14334   */\n      div\n        /* \"#utility.yul\":14316:14317   */\n      dup5\n        /* \"#utility.yul\":14313:14335   */\n      eq\n        /* \"#utility.yul\":14293:14294   */\n      dup4\n        /* \"#utility.yul\":14286:14295   */\n      iszero\n        /* \"#utility.yul\":14266:14349   */\n      or\n        /* \"#utility.yul\":14243:14382   */\n      tag_388\n      jumpi\n        /* \"#utility.yul\":14362:14380   */\n      tag_389\n      tag_246\n      jump\t// in\n    tag_389:\n        /* \"#utility.yul\":14243:14382   */\n    tag_388:\n        /* \"#utility.yul\":14027:14389   */\n      pop\n        /* \"#utility.yul\":13979:14389   */\n      swap3\n      swap2\n      pop\n      pop\n      jump\t// out\n        /* \"#utility.yul\":14395:14586   */\n    tag_129:\n        /* \"#utility.yul\":14435:14438   */\n      0x00\n        /* \"#utility.yul\":14454:14474   */\n      tag_391\n        /* \"#utility.yul\":14472:14473   */\n      dup3\n        /* \"#utility.yul\":14454:14474   */\n      tag_224\n      jump\t// in\n    tag_391:\n        /* \"#utility.yul\":14449:14474   */\n      swap2\n      pop\n        /* \"#utility.yul\":14488:14508   */\n      tag_392\n        /* \"#utility.yul\":14506:14507   */\n      dup4\n        /* \"#utility.yul\":14488:14508   */\n      tag_224\n      jump\t// in\n    tag_392:\n        /* \"#utility.yul\":14483:14508   */\n      swap3\n      pop\n        /* \"#utility.yul\":14531:14532   */\n      dup3\n        /* \"#utility.yul\":14528:14529   */\n      dup3\n        /* \"#utility.yul\":14524:14533   */\n      add\n        /* \"#utility.yul\":14517:14533   */\n      swap1\n      pop\n        /* \"#utility.yul\":14552:14555   */\n      dup1\n        /* \"#utility.yul\":14549:14550   */\n      dup3\n        /* \"#utility.yul\":14546:14556   */\n      gt\n        /* \"#utility.yul\":14543:14579   */\n      iszero\n      tag_393\n      jumpi\n        /* \"#utility.yul\":14559:14577   */\n      tag_394\n      tag_246\n      jump\t// in\n    tag_394:\n        /* \"#utility.yul\":14543:14579   */\n    tag_393:\n        /* \"#utility.yul\":14395:14586   */\n      swap3\n      swap2\n      pop\n      pop\n      jump\t// out\n        /* \"#utility.yul\":14592:14924   */\n    tag_139:\n        /* \"#utility.yul\":14713:14717   */\n      0x00\n        /* \"#utility.yul\":14751:14753   */\n      0x40\n        /* \"#utility.yul\":14740:14749   */\n      dup3\n        /* \"#utility.yul\":14736:14754   */\n      add\n        /* \"#utility.yul\":14728:14754   */\n      swap1\n      pop\n        /* \"#utility.yul\":14764:14835   */\n      tag_396\n        /* \"#utility.yul\":14832:14833   */\n      0x00\n        /* \"#utility.yul\":14821:14830   */\n      dup4\n        /* \"#utility.yul\":14817:14834   */\n      add\n        /* \"#utility.yul\":14808:14814   */\n      dup6\n        /* \"#utility.yul\":14764:14835   */\n      tag_230\n      jump\t// in\n    tag_396:\n        /* \"#utility.yul\":14845:14917   */\n      tag_397\n        /* \"#utility.yul\":14913:14915   */\n      0x20\n        /* \"#utility.yul\":14902:14911   */\n      dup4\n        /* \"#utility.yul\":14898:14916   */\n      add\n        /* \"#utility.yul\":14889:14895   */\n      dup5\n        /* \"#utility.yul\":14845:14917   */\n      tag_230\n      jump\t// in\n    tag_397:\n        /* \"#utility.yul\":14592:14924   */\n      swap4\n      swap3\n      pop\n      pop\n      pop\n      jump\t// out\n        /* \"#utility.yul\":14930:15163   */\n    tag_141:\n        /* \"#utility.yul\":14969:14972   */\n      0x00\n        /* \"#utility.yul\":14992:15016   */\n      tag_399\n        /* \"#utility.yul\":15010:15015   */\n      dup3\n        /* \"#utility.yul\":14992:15016   */\n      tag_224\n      jump\t// in\n    tag_399:\n        /* \"#utility.yul\":14983:15016   */\n      swap2\n      pop\n        /* \"#utility.yul\":15038:15104   */\n      0xffffffffffffffffffffffffffffffffffffffffffffffffffffffffffffffff\n        /* \"#utility.yul\":15031:15036   */\n      dup3\n        /* \"#utility.yul\":15028:15105   */\n      sub\n        /* \"#utility.yul\":15025:15128   */\n      tag_400\n      jumpi\n        /* \"#utility.yul\":15108:15126   */\n      tag_401\n      tag_246\n      jump\t// in\n    tag_401:\n        /* \"#utility.yul\":15025:15128   */\n    tag_400:\n        /* \"#utility.yul\":15155:15156   */\n      0x01\n        /* \"#utility.yul\":15148:15153   */\n      dup3\n        /* \"#utility.yul\":15144:15157   */\n      add\n        /* \"#utility.yul\":15137:15157   */\n      swap1\n      pop\n        /* \"#utility.yul\":14930:15163   */\n      swap2\n      swap1\n      pop\n      jump\t// out\n        /* \"#utility.yul\":15169:15390   */\n    tag_247:\n        /* \"#utility.yul\":15309:15343   */\n      0x43757272656e74205461736b20686173206265656e20636f6d706c6574656421\n        /* \"#utility.yul\":15305:15306   */\n      0x00\n        /* \"#utility.yul\":15297:15303   */\n      dup3\n        /* \"#utility.yul\":15293:15307   */\n      add\n        /* \"#utility.yul\":15286:15344   */\n      mstore\n        /* \"#utility.yul\":15378:15382   */\n      0x2121000000000000000000000000000000000000000000000000000000000000\n        /* \"#utility.yul\":15373:15375   */\n      0x20\n        /* \"#utility.yul\":15365:15371   */\n      dup3\n        /* \"#utility.yul\":15361:15376   */\n      add\n        /* \"#utility.yul\":15354:15383   */\n      mstore\n        /* \"#utility.yul\":15169:15390   */\n      pop\n      jump\t// out\n        /* \"#utility.yul\":15396:15762   */\n    tag_248:\n        /* \"#utility.yul\":15538:15541   */\n      0x00\n        /* \"#utility.yul\":15559:15626   */\n      tag_404\n        /* \"#utility.yul\":15623:15625   */\n      0x22\n        /* \"#utility.yul\":15618:15621   */\n      dup4\n        /* \"#utility.yul\":15559:15626   */\n      tag_213\n      jump\t// in\n    tag_404:\n        /* \"#utility.yul\":15552:15626   */\n      swap2\n      pop\n        /* \"#utility.yul\":15635:15728   */\n      tag_405\n        /* \"#utility.yul\":15724:15727   */\n      dup3\n        /* \"#utility.yul\":15635:15728   */\n      tag_247\n      jump\t// in\n    tag_405:\n        /* \"#utility.yul\":15753:15755   */\n      0x40\n        /* \"#utility.yul\":15748:15751   */\n      dup3\n        /* \"#utility.yul\":15744:15756   */\n      add\n        /* \"#utility.yul\":15737:15756   */\n      swap1\n      pop\n        /* \"#utility.yul\":15396:15762   */\n      swap2\n      swap1\n      pop\n      jump\t// out\n        /* \"#utility.yul\":15768:16187   */\n    tag_148:\n        /* \"#utility.yul\":15934:15938   */\n      0x00\n        /* \"#utility.yul\":15972:15974   */\n      0x20\n        /* \"#utility.yul\":15961:15970   */\n      dup3\n        /* \"#utility.yul\":15957:15975   */\n      add\n        /* \"#utility.yul\":15949:15975   */\n      swap1\n      pop\n        /* \"#utility.yul\":16021:16030   */\n      dup2\n        /* \"#utility.yul\":16015:16019   */\n      dup2\n        /* \"#utility.yul\":16011:16031   */\n      sub\n        /* \"#utility.yul\":16007:16008   */\n      0x00\n        /* \"#utility.yul\":15996:16005   */\n      dup4\n        /* \"#utility.yul\":15992:16009   */\n      add\n        /* \"#utility.yul\":15985:16032   */\n      mstore\n        /* \"#utility.yul\":16049:16180   */\n      tag_407\n        /* \"#utility.yul\":16175:16179   */\n      dup2\n        /* \"#utility.yul\":16049:16180   */\n      tag_248\n      jump\t// in\n    tag_407:\n        /* \"#utility.yul\":16041:16180   */\n      swap1\n      pop\n        /* \"#utility.yul\":15768:16187   */\n      swap2\n      swap1\n      pop\n      jump\t// out\n        /* \"#utility.yul\":16193:16371   */\n    tag_249:\n        /* \"#utility.yul\":16333:16363   */\n      0x4e6f207375626d697373696f6e20697320726571756972656421212100000000\n        /* \"#utility.yul\":16329:16330   */\n      0x00\n        /* \"#utility.yul\":16321:16327   */\n      dup3\n        /* \"#utility.yul\":16317:16331   */\n      add\n        /* \"#utility.yul\":16310:16364   */\n      mstore\n        /* \"#utility.yul\":16193:16371   */\n      pop\n      jump\t// out\n        /* \"#utility.yul\":16377:16743   */\n    tag_250:\n        /* \"#utility.yul\":16519:16522   */\n      0x00\n        /* \"#utility.yul\":16540:16607   */\n      tag_410\n        /* \"#utility.yul\":16604:16606   */\n      0x1c\n        /* \"#utility.yul\":16599:16602   */\n      dup4\n        /* \"#utility.yul\":16540:16607   */\n      tag_213\n      jump\t// in\n    tag_410:\n        /* \"#utility.yul\":16533:16607   */\n      swap2\n      pop\n        /* \"#utility.yul\":16616:16709   */\n      tag_411\n        /* \"#utility.yul\":16705:16708   */\n      dup3\n        /* \"#utility.yul\":16616:16709   */\n      tag_249\n      jump\t// in\n    tag_411:\n        /* \"#utility.yul\":16734:16736   */\n      0x20\n        /* \"#utility.yul\":16729:16732   */\n      dup3\n        /* \"#utility.yul\":16725:16737   */\n      add\n        /* \"#utility.yul\":16718:16737   */\n      swap1\n      pop\n        /* \"#utility.yul\":16377:16743   */\n      swap2\n      swap1\n      pop\n      jump\t// out\n        /* \"#utility.yul\":16749:17168   */\n    tag_151:\n        /* \"#utility.yul\":16915:16919   */\n      0x00\n        /* \"#utility.yul\":16953:16955   */\n      0x20\n        /* \"#utility.yul\":16942:16951   */\n      dup3\n        /* \"#utility.yul\":16938:16956   */\n      add\n        /* \"#utility.yul\":16930:16956   */\n      swap1\n      pop\n        /* \"#utility.yul\":17002:17011   */\n      dup2\n        /* \"#utility.yul\":16996:17000   */\n      dup2\n        /* \"#utility.yul\":16992:17012   */\n      sub\n        /* \"#utility.yul\":16988:16989   */\n      0x00\n        /* \"#utility.yul\":16977:16986   */\n      dup4\n        /* \"#utility.yul\":16973:16990   */\n      add\n        /* \"#utility.yul\":16966:17013   */\n      mstore\n        /* \"#utility.yul\":17030:17161   */\n      tag_413\n        /* \"#utility.yul\":17156:17160   */\n      dup2\n        /* \"#utility.yul\":17030:17161   */\n      tag_250\n      jump\t// in\n    tag_413:\n        /* \"#utility.yul\":17022:17161   */\n      swap1\n      pop\n        /* \"#utility.yul\":16749:17168   */\n      swap2\n      swap1\n      pop\n      jump\t// out\n        /* \"#utility.yul\":17174:17401   */\n    tag_251:\n        /* \"#utility.yul\":17314:17348   */\n      0x5461736b20506f7374657220616e64205375626d697474657220697320746865\n        /* \"#utility.yul\":17310:17311   */\n      0x00\n        /* \"#utility.yul\":17302:17308   */\n      dup3\n        /* \"#utility.yul\":17298:17312   */\n      add\n        /* \"#utility.yul\":17291:17349   */\n      mstore\n        /* \"#utility.yul\":17383:17393   */\n      0x2073616d65212121000000000000000000000000000000000000000000000000\n        /* \"#utility.yul\":17378:17380   */\n      0x20\n        /* \"#utility.yul\":17370:17376   */\n      dup3\n        /* \"#utility.yul\":17366:17381   */\n      add\n        /* \"#utility.yul\":17359:17394   */\n      mstore\n        /* \"#utility.yul\":17174:17401   */\n      pop\n      jump\t// out\n        /* \"#utility.yul\":17407:17773   */\n    tag_252:\n        /* \"#utility.yul\":17549:17552   */\n      0x00\n        /* \"#utility.yul\":17570:17637   */\n      tag_416\n        /* \"#utility.yul\":17634:17636   */\n      0x28\n        /* \"#utility.yul\":17629:17632   */\n      dup4\n        /* \"#utility.yul\":17570:17637   */\n      tag_213\n      jump\t// in\n    tag_416:\n        /* \"#utility.yul\":17563:17637   */\n      swap2\n      pop\n        /* \"#utility.yul\":17646:17739   */\n      tag_417\n        /* \"#utility.yul\":17735:17738   */\n      dup3\n        /* \"#utility.yul\":17646:17739   */\n      tag_251\n      jump\t// in\n    tag_417:\n        /* \"#utility.yul\":17764:17766   */\n      0x40\n        /* \"#utility.yul\":17759:17762   */\n      dup3\n        /* \"#utility.yul\":17755:17767   */\n      add\n        /* \"#utility.yul\":17748:17767   */\n      swap1\n      pop\n        /* \"#utility.yul\":17407:17773   */\n      swap2\n      swap1\n      pop\n      jump\t// out\n        /* \"#utility.yul\":17779:18198   */\n    tag_154:\n        /* \"#utility.yul\":17945:17949   */\n      0x00\n        /* \"#utility.yul\":17983:17985   */\n      0x20\n        /* \"#utility.yul\":17972:17981   */\n      dup3\n        /* \"#utility.yul\":17968:17986   */\n      add\n        /* \"#utility.yul\":17960:17986   */\n      swap1\n      pop\n        /* \"#utility.yul\":18032:18041   */\n      dup2\n        /* \"#utility.yul\":18026:18030   */\n      dup2\n        /* \"#utility.yul\":18022:18042   */\n      sub\n        /* \"#utility.yul\":18018:18019   */\n      0x00\n        /* \"#utility.yul\":18007:18016   */\n      dup4\n        /* \"#utility.yul\":18003:18020   */\n      add\n        /* \"#utility.yul\":17996:18043   */\n      mstore\n        /* \"#utility.yul\":18060:18191   */\n      tag_419\n        /* \"#utility.yul\":18186:18190   */\n      dup2\n        /* \"#utility.yul\":18060:18191   */\n      tag_252\n      jump\t// in\n    tag_419:\n        /* \"#utility.yul\":18052:18191   */\n      swap1\n      pop\n        /* \"#utility.yul\":17779:18198   */\n      swap2\n      swap1\n      pop\n      jump\t// out\n        /* \"#utility.yul\":18204:18444   */\n    tag_253:\n        /* \"#utility.yul\":18344:18378   */\n      0x52657761726420686173206265656e2072656c656173656420666f7220746865\n        /* \"#utility.yul\":18340:18341   */\n      0x00\n        /* \"#utility.yul\":18332:18338   */\n      dup3\n        /* \"#utility.yul\":18328:18342   */\n      add\n        /* \"#utility.yul\":18321:18379   */\n      mstore\n        /* \"#utility.yul\":18413:18436   */\n      0x2063757272656e74207375626d69747465722121210000000000000000000000\n        /* \"#utility.yul\":18408:18410   */\n      0x20\n        /* \"#utility.yul\":18400:18406   */\n      dup3\n        /* \"#utility.yul\":18396:18411   */\n      add\n        /* \"#utility.yul\":18389:18437   */\n      mstore\n        /* \"#utility.yul\":18204:18444   */\n      pop\n      jump\t// out\n        /* \"#utility.yul\":18450:18816   */\n    tag_254:\n        /* \"#utility.yul\":18592:18595   */\n      0x00\n        /* \"#utility.yul\":18613:18680   */\n      tag_422\n        /* \"#utility.yul\":18677:18679   */\n      0x35\n        /* \"#utility.yul\":18672:18675   */\n      dup4\n        /* \"#utility.yul\":18613:18680   */\n      tag_213\n      jump\t// in\n    tag_422:\n        /* \"#utility.yul\":18606:18680   */\n      swap2\n      pop\n        /* \"#utility.yul\":18689:18782   */\n      tag_423\n        /* \"#utility.yul\":18778:18781   */\n      dup3\n        /* \"#utility.yul\":18689:18782   */\n      tag_253\n      jump\t// in\n    tag_423:\n        /* \"#utility.yul\":18807:18809   */\n      0x40\n        /* \"#utility.yul\":18802:18805   */\n      dup3\n        /* \"#utility.yul\":18798:18810   */\n      add\n        /* \"#utility.yul\":18791:18810   */\n      swap1\n      pop\n        /* \"#utility.yul\":18450:18816   */\n      swap2\n      swap1\n      pop\n      jump\t// out\n        /* \"#utility.yul\":18822:19241   */\n    tag_157:\n        /* \"#utility.yul\":18988:18992   */\n      0x00\n        /* \"#utility.yul\":19026:19028   */\n      0x20\n        /* \"#utility.yul\":19015:19024   */\n      dup3\n        /* \"#utility.yul\":19011:19029   */\n      add\n        /* \"#utility.yul\":19003:19029   */\n      swap1\n      pop\n        /* \"#utility.yul\":19075:19084   */\n      dup2\n        /* \"#utility.yul\":19069:19073   */\n      dup2\n        /* \"#utility.yul\":19065:19085   */\n      sub\n        /* \"#utility.yul\":19061:19062   */\n      0x00\n        /* \"#utility.yul\":19050:19059   */\n      dup4\n        /* \"#utility.yul\":19046:19063   */\n      add\n        /* \"#utility.yul\":19039:19086   */\n      mstore\n        /* \"#utility.yul\":19103:19234   */\n      tag_425\n        /* \"#utility.yul\":19229:19233   */\n      dup2\n        /* \"#utility.yul\":19103:19234   */\n      tag_254\n      jump\t// in\n    tag_425:\n        /* \"#utility.yul\":19095:19234   */\n      swap1\n      pop\n        /* \"#utility.yul\":18822:19241   */\n      swap2\n      swap1\n      pop\n      jump\t// out\n        /* \"#utility.yul\":19247:19441   */\n    tag_159:\n        /* \"#utility.yul\":19287:19291   */\n      0x00\n        /* \"#utility.yul\":19307:19327   */\n      tag_427\n        /* \"#utility.yul\":19325:19326   */\n      dup3\n        /* \"#utility.yul\":19307:19327   */\n      tag_224\n      jump\t// in\n    tag_427:\n        /* \"#utility.yul\":19302:19327   */\n      swap2\n      pop\n        /* \"#utility.yul\":19341:19361   */\n      tag_428\n        /* \"#utility.yul\":19359:19360   */\n      dup4\n        /* \"#utility.yul\":19341:19361   */\n      tag_224\n      jump\t// in\n    tag_428:\n        /* \"#utility.yul\":19336:19361   */\n      swap3\n      pop\n        /* \"#utility.yul\":19385:19386   */\n      dup3\n        /* \"#utility.yul\":19382:19383   */\n      dup3\n        /* \"#utility.yul\":19378:19387   */\n      sub\n        /* \"#utility.yul\":19370:19387   */\n      swap1\n      pop\n        /* \"#utility.yul\":19409:19410   */\n      dup2\n        /* \"#utility.yul\":19403:19407   */\n      dup2\n        /* \"#utility.yul\":19400:19411   */\n      gt\n        /* \"#utility.yul\":19397:19434   */\n      iszero\n      tag_429\n      jumpi\n        /* \"#utility.yul\":19414:19432   */\n      tag_430\n      tag_246\n      jump\t// in\n    tag_430:\n        /* \"#utility.yul\":19397:19434   */\n    tag_429:\n        /* \"#utility.yul\":19247:19441   */\n      swap3\n      swap2\n      pop\n      pop\n      jump\t// out\n        /* \"#utility.yul\":19447:19889   */\n    tag_182:\n        /* \"#utility.yul\":19596:19600   */\n      0x00\n        /* \"#utility.yul\":19634:19636   */\n      0x60\n        /* \"#utility.yul\":19623:19632   */\n      dup3\n        /* \"#utility.yul\":19619:19637   */\n      add\n        /* \"#utility.yul\":19611:19637   */\n      swap1\n      pop\n        /* \"#utility.yul\":19647:19718   */\n      tag_432\n        /* \"#utility.yul\":19715:19716   */\n      0x00\n        /* \"#utility.yul\":19704:19713   */\n      dup4\n        /* \"#utility.yul\":19700:19717   */\n      add\n        /* \"#utility.yul\":19691:19697   */\n      dup7\n        /* \"#utility.yul\":19647:19718   */\n      tag_229\n      jump\t// in\n    tag_432:\n        /* \"#utility.yul\":19728:19800   */\n      tag_433\n        /* \"#utility.yul\":19796:19798   */\n      0x20\n        /* \"#utility.yul\":19785:19794   */\n      dup4\n        /* \"#utility.yul\":19781:19799   */\n      add\n        /* \"#utility.yul\":19772:19778   */\n      dup6\n        /* \"#utility.yul\":19728:19800   */\n      tag_230\n      jump\t// in\n    tag_433:\n        /* \"#utility.yul\":19810:19882   */\n      tag_434\n        /* \"#utility.yul\":19878:19880   */\n      0x40\n        /* \"#utility.yul\":19867:19876   */\n      dup4\n        /* \"#utility.yul\":19863:19881   */\n      add\n        /* \"#utility.yul\":19854:19860   */\n      dup5\n        /* \"#utility.yul\":19810:19882   */\n      tag_230\n      jump\t// in\n    tag_434:\n        /* \"#utility.yul\":19447:19889   */\n      swap5\n      swap4\n      pop\n      pop\n      pop\n      pop\n      jump\t// out\n        /* \"#utility.yul\":19895:20117   */\n    tag_187:\n        /* \"#utility.yul\":19988:19992   */\n      0x00\n        /* \"#utility.yul\":20026:20028   */\n      0x20\n        /* \"#utility.yul\":20015:20024   */\n      dup3\n        /* \"#utility.yul\":20011:20029   */\n      add\n        /* \"#utility.yul\":20003:20029   */\n      swap1\n      pop\n        /* \"#utility.yul\":20039:20110   */\n      tag_436\n        /* \"#utility.yul\":20107:20108   */\n      0x00\n        /* \"#utility.yul\":20096:20105   */\n      dup4\n        /* \"#utility.yul\":20092:20109   */\n      add\n        /* \"#utility.yul\":20083:20089   */\n      dup5\n        /* \"#utility.yul\":20039:20110   */\n      tag_229\n      jump\t// in\n    tag_436:\n        /* \"#utility.yul\":19895:20117   */\n      swap3\n      swap2\n      pop\n      pop\n      jump\t// out\n\n    auxdata: 0xa2646970667358221220f9e69d45e7bae3e5e6b61513fb3531f567366fc3841f4f6a1382a7d9dbbdeea064736f6c634300081a0033\n}\n",
				"bytecode": {
					"linkReferences": {},
					"object": "60806040525f600555348015610013575f80fd5b506040518060400160405280601281526020017f43726f7764736f757263696e67546f6b656e00000000000000000000000000008152506040518060400160405280600381526020017f4353540000000000000000000000000000000000000000000000000000000000815250816003908161008f91906102e1565b50806004908161009f91906102e1565b5050506103b0565b5f81519050919050565b7f4e487b71000000000000000000000000000000000000000000000000000000005f52604160045260245ffd5b7f4e487b71000000000000000000000000000000000000000000000000000000005f52602260045260245ffd5b5f600282049050600182168061012257607f821691505b602082108103610135576101346100de565b5b50919050565b5f819050815f5260205f209050919050565b5f6020601f8301049050919050565b5f82821b905092915050565b5f600883026101977fffffffffffffffffffffffffffffffffffffffffffffffffffffffffffffffff8261015c565b6101a1868361015c565b95508019841693508086168417925050509392505050565b5f819050919050565b5f819050919050565b5f6101e56101e06101db846101b9565b6101c2565b6101b9565b9050919050565b5f819050919050565b6101fe836101cb565b61021261020a826101ec565b848454610168565b825550505050565b5f90565b61022661021a565b6102318184846101f5565b505050565b5b81811015610254576102495f8261021e565b600181019050610237565b5050565b601f8211156102995761026a8161013b565b6102738461014d565b81016020851015610282578190505b61029661028e8561014d565b830182610236565b50505b505050565b5f82821c905092915050565b5f6102b95f198460080261029e565b1980831691505092915050565b5f6102d183836102aa565b9150826002028217905092915050565b6102ea826100a7565b67ffffffffffffffff811115610303576103026100b1565b5b61030d825461010b565b610318828285610258565b5f60209050601f831160018114610349575f8415610337578287015190505b61034185826102c6565b8655506103a8565b601f1984166103578661013b565b5f5b8281101561037e57848901518255600182019150602085019450602081019050610359565b8683101561039b5784890151610397601f8916826102aa565b8355505b6001600288020188555050505b505050505050565b611d40806103bd5f395ff3fe608060405234801561000f575f80fd5b50600436106100e8575f3560e01c8063313ce5671161008a57806395d89b411161006457806395d89b4114610274578063a9059cbb14610292578063dd62ed3e146102c2578063fdc3d8d7146102f2576100e8565b8063313ce5671461020a57806351a71b171461022857806370a0823114610244576100e8565b806318160ddd116100c657806318160ddd1461016d5780631d65e77e1461018b57806323b872dd146101be578063257baa3a146101ee576100e8565b806306fdde03146100ec578063095ea7b31461010a5780630b7879aa1461013a575b5f80fd5b6100f4610310565b60405161010191906112f2565b60405180910390f35b610124600480360381019061011f91906113a7565b6103a0565b60405161013191906113ff565b60405180910390f35b610154600480360381019061014f9190611418565b6103c2565b6040516101649493929190611461565b60405180910390f35b610175610419565b60405161018291906114a4565b60405180910390f35b6101a560048036038101906101a09190611418565b610422565b6040516101b594939291906114bd565b60405180910390f35b6101d860048036038101906101d39190611500565b610488565b6040516101e591906113ff565b60405180910390f35b610208600480360381019061020391906115b1565b6104b6565b005b610212610805565b60405161021f919061164a565b60405180910390f35b610242600480360381019061023d9190611418565b61080d565b005b61025e60048036038101906102599190611663565b610b01565b60405161026b91906114a4565b60405180910390f35b61027c610b46565b60405161028991906112f2565b60405180910390f35b6102ac60048036038101906102a791906113a7565b610bd6565b6040516102b991906113ff565b60405180910390f35b6102dc60048036038101906102d7919061168e565b610bf8565b6040516102e991906114a4565b60405180910390f35b6102fa610c7a565b60405161030791906114a4565b60405180910390f35b60606003805461031f906116f9565b80601f016020809104026020016040519081016040528092919081815260200182805461034b906116f9565b80156103965780601f1061036d57610100808354040283529160200191610396565b820191905f5260205f20905b81548152906001019060200180831161037957829003601f168201915b5050505050905090565b5f806103aa610c80565b90506103b7818585610c87565b600191505092915050565b6007602052805f5260405f205f91509050805f015f9054906101000a900473ffffffffffffffffffffffffffffffffffffffff1690806001015490806002015490806003015f9054906101000a900460ff16905084565b5f600254905090565b5f805f805f60075f8781526020019081526020015f2090508060010154815f015f9054906101000a900473ffffffffffffffffffffffffffffffffffffffff168260020154836003015f9054906101000a900460ff169450945094509450509193509193565b5f80610492610c80565b905061049f858285610c99565b6104aa858585610d2b565b60019150509392505050565b8181905084849050146104fe576040517f08c379a00000000000000000000000000000000000000000000000000000000081526004016104f590611799565b60405180910390fd5b5f8484905011610543576040517f08c379a000000000000000000000000000000000000000000000000000000000815260040161053a90611827565b60405180910390fd5b5f805b858590508110156107f3575f86868381811061056557610564611845565b5b90506020020135116105ac576040517f08c379a00000000000000000000000000000000000000000000000000000000081526004016105a3906118bc565b60405180910390fd5b5f8484838181106105c0576105bf611845565b5b9050602002013511610607576040517f08c379a00000000000000000000000000000000000000000000000000000000081526004016105fe9061194a565b60405180910390fd5b83838281811061061a57610619611845565b5b9050602002013586868381811061063457610633611845565b5b905060200201356106459190611995565b8261065091906119d6565b915060405180608001604052803373ffffffffffffffffffffffffffffffffffffffff16815260200187878481811061068c5761068b611845565b5b9050602002013581526020018585848181106106ab576106aa611845565b5b9050602002013581526020015f151581525060075f60055481526020019081526020015f205f820151815f015f6101000a81548173ffffffffffffffffffffffffffffffffffffffff021916908373ffffffffffffffffffffffffffffffffffffffff16021790555060208201518160010155604082015181600201556060820151816003015f6101000a81548160ff0219169083151502179055509050506005543373ffffffffffffffffffffffffffffffffffffffff167fffef41c3386c78926fe432f9a2d408f37209532660e385656444e3da578f17d688888581811061079857610797611845565b5b905060200201358787868181106107b2576107b1611845565b5b905060200201356040516107c7929190611a09565b60405180910390a360055f8154809291906107e190611a30565b91905055508080600101915050610546565b506107fe3382610e1b565b5050505050565b5f6012905090565b5f60075f8381526020019081526020015f209050806003015f9054906101000a900460ff1615610872576040517f08c379a000000000000000000000000000000000000000000000000000000000815260040161086990611ae7565b60405180910390fd5b5f8160020154116108b8576040517f08c379a00000000000000000000000000000000000000000000000000000000081526004016108af90611b4f565b60405180910390fd5b3373ffffffffffffffffffffffffffffffffffffffff16815f015f9054906101000a900473ffffffffffffffffffffffffffffffffffffffff1673ffffffffffffffffffffffffffffffffffffffff1603610948576040517f08c379a000000000000000000000000000000000000000000000000000000000815260040161093f90611bdd565b60405180910390fd5b60065f8381526020019081526020015f205f3373ffffffffffffffffffffffffffffffffffffffff1673ffffffffffffffffffffffffffffffffffffffff1681526020019081526020015f205f9054906101000a900460ff16156109e1576040517f08c379a00000000000000000000000000000000000000000000000000000000081526004016109d890611c6b565b60405180910390fd5b6001816002015f8282546109f59190611c89565b925050819055505f816002015403610a24576001816003015f6101000a81548160ff0219169083151502179055505b610a55815f015f9054906101000a900473ffffffffffffffffffffffffffffffffffffffff16338360010154610d2b565b600160065f8481526020019081526020015f205f3373ffffffffffffffffffffffffffffffffffffffff1673ffffffffffffffffffffffffffffffffffffffff1681526020019081526020015f205f6101000a81548160ff0219169083151502179055503373ffffffffffffffffffffffffffffffffffffffff16827f107f668e128e198cf1077b19274c8dd3008737e858e3445d1176cd1d99951beb60405160405180910390a35050565b5f805f8373ffffffffffffffffffffffffffffffffffffffff1673ffffffffffffffffffffffffffffffffffffffff1681526020019081526020015f20549050919050565b606060048054610b55906116f9565b80601f0160208091040260200160405190810160405280929190818152602001828054610b81906116f9565b8015610bcc5780601f10610ba357610100808354040283529160200191610bcc565b820191905f5260205f20905b815481529060010190602001808311610baf57829003601f168201915b5050505050905090565b5f80610be0610c80565b9050610bed818585610d2b565b600191505092915050565b5f60015f8473ffffffffffffffffffffffffffffffffffffffff1673ffffffffffffffffffffffffffffffffffffffff1681526020019081526020015f205f8373ffffffffffffffffffffffffffffffffffffffff1673ffffffffffffffffffffffffffffffffffffffff1681526020019081526020015f2054905092915050565b60055481565b5f33905090565b610c948383836001610e9a565b505050565b5f610ca48484610bf8565b90507fffffffffffffffffffffffffffffffffffffffffffffffffffffffffffffffff8114610d255781811015610d16578281836040517ffb8f41b2000000000000000000000000000000000000000000000000000000008152600401610d0d93929190611cbc565b60405180910390fd5b610d2484848484035f610e9a565b5b50505050565b5f73ffffffffffffffffffffffffffffffffffffffff168373ffffffffffffffffffffffffffffffffffffffff1603610d9b575f6040517f96c6fd1e000000000000000000000000000000000000000000000000000000008152600401610d929190611cf1565b60405180910390fd5b5f73ffffffffffffffffffffffffffffffffffffffff168273ffffffffffffffffffffffffffffffffffffffff1603610e0b575f6040517fec442f05000000000000000000000000000000000000000000000000000000008152600401610e029190611cf1565b60405180910390fd5b610e16838383611069565b505050565b5f73ffffffffffffffffffffffffffffffffffffffff168273ffffffffffffffffffffffffffffffffffffffff1603610e8b575f6040517fec442f05000000000000000000000000000000000000000000000000000000008152600401610e829190611cf1565b60405180910390fd5b610e965f8383611069565b5050565b5f73ffffffffffffffffffffffffffffffffffffffff168473ffffffffffffffffffffffffffffffffffffffff1603610f0a575f6040517fe602df05000000000000000000000000000000000000000000000000000000008152600401610f019190611cf1565b60405180910390fd5b5f73ffffffffffffffffffffffffffffffffffffffff168373ffffffffffffffffffffffffffffffffffffffff1603610f7a575f6040517f94280d62000000000000000000000000000000000000000000000000000000008152600401610f719190611cf1565b60405180910390fd5b8160015f8673ffffffffffffffffffffffffffffffffffffffff1673ffffffffffffffffffffffffffffffffffffffff1681526020019081526020015f205f8573ffffffffffffffffffffffffffffffffffffffff1673ffffffffffffffffffffffffffffffffffffffff1681526020019081526020015f20819055508015611063578273ffffffffffffffffffffffffffffffffffffffff168473ffffffffffffffffffffffffffffffffffffffff167f8c5be1e5ebec7d5bd14f71427d1e84f3dd0314c0f7b2291e5b200ac8c7c3b9258460405161105a91906114a4565b60405180910390a35b50505050565b5f73ffffffffffffffffffffffffffffffffffffffff168373ffffffffffffffffffffffffffffffffffffffff16036110b9578060025f8282546110ad91906119d6565b92505081905550611187565b5f805f8573ffffffffffffffffffffffffffffffffffffffff1673ffffffffffffffffffffffffffffffffffffffff1681526020019081526020015f2054905081811015611142578381836040517fe450d38c00000000000000000000000000000000000000000000000000000000815260040161113993929190611cbc565b60405180910390fd5b8181035f808673ffffffffffffffffffffffffffffffffffffffff1673ffffffffffffffffffffffffffffffffffffffff1681526020019081526020015f2081905550505b5f73ffffffffffffffffffffffffffffffffffffffff168273ffffffffffffffffffffffffffffffffffffffff16036111ce578060025f8282540392505081905550611218565b805f808473ffffffffffffffffffffffffffffffffffffffff1673ffffffffffffffffffffffffffffffffffffffff1681526020019081526020015f205f82825401925050819055505b8173ffffffffffffffffffffffffffffffffffffffff168373ffffffffffffffffffffffffffffffffffffffff167fddf252ad1be2c89b69c2b068fc378daa952ba7f163c4a11628f55a4df523b3ef8360405161127591906114a4565b60405180910390a3505050565b5f81519050919050565b5f82825260208201905092915050565b8281835e5f83830152505050565b5f601f19601f8301169050919050565b5f6112c482611282565b6112ce818561128c565b93506112de81856020860161129c565b6112e7816112aa565b840191505092915050565b5f6020820190508181035f83015261130a81846112ba565b905092915050565b5f80fd5b5f80fd5b5f73ffffffffffffffffffffffffffffffffffffffff82169050919050565b5f6113438261131a565b9050919050565b61135381611339565b811461135d575f80fd5b50565b5f8135905061136e8161134a565b92915050565b5f819050919050565b61138681611374565b8114611390575f80fd5b50565b5f813590506113a18161137d565b92915050565b5f80604083850312156113bd576113bc611312565b5b5f6113ca85828601611360565b92505060206113db85828601611393565b9150509250929050565b5f8115159050919050565b6113f9816113e5565b82525050565b5f6020820190506114125f8301846113f0565b92915050565b5f6020828403121561142d5761142c611312565b5b5f61143a84828501611393565b91505092915050565b61144c81611339565b82525050565b61145b81611374565b82525050565b5f6080820190506114745f830187611443565b6114816020830186611452565b61148e6040830185611452565b61149b60608301846113f0565b95945050505050565b5f6020820190506114b75f830184611452565b92915050565b5f6080820190506114d05f830187611452565b6114dd6020830186611443565b6114ea6040830185611452565b6114f760608301846113f0565b95945050505050565b5f805f6060848603121561151757611516611312565b5b5f61152486828701611360565b935050602061153586828701611360565b925050604061154686828701611393565b9150509250925092565b5f80fd5b5f80fd5b5f80fd5b5f8083601f84011261157157611570611550565b5b8235905067ffffffffffffffff81111561158e5761158d611554565b5b6020830191508360208202830111156115aa576115a9611558565b5b9250929050565b5f805f80604085870312156115c9576115c8611312565b5b5f85013567ffffffffffffffff8111156115e6576115e5611316565b5b6115f28782880161155c565b9450945050602085013567ffffffffffffffff81111561161557611614611316565b5b6116218782880161155c565b925092505092959194509250565b5f60ff82169050919050565b6116448161162f565b82525050565b5f60208201905061165d5f83018461163b565b92915050565b5f6020828403121561167857611677611312565b5b5f61168584828501611360565b91505092915050565b5f80604083850312156116a4576116a3611312565b5b5f6116b185828601611360565b92505060206116c285828601611360565b9150509250929050565b7f4e487b71000000000000000000000000000000000000000000000000000000005f52602260045260245ffd5b5f600282049050600182168061171057607f821691505b602082108103611723576117226116cc565b5b50919050565b7f546865206c656e677468206f66205461736b7320616e642052657169726564205f8201527f54696d657320646f6e2774206d61746368212121000000000000000000000000602082015250565b5f61178360348361128c565b915061178e82611729565b604082019050919050565b5f6020820190508181035f8301526117b081611777565b9050919050565b7f4174206c656173742068617665206f6e65207461736b20616e642072657169725f8201527f65642074696d6573212121000000000000000000000000000000000000000000602082015250565b5f611811602b8361128c565b915061181c826117b7565b604082019050919050565b5f6020820190508181035f83015261183e81611805565b9050919050565b7f4e487b71000000000000000000000000000000000000000000000000000000005f52603260045260245ffd5b7f526577617264206d75737420626520706f7369747665212121000000000000005f82015250565b5f6118a660198361128c565b91506118b182611872565b602082019050919050565b5f6020820190508181035f8301526118d38161189a565b9050919050565b7f5265717569726564205375626d697373696f6e206d75737420626520706f73745f8201527f6976652121210000000000000000000000000000000000000000000000000000602082015250565b5f61193460268361128c565b915061193f826118da565b604082019050919050565b5f6020820190508181035f83015261196181611928565b9050919050565b7f4e487b71000000000000000000000000000000000000000000000000000000005f52601160045260245ffd5b5f61199f82611374565b91506119aa83611374565b92508282026119b881611374565b915082820484148315176119cf576119ce611968565b5b5092915050565b5f6119e082611374565b91506119eb83611374565b9250828201905080821115611a0357611a02611968565b5b92915050565b5f604082019050611a1c5f830185611452565b611a296020830184611452565b9392505050565b5f611a3a82611374565b91507fffffffffffffffffffffffffffffffffffffffffffffffffffffffffffffffff8203611a6c57611a6b611968565b5b600182019050919050565b7f43757272656e74205461736b20686173206265656e20636f6d706c65746564215f8201527f2121000000000000000000000000000000000000000000000000000000000000602082015250565b5f611ad160228361128c565b9150611adc82611a77565b604082019050919050565b5f6020820190508181035f830152611afe81611ac5565b9050919050565b7f4e6f207375626d697373696f6e206973207265717569726564212121000000005f82015250565b5f611b39601c8361128c565b9150611b4482611b05565b602082019050919050565b5f6020820190508181035f830152611b6681611b2d565b9050919050565b7f5461736b20506f7374657220616e64205375626d6974746572206973207468655f8201527f2073616d65212121000000000000000000000000000000000000000000000000602082015250565b5f611bc760288361128c565b9150611bd282611b6d565b604082019050919050565b5f6020820190508181035f830152611bf481611bbb565b9050919050565b7f52657761726420686173206265656e2072656c656173656420666f72207468655f8201527f2063757272656e74207375626d69747465722121210000000000000000000000602082015250565b5f611c5560358361128c565b9150611c6082611bfb565b604082019050919050565b5f6020820190508181035f830152611c8281611c49565b9050919050565b5f611c9382611374565b9150611c9e83611374565b9250828203905081811115611cb657611cb5611968565b5b92915050565b5f606082019050611ccf5f830186611443565b611cdc6020830185611452565b611ce96040830184611452565b949350505050565b5f602082019050611d045f830184611443565b9291505056fea2646970667358221220f9e69d45e7bae3e5e6b61513fb3531f567366fc3841f4f6a1382a7d9dbbdeea064736f6c634300081a0033",
					"opcodes": "PUSH1 0x80 PUSH1 0x40 MSTORE PUSH0 PUSH1 0x5 SSTORE CALLVALUE DUP1 ISZERO PUSH2 0x13 JUMPI PUSH0 DUP1 REVERT JUMPDEST POP PUSH1 0x40 MLOAD DUP1 PUSH1 0x40 ADD PUSH1 0x40 MSTORE DUP1 PUSH1 0x12 DUP2 MSTORE PUSH1 0x20 ADD PUSH32 0x43726F7764736F757263696E67546F6B656E0000000000000000000000000000 DUP2 MSTORE POP PUSH1 0x40 MLOAD DUP1 PUSH1 0x40 ADD PUSH1 0x40 MSTORE DUP1 PUSH1 0x3 DUP2 MSTORE PUSH1 0x20 ADD PUSH32 0x4353540000000000000000000000000000000000000000000000000000000000 DUP2 MSTORE POP DUP2 PUSH1 0x3 SWAP1 DUP2 PUSH2 0x8F SWAP2 SWAP1 PUSH2 0x2E1 JUMP JUMPDEST POP DUP1 PUSH1 0x4 SWAP1 DUP2 PUSH2 0x9F SWAP2 SWAP1 PUSH2 0x2E1 JUMP JUMPDEST POP POP POP PUSH2 0x3B0 JUMP JUMPDEST PUSH0 DUP2 MLOAD SWAP1 POP SWAP2 SWAP1 POP JUMP JUMPDEST PUSH32 0x4E487B7100000000000000000000000000000000000000000000000000000000 PUSH0 MSTORE PUSH1 0x41 PUSH1 0x4 MSTORE PUSH1 0x24 PUSH0 REVERT JUMPDEST PUSH32 0x4E487B7100000000000000000000000000000000000000000000000000000000 PUSH0 MSTORE PUSH1 0x22 PUSH1 0x4 MSTORE PUSH1 0x24 PUSH0 REVERT JUMPDEST PUSH0 PUSH1 0x2 DUP3 DIV SWAP1 POP PUSH1 0x1 DUP3 AND DUP1 PUSH2 0x122 JUMPI PUSH1 0x7F DUP3 AND SWAP2 POP JUMPDEST PUSH1 0x20 DUP3 LT DUP2 SUB PUSH2 0x135 JUMPI PUSH2 0x134 PUSH2 0xDE JUMP JUMPDEST JUMPDEST POP SWAP2 SWAP1 POP JUMP JUMPDEST PUSH0 DUP2 SWAP1 POP DUP2 PUSH0 MSTORE PUSH1 0x20 PUSH0 KECCAK256 SWAP1 POP SWAP2 SWAP1 POP JUMP JUMPDEST PUSH0 PUSH1 0x20 PUSH1 0x1F DUP4 ADD DIV SWAP1 POP SWAP2 SWAP1 POP JUMP JUMPDEST PUSH0 DUP3 DUP3 SHL SWAP1 POP SWAP3 SWAP2 POP POP JUMP JUMPDEST PUSH0 PUSH1 0x8 DUP4 MUL PUSH2 0x197 PUSH32 0xFFFFFFFFFFFFFFFFFFFFFFFFFFFFFFFFFFFFFFFFFFFFFFFFFFFFFFFFFFFFFFFF DUP3 PUSH2 0x15C JUMP JUMPDEST PUSH2 0x1A1 DUP7 DUP4 PUSH2 0x15C JUMP JUMPDEST SWAP6 POP DUP1 NOT DUP5 AND SWAP4 POP DUP1 DUP7 AND DUP5 OR SWAP3 POP POP POP SWAP4 SWAP3 POP POP POP JUMP JUMPDEST PUSH0 DUP2 SWAP1 POP SWAP2 SWAP1 POP JUMP JUMPDEST PUSH0 DUP2 SWAP1 POP SWAP2 SWAP1 POP JUMP JUMPDEST PUSH0 PUSH2 0x1E5 PUSH2 0x1E0 PUSH2 0x1DB DUP5 PUSH2 0x1B9 JUMP JUMPDEST PUSH2 0x1C2 JUMP JUMPDEST PUSH2 0x1B9 JUMP JUMPDEST SWAP1 POP SWAP2 SWAP1 POP JUMP JUMPDEST PUSH0 DUP2 SWAP1 POP SWAP2 SWAP1 POP JUMP JUMPDEST PUSH2 0x1FE DUP4 PUSH2 0x1CB JUMP JUMPDEST PUSH2 0x212 PUSH2 0x20A DUP3 PUSH2 0x1EC JUMP JUMPDEST DUP5 DUP5 SLOAD PUSH2 0x168 JUMP JUMPDEST DUP3 SSTORE POP POP POP POP JUMP JUMPDEST PUSH0 SWAP1 JUMP JUMPDEST PUSH2 0x226 PUSH2 0x21A JUMP JUMPDEST PUSH2 0x231 DUP2 DUP5 DUP5 PUSH2 0x1F5 JUMP JUMPDEST POP POP POP JUMP JUMPDEST JUMPDEST DUP2 DUP2 LT ISZERO PUSH2 0x254 JUMPI PUSH2 0x249 PUSH0 DUP3 PUSH2 0x21E JUMP JUMPDEST PUSH1 0x1 DUP2 ADD SWAP1 POP PUSH2 0x237 JUMP JUMPDEST POP POP JUMP JUMPDEST PUSH1 0x1F DUP3 GT ISZERO PUSH2 0x299 JUMPI PUSH2 0x26A DUP2 PUSH2 0x13B JUMP JUMPDEST PUSH2 0x273 DUP5 PUSH2 0x14D JUMP JUMPDEST DUP2 ADD PUSH1 0x20 DUP6 LT ISZERO PUSH2 0x282 JUMPI DUP2 SWAP1 POP JUMPDEST PUSH2 0x296 PUSH2 0x28E DUP6 PUSH2 0x14D JUMP JUMPDEST DUP4 ADD DUP3 PUSH2 0x236 JUMP JUMPDEST POP POP JUMPDEST POP POP POP JUMP JUMPDEST PUSH0 DUP3 DUP3 SHR SWAP1 POP SWAP3 SWAP2 POP POP JUMP JUMPDEST PUSH0 PUSH2 0x2B9 PUSH0 NOT DUP5 PUSH1 0x8 MUL PUSH2 0x29E JUMP JUMPDEST NOT DUP1 DUP4 AND SWAP2 POP POP SWAP3 SWAP2 POP POP JUMP JUMPDEST PUSH0 PUSH2 0x2D1 DUP4 DUP4 PUSH2 0x2AA JUMP JUMPDEST SWAP2 POP DUP3 PUSH1 0x2 MUL DUP3 OR SWAP1 POP SWAP3 SWAP2 POP POP JUMP JUMPDEST PUSH2 0x2EA DUP3 PUSH2 0xA7 JUMP JUMPDEST PUSH8 0xFFFFFFFFFFFFFFFF DUP2 GT ISZERO PUSH2 0x303 JUMPI PUSH2 0x302 PUSH2 0xB1 JUMP JUMPDEST JUMPDEST PUSH2 0x30D DUP3 SLOAD PUSH2 0x10B JUMP JUMPDEST PUSH2 0x318 DUP3 DUP3 DUP6 PUSH2 0x258 JUMP JUMPDEST PUSH0 PUSH1 0x20 SWAP1 POP PUSH1 0x1F DUP4 GT PUSH1 0x1 DUP2 EQ PUSH2 0x349 JUMPI PUSH0 DUP5 ISZERO PUSH2 0x337 JUMPI DUP3 DUP8 ADD MLOAD SWAP1 POP JUMPDEST PUSH2 0x341 DUP6 DUP3 PUSH2 0x2C6 JUMP JUMPDEST DUP7 SSTORE POP PUSH2 0x3A8 JUMP JUMPDEST PUSH1 0x1F NOT DUP5 AND PUSH2 0x357 DUP7 PUSH2 0x13B JUMP JUMPDEST PUSH0 JUMPDEST DUP3 DUP2 LT ISZERO PUSH2 0x37E JUMPI DUP5 DUP10 ADD MLOAD DUP3 SSTORE PUSH1 0x1 DUP3 ADD SWAP2 POP PUSH1 0x20 DUP6 ADD SWAP5 POP PUSH1 0x20 DUP2 ADD SWAP1 POP PUSH2 0x359 JUMP JUMPDEST DUP7 DUP4 LT ISZERO PUSH2 0x39B JUMPI DUP5 DUP10 ADD MLOAD PUSH2 0x397 PUSH1 0x1F DUP10 AND DUP3 PUSH2 0x2AA JUMP JUMPDEST DUP4 SSTORE POP JUMPDEST PUSH1 0x1 PUSH1 0x2 DUP9 MUL ADD DUP9 SSTORE POP POP POP JUMPDEST POP POP POP POP POP POP JUMP JUMPDEST PUSH2 0x1D40 DUP1 PUSH2 0x3BD PUSH0 CODECOPY PUSH0 RETURN INVALID PUSH1 0x80 PUSH1 0x40 MSTORE CALLVALUE DUP1 ISZERO PUSH2 0xF JUMPI PUSH0 DUP1 REVERT JUMPDEST POP PUSH1 0x4 CALLDATASIZE LT PUSH2 0xE8 JUMPI PUSH0 CALLDATALOAD PUSH1 0xE0 SHR DUP1 PUSH4 0x313CE567 GT PUSH2 0x8A JUMPI DUP1 PUSH4 0x95D89B41 GT PUSH2 0x64 JUMPI DUP1 PUSH4 0x95D89B41 EQ PUSH2 0x274 JUMPI DUP1 PUSH4 0xA9059CBB EQ PUSH2 0x292 JUMPI DUP1 PUSH4 0xDD62ED3E EQ PUSH2 0x2C2 JUMPI DUP1 PUSH4 0xFDC3D8D7 EQ PUSH2 0x2F2 JUMPI PUSH2 0xE8 JUMP JUMPDEST DUP1 PUSH4 0x313CE567 EQ PUSH2 0x20A JUMPI DUP1 PUSH4 0x51A71B17 EQ PUSH2 0x228 JUMPI DUP1 PUSH4 0x70A08231 EQ PUSH2 0x244 JUMPI PUSH2 0xE8 JUMP JUMPDEST DUP1 PUSH4 0x18160DDD GT PUSH2 0xC6 JUMPI DUP1 PUSH4 0x18160DDD EQ PUSH2 0x16D JUMPI DUP1 PUSH4 0x1D65E77E EQ PUSH2 0x18B JUMPI DUP1 PUSH4 0x23B872DD EQ PUSH2 0x1BE JUMPI DUP1 PUSH4 0x257BAA3A EQ PUSH2 0x1EE JUMPI PUSH2 0xE8 JUMP JUMPDEST DUP1 PUSH4 0x6FDDE03 EQ PUSH2 0xEC JUMPI DUP1 PUSH4 0x95EA7B3 EQ PUSH2 0x10A JUMPI DUP1 PUSH4 0xB7879AA EQ PUSH2 0x13A JUMPI JUMPDEST PUSH0 DUP1 REVERT JUMPDEST PUSH2 0xF4 PUSH2 0x310 JUMP JUMPDEST PUSH1 0x40 MLOAD PUSH2 0x101 SWAP2 SWAP1 PUSH2 0x12F2 JUMP JUMPDEST PUSH1 0x40 MLOAD DUP1 SWAP2 SUB SWAP1 RETURN JUMPDEST PUSH2 0x124 PUSH1 0x4 DUP1 CALLDATASIZE SUB DUP2 ADD SWAP1 PUSH2 0x11F SWAP2 SWAP1 PUSH2 0x13A7 JUMP JUMPDEST PUSH2 0x3A0 JUMP JUMPDEST PUSH1 0x40 MLOAD PUSH2 0x131 SWAP2 SWAP1 PUSH2 0x13FF JUMP JUMPDEST PUSH1 0x40 MLOAD DUP1 SWAP2 SUB SWAP1 RETURN JUMPDEST PUSH2 0x154 PUSH1 0x4 DUP1 CALLDATASIZE SUB DUP2 ADD SWAP1 PUSH2 0x14F SWAP2 SWAP1 PUSH2 0x1418 JUMP JUMPDEST PUSH2 0x3C2 JUMP JUMPDEST PUSH1 0x40 MLOAD PUSH2 0x164 SWAP5 SWAP4 SWAP3 SWAP2 SWAP1 PUSH2 0x1461 JUMP JUMPDEST PUSH1 0x40 MLOAD DUP1 SWAP2 SUB SWAP1 RETURN JUMPDEST PUSH2 0x175 PUSH2 0x419 JUMP JUMPDEST PUSH1 0x40 MLOAD PUSH2 0x182 SWAP2 SWAP1 PUSH2 0x14A4 JUMP JUMPDEST PUSH1 0x40 MLOAD DUP1 SWAP2 SUB SWAP1 RETURN JUMPDEST PUSH2 0x1A5 PUSH1 0x4 DUP1 CALLDATASIZE SUB DUP2 ADD SWAP1 PUSH2 0x1A0 SWAP2 SWAP1 PUSH2 0x1418 JUMP JUMPDEST PUSH2 0x422 JUMP JUMPDEST PUSH1 0x40 MLOAD PUSH2 0x1B5 SWAP5 SWAP4 SWAP3 SWAP2 SWAP1 PUSH2 0x14BD JUMP JUMPDEST PUSH1 0x40 MLOAD DUP1 SWAP2 SUB SWAP1 RETURN JUMPDEST PUSH2 0x1D8 PUSH1 0x4 DUP1 CALLDATASIZE SUB DUP2 ADD SWAP1 PUSH2 0x1D3 SWAP2 SWAP1 PUSH2 0x1500 JUMP JUMPDEST PUSH2 0x488 JUMP JUMPDEST PUSH1 0x40 MLOAD PUSH2 0x1E5 SWAP2 SWAP1 PUSH2 0x13FF JUMP JUMPDEST PUSH1 0x40 MLOAD DUP1 SWAP2 SUB SWAP1 RETURN JUMPDEST PUSH2 0x208 PUSH1 0x4 DUP1 CALLDATASIZE SUB DUP2 ADD SWAP1 PUSH2 0x203 SWAP2 SWAP1 PUSH2 0x15B1 JUMP JUMPDEST PUSH2 0x4B6 JUMP JUMPDEST STOP JUMPDEST PUSH2 0x212 PUSH2 0x805 JUMP JUMPDEST PUSH1 0x40 MLOAD PUSH2 0x21F SWAP2 SWAP1 PUSH2 0x164A JUMP JUMPDEST PUSH1 0x40 MLOAD DUP1 SWAP2 SUB SWAP1 RETURN JUMPDEST PUSH2 0x242 PUSH1 0x4 DUP1 CALLDATASIZE SUB DUP2 ADD SWAP1 PUSH2 0x23D SWAP2 SWAP1 PUSH2 0x1418 JUMP JUMPDEST PUSH2 0x80D JUMP JUMPDEST STOP JUMPDEST PUSH2 0x25E PUSH1 0x4 DUP1 CALLDATASIZE SUB DUP2 ADD SWAP1 PUSH2 0x259 SWAP2 SWAP1 PUSH2 0x1663 JUMP JUMPDEST PUSH2 0xB01 JUMP JUMPDEST PUSH1 0x40 MLOAD PUSH2 0x26B SWAP2 SWAP1 PUSH2 0x14A4 JUMP JUMPDEST PUSH1 0x40 MLOAD DUP1 SWAP2 SUB SWAP1 RETURN JUMPDEST PUSH2 0x27C PUSH2 0xB46 JUMP JUMPDEST PUSH1 0x40 MLOAD PUSH2 0x289 SWAP2 SWAP1 PUSH2 0x12F2 JUMP JUMPDEST PUSH1 0x40 MLOAD DUP1 SWAP2 SUB SWAP1 RETURN JUMPDEST PUSH2 0x2AC PUSH1 0x4 DUP1 CALLDATASIZE SUB DUP2 ADD SWAP1 PUSH2 0x2A7 SWAP2 SWAP1 PUSH2 0x13A7 JUMP JUMPDEST PUSH2 0xBD6 JUMP JUMPDEST PUSH1 0x40 MLOAD PUSH2 0x2B9 SWAP2 SWAP1 PUSH2 0x13FF JUMP JUMPDEST PUSH1 0x40 MLOAD DUP1 SWAP2 SUB SWAP1 RETURN JUMPDEST PUSH2 0x2DC PUSH1 0x4 DUP1 CALLDATASIZE SUB DUP2 ADD SWAP1 PUSH2 0x2D7 SWAP2 SWAP1 PUSH2 0x168E JUMP JUMPDEST PUSH2 0xBF8 JUMP JUMPDEST PUSH1 0x40 MLOAD PUSH2 0x2E9 SWAP2 SWAP1 PUSH2 0x14A4 JUMP JUMPDEST PUSH1 0x40 MLOAD DUP1 SWAP2 SUB SWAP1 RETURN JUMPDEST PUSH2 0x2FA PUSH2 0xC7A JUMP JUMPDEST PUSH1 0x40 MLOAD PUSH2 0x307 SWAP2 SWAP1 PUSH2 0x14A4 JUMP JUMPDEST PUSH1 0x40 MLOAD DUP1 SWAP2 SUB SWAP1 RETURN JUMPDEST PUSH1 0x60 PUSH1 0x3 DUP1 SLOAD PUSH2 0x31F SWAP1 PUSH2 0x16F9 JUMP JUMPDEST DUP1 PUSH1 0x1F ADD PUSH1 0x20 DUP1 SWAP2 DIV MUL PUSH1 0x20 ADD PUSH1 0x40 MLOAD SWAP1 DUP2 ADD PUSH1 0x40 MSTORE DUP1 SWAP3 SWAP2 SWAP1 DUP2 DUP2 MSTORE PUSH1 0x20 ADD DUP3 DUP1 SLOAD PUSH2 0x34B SWAP1 PUSH2 0x16F9 JUMP JUMPDEST DUP1 ISZERO PUSH2 0x396 JUMPI DUP1 PUSH1 0x1F LT PUSH2 0x36D JUMPI PUSH2 0x100 DUP1 DUP4 SLOAD DIV MUL DUP4 MSTORE SWAP2 PUSH1 0x20 ADD SWAP2 PUSH2 0x396 JUMP JUMPDEST DUP3 ADD SWAP2 SWAP1 PUSH0 MSTORE PUSH1 0x20 PUSH0 KECCAK256 SWAP1 JUMPDEST DUP2 SLOAD DUP2 MSTORE SWAP1 PUSH1 0x1 ADD SWAP1 PUSH1 0x20 ADD DUP1 DUP4 GT PUSH2 0x379 JUMPI DUP3 SWAP1 SUB PUSH1 0x1F AND DUP3 ADD SWAP2 JUMPDEST POP POP POP POP POP SWAP1 POP SWAP1 JUMP JUMPDEST PUSH0 DUP1 PUSH2 0x3AA PUSH2 0xC80 JUMP JUMPDEST SWAP1 POP PUSH2 0x3B7 DUP2 DUP6 DUP6 PUSH2 0xC87 JUMP JUMPDEST PUSH1 0x1 SWAP2 POP POP SWAP3 SWAP2 POP POP JUMP JUMPDEST PUSH1 0x7 PUSH1 0x20 MSTORE DUP1 PUSH0 MSTORE PUSH1 0x40 PUSH0 KECCAK256 PUSH0 SWAP2 POP SWAP1 POP DUP1 PUSH0 ADD PUSH0 SWAP1 SLOAD SWAP1 PUSH2 0x100 EXP SWAP1 DIV PUSH20 0xFFFFFFFFFFFFFFFFFFFFFFFFFFFFFFFFFFFFFFFF AND SWAP1 DUP1 PUSH1 0x1 ADD SLOAD SWAP1 DUP1 PUSH1 0x2 ADD SLOAD SWAP1 DUP1 PUSH1 0x3 ADD PUSH0 SWAP1 SLOAD SWAP1 PUSH2 0x100 EXP SWAP1 DIV PUSH1 0xFF AND SWAP1 POP DUP5 JUMP JUMPDEST PUSH0 PUSH1 0x2 SLOAD SWAP1 POP SWAP1 JUMP JUMPDEST PUSH0 DUP1 PUSH0 DUP1 PUSH0 PUSH1 0x7 PUSH0 DUP8 DUP2 MSTORE PUSH1 0x20 ADD SWAP1 DUP2 MSTORE PUSH1 0x20 ADD PUSH0 KECCAK256 SWAP1 POP DUP1 PUSH1 0x1 ADD SLOAD DUP2 PUSH0 ADD PUSH0 SWAP1 SLOAD SWAP1 PUSH2 0x100 EXP SWAP1 DIV PUSH20 0xFFFFFFFFFFFFFFFFFFFFFFFFFFFFFFFFFFFFFFFF AND DUP3 PUSH1 0x2 ADD SLOAD DUP4 PUSH1 0x3 ADD PUSH0 SWAP1 SLOAD SWAP1 PUSH2 0x100 EXP SWAP1 DIV PUSH1 0xFF AND SWAP5 POP SWAP5 POP SWAP5 POP SWAP5 POP POP SWAP2 SWAP4 POP SWAP2 SWAP4 JUMP JUMPDEST PUSH0 DUP1 PUSH2 0x492 PUSH2 0xC80 JUMP JUMPDEST SWAP1 POP PUSH2 0x49F DUP6 DUP3 DUP6 PUSH2 0xC99 JUMP JUMPDEST PUSH2 0x4AA DUP6 DUP6 DUP6 PUSH2 0xD2B JUMP JUMPDEST PUSH1 0x1 SWAP2 POP POP SWAP4 SWAP3 POP POP POP JUMP JUMPDEST DUP2 DUP2 SWAP1 POP DUP5 DUP5 SWAP1 POP EQ PUSH2 0x4FE JUMPI PUSH1 0x40 MLOAD PUSH32 0x8C379A000000000000000000000000000000000000000000000000000000000 DUP2 MSTORE PUSH1 0x4 ADD PUSH2 0x4F5 SWAP1 PUSH2 0x1799 JUMP JUMPDEST PUSH1 0x40 MLOAD DUP1 SWAP2 SUB SWAP1 REVERT JUMPDEST PUSH0 DUP5 DUP5 SWAP1 POP GT PUSH2 0x543 JUMPI PUSH1 0x40 MLOAD PUSH32 0x8C379A000000000000000000000000000000000000000000000000000000000 DUP2 MSTORE PUSH1 0x4 ADD PUSH2 0x53A SWAP1 PUSH2 0x1827 JUMP JUMPDEST PUSH1 0x40 MLOAD DUP1 SWAP2 SUB SWAP1 REVERT JUMPDEST PUSH0 DUP1 JUMPDEST DUP6 DUP6 SWAP1 POP DUP2 LT ISZERO PUSH2 0x7F3 JUMPI PUSH0 DUP7 DUP7 DUP4 DUP2 DUP2 LT PUSH2 0x565 JUMPI PUSH2 0x564 PUSH2 0x1845 JUMP JUMPDEST JUMPDEST SWAP1 POP PUSH1 0x20 MUL ADD CALLDATALOAD GT PUSH2 0x5AC JUMPI PUSH1 0x40 MLOAD PUSH32 0x8C379A000000000000000000000000000000000000000000000000000000000 DUP2 MSTORE PUSH1 0x4 ADD PUSH2 0x5A3 SWAP1 PUSH2 0x18BC JUMP JUMPDEST PUSH1 0x40 MLOAD DUP1 SWAP2 SUB SWAP1 REVERT JUMPDEST PUSH0 DUP5 DUP5 DUP4 DUP2 DUP2 LT PUSH2 0x5C0 JUMPI PUSH2 0x5BF PUSH2 0x1845 JUMP JUMPDEST JUMPDEST SWAP1 POP PUSH1 0x20 MUL ADD CALLDATALOAD GT PUSH2 0x607 JUMPI PUSH1 0x40 MLOAD PUSH32 0x8C379A000000000000000000000000000000000000000000000000000000000 DUP2 MSTORE PUSH1 0x4 ADD PUSH2 0x5FE SWAP1 PUSH2 0x194A JUMP JUMPDEST PUSH1 0x40 MLOAD DUP1 SWAP2 SUB SWAP1 REVERT JUMPDEST DUP4 DUP4 DUP3 DUP2 DUP2 LT PUSH2 0x61A JUMPI PUSH2 0x619 PUSH2 0x1845 JUMP JUMPDEST JUMPDEST SWAP1 POP PUSH1 0x20 MUL ADD CALLDATALOAD DUP7 DUP7 DUP4 DUP2 DUP2 LT PUSH2 0x634 JUMPI PUSH2 0x633 PUSH2 0x1845 JUMP JUMPDEST JUMPDEST SWAP1 POP PUSH1 0x20 MUL ADD CALLDATALOAD PUSH2 0x645 SWAP2 SWAP1 PUSH2 0x1995 JUMP JUMPDEST DUP3 PUSH2 0x650 SWAP2 SWAP1 PUSH2 0x19D6 JUMP JUMPDEST SWAP2 POP PUSH1 0x40 MLOAD DUP1 PUSH1 0x80 ADD PUSH1 0x40 MSTORE DUP1 CALLER PUSH20 0xFFFFFFFFFFFFFFFFFFFFFFFFFFFFFFFFFFFFFFFF AND DUP2 MSTORE PUSH1 0x20 ADD DUP8 DUP8 DUP5 DUP2 DUP2 LT PUSH2 0x68C JUMPI PUSH2 0x68B PUSH2 0x1845 JUMP JUMPDEST JUMPDEST SWAP1 POP PUSH1 0x20 MUL ADD CALLDATALOAD DUP2 MSTORE PUSH1 0x20 ADD DUP6 DUP6 DUP5 DUP2 DUP2 LT PUSH2 0x6AB JUMPI PUSH2 0x6AA PUSH2 0x1845 JUMP JUMPDEST JUMPDEST SWAP1 POP PUSH1 0x20 MUL ADD CALLDATALOAD DUP2 MSTORE PUSH1 0x20 ADD PUSH0 ISZERO ISZERO DUP2 MSTORE POP PUSH1 0x7 PUSH0 PUSH1 0x5 SLOAD DUP2 MSTORE PUSH1 0x20 ADD SWAP1 DUP2 MSTORE PUSH1 0x20 ADD PUSH0 KECCAK256 PUSH0 DUP3 ADD MLOAD DUP2 PUSH0 ADD PUSH0 PUSH2 0x100 EXP DUP2 SLOAD DUP2 PUSH20 0xFFFFFFFFFFFFFFFFFFFFFFFFFFFFFFFFFFFFFFFF MUL NOT AND SWAP1 DUP4 PUSH20 0xFFFFFFFFFFFFFFFFFFFFFFFFFFFFFFFFFFFFFFFF AND MUL OR SWAP1 SSTORE POP PUSH1 0x20 DUP3 ADD MLOAD DUP2 PUSH1 0x1 ADD SSTORE PUSH1 0x40 DUP3 ADD MLOAD DUP2 PUSH1 0x2 ADD SSTORE PUSH1 0x60 DUP3 ADD MLOAD DUP2 PUSH1 0x3 ADD PUSH0 PUSH2 0x100 EXP DUP2 SLOAD DUP2 PUSH1 0xFF MUL NOT AND SWAP1 DUP4 ISZERO ISZERO MUL OR SWAP1 SSTORE POP SWAP1 POP POP PUSH1 0x5 SLOAD CALLER PUSH20 0xFFFFFFFFFFFFFFFFFFFFFFFFFFFFFFFFFFFFFFFF AND PUSH32 0xFFEF41C3386C78926FE432F9A2D408F37209532660E385656444E3DA578F17D6 DUP9 DUP9 DUP6 DUP2 DUP2 LT PUSH2 0x798 JUMPI PUSH2 0x797 PUSH2 0x1845 JUMP JUMPDEST JUMPDEST SWAP1 POP PUSH1 0x20 MUL ADD CALLDATALOAD DUP8 DUP8 DUP7 DUP2 DUP2 LT PUSH2 0x7B2 JUMPI PUSH2 0x7B1 PUSH2 0x1845 JUMP JUMPDEST JUMPDEST SWAP1 POP PUSH1 0x20 MUL ADD CALLDATALOAD PUSH1 0x40 MLOAD PUSH2 0x7C7 SWAP3 SWAP2 SWAP1 PUSH2 0x1A09 JUMP JUMPDEST PUSH1 0x40 MLOAD DUP1 SWAP2 SUB SWAP1 LOG3 PUSH1 0x5 PUSH0 DUP2 SLOAD DUP1 SWAP3 SWAP2 SWAP1 PUSH2 0x7E1 SWAP1 PUSH2 0x1A30 JUMP JUMPDEST SWAP2 SWAP1 POP SSTORE POP DUP1 DUP1 PUSH1 0x1 ADD SWAP2 POP POP PUSH2 0x546 JUMP JUMPDEST POP PUSH2 0x7FE CALLER DUP3 PUSH2 0xE1B JUMP JUMPDEST POP POP POP POP POP JUMP JUMPDEST PUSH0 PUSH1 0x12 SWAP1 POP SWAP1 JUMP JUMPDEST PUSH0 PUSH1 0x7 PUSH0 DUP4 DUP2 MSTORE PUSH1 0x20 ADD SWAP1 DUP2 MSTORE PUSH1 0x20 ADD PUSH0 KECCAK256 SWAP1 POP DUP1 PUSH1 0x3 ADD PUSH0 SWAP1 SLOAD SWAP1 PUSH2 0x100 EXP SWAP1 DIV PUSH1 0xFF AND ISZERO PUSH2 0x872 JUMPI PUSH1 0x40 MLOAD PUSH32 0x8C379A000000000000000000000000000000000000000000000000000000000 DUP2 MSTORE PUSH1 0x4 ADD PUSH2 0x869 SWAP1 PUSH2 0x1AE7 JUMP JUMPDEST PUSH1 0x40 MLOAD DUP1 SWAP2 SUB SWAP1 REVERT JUMPDEST PUSH0 DUP2 PUSH1 0x2 ADD SLOAD GT PUSH2 0x8B8 JUMPI PUSH1 0x40 MLOAD PUSH32 0x8C379A000000000000000000000000000000000000000000000000000000000 DUP2 MSTORE PUSH1 0x4 ADD PUSH2 0x8AF SWAP1 PUSH2 0x1B4F JUMP JUMPDEST PUSH1 0x40 MLOAD DUP1 SWAP2 SUB SWAP1 REVERT JUMPDEST CALLER PUSH20 0xFFFFFFFFFFFFFFFFFFFFFFFFFFFFFFFFFFFFFFFF AND DUP2 PUSH0 ADD PUSH0 SWAP1 SLOAD SWAP1 PUSH2 0x100 EXP SWAP1 DIV PUSH20 0xFFFFFFFFFFFFFFFFFFFFFFFFFFFFFFFFFFFFFFFF AND PUSH20 0xFFFFFFFFFFFFFFFFFFFFFFFFFFFFFFFFFFFFFFFF AND SUB PUSH2 0x948 JUMPI PUSH1 0x40 MLOAD PUSH32 0x8C379A000000000000000000000000000000000000000000000000000000000 DUP2 MSTORE PUSH1 0x4 ADD PUSH2 0x93F SWAP1 PUSH2 0x1BDD JUMP JUMPDEST PUSH1 0x40 MLOAD DUP1 SWAP2 SUB SWAP1 REVERT JUMPDEST PUSH1 0x6 PUSH0 DUP4 DUP2 MSTORE PUSH1 0x20 ADD SWAP1 DUP2 MSTORE PUSH1 0x20 ADD PUSH0 KECCAK256 PUSH0 CALLER PUSH20 0xFFFFFFFFFFFFFFFFFFFFFFFFFFFFFFFFFFFFFFFF AND PUSH20 0xFFFFFFFFFFFFFFFFFFFFFFFFFFFFFFFFFFFFFFFF AND DUP2 MSTORE PUSH1 0x20 ADD SWAP1 DUP2 MSTORE PUSH1 0x20 ADD PUSH0 KECCAK256 PUSH0 SWAP1 SLOAD SWAP1 PUSH2 0x100 EXP SWAP1 DIV PUSH1 0xFF AND ISZERO PUSH2 0x9E1 JUMPI PUSH1 0x40 MLOAD PUSH32 0x8C379A000000000000000000000000000000000000000000000000000000000 DUP2 MSTORE PUSH1 0x4 ADD PUSH2 0x9D8 SWAP1 PUSH2 0x1C6B JUMP JUMPDEST PUSH1 0x40 MLOAD DUP1 SWAP2 SUB SWAP1 REVERT JUMPDEST PUSH1 0x1 DUP2 PUSH1 0x2 ADD PUSH0 DUP3 DUP3 SLOAD PUSH2 0x9F5 SWAP2 SWAP1 PUSH2 0x1C89 JUMP JUMPDEST SWAP3 POP POP DUP2 SWAP1 SSTORE POP PUSH0 DUP2 PUSH1 0x2 ADD SLOAD SUB PUSH2 0xA24 JUMPI PUSH1 0x1 DUP2 PUSH1 0x3 ADD PUSH0 PUSH2 0x100 EXP DUP2 SLOAD DUP2 PUSH1 0xFF MUL NOT AND SWAP1 DUP4 ISZERO ISZERO MUL OR SWAP1 SSTORE POP JUMPDEST PUSH2 0xA55 DUP2 PUSH0 ADD PUSH0 SWAP1 SLOAD SWAP1 PUSH2 0x100 EXP SWAP1 DIV PUSH20 0xFFFFFFFFFFFFFFFFFFFFFFFFFFFFFFFFFFFFFFFF AND CALLER DUP4 PUSH1 0x1 ADD SLOAD PUSH2 0xD2B JUMP JUMPDEST PUSH1 0x1 PUSH1 0x6 PUSH0 DUP5 DUP2 MSTORE PUSH1 0x20 ADD SWAP1 DUP2 MSTORE PUSH1 0x20 ADD PUSH0 KECCAK256 PUSH0 CALLER PUSH20 0xFFFFFFFFFFFFFFFFFFFFFFFFFFFFFFFFFFFFFFFF AND PUSH20 0xFFFFFFFFFFFFFFFFFFFFFFFFFFFFFFFFFFFFFFFF AND DUP2 MSTORE PUSH1 0x20 ADD SWAP1 DUP2 MSTORE PUSH1 0x20 ADD PUSH0 KECCAK256 PUSH0 PUSH2 0x100 EXP DUP2 SLOAD DUP2 PUSH1 0xFF MUL NOT AND SWAP1 DUP4 ISZERO ISZERO MUL OR SWAP1 SSTORE POP CALLER PUSH20 0xFFFFFFFFFFFFFFFFFFFFFFFFFFFFFFFFFFFFFFFF AND DUP3 PUSH32 0x107F668E128E198CF1077B19274C8DD3008737E858E3445D1176CD1D99951BEB PUSH1 0x40 MLOAD PUSH1 0x40 MLOAD DUP1 SWAP2 SUB SWAP1 LOG3 POP POP JUMP JUMPDEST PUSH0 DUP1 PUSH0 DUP4 PUSH20 0xFFFFFFFFFFFFFFFFFFFFFFFFFFFFFFFFFFFFFFFF AND PUSH20 0xFFFFFFFFFFFFFFFFFFFFFFFFFFFFFFFFFFFFFFFF AND DUP2 MSTORE PUSH1 0x20 ADD SWAP1 DUP2 MSTORE PUSH1 0x20 ADD PUSH0 KECCAK256 SLOAD SWAP1 POP SWAP2 SWAP1 POP JUMP JUMPDEST PUSH1 0x60 PUSH1 0x4 DUP1 SLOAD PUSH2 0xB55 SWAP1 PUSH2 0x16F9 JUMP JUMPDEST DUP1 PUSH1 0x1F ADD PUSH1 0x20 DUP1 SWAP2 DIV MUL PUSH1 0x20 ADD PUSH1 0x40 MLOAD SWAP1 DUP2 ADD PUSH1 0x40 MSTORE DUP1 SWAP3 SWAP2 SWAP1 DUP2 DUP2 MSTORE PUSH1 0x20 ADD DUP3 DUP1 SLOAD PUSH2 0xB81 SWAP1 PUSH2 0x16F9 JUMP JUMPDEST DUP1 ISZERO PUSH2 0xBCC JUMPI DUP1 PUSH1 0x1F LT PUSH2 0xBA3 JUMPI PUSH2 0x100 DUP1 DUP4 SLOAD DIV MUL DUP4 MSTORE SWAP2 PUSH1 0x20 ADD SWAP2 PUSH2 0xBCC JUMP JUMPDEST DUP3 ADD SWAP2 SWAP1 PUSH0 MSTORE PUSH1 0x20 PUSH0 KECCAK256 SWAP1 JUMPDEST DUP2 SLOAD DUP2 MSTORE SWAP1 PUSH1 0x1 ADD SWAP1 PUSH1 0x20 ADD DUP1 DUP4 GT PUSH2 0xBAF JUMPI DUP3 SWAP1 SUB PUSH1 0x1F AND DUP3 ADD SWAP2 JUMPDEST POP POP POP POP POP SWAP1 POP SWAP1 JUMP JUMPDEST PUSH0 DUP1 PUSH2 0xBE0 PUSH2 0xC80 JUMP JUMPDEST SWAP1 POP PUSH2 0xBED DUP2 DUP6 DUP6 PUSH2 0xD2B JUMP JUMPDEST PUSH1 0x1 SWAP2 POP POP SWAP3 SWAP2 POP POP JUMP JUMPDEST PUSH0 PUSH1 0x1 PUSH0 DUP5 PUSH20 0xFFFFFFFFFFFFFFFFFFFFFFFFFFFFFFFFFFFFFFFF AND PUSH20 0xFFFFFFFFFFFFFFFFFFFFFFFFFFFFFFFFFFFFFFFF AND DUP2 MSTORE PUSH1 0x20 ADD SWAP1 DUP2 MSTORE PUSH1 0x20 ADD PUSH0 KECCAK256 PUSH0 DUP4 PUSH20 0xFFFFFFFFFFFFFFFFFFFFFFFFFFFFFFFFFFFFFFFF AND PUSH20 0xFFFFFFFFFFFFFFFFFFFFFFFFFFFFFFFFFFFFFFFF AND DUP2 MSTORE PUSH1 0x20 ADD SWAP1 DUP2 MSTORE PUSH1 0x20 ADD PUSH0 KECCAK256 SLOAD SWAP1 POP SWAP3 SWAP2 POP POP JUMP JUMPDEST PUSH1 0x5 SLOAD DUP2 JUMP JUMPDEST PUSH0 CALLER SWAP1 POP SWAP1 JUMP JUMPDEST PUSH2 0xC94 DUP4 DUP4 DUP4 PUSH1 0x1 PUSH2 0xE9A JUMP JUMPDEST POP POP POP JUMP JUMPDEST PUSH0 PUSH2 0xCA4 DUP5 DUP5 PUSH2 0xBF8 JUMP JUMPDEST SWAP1 POP PUSH32 0xFFFFFFFFFFFFFFFFFFFFFFFFFFFFFFFFFFFFFFFFFFFFFFFFFFFFFFFFFFFFFFFF DUP2 EQ PUSH2 0xD25 JUMPI DUP2 DUP2 LT ISZERO PUSH2 0xD16 JUMPI DUP3 DUP2 DUP4 PUSH1 0x40 MLOAD PUSH32 0xFB8F41B200000000000000000000000000000000000000000000000000000000 DUP2 MSTORE PUSH1 0x4 ADD PUSH2 0xD0D SWAP4 SWAP3 SWAP2 SWAP1 PUSH2 0x1CBC JUMP JUMPDEST PUSH1 0x40 MLOAD DUP1 SWAP2 SUB SWAP1 REVERT JUMPDEST PUSH2 0xD24 DUP5 DUP5 DUP5 DUP5 SUB PUSH0 PUSH2 0xE9A JUMP JUMPDEST JUMPDEST POP POP POP POP JUMP JUMPDEST PUSH0 PUSH20 0xFFFFFFFFFFFFFFFFFFFFFFFFFFFFFFFFFFFFFFFF AND DUP4 PUSH20 0xFFFFFFFFFFFFFFFFFFFFFFFFFFFFFFFFFFFFFFFF AND SUB PUSH2 0xD9B JUMPI PUSH0 PUSH1 0x40 MLOAD PUSH32 0x96C6FD1E00000000000000000000000000000000000000000000000000000000 DUP2 MSTORE PUSH1 0x4 ADD PUSH2 0xD92 SWAP2 SWAP1 PUSH2 0x1CF1 JUMP JUMPDEST PUSH1 0x40 MLOAD DUP1 SWAP2 SUB SWAP1 REVERT JUMPDEST PUSH0 PUSH20 0xFFFFFFFFFFFFFFFFFFFFFFFFFFFFFFFFFFFFFFFF AND DUP3 PUSH20 0xFFFFFFFFFFFFFFFFFFFFFFFFFFFFFFFFFFFFFFFF AND SUB PUSH2 0xE0B JUMPI PUSH0 PUSH1 0x40 MLOAD PUSH32 0xEC442F0500000000000000000000000000000000000000000000000000000000 DUP2 MSTORE PUSH1 0x4 ADD PUSH2 0xE02 SWAP2 SWAP1 PUSH2 0x1CF1 JUMP JUMPDEST PUSH1 0x40 MLOAD DUP1 SWAP2 SUB SWAP1 REVERT JUMPDEST PUSH2 0xE16 DUP4 DUP4 DUP4 PUSH2 0x1069 JUMP JUMPDEST POP POP POP JUMP JUMPDEST PUSH0 PUSH20 0xFFFFFFFFFFFFFFFFFFFFFFFFFFFFFFFFFFFFFFFF AND DUP3 PUSH20 0xFFFFFFFFFFFFFFFFFFFFFFFFFFFFFFFFFFFFFFFF AND SUB PUSH2 0xE8B JUMPI PUSH0 PUSH1 0x40 MLOAD PUSH32 0xEC442F0500000000000000000000000000000000000000000000000000000000 DUP2 MSTORE PUSH1 0x4 ADD PUSH2 0xE82 SWAP2 SWAP1 PUSH2 0x1CF1 JUMP JUMPDEST PUSH1 0x40 MLOAD DUP1 SWAP2 SUB SWAP1 REVERT JUMPDEST PUSH2 0xE96 PUSH0 DUP4 DUP4 PUSH2 0x1069 JUMP JUMPDEST POP POP JUMP JUMPDEST PUSH0 PUSH20 0xFFFFFFFFFFFFFFFFFFFFFFFFFFFFFFFFFFFFFFFF AND DUP5 PUSH20 0xFFFFFFFFFFFFFFFFFFFFFFFFFFFFFFFFFFFFFFFF AND SUB PUSH2 0xF0A JUMPI PUSH0 PUSH1 0x40 MLOAD PUSH32 0xE602DF0500000000000000000000000000000000000000000000000000000000 DUP2 MSTORE PUSH1 0x4 ADD PUSH2 0xF01 SWAP2 SWAP1 PUSH2 0x1CF1 JUMP JUMPDEST PUSH1 0x40 MLOAD DUP1 SWAP2 SUB SWAP1 REVERT JUMPDEST PUSH0 PUSH20 0xFFFFFFFFFFFFFFFFFFFFFFFFFFFFFFFFFFFFFFFF AND DUP4 PUSH20 0xFFFFFFFFFFFFFFFFFFFFFFFFFFFFFFFFFFFFFFFF AND SUB PUSH2 0xF7A JUMPI PUSH0 PUSH1 0x40 MLOAD PUSH32 0x94280D6200000000000000000000000000000000000000000000000000000000 DUP2 MSTORE PUSH1 0x4 ADD PUSH2 0xF71 SWAP2 SWAP1 PUSH2 0x1CF1 JUMP JUMPDEST PUSH1 0x40 MLOAD DUP1 SWAP2 SUB SWAP1 REVERT JUMPDEST DUP2 PUSH1 0x1 PUSH0 DUP7 PUSH20 0xFFFFFFFFFFFFFFFFFFFFFFFFFFFFFFFFFFFFFFFF AND PUSH20 0xFFFFFFFFFFFFFFFFFFFFFFFFFFFFFFFFFFFFFFFF AND DUP2 MSTORE PUSH1 0x20 ADD SWAP1 DUP2 MSTORE PUSH1 0x20 ADD PUSH0 KECCAK256 PUSH0 DUP6 PUSH20 0xFFFFFFFFFFFFFFFFFFFFFFFFFFFFFFFFFFFFFFFF AND PUSH20 0xFFFFFFFFFFFFFFFFFFFFFFFFFFFFFFFFFFFFFFFF AND DUP2 MSTORE PUSH1 0x20 ADD SWAP1 DUP2 MSTORE PUSH1 0x20 ADD PUSH0 KECCAK256 DUP2 SWAP1 SSTORE POP DUP1 ISZERO PUSH2 0x1063 JUMPI DUP3 PUSH20 0xFFFFFFFFFFFFFFFFFFFFFFFFFFFFFFFFFFFFFFFF AND DUP5 PUSH20 0xFFFFFFFFFFFFFFFFFFFFFFFFFFFFFFFFFFFFFFFF AND PUSH32 0x8C5BE1E5EBEC7D5BD14F71427D1E84F3DD0314C0F7B2291E5B200AC8C7C3B925 DUP5 PUSH1 0x40 MLOAD PUSH2 0x105A SWAP2 SWAP1 PUSH2 0x14A4 JUMP JUMPDEST PUSH1 0x40 MLOAD DUP1 SWAP2 SUB SWAP1 LOG3 JUMPDEST POP POP POP POP JUMP JUMPDEST PUSH0 PUSH20 0xFFFFFFFFFFFFFFFFFFFFFFFFFFFFFFFFFFFFFFFF AND DUP4 PUSH20 0xFFFFFFFFFFFFFFFFFFFFFFFFFFFFFFFFFFFFFFFF AND SUB PUSH2 0x10B9 JUMPI DUP1 PUSH1 0x2 PUSH0 DUP3 DUP3 SLOAD PUSH2 0x10AD SWAP2 SWAP1 PUSH2 0x19D6 JUMP JUMPDEST SWAP3 POP POP DUP2 SWAP1 SSTORE POP PUSH2 0x1187 JUMP JUMPDEST PUSH0 DUP1 PUSH0 DUP6 PUSH20 0xFFFFFFFFFFFFFFFFFFFFFFFFFFFFFFFFFFFFFFFF AND PUSH20 0xFFFFFFFFFFFFFFFFFFFFFFFFFFFFFFFFFFFFFFFF AND DUP2 MSTORE PUSH1 0x20 ADD SWAP1 DUP2 MSTORE PUSH1 0x20 ADD PUSH0 KECCAK256 SLOAD SWAP1 POP DUP2 DUP2 LT ISZERO PUSH2 0x1142 JUMPI DUP4 DUP2 DUP4 PUSH1 0x40 MLOAD PUSH32 0xE450D38C00000000000000000000000000000000000000000000000000000000 DUP2 MSTORE PUSH1 0x4 ADD PUSH2 0x1139 SWAP4 SWAP3 SWAP2 SWAP1 PUSH2 0x1CBC JUMP JUMPDEST PUSH1 0x40 MLOAD DUP1 SWAP2 SUB SWAP1 REVERT JUMPDEST DUP2 DUP2 SUB PUSH0 DUP1 DUP7 PUSH20 0xFFFFFFFFFFFFFFFFFFFFFFFFFFFFFFFFFFFFFFFF AND PUSH20 0xFFFFFFFFFFFFFFFFFFFFFFFFFFFFFFFFFFFFFFFF AND DUP2 MSTORE PUSH1 0x20 ADD SWAP1 DUP2 MSTORE PUSH1 0x20 ADD PUSH0 KECCAK256 DUP2 SWAP1 SSTORE POP POP JUMPDEST PUSH0 PUSH20 0xFFFFFFFFFFFFFFFFFFFFFFFFFFFFFFFFFFFFFFFF AND DUP3 PUSH20 0xFFFFFFFFFFFFFFFFFFFFFFFFFFFFFFFFFFFFFFFF AND SUB PUSH2 0x11CE JUMPI DUP1 PUSH1 0x2 PUSH0 DUP3 DUP3 SLOAD SUB SWAP3 POP POP DUP2 SWAP1 SSTORE POP PUSH2 0x1218 JUMP JUMPDEST DUP1 PUSH0 DUP1 DUP5 PUSH20 0xFFFFFFFFFFFFFFFFFFFFFFFFFFFFFFFFFFFFFFFF AND PUSH20 0xFFFFFFFFFFFFFFFFFFFFFFFFFFFFFFFFFFFFFFFF AND DUP2 MSTORE PUSH1 0x20 ADD SWAP1 DUP2 MSTORE PUSH1 0x20 ADD PUSH0 KECCAK256 PUSH0 DUP3 DUP3 SLOAD ADD SWAP3 POP POP DUP2 SWAP1 SSTORE POP JUMPDEST DUP2 PUSH20 0xFFFFFFFFFFFFFFFFFFFFFFFFFFFFFFFFFFFFFFFF AND DUP4 PUSH20 0xFFFFFFFFFFFFFFFFFFFFFFFFFFFFFFFFFFFFFFFF AND PUSH32 0xDDF252AD1BE2C89B69C2B068FC378DAA952BA7F163C4A11628F55A4DF523B3EF DUP4 PUSH1 0x40 MLOAD PUSH2 0x1275 SWAP2 SWAP1 PUSH2 0x14A4 JUMP JUMPDEST PUSH1 0x40 MLOAD DUP1 SWAP2 SUB SWAP1 LOG3 POP POP POP JUMP JUMPDEST PUSH0 DUP2 MLOAD SWAP1 POP SWAP2 SWAP1 POP JUMP JUMPDEST PUSH0 DUP3 DUP3 MSTORE PUSH1 0x20 DUP3 ADD SWAP1 POP SWAP3 SWAP2 POP POP JUMP JUMPDEST DUP3 DUP2 DUP4 MCOPY PUSH0 DUP4 DUP4 ADD MSTORE POP POP POP JUMP JUMPDEST PUSH0 PUSH1 0x1F NOT PUSH1 0x1F DUP4 ADD AND SWAP1 POP SWAP2 SWAP1 POP JUMP JUMPDEST PUSH0 PUSH2 0x12C4 DUP3 PUSH2 0x1282 JUMP JUMPDEST PUSH2 0x12CE DUP2 DUP6 PUSH2 0x128C JUMP JUMPDEST SWAP4 POP PUSH2 0x12DE DUP2 DUP6 PUSH1 0x20 DUP7 ADD PUSH2 0x129C JUMP JUMPDEST PUSH2 0x12E7 DUP2 PUSH2 0x12AA JUMP JUMPDEST DUP5 ADD SWAP2 POP POP SWAP3 SWAP2 POP POP JUMP JUMPDEST PUSH0 PUSH1 0x20 DUP3 ADD SWAP1 POP DUP2 DUP2 SUB PUSH0 DUP4 ADD MSTORE PUSH2 0x130A DUP2 DUP5 PUSH2 0x12BA JUMP JUMPDEST SWAP1 POP SWAP3 SWAP2 POP POP JUMP JUMPDEST PUSH0 DUP1 REVERT JUMPDEST PUSH0 DUP1 REVERT JUMPDEST PUSH0 PUSH20 0xFFFFFFFFFFFFFFFFFFFFFFFFFFFFFFFFFFFFFFFF DUP3 AND SWAP1 POP SWAP2 SWAP1 POP JUMP JUMPDEST PUSH0 PUSH2 0x1343 DUP3 PUSH2 0x131A JUMP JUMPDEST SWAP1 POP SWAP2 SWAP1 POP JUMP JUMPDEST PUSH2 0x1353 DUP2 PUSH2 0x1339 JUMP JUMPDEST DUP2 EQ PUSH2 0x135D JUMPI PUSH0 DUP1 REVERT JUMPDEST POP JUMP JUMPDEST PUSH0 DUP2 CALLDATALOAD SWAP1 POP PUSH2 0x136E DUP2 PUSH2 0x134A JUMP JUMPDEST SWAP3 SWAP2 POP POP JUMP JUMPDEST PUSH0 DUP2 SWAP1 POP SWAP2 SWAP1 POP JUMP JUMPDEST PUSH2 0x1386 DUP2 PUSH2 0x1374 JUMP JUMPDEST DUP2 EQ PUSH2 0x1390 JUMPI PUSH0 DUP1 REVERT JUMPDEST POP JUMP JUMPDEST PUSH0 DUP2 CALLDATALOAD SWAP1 POP PUSH2 0x13A1 DUP2 PUSH2 0x137D JUMP JUMPDEST SWAP3 SWAP2 POP POP JUMP JUMPDEST PUSH0 DUP1 PUSH1 0x40 DUP4 DUP6 SUB SLT ISZERO PUSH2 0x13BD JUMPI PUSH2 0x13BC PUSH2 0x1312 JUMP JUMPDEST JUMPDEST PUSH0 PUSH2 0x13CA DUP6 DUP3 DUP7 ADD PUSH2 0x1360 JUMP JUMPDEST SWAP3 POP POP PUSH1 0x20 PUSH2 0x13DB DUP6 DUP3 DUP7 ADD PUSH2 0x1393 JUMP JUMPDEST SWAP2 POP POP SWAP3 POP SWAP3 SWAP1 POP JUMP JUMPDEST PUSH0 DUP2 ISZERO ISZERO SWAP1 POP SWAP2 SWAP1 POP JUMP JUMPDEST PUSH2 0x13F9 DUP2 PUSH2 0x13E5 JUMP JUMPDEST DUP3 MSTORE POP POP JUMP JUMPDEST PUSH0 PUSH1 0x20 DUP3 ADD SWAP1 POP PUSH2 0x1412 PUSH0 DUP4 ADD DUP5 PUSH2 0x13F0 JUMP JUMPDEST SWAP3 SWAP2 POP POP JUMP JUMPDEST PUSH0 PUSH1 0x20 DUP3 DUP5 SUB SLT ISZERO PUSH2 0x142D JUMPI PUSH2 0x142C PUSH2 0x1312 JUMP JUMPDEST JUMPDEST PUSH0 PUSH2 0x143A DUP5 DUP3 DUP6 ADD PUSH2 0x1393 JUMP JUMPDEST SWAP2 POP POP SWAP3 SWAP2 POP POP JUMP JUMPDEST PUSH2 0x144C DUP2 PUSH2 0x1339 JUMP JUMPDEST DUP3 MSTORE POP POP JUMP JUMPDEST PUSH2 0x145B DUP2 PUSH2 0x1374 JUMP JUMPDEST DUP3 MSTORE POP POP JUMP JUMPDEST PUSH0 PUSH1 0x80 DUP3 ADD SWAP1 POP PUSH2 0x1474 PUSH0 DUP4 ADD DUP8 PUSH2 0x1443 JUMP JUMPDEST PUSH2 0x1481 PUSH1 0x20 DUP4 ADD DUP7 PUSH2 0x1452 JUMP JUMPDEST PUSH2 0x148E PUSH1 0x40 DUP4 ADD DUP6 PUSH2 0x1452 JUMP JUMPDEST PUSH2 0x149B PUSH1 0x60 DUP4 ADD DUP5 PUSH2 0x13F0 JUMP JUMPDEST SWAP6 SWAP5 POP POP POP POP POP JUMP JUMPDEST PUSH0 PUSH1 0x20 DUP3 ADD SWAP1 POP PUSH2 0x14B7 PUSH0 DUP4 ADD DUP5 PUSH2 0x1452 JUMP JUMPDEST SWAP3 SWAP2 POP POP JUMP JUMPDEST PUSH0 PUSH1 0x80 DUP3 ADD SWAP1 POP PUSH2 0x14D0 PUSH0 DUP4 ADD DUP8 PUSH2 0x1452 JUMP JUMPDEST PUSH2 0x14DD PUSH1 0x20 DUP4 ADD DUP7 PUSH2 0x1443 JUMP JUMPDEST PUSH2 0x14EA PUSH1 0x40 DUP4 ADD DUP6 PUSH2 0x1452 JUMP JUMPDEST PUSH2 0x14F7 PUSH1 0x60 DUP4 ADD DUP5 PUSH2 0x13F0 JUMP JUMPDEST SWAP6 SWAP5 POP POP POP POP POP JUMP JUMPDEST PUSH0 DUP1 PUSH0 PUSH1 0x60 DUP5 DUP7 SUB SLT ISZERO PUSH2 0x1517 JUMPI PUSH2 0x1516 PUSH2 0x1312 JUMP JUMPDEST JUMPDEST PUSH0 PUSH2 0x1524 DUP7 DUP3 DUP8 ADD PUSH2 0x1360 JUMP JUMPDEST SWAP4 POP POP PUSH1 0x20 PUSH2 0x1535 DUP7 DUP3 DUP8 ADD PUSH2 0x1360 JUMP JUMPDEST SWAP3 POP POP PUSH1 0x40 PUSH2 0x1546 DUP7 DUP3 DUP8 ADD PUSH2 0x1393 JUMP JUMPDEST SWAP2 POP POP SWAP3 POP SWAP3 POP SWAP3 JUMP JUMPDEST PUSH0 DUP1 REVERT JUMPDEST PUSH0 DUP1 REVERT JUMPDEST PUSH0 DUP1 REVERT JUMPDEST PUSH0 DUP1 DUP4 PUSH1 0x1F DUP5 ADD SLT PUSH2 0x1571 JUMPI PUSH2 0x1570 PUSH2 0x1550 JUMP JUMPDEST JUMPDEST DUP3 CALLDATALOAD SWAP1 POP PUSH8 0xFFFFFFFFFFFFFFFF DUP2 GT ISZERO PUSH2 0x158E JUMPI PUSH2 0x158D PUSH2 0x1554 JUMP JUMPDEST JUMPDEST PUSH1 0x20 DUP4 ADD SWAP2 POP DUP4 PUSH1 0x20 DUP3 MUL DUP4 ADD GT ISZERO PUSH2 0x15AA JUMPI PUSH2 0x15A9 PUSH2 0x1558 JUMP JUMPDEST JUMPDEST SWAP3 POP SWAP3 SWAP1 POP JUMP JUMPDEST PUSH0 DUP1 PUSH0 DUP1 PUSH1 0x40 DUP6 DUP8 SUB SLT ISZERO PUSH2 0x15C9 JUMPI PUSH2 0x15C8 PUSH2 0x1312 JUMP JUMPDEST JUMPDEST PUSH0 DUP6 ADD CALLDATALOAD PUSH8 0xFFFFFFFFFFFFFFFF DUP2 GT ISZERO PUSH2 0x15E6 JUMPI PUSH2 0x15E5 PUSH2 0x1316 JUMP JUMPDEST JUMPDEST PUSH2 0x15F2 DUP8 DUP3 DUP9 ADD PUSH2 0x155C JUMP JUMPDEST SWAP5 POP SWAP5 POP POP PUSH1 0x20 DUP6 ADD CALLDATALOAD PUSH8 0xFFFFFFFFFFFFFFFF DUP2 GT ISZERO PUSH2 0x1615 JUMPI PUSH2 0x1614 PUSH2 0x1316 JUMP JUMPDEST JUMPDEST PUSH2 0x1621 DUP8 DUP3 DUP9 ADD PUSH2 0x155C JUMP JUMPDEST SWAP3 POP SWAP3 POP POP SWAP3 SWAP6 SWAP2 SWAP5 POP SWAP3 POP JUMP JUMPDEST PUSH0 PUSH1 0xFF DUP3 AND SWAP1 POP SWAP2 SWAP1 POP JUMP JUMPDEST PUSH2 0x1644 DUP2 PUSH2 0x162F JUMP JUMPDEST DUP3 MSTORE POP POP JUMP JUMPDEST PUSH0 PUSH1 0x20 DUP3 ADD SWAP1 POP PUSH2 0x165D PUSH0 DUP4 ADD DUP5 PUSH2 0x163B JUMP JUMPDEST SWAP3 SWAP2 POP POP JUMP JUMPDEST PUSH0 PUSH1 0x20 DUP3 DUP5 SUB SLT ISZERO PUSH2 0x1678 JUMPI PUSH2 0x1677 PUSH2 0x1312 JUMP JUMPDEST JUMPDEST PUSH0 PUSH2 0x1685 DUP5 DUP3 DUP6 ADD PUSH2 0x1360 JUMP JUMPDEST SWAP2 POP POP SWAP3 SWAP2 POP POP JUMP JUMPDEST PUSH0 DUP1 PUSH1 0x40 DUP4 DUP6 SUB SLT ISZERO PUSH2 0x16A4 JUMPI PUSH2 0x16A3 PUSH2 0x1312 JUMP JUMPDEST JUMPDEST PUSH0 PUSH2 0x16B1 DUP6 DUP3 DUP7 ADD PUSH2 0x1360 JUMP JUMPDEST SWAP3 POP POP PUSH1 0x20 PUSH2 0x16C2 DUP6 DUP3 DUP7 ADD PUSH2 0x1360 JUMP JUMPDEST SWAP2 POP POP SWAP3 POP SWAP3 SWAP1 POP JUMP JUMPDEST PUSH32 0x4E487B7100000000000000000000000000000000000000000000000000000000 PUSH0 MSTORE PUSH1 0x22 PUSH1 0x4 MSTORE PUSH1 0x24 PUSH0 REVERT JUMPDEST PUSH0 PUSH1 0x2 DUP3 DIV SWAP1 POP PUSH1 0x1 DUP3 AND DUP1 PUSH2 0x1710 JUMPI PUSH1 0x7F DUP3 AND SWAP2 POP JUMPDEST PUSH1 0x20 DUP3 LT DUP2 SUB PUSH2 0x1723 JUMPI PUSH2 0x1722 PUSH2 0x16CC JUMP JUMPDEST JUMPDEST POP SWAP2 SWAP1 POP JUMP JUMPDEST PUSH32 0x546865206C656E677468206F66205461736B7320616E64205265716972656420 PUSH0 DUP3 ADD MSTORE PUSH32 0x54696D657320646F6E2774206D61746368212121000000000000000000000000 PUSH1 0x20 DUP3 ADD MSTORE POP JUMP JUMPDEST PUSH0 PUSH2 0x1783 PUSH1 0x34 DUP4 PUSH2 0x128C JUMP JUMPDEST SWAP2 POP PUSH2 0x178E DUP3 PUSH2 0x1729 JUMP JUMPDEST PUSH1 0x40 DUP3 ADD SWAP1 POP SWAP2 SWAP1 POP JUMP JUMPDEST PUSH0 PUSH1 0x20 DUP3 ADD SWAP1 POP DUP2 DUP2 SUB PUSH0 DUP4 ADD MSTORE PUSH2 0x17B0 DUP2 PUSH2 0x1777 JUMP JUMPDEST SWAP1 POP SWAP2 SWAP1 POP JUMP JUMPDEST PUSH32 0x4174206C656173742068617665206F6E65207461736B20616E64207265716972 PUSH0 DUP3 ADD MSTORE PUSH32 0x65642074696D6573212121000000000000000000000000000000000000000000 PUSH1 0x20 DUP3 ADD MSTORE POP JUMP JUMPDEST PUSH0 PUSH2 0x1811 PUSH1 0x2B DUP4 PUSH2 0x128C JUMP JUMPDEST SWAP2 POP PUSH2 0x181C DUP3 PUSH2 0x17B7 JUMP JUMPDEST PUSH1 0x40 DUP3 ADD SWAP1 POP SWAP2 SWAP1 POP JUMP JUMPDEST PUSH0 PUSH1 0x20 DUP3 ADD SWAP1 POP DUP2 DUP2 SUB PUSH0 DUP4 ADD MSTORE PUSH2 0x183E DUP2 PUSH2 0x1805 JUMP JUMPDEST SWAP1 POP SWAP2 SWAP1 POP JUMP JUMPDEST PUSH32 0x4E487B7100000000000000000000000000000000000000000000000000000000 PUSH0 MSTORE PUSH1 0x32 PUSH1 0x4 MSTORE PUSH1 0x24 PUSH0 REVERT JUMPDEST PUSH32 0x526577617264206D75737420626520706F736974766521212100000000000000 PUSH0 DUP3 ADD MSTORE POP JUMP JUMPDEST PUSH0 PUSH2 0x18A6 PUSH1 0x19 DUP4 PUSH2 0x128C JUMP JUMPDEST SWAP2 POP PUSH2 0x18B1 DUP3 PUSH2 0x1872 JUMP JUMPDEST PUSH1 0x20 DUP3 ADD SWAP1 POP SWAP2 SWAP1 POP JUMP JUMPDEST PUSH0 PUSH1 0x20 DUP3 ADD SWAP1 POP DUP2 DUP2 SUB PUSH0 DUP4 ADD MSTORE PUSH2 0x18D3 DUP2 PUSH2 0x189A JUMP JUMPDEST SWAP1 POP SWAP2 SWAP1 POP JUMP JUMPDEST PUSH32 0x5265717569726564205375626D697373696F6E206D75737420626520706F7374 PUSH0 DUP3 ADD MSTORE PUSH32 0x6976652121210000000000000000000000000000000000000000000000000000 PUSH1 0x20 DUP3 ADD MSTORE POP JUMP JUMPDEST PUSH0 PUSH2 0x1934 PUSH1 0x26 DUP4 PUSH2 0x128C JUMP JUMPDEST SWAP2 POP PUSH2 0x193F DUP3 PUSH2 0x18DA JUMP JUMPDEST PUSH1 0x40 DUP3 ADD SWAP1 POP SWAP2 SWAP1 POP JUMP JUMPDEST PUSH0 PUSH1 0x20 DUP3 ADD SWAP1 POP DUP2 DUP2 SUB PUSH0 DUP4 ADD MSTORE PUSH2 0x1961 DUP2 PUSH2 0x1928 JUMP JUMPDEST SWAP1 POP SWAP2 SWAP1 POP JUMP JUMPDEST PUSH32 0x4E487B7100000000000000000000000000000000000000000000000000000000 PUSH0 MSTORE PUSH1 0x11 PUSH1 0x4 MSTORE PUSH1 0x24 PUSH0 REVERT JUMPDEST PUSH0 PUSH2 0x199F DUP3 PUSH2 0x1374 JUMP JUMPDEST SWAP2 POP PUSH2 0x19AA DUP4 PUSH2 0x1374 JUMP JUMPDEST SWAP3 POP DUP3 DUP3 MUL PUSH2 0x19B8 DUP2 PUSH2 0x1374 JUMP JUMPDEST SWAP2 POP DUP3 DUP3 DIV DUP5 EQ DUP4 ISZERO OR PUSH2 0x19CF JUMPI PUSH2 0x19CE PUSH2 0x1968 JUMP JUMPDEST JUMPDEST POP SWAP3 SWAP2 POP POP JUMP JUMPDEST PUSH0 PUSH2 0x19E0 DUP3 PUSH2 0x1374 JUMP JUMPDEST SWAP2 POP PUSH2 0x19EB DUP4 PUSH2 0x1374 JUMP JUMPDEST SWAP3 POP DUP3 DUP3 ADD SWAP1 POP DUP1 DUP3 GT ISZERO PUSH2 0x1A03 JUMPI PUSH2 0x1A02 PUSH2 0x1968 JUMP JUMPDEST JUMPDEST SWAP3 SWAP2 POP POP JUMP JUMPDEST PUSH0 PUSH1 0x40 DUP3 ADD SWAP1 POP PUSH2 0x1A1C PUSH0 DUP4 ADD DUP6 PUSH2 0x1452 JUMP JUMPDEST PUSH2 0x1A29 PUSH1 0x20 DUP4 ADD DUP5 PUSH2 0x1452 JUMP JUMPDEST SWAP4 SWAP3 POP POP POP JUMP JUMPDEST PUSH0 PUSH2 0x1A3A DUP3 PUSH2 0x1374 JUMP JUMPDEST SWAP2 POP PUSH32 0xFFFFFFFFFFFFFFFFFFFFFFFFFFFFFFFFFFFFFFFFFFFFFFFFFFFFFFFFFFFFFFFF DUP3 SUB PUSH2 0x1A6C JUMPI PUSH2 0x1A6B PUSH2 0x1968 JUMP JUMPDEST JUMPDEST PUSH1 0x1 DUP3 ADD SWAP1 POP SWAP2 SWAP1 POP JUMP JUMPDEST PUSH32 0x43757272656E74205461736B20686173206265656E20636F6D706C6574656421 PUSH0 DUP3 ADD MSTORE PUSH32 0x2121000000000000000000000000000000000000000000000000000000000000 PUSH1 0x20 DUP3 ADD MSTORE POP JUMP JUMPDEST PUSH0 PUSH2 0x1AD1 PUSH1 0x22 DUP4 PUSH2 0x128C JUMP JUMPDEST SWAP2 POP PUSH2 0x1ADC DUP3 PUSH2 0x1A77 JUMP JUMPDEST PUSH1 0x40 DUP3 ADD SWAP1 POP SWAP2 SWAP1 POP JUMP JUMPDEST PUSH0 PUSH1 0x20 DUP3 ADD SWAP1 POP DUP2 DUP2 SUB PUSH0 DUP4 ADD MSTORE PUSH2 0x1AFE DUP2 PUSH2 0x1AC5 JUMP JUMPDEST SWAP1 POP SWAP2 SWAP1 POP JUMP JUMPDEST PUSH32 0x4E6F207375626D697373696F6E20697320726571756972656421212100000000 PUSH0 DUP3 ADD MSTORE POP JUMP JUMPDEST PUSH0 PUSH2 0x1B39 PUSH1 0x1C DUP4 PUSH2 0x128C JUMP JUMPDEST SWAP2 POP PUSH2 0x1B44 DUP3 PUSH2 0x1B05 JUMP JUMPDEST PUSH1 0x20 DUP3 ADD SWAP1 POP SWAP2 SWAP1 POP JUMP JUMPDEST PUSH0 PUSH1 0x20 DUP3 ADD SWAP1 POP DUP2 DUP2 SUB PUSH0 DUP4 ADD MSTORE PUSH2 0x1B66 DUP2 PUSH2 0x1B2D JUMP JUMPDEST SWAP1 POP SWAP2 SWAP1 POP JUMP JUMPDEST PUSH32 0x5461736B20506F7374657220616E64205375626D697474657220697320746865 PUSH0 DUP3 ADD MSTORE PUSH32 0x2073616D65212121000000000000000000000000000000000000000000000000 PUSH1 0x20 DUP3 ADD MSTORE POP JUMP JUMPDEST PUSH0 PUSH2 0x1BC7 PUSH1 0x28 DUP4 PUSH2 0x128C JUMP JUMPDEST SWAP2 POP PUSH2 0x1BD2 DUP3 PUSH2 0x1B6D JUMP JUMPDEST PUSH1 0x40 DUP3 ADD SWAP1 POP SWAP2 SWAP1 POP JUMP JUMPDEST PUSH0 PUSH1 0x20 DUP3 ADD SWAP1 POP DUP2 DUP2 SUB PUSH0 DUP4 ADD MSTORE PUSH2 0x1BF4 DUP2 PUSH2 0x1BBB JUMP JUMPDEST SWAP1 POP SWAP2 SWAP1 POP JUMP JUMPDEST PUSH32 0x52657761726420686173206265656E2072656C656173656420666F7220746865 PUSH0 DUP3 ADD MSTORE PUSH32 0x2063757272656E74207375626D69747465722121210000000000000000000000 PUSH1 0x20 DUP3 ADD MSTORE POP JUMP JUMPDEST PUSH0 PUSH2 0x1C55 PUSH1 0x35 DUP4 PUSH2 0x128C JUMP JUMPDEST SWAP2 POP PUSH2 0x1C60 DUP3 PUSH2 0x1BFB JUMP JUMPDEST PUSH1 0x40 DUP3 ADD SWAP1 POP SWAP2 SWAP1 POP JUMP JUMPDEST PUSH0 PUSH1 0x20 DUP3 ADD SWAP1 POP DUP2 DUP2 SUB PUSH0 DUP4 ADD MSTORE PUSH2 0x1C82 DUP2 PUSH2 0x1C49 JUMP JUMPDEST SWAP1 POP SWAP2 SWAP1 POP JUMP JUMPDEST PUSH0 PUSH2 0x1C93 DUP3 PUSH2 0x1374 JUMP JUMPDEST SWAP2 POP PUSH2 0x1C9E DUP4 PUSH2 0x1374 JUMP JUMPDEST SWAP3 POP DUP3 DUP3 SUB SWAP1 POP DUP2 DUP2 GT ISZERO PUSH2 0x1CB6 JUMPI PUSH2 0x1CB5 PUSH2 0x1968 JUMP JUMPDEST JUMPDEST SWAP3 SWAP2 POP POP JUMP JUMPDEST PUSH0 PUSH1 0x60 DUP3 ADD SWAP1 POP PUSH2 0x1CCF PUSH0 DUP4 ADD DUP7 PUSH2 0x1443 JUMP JUMPDEST PUSH2 0x1CDC PUSH1 0x20 DUP4 ADD DUP6 PUSH2 0x1452 JUMP JUMPDEST PUSH2 0x1CE9 PUSH1 0x40 DUP4 ADD DUP5 PUSH2 0x1452 JUMP JUMPDEST SWAP5 SWAP4 POP POP POP POP JUMP JUMPDEST PUSH0 PUSH1 0x20 DUP3 ADD SWAP1 POP PUSH2 0x1D04 PUSH0 DUP4 ADD DUP5 PUSH2 0x1443 JUMP JUMPDEST SWAP3 SWAP2 POP POP JUMP INVALID LOG2 PUSH5 0x6970667358 0x22 SLT KECCAK256 0xF9 0xE6 SWAP14 GASLIMIT 0xE7 0xBA 0xE3 0xE5 0xE6 0xB6 ISZERO SGT 0xFB CALLDATALOAD BALANCE CREATE2 PUSH8 0x366FC3841F4F6A13 DUP3 0xA7 0xD9 0xDB 0xBD 0xEE LOG0 PUSH5 0x736F6C6343 STOP ADDMOD BYTE STOP CALLER "
				},
				"gasEstimates": {
					"creation": {
						"codeDepositCost": "1497600",
						"executionCost": "infinite",
						"totalCost": "infinite"
					},
					"external": {
						"TasksList(uint256)": "infinite",
						"addTasks(uint256[],uint256[])": "infinite",
						"allowance(address,address)": "infinite",
						"approve(address,uint256)": "infinite",
						"balanceOf(address)": "2896",
						"decimals()": "361",
						"getTask(uint256)": "infinite",
						"name()": "infinite",
						"nextTaskId()": "2513",
						"redeemReward(uint256)": "infinite",
						"symbol()": "infinite",
						"totalSupply()": "2455",
						"transfer(address,uint256)": "infinite",
						"transferFrom(address,address,uint256)": "infinite"
					}
				},
				"methodIdentifiers": {
					"TasksList(uint256)": "0b7879aa",
					"addTasks(uint256[],uint256[])": "257baa3a",
					"allowance(address,address)": "dd62ed3e",
					"approve(address,uint256)": "095ea7b3",
					"balanceOf(address)": "70a08231",
					"decimals()": "313ce567",
					"getTask(uint256)": "1d65e77e",
					"name()": "06fdde03",
					"nextTaskId()": "fdc3d8d7",
					"redeemReward(uint256)": "51a71b17",
					"symbol()": "95d89b41",
					"totalSupply()": "18160ddd",
					"transfer(address,uint256)": "a9059cbb",
					"transferFrom(address,address,uint256)": "23b872dd"
				}
			},
			"storageLayout": {
				"storage": [
					{
						"astId": 307,
						"contract": "CrowdSourcing/Crowdsourcing.sol:CrowdsourcingToken",
						"label": "_balances",
						"offset": 0,
						"slot": "0",
						"type": "t_mapping(t_address,t_uint256)"
					},
					{
						"astId": 313,
						"contract": "CrowdSourcing/Crowdsourcing.sol:CrowdsourcingToken",
						"label": "_allowances",
						"offset": 0,
						"slot": "1",
						"type": "t_mapping(t_address,t_mapping(t_address,t_uint256))"
					},
					{
						"astId": 315,
						"contract": "CrowdSourcing/Crowdsourcing.sol:CrowdsourcingToken",
						"label": "_totalSupply",
						"offset": 0,
						"slot": "2",
						"type": "t_uint256"
					},
					{
						"astId": 317,
						"contract": "CrowdSourcing/Crowdsourcing.sol:CrowdsourcingToken",
						"label": "_name",
						"offset": 0,
						"slot": "3",
						"type": "t_string_storage"
					},
					{
						"astId": 319,
						"contract": "CrowdSourcing/Crowdsourcing.sol:CrowdsourcingToken",
						"label": "_symbol",
						"offset": 0,
						"slot": "4",
						"type": "t_string_storage"
					},
					{
						"astId": 977,
						"contract": "CrowdSourcing/Crowdsourcing.sol:CrowdsourcingToken",
						"label": "nextTaskId",
						"offset": 0,
						"slot": "5",
						"type": "t_uint256"
					},
					{
						"astId": 983,
						"contract": "CrowdSourcing/Crowdsourcing.sol:CrowdsourcingToken",
						"label": "TaskRecordsList",
						"offset": 0,
						"slot": "6",
						"type": "t_mapping(t_uint256,t_mapping(t_address,t_bool))"
					},
					{
						"astId": 988,
						"contract": "CrowdSourcing/Crowdsourcing.sol:CrowdsourcingToken",
						"label": "TasksList",
						"offset": 0,
						"slot": "7",
						"type": "t_mapping(t_uint256,t_struct(Task)948_storage)"
					}
				],
				"types": {
					"t_address": {
						"encoding": "inplace",
						"label": "address",
						"numberOfBytes": "20"
					},
					"t_bool": {
						"encoding": "inplace",
						"label": "bool",
						"numberOfBytes": "1"
					},
					"t_mapping(t_address,t_bool)": {
						"encoding": "mapping",
						"key": "t_address",
						"label": "mapping(address => bool)",
						"numberOfBytes": "32",
						"value": "t_bool"
					},
					"t_mapping(t_address,t_mapping(t_address,t_uint256))": {
						"encoding": "mapping",
						"key": "t_address",
						"label": "mapping(address => mapping(address => uint256))",
						"numberOfBytes": "32",
						"value": "t_mapping(t_address,t_uint256)"
					},
					"t_mapping(t_address,t_uint256)": {
						"encoding": "mapping",
						"key": "t_address",
						"label": "mapping(address => uint256)",
						"numberOfBytes": "32",
						"value": "t_uint256"
					},
					"t_mapping(t_uint256,t_mapping(t_address,t_bool))": {
						"encoding": "mapping",
						"key": "t_uint256",
						"label": "mapping(uint256 => mapping(address => bool))",
						"numberOfBytes": "32",
						"value": "t_mapping(t_address,t_bool)"
					},
					"t_mapping(t_uint256,t_struct(Task)948_storage)": {
						"encoding": "mapping",
						"key": "t_uint256",
						"label": "mapping(uint256 => struct CrowdsourcingToken.Task)",
						"numberOfBytes": "32",
						"value": "t_struct(Task)948_storage"
					},
					"t_string_storage": {
						"encoding": "bytes",
						"label": "string",
						"numberOfBytes": "32"
					},
					"t_struct(Task)948_storage": {
						"encoding": "inplace",
						"label": "struct CrowdsourcingToken.Task",
						"members": [
							{
								"astId": 941,
								"contract": "CrowdSourcing/Crowdsourcing.sol:CrowdsourcingToken",
								"label": "poster",
								"offset": 0,
								"slot": "0",
								"type": "t_address"
							},
							{
								"astId": 943,
								"contract": "CrowdSourcing/Crowdsourcing.sol:CrowdsourcingToken",
								"label": "EachReward",
								"offset": 0,
								"slot": "1",
								"type": "t_uint256"
							},
							{
								"astId": 945,
								"contract": "CrowdSourcing/Crowdsourcing.sol:CrowdsourcingToken",
								"label": "ReqTimes",
								"offset": 0,
								"slot": "2",
								"type": "t_uint256"
							},
							{
								"astId": 947,
								"contract": "CrowdSourcing/Crowdsourcing.sol:CrowdsourcingToken",
								"label": "isCompleted",
								"offset": 0,
								"slot": "3",
								"type": "t_bool"
							}
						],
						"numberOfBytes": "128"
					},
					"t_uint256": {
						"encoding": "inplace",
						"label": "uint256",
						"numberOfBytes": "32"
					}
				}
			},
			"userdoc": {
				"kind": "user",
				"methods": {
					"addTasks(uint256[],uint256[])": {
						"notice": "Add Tasks/Mission and mint the token to those questions"
					},
					"getTask(uint256)": {
						"notice": "Get the task details"
					}
				},
				"version": 1
			}
		}
	}
}